{
  "contractName": "FunctionalSurveys",
  "abi": [
    {
      "inputs": [],
      "stateMutability": "nonpayable",
      "type": "constructor"
    },
    {
      "anonymous": false,
      "inputs": [
        {
          "indexed": true,
          "internalType": "address",
          "name": "owner",
          "type": "address"
        },
        {
          "indexed": true,
          "internalType": "address",
          "name": "spender",
          "type": "address"
        },
        {
          "indexed": false,
          "internalType": "uint256",
          "name": "value",
          "type": "uint256"
        }
      ],
      "name": "Approval",
      "type": "event"
    },
    {
      "anonymous": false,
      "inputs": [
        {
          "indexed": true,
          "internalType": "address",
          "name": "previousOwner",
          "type": "address"
        },
        {
          "indexed": true,
          "internalType": "address",
          "name": "newOwner",
          "type": "address"
        }
      ],
      "name": "OwnershipTransferred",
      "type": "event"
    },
    {
      "anonymous": false,
      "inputs": [
        {
          "indexed": true,
          "internalType": "address",
          "name": "from",
          "type": "address"
        },
        {
          "indexed": true,
          "internalType": "address",
          "name": "to",
          "type": "address"
        },
        {
          "indexed": false,
          "internalType": "uint256",
          "name": "value",
          "type": "uint256"
        }
      ],
      "name": "Transfer",
      "type": "event"
    },
    {
      "anonymous": false,
      "inputs": [
        {
          "indexed": false,
          "internalType": "uint256",
          "name": "nr",
          "type": "uint256"
        }
      ],
      "name": "surveyNumber",
      "type": "event"
    },
    {
      "inputs": [],
      "name": "_initialized",
      "outputs": [
        {
          "internalType": "bool",
          "name": "",
          "type": "bool"
        }
      ],
      "stateMutability": "view",
      "type": "function",
      "constant": true
    },
    {
      "inputs": [
        {
          "internalType": "address",
          "name": "owner",
          "type": "address"
        },
        {
          "internalType": "address",
          "name": "spender",
          "type": "address"
        }
      ],
      "name": "allowance",
      "outputs": [
        {
          "internalType": "uint256",
          "name": "",
          "type": "uint256"
        }
      ],
      "stateMutability": "view",
      "type": "function",
      "constant": true
    },
    {
      "inputs": [
        {
          "internalType": "address",
          "name": "spender",
          "type": "address"
        },
        {
          "internalType": "uint256",
          "name": "amount",
          "type": "uint256"
        }
      ],
      "name": "approve",
      "outputs": [
        {
          "internalType": "bool",
          "name": "",
          "type": "bool"
        }
      ],
      "stateMutability": "nonpayable",
      "type": "function"
    },
    {
      "inputs": [
        {
          "internalType": "address",
          "name": "account",
          "type": "address"
        }
      ],
      "name": "balanceOf",
      "outputs": [
        {
          "internalType": "uint256",
          "name": "",
          "type": "uint256"
        }
      ],
      "stateMutability": "view",
      "type": "function",
      "constant": true
    },
    {
      "inputs": [],
      "name": "decimals",
      "outputs": [
        {
          "internalType": "uint8",
          "name": "",
          "type": "uint8"
        }
      ],
      "stateMutability": "view",
      "type": "function",
      "constant": true
    },
    {
      "inputs": [
        {
          "internalType": "address",
          "name": "spender",
          "type": "address"
        },
        {
          "internalType": "uint256",
          "name": "subtractedValue",
          "type": "uint256"
        }
      ],
      "name": "decreaseAllowance",
      "outputs": [
        {
          "internalType": "bool",
          "name": "",
          "type": "bool"
        }
      ],
      "stateMutability": "nonpayable",
      "type": "function"
    },
    {
      "inputs": [
        {
          "internalType": "string",
          "name": "_valueName",
          "type": "string"
        }
      ],
      "name": "getUintStorage",
      "outputs": [
        {
          "internalType": "uint256",
          "name": "",
          "type": "uint256"
        }
      ],
      "stateMutability": "view",
      "type": "function",
      "constant": true
    },
    {
      "inputs": [
        {
          "internalType": "address",
          "name": "spender",
          "type": "address"
        },
        {
          "internalType": "uint256",
          "name": "addedValue",
          "type": "uint256"
        }
      ],
      "name": "increaseAllowance",
      "outputs": [
        {
          "internalType": "bool",
          "name": "",
          "type": "bool"
        }
      ],
      "stateMutability": "nonpayable",
      "type": "function"
    },
    {
      "inputs": [],
      "name": "name",
      "outputs": [
        {
          "internalType": "string",
          "name": "",
          "type": "string"
        }
      ],
      "stateMutability": "view",
      "type": "function",
      "constant": true
    },
    {
      "inputs": [],
      "name": "owner",
      "outputs": [
        {
          "internalType": "address",
          "name": "",
          "type": "address"
        }
      ],
      "stateMutability": "view",
      "type": "function",
      "constant": true
    },
    {
      "inputs": [],
      "name": "renounceOwnership",
      "outputs": [],
      "stateMutability": "nonpayable",
      "type": "function"
    },
    {
      "inputs": [],
      "name": "symbol",
      "outputs": [
        {
          "internalType": "string",
          "name": "",
          "type": "string"
        }
      ],
      "stateMutability": "view",
      "type": "function",
      "constant": true
    },
    {
      "inputs": [],
      "name": "totalSupply",
      "outputs": [
        {
          "internalType": "uint256",
          "name": "",
          "type": "uint256"
        }
      ],
      "stateMutability": "view",
      "type": "function",
      "constant": true
    },
    {
      "inputs": [
        {
          "internalType": "address",
          "name": "recipient",
          "type": "address"
        },
        {
          "internalType": "uint256",
          "name": "amount",
          "type": "uint256"
        }
      ],
      "name": "transfer",
      "outputs": [
        {
          "internalType": "bool",
          "name": "",
          "type": "bool"
        }
      ],
      "stateMutability": "nonpayable",
      "type": "function"
    },
    {
      "inputs": [
        {
          "internalType": "address",
          "name": "sender",
          "type": "address"
        },
        {
          "internalType": "address",
          "name": "recipient",
          "type": "address"
        },
        {
          "internalType": "uint256",
          "name": "amount",
          "type": "uint256"
        }
      ],
      "name": "transferFrom",
      "outputs": [
        {
          "internalType": "bool",
          "name": "",
          "type": "bool"
        }
      ],
      "stateMutability": "nonpayable",
      "type": "function"
    },
    {
      "inputs": [
        {
          "internalType": "address",
          "name": "newOwner",
          "type": "address"
        }
      ],
      "name": "transferOwnership",
      "outputs": [],
      "stateMutability": "nonpayable",
      "type": "function"
    },
    {
      "inputs": [],
      "name": "initialize",
      "outputs": [],
      "stateMutability": "nonpayable",
      "type": "function"
    },
    {
      "inputs": [
        {
          "internalType": "uint256",
          "name": "_ofNumber",
          "type": "uint256"
        }
      ],
      "name": "getSurveyName",
      "outputs": [
        {
          "internalType": "string",
          "name": "",
          "type": "string"
        }
      ],
      "stateMutability": "view",
      "type": "function",
      "constant": true
    },
    {
      "inputs": [
        {
          "internalType": "string",
          "name": "_name",
          "type": "string"
        }
      ],
      "name": "getChoices",
      "outputs": [
        {
          "internalType": "string",
          "name": "",
          "type": "string"
        }
      ],
      "stateMutability": "view",
      "type": "function",
      "constant": true
    },
    {
      "inputs": [
        {
          "internalType": "string",
          "name": "_name",
          "type": "string"
        },
        {
          "internalType": "string",
          "name": "_questions",
          "type": "string"
        },
        {
          "internalType": "uint256",
          "name": "_participantsAllowed",
          "type": "uint256"
        },
        {
          "internalType": "uint256",
          "name": "_valueOfSurvey",
          "type": "uint256"
        }
      ],
      "name": "setSurvey",
      "outputs": [],
      "stateMutability": "payable",
      "type": "function",
      "payable": true
    },
    {
      "inputs": [
        {
          "internalType": "string",
          "name": "_name",
          "type": "string"
        },
        {
          "internalType": "string",
          "name": "_answers",
          "type": "string"
        }
      ],
      "name": "answerSurvey",
      "outputs": [],
      "stateMutability": "nonpayable",
      "type": "function"
    }
  ],
  "bytecode": "0x60806040523480156200001157600080fd5b506103e86040518060400160405280600b81526020017f537572766579546f6b656e0000000000000000000000000000000000000000008152506040518060400160405280600381526020017f5356540000000000000000000000000000000000000000000000000000000000815250816003908051906020019062000099929190620004ab565b508060049080519060200190620000b2929190620004ab565b506012600560006101000a81548160ff021916908360ff16021790555050506000620000e3620001bb60201b60201c565b905080600560016101000a81548173ffffffffffffffffffffffffffffffffffffffff021916908373ffffffffffffffffffffffffffffffffffffffff1602179055508073ffffffffffffffffffffffffffffffffffffffff16600073ffffffffffffffffffffffffffffffffffffffff167f8be0079c531659141344cd1fd0a4f28419497f9722a3daafe3b4186f6b6457e060405160405180910390a3506000670de0b6b3a764000082029050620001a33382620001c360201b60201c565b5050620001b5620003a160201b60201c565b62000551565b600033905090565b600073ffffffffffffffffffffffffffffffffffffffff168273ffffffffffffffffffffffffffffffffffffffff16141562000267576040517f08c379a000000000000000000000000000000000000000000000000000000000815260040180806020018281038252601f8152602001807f45524332303a206d696e7420746f20746865207a65726f20616464726573730081525060200191505060405180910390fd5b6200027b600083836200041d60201b60201c565b62000297816002546200042260201b620022bb1790919060201c565b600281905550620002f5816000808573ffffffffffffffffffffffffffffffffffffffff1673ffffffffffffffffffffffffffffffffffffffff168152602001908152602001600020546200042260201b620022bb1790919060201c565b6000808473ffffffffffffffffffffffffffffffffffffffff1673ffffffffffffffffffffffffffffffffffffffff168152602001908152602001600020819055508173ffffffffffffffffffffffffffffffffffffffff16600073ffffffffffffffffffffffffffffffffffffffff167fddf252ad1be2c89b69c2b068fc378daa952ba7f163c4a11628f55a4df523b3ef836040518082815260200191505060405180910390a35050565b600f60009054906101000a900460ff1615620003bc57600080fd5b6000600a60405180807f746f74616c537572766579730000000000000000000000000000000000000000815250600c0190509081526020016040518091039020819055506001600f60006101000a81548160ff021916908315150217905550565b505050565b600080828401905083811015620004a1576040517f08c379a000000000000000000000000000000000000000000000000000000000815260040180806020018281038252601b8152602001807f536166654d6174683a206164646974696f6e206f766572666c6f77000000000081525060200191505060405180910390fd5b8091505092915050565b828054600181600116156101000203166002900490600052602060002090601f016020900481019282601f10620004ee57805160ff19168380011785556200051f565b828001600101855582156200051f579182015b828111156200051e57825182559160200191906001019062000501565b5b5090506200052e919062000532565b5090565b5b808211156200054d57600081600090555060010162000533565b5090565b612ac280620005616000396000f3fe60806040526004361061012a5760003560e01c8063715018a6116100ab57806395d89b411161006f57806395d89b41146108c3578063a457c2d714610953578063a9059cbb146109c4578063c5b4471214610a35578063dd62ed3e14610b94578063f2fde38b14610c195761012a565b8063715018a61461063a578063739f213f146106515780637886e7aa146107055780638129fc1c1461086b5780638da5cb5b146108825761012a565b80633072cf60116100f25780633072cf601461042d578063313ce5671461045a578063395093511461048857806365ae67c8146104f957806370a08231146105d55761012a565b806306fdde031461012f578063095ea7b3146101bf57806318160ddd1461023057806323b872dd1461025b57806326a38ad5146102ec575b600080fd5b34801561013b57600080fd5b50610144610c6a565b6040518080602001828103825283818151815260200191508051906020019080838360005b83811015610184578082015181840152602081019050610169565b50505050905090810190601f1680156101b15780820380516001836020036101000a031916815260200191505b509250505060405180910390f35b3480156101cb57600080fd5b50610218600480360360408110156101e257600080fd5b81019080803573ffffffffffffffffffffffffffffffffffffffff16906020019092919080359060200190929190505050610d0c565b60405180821515815260200191505060405180910390f35b34801561023c57600080fd5b50610245610d2a565b6040518082815260200191505060405180910390f35b34801561026757600080fd5b506102d46004803603606081101561027e57600080fd5b81019080803573ffffffffffffffffffffffffffffffffffffffff169060200190929190803573ffffffffffffffffffffffffffffffffffffffff16906020019092919080359060200190929190505050610d34565b60405180821515815260200191505060405180910390f35b3480156102f857600080fd5b506103b26004803603602081101561030f57600080fd5b810190808035906020019064010000000081111561032c57600080fd5b82018360208201111561033e57600080fd5b8035906020019184600183028401116401000000008311171561036057600080fd5b91908080601f016020809104026020016040519081016040528093929190818152602001838380828437600081840152601f19601f820116905080830192505050505050509192919290505050610e0d565b6040518080602001828103825283818151815260200191508051906020019080838360005b838110156103f25780820151818401526020810190506103d7565b50505050905090810190601f16801561041f5780820380516001836020036101000a031916815260200191505b509250505060405180910390f35b34801561043957600080fd5b50610442610f1b565b60405180821515815260200191505060405180910390f35b34801561046657600080fd5b5061046f610f2e565b604051808260ff16815260200191505060405180910390f35b34801561049457600080fd5b506104e1600480360360408110156104ab57600080fd5b81019080803573ffffffffffffffffffffffffffffffffffffffff16906020019092919080359060200190929190505050610f45565b60405180821515815260200191505060405180910390f35b34801561050557600080fd5b506105bf6004803603602081101561051c57600080fd5b810190808035906020019064010000000081111561053957600080fd5b82018360208201111561054b57600080fd5b8035906020019184600183028401116401000000008311171561056d57600080fd5b91908080601f016020809104026020016040519081016040528093929190818152602001838380828437600081840152601f19601f820116905080830192505050505050509192919290505050610ff8565b6040518082815260200191505060405180910390f35b3480156105e157600080fd5b50610624600480360360208110156105f857600080fd5b81019080803573ffffffffffffffffffffffffffffffffffffffff16906020019092919050505061106b565b6040518082815260200191505060405180910390f35b34801561064657600080fd5b5061064f6110b3565b005b34801561065d57600080fd5b5061068a6004803603602081101561067457600080fd5b810190808035906020019092919050505061123e565b6040518080602001828103825283818151815260200191508051906020019080838360005b838110156106ca5780820151818401526020810190506106af565b50505050905090810190601f1680156106f75780820380516001836020036101000a031916815260200191505b509250505060405180910390f35b6108696004803603608081101561071b57600080fd5b810190808035906020019064010000000081111561073857600080fd5b82018360208201111561074a57600080fd5b8035906020019184600183028401116401000000008311171561076c57600080fd5b91908080601f016020809104026020016040519081016040528093929190818152602001838380828437600081840152601f19601f820116905080830192505050505050509192919290803590602001906401000000008111156107cf57600080fd5b8201836020820111156107e157600080fd5b8035906020019184600183028401116401000000008311171561080357600080fd5b91908080601f016020809104026020016040519081016040528093929190818152602001838380828437600081840152601f19601f82011690508083019250505050505050919291929080359060200190929190803590602001909291905050506112f7565b005b34801561087757600080fd5b5061088061189e565b005b34801561088e57600080fd5b50610897611919565b604051808273ffffffffffffffffffffffffffffffffffffffff16815260200191505060405180910390f35b3480156108cf57600080fd5b506108d8611943565b6040518080602001828103825283818151815260200191508051906020019080838360005b838110156109185780820151818401526020810190506108fd565b50505050905090810190601f1680156109455780820380516001836020036101000a031916815260200191505b509250505060405180910390f35b34801561095f57600080fd5b506109ac6004803603604081101561097657600080fd5b81019080803573ffffffffffffffffffffffffffffffffffffffff169060200190929190803590602001909291905050506119e5565b60405180821515815260200191505060405180910390f35b3480156109d057600080fd5b50610a1d600480360360408110156109e757600080fd5b81019080803573ffffffffffffffffffffffffffffffffffffffff16906020019092919080359060200190929190505050611ab2565b60405180821515815260200191505060405180910390f35b348015610a4157600080fd5b50610b9260048036036040811015610a5857600080fd5b8101908080359060200190640100000000811115610a7557600080fd5b820183602082011115610a8757600080fd5b80359060200191846001830284011164010000000083111715610aa957600080fd5b91908080601f016020809104026020016040519081016040528093929190818152602001838380828437600081840152601f19601f82011690508083019250505050505050919291929080359060200190640100000000811115610b0c57600080fd5b820183602082011115610b1e57600080fd5b80359060200191846001830284011164010000000083111715610b4057600080fd5b91908080601f016020809104026020016040519081016040528093929190818152602001838380828437600081840152601f19601f820116905080830192505050505050509192919290505050611ad0565b005b348015610ba057600080fd5b50610c0360048036036040811015610bb757600080fd5b81019080803573ffffffffffffffffffffffffffffffffffffffff169060200190929190803573ffffffffffffffffffffffffffffffffffffffff169060200190929190505050612024565b6040518082815260200191505060405180910390f35b348015610c2557600080fd5b50610c6860048036036020811015610c3c57600080fd5b81019080803573ffffffffffffffffffffffffffffffffffffffff1690602001909291905050506120ab565b005b606060038054600181600116156101000203166002900480601f016020809104026020016040519081016040528092919081815260200182805460018160011615610100020316600290048015610d025780601f10610cd757610100808354040283529160200191610d02565b820191906000526020600020905b815481529060010190602001808311610ce557829003601f168201915b5050505050905090565b6000610d20610d19612343565b848461234b565b6001905092915050565b6000600254905090565b6000610d41848484612542565b610e0284610d4d612343565b610dfd856040518060600160405280602881526020016129f760289139600160008b73ffffffffffffffffffffffffffffffffffffffff1673ffffffffffffffffffffffffffffffffffffffff1681526020019081526020016000206000610db3612343565b73ffffffffffffffffffffffffffffffffffffffff1673ffffffffffffffffffffffffffffffffffffffff168152602001908152602001600020546128039092919063ffffffff16565b61234b565b600190509392505050565b60606006826040518082805190602001908083835b60208310610e455780518252602082019150602081019050602083039250610e22565b6001836020036101000a03801982511681845116808217855250505050505090500191505090815260200160405180910390206001018054600181600116156101000203166002900480601f016020809104026020016040519081016040528092919081815260200182805460018160011615610100020316600290048015610f0f5780601f10610ee457610100808354040283529160200191610f0f565b820191906000526020600020905b815481529060010190602001808311610ef257829003601f168201915b50505050509050919050565b600f60009054906101000a900460ff1681565b6000600560009054906101000a900460ff16905090565b6000610fee610f52612343565b84610fe98560016000610f63612343565b73ffffffffffffffffffffffffffffffffffffffff1673ffffffffffffffffffffffffffffffffffffffff16815260200190815260200160002060008973ffffffffffffffffffffffffffffffffffffffff1673ffffffffffffffffffffffffffffffffffffffff168152602001908152602001600020546122bb90919063ffffffff16565b61234b565b6001905092915050565b6000600a826040518082805190602001908083835b60208310611030578051825260208201915060208101905060208303925061100d565b6001836020036101000a0380198251168184511680821785525050505050509050019150509081526020016040518091039020549050919050565b60008060008373ffffffffffffffffffffffffffffffffffffffff1673ffffffffffffffffffffffffffffffffffffffff168152602001908152602001600020549050919050565b6110bb612343565b73ffffffffffffffffffffffffffffffffffffffff16600560019054906101000a900473ffffffffffffffffffffffffffffffffffffffff1673ffffffffffffffffffffffffffffffffffffffff161461117d576040517f08c379a00000000000000000000000000000000000000000000000000000000081526004018080602001828103825260208152602001807f4f776e61626c653a2063616c6c6572206973206e6f7420746865206f776e657281525060200191505060405180910390fd5b600073ffffffffffffffffffffffffffffffffffffffff16600560019054906101000a900473ffffffffffffffffffffffffffffffffffffffff1673ffffffffffffffffffffffffffffffffffffffff167f8be0079c531659141344cd1fd0a4f28419497f9722a3daafe3b4186f6b6457e060405160405180910390a36000600560016101000a81548173ffffffffffffffffffffffffffffffffffffffff021916908373ffffffffffffffffffffffffffffffffffffffff160217905550565b60606008828154811061124d57fe5b906000526020600020018054600181600116156101000203166002900480601f0160208091040260200160405190810160405280929190818152602001828054600181600116156101000203166002900480156112eb5780601f106112c0576101008083540402835291602001916112eb565b820191906000526020600020905b8154815290600101906020018083116112ce57829003601f168201915b50505050509050919050565b6000670de0b6b3a764000082029050655af3107a400083828161131657fe5b04101561132257600080fd5b60003390506008869080600181540180825580915050600190039060005260206000200160009091909190915090805190602001906113629291906128c8565b50600a60405180807f746f74616c537572766579730000000000000000000000000000000000000000815250600c019050908152602001604051809103902060008154809291906001019190505550806006876040518082805190602001908083835b602083106113e857805182526020820191506020810190506020830392506113c5565b6001836020036101000a038019825116818451168082178552505050505050905001915050908152602001604051809103902060000160006101000a81548173ffffffffffffffffffffffffffffffffffffffff021916908373ffffffffffffffffffffffffffffffffffffffff160217905550846006876040518082805190602001908083835b602083106114935780518252602082019150602081019050602083039250611470565b6001836020036101000a038019825116818451168082178552505050505050905001915050908152602001604051809103902060010190805190602001906114dc9291906128c8565b5060006006876040518082805190602001908083835b6020831061151557805182526020820191506020810190506020830392506114f2565b6001836020036101000a038019825116818451168082178552505050505050905001915050908152602001604051809103902060030160006101000a81548160ff021916908315150217905550600a6064838161156e57fe5b040282036006876040518082805190602001908083835b602083106115a85780518252602082019150602081019050602083039250611585565b6001836020036101000a038019825116818451168082178552505050505050905001915050908152602001604051809103902060040181905550836006876040518082805190602001908083835b6020831061161957805182526020820191506020810190506020830392506115f6565b6001836020036101000a03801982511681845116808217855250505050505090500191505090815260200160405180910390206005018190555060006006876040518082805190602001908083835b6020831061168b5780518252602082019150602081019050602083039250611668565b6001836020036101000a03801982511681845116808217855250505050505090500191505090815260200160405180910390206006018190555085600760008373ffffffffffffffffffffffffffffffffffffffff1673ffffffffffffffffffffffffffffffffffffffff1681526020019081526020016000206001016000600760008573ffffffffffffffffffffffffffffffffffffffff1673ffffffffffffffffffffffffffffffffffffffff168152602001908152602001600020600001548152602001908152602001600020908051906020019061176e9291906128c8565b50600760008273ffffffffffffffffffffffffffffffffffffffff1673ffffffffffffffffffffffffffffffffffffffff168152602001908152602001600020600001600081548092919060010191905055506117e0816117cd611919565b600a606486816117d957fe5b0402612542565b61185781306006896040518082805190602001908083835b6020831061181b57805182526020820191506020810190506020830392506117f8565b6001836020036101000a038019825116818451168082178552505050505050905001915050908152602001604051809103902060040154612542565b7f448785165b227b28d3bdfd0e352a52b17641dc504a6eed914cf40d5619cacb5a6001600880549050036040518082815260200191505060405180910390a1505050505050565b600f60009054906101000a900460ff16156118b857600080fd5b6000600a60405180807f746f74616c537572766579730000000000000000000000000000000000000000815250600c0190509081526020016040518091039020819055506001600f60006101000a81548160ff021916908315150217905550565b6000600560019054906101000a900473ffffffffffffffffffffffffffffffffffffffff16905090565b606060048054600181600116156101000203166002900480601f0160208091040260200160405190810160405280929190818152602001828054600181600116156101000203166002900480156119db5780601f106119b0576101008083540402835291602001916119db565b820191906000526020600020905b8154815290600101906020018083116119be57829003601f168201915b5050505050905090565b6000611aa86119f2612343565b84611aa385604051806060016040528060258152602001612a686025913960016000611a1c612343565b73ffffffffffffffffffffffffffffffffffffffff1673ffffffffffffffffffffffffffffffffffffffff16815260200190815260200160002060008a73ffffffffffffffffffffffffffffffffffffffff1673ffffffffffffffffffffffffffffffffffffffff168152602001908152602001600020546128039092919063ffffffff16565b61234b565b6001905092915050565b6000611ac6611abf612343565b8484612542565b6001905092915050565b6006826040518082805190602001908083835b60208310611b065780518252602082019150602081019050602083039250611ae3565b6001836020036101000a0380198251168184511680821785525050505050509050019150509081526020016040518091039020600501546006836040518082805190602001908083835b60208310611b735780518252602082019150602081019050602083039250611b50565b6001836020036101000a0380198251168184511680821785525050505050509050019150509081526020016040518091039020600601541415611c365760016006836040518082805190602001908083835b60208310611be85780518252602082019150602081019050602083039250611bc5565b6001836020036101000a038019825116818451168082178552505050505050905001915050908152602001604051809103902060030160006101000a81548160ff0219169083151502179055505b6006826040518082805190602001908083835b60208310611c6c5780518252602082019150602081019050602083039250611c49565b6001836020036101000a038019825116818451168082178552505050505050905001915050908152602001604051809103902060030160009054906101000a900460ff1615611cba57600080fd5b600960003373ffffffffffffffffffffffffffffffffffffffff1673ffffffffffffffffffffffffffffffffffffffff168152602001908152602001600020826040518082805190602001908083835b60208310611d2d5780518252602082019150602081019050602083039250611d0a565b6001836020036101000a038019825116818451168082178552505050505050905001915050908152602001604051809103902060009054906101000a900460ff1615611d7857600080fd5b6001600960003373ffffffffffffffffffffffffffffffffffffffff1673ffffffffffffffffffffffffffffffffffffffff168152602001908152602001600020836040518082805190602001908083835b60208310611ded5780518252602082019150602081019050602083039250611dca565b6001836020036101000a038019825116818451168082178552505050505050905001915050908152602001604051809103902060006101000a81548160ff021916908315150217905550806006836040518082805190602001908083835b60208310611e6e5780518252602082019150602081019050602083039250611e4b565b6001836020036101000a03801982511681845116808217855250505050505090500191505090815260200160405180910390206002019080519060200190611eb79291906128c8565b506006826040518082805190602001908083835b60208310611eee5780518252602082019150602081019050602083039250611ecb565b6001836020036101000a03801982511681845116808217855250505050505090500191505090815260200160405180910390206006016000815480929190600101919050555061202030336006856040518082805190602001908083835b60208310611f6f5780518252602082019150602081019050602083039250611f4c565b6001836020036101000a0380198251168184511680821785525050505050509050019150509081526020016040518091039020600501546006866040518082805190602001908083835b60208310611fdc5780518252602082019150602081019050602083039250611fb9565b6001836020036101000a0380198251168184511680821785525050505050509050019150509081526020016040518091039020600401548161201a57fe5b04612542565b5050565b6000600160008473ffffffffffffffffffffffffffffffffffffffff1673ffffffffffffffffffffffffffffffffffffffff16815260200190815260200160002060008373ffffffffffffffffffffffffffffffffffffffff1673ffffffffffffffffffffffffffffffffffffffff16815260200190815260200160002054905092915050565b6120b3612343565b73ffffffffffffffffffffffffffffffffffffffff16600560019054906101000a900473ffffffffffffffffffffffffffffffffffffffff1673ffffffffffffffffffffffffffffffffffffffff1614612175576040517f08c379a00000000000000000000000000000000000000000000000000000000081526004018080602001828103825260208152602001807f4f776e61626c653a2063616c6c6572206973206e6f7420746865206f776e657281525060200191505060405180910390fd5b600073ffffffffffffffffffffffffffffffffffffffff168173ffffffffffffffffffffffffffffffffffffffff1614156121fb576040517f08c379a00000000000000000000000000000000000000000000000000000000081526004018080602001828103825260268152602001806129896026913960400191505060405180910390fd5b8073ffffffffffffffffffffffffffffffffffffffff16600560019054906101000a900473ffffffffffffffffffffffffffffffffffffffff1673ffffffffffffffffffffffffffffffffffffffff167f8be0079c531659141344cd1fd0a4f28419497f9722a3daafe3b4186f6b6457e060405160405180910390a380600560016101000a81548173ffffffffffffffffffffffffffffffffffffffff021916908373ffffffffffffffffffffffffffffffffffffffff16021790555050565b600080828401905083811015612339576040517f08c379a000000000000000000000000000000000000000000000000000000000815260040180806020018281038252601b8152602001807f536166654d6174683a206164646974696f6e206f766572666c6f77000000000081525060200191505060405180910390fd5b8091505092915050565b600033905090565b600073ffffffffffffffffffffffffffffffffffffffff168373ffffffffffffffffffffffffffffffffffffffff1614156123d1576040517f08c379a0000000000000000000000000000000000000000000000000000000008152600401808060200182810382526024815260200180612a446024913960400191505060405180910390fd5b600073ffffffffffffffffffffffffffffffffffffffff168273ffffffffffffffffffffffffffffffffffffffff161415612457576040517f08c379a00000000000000000000000000000000000000000000000000000000081526004018080602001828103825260228152602001806129af6022913960400191505060405180910390fd5b80600160008573ffffffffffffffffffffffffffffffffffffffff1673ffffffffffffffffffffffffffffffffffffffff16815260200190815260200160002060008473ffffffffffffffffffffffffffffffffffffffff1673ffffffffffffffffffffffffffffffffffffffff168152602001908152602001600020819055508173ffffffffffffffffffffffffffffffffffffffff168373ffffffffffffffffffffffffffffffffffffffff167f8c5be1e5ebec7d5bd14f71427d1e84f3dd0314c0f7b2291e5b200ac8c7c3b925836040518082815260200191505060405180910390a3505050565b600073ffffffffffffffffffffffffffffffffffffffff168373ffffffffffffffffffffffffffffffffffffffff1614156125c8576040517f08c379a0000000000000000000000000000000000000000000000000000000008152600401808060200182810382526025815260200180612a1f6025913960400191505060405180910390fd5b600073ffffffffffffffffffffffffffffffffffffffff168273ffffffffffffffffffffffffffffffffffffffff16141561264e576040517f08c379a00000000000000000000000000000000000000000000000000000000081526004018080602001828103825260238152602001806129666023913960400191505060405180910390fd5b6126598383836128c3565b6126c4816040518060600160405280602681526020016129d1602691396000808773ffffffffffffffffffffffffffffffffffffffff1673ffffffffffffffffffffffffffffffffffffffff168152602001908152602001600020546128039092919063ffffffff16565b6000808573ffffffffffffffffffffffffffffffffffffffff1673ffffffffffffffffffffffffffffffffffffffff16815260200190815260200160002081905550612757816000808573ffffffffffffffffffffffffffffffffffffffff1673ffffffffffffffffffffffffffffffffffffffff168152602001908152602001600020546122bb90919063ffffffff16565b6000808473ffffffffffffffffffffffffffffffffffffffff1673ffffffffffffffffffffffffffffffffffffffff168152602001908152602001600020819055508173ffffffffffffffffffffffffffffffffffffffff168373ffffffffffffffffffffffffffffffffffffffff167fddf252ad1be2c89b69c2b068fc378daa952ba7f163c4a11628f55a4df523b3ef836040518082815260200191505060405180910390a3505050565b60008383111582906128b0576040517f08c379a00000000000000000000000000000000000000000000000000000000081526004018080602001828103825283818151815260200191508051906020019080838360005b8381101561287557808201518184015260208101905061285a565b50505050905090810190601f1680156128a25780820380516001836020036101000a031916815260200191505b509250505060405180910390fd5b5060008385039050809150509392505050565b505050565b828054600181600116156101000203166002900490600052602060002090601f016020900481019282601f1061290957805160ff1916838001178555612937565b82800160010185558215612937579182015b8281111561293657825182559160200191906001019061291b565b5b5090506129449190612948565b5090565b5b80821115612961576000816000905550600101612949565b509056fe45524332303a207472616e7366657220746f20746865207a65726f20616464726573734f776e61626c653a206e6577206f776e657220697320746865207a65726f206164647265737345524332303a20617070726f766520746f20746865207a65726f206164647265737345524332303a207472616e7366657220616d6f756e7420657863656564732062616c616e636545524332303a207472616e7366657220616d6f756e74206578636565647320616c6c6f77616e636545524332303a207472616e736665722066726f6d20746865207a65726f206164647265737345524332303a20617070726f76652066726f6d20746865207a65726f206164647265737345524332303a2064656372656173656420616c6c6f77616e63652062656c6f77207a65726fa26469706673582212209f847a2a57486433fcb64abf60a30fd86ff0d910761a50ee63e003887262eb8764736f6c634300060c0033",
  "immutableReferences": {},
  "source": "// SPDX-License-Identifier: MIT\r\n\r\npragma solidity ^0.6.0;\r\n\r\nimport \"@openzeppelin/contracts/access/Ownable.sol\";\r\nimport \"./StorageSurveys.sol\";\r\nimport \"./TokenSurveys.sol\";\r\n\r\n\r\ncontract FunctionalSurveys is Ownable, StorageSurveys, TokenSurveys(1000)\r\n{\r\n// Initializing the contract\r\n\r\n  constructor() public\r\n  {\r\n    initialize();\r\n  }\r\n\r\n  function initialize() public\r\n  {\r\n    require(!_initialized);\r\n    _uintStorage['totalSurveys'] = 0;\r\n    _initialized = true;\r\n  }\r\n\r\n// Events\r\n\r\n  event surveyNumber(uint256 nr);\r\n\r\n// General app functions\r\n\r\n  function getSurveyName(uint256 _ofNumber) public view returns(string memory)\r\n  {\r\n    return(surveys[_ofNumber]);\r\n  }\r\n\r\n  function getChoices(string memory _name) public view returns(string memory)\r\n  {\r\n    return(surveyProps[_name].questions);\r\n  }\r\n\r\n  function setSurvey(string memory _name, string memory _questions, uint256 _participantsAllowed, uint256 _valueOfSurvey) public payable\r\n  {\r\n    //saving the value of survey with 18 decimals\r\n    uint256 _actualValueOfSurvey = _valueOfSurvey * (10**18);\r\n    //require that every user that participates at the survey gets at least 0.0001 coins\r\n    require(_actualValueOfSurvey/_participantsAllowed >= 10**14);\r\n    address msgSender = msg.sender;\r\n    //saving the new survey name to the array and saving the total number of surveys\r\n    surveys.push(_name);\r\n    _uintStorage['totalSurveys']++;\r\n    //creating a survey with it's properties\r\n    surveyProps[_name].surveyOwner = msgSender;\r\n    surveyProps[_name].questions = _questions;\r\n    surveyProps[_name].stoppedStatus = false;\r\n    surveyProps[_name].valueOfSurvey = _actualValueOfSurvey - _actualValueOfSurvey/100*10;\r\n    surveyProps[_name].participantsAllowed = _participantsAllowed;\r\n    surveyProps[_name].totalParticipants = 0;\r\n    //creating user account\r\n    userInfo[msgSender].surevysTitles[userInfo[msgSender].surveysCreated] = _name;\r\n    userInfo[msgSender].surveysCreated++;\r\n    //sending the rewards to the creator of the contract and setting the value of the survey\r\n    _transfer(msgSender, Ownable.owner(), _actualValueOfSurvey/100*10);\r\n    _transfer(msgSender, address(this), surveyProps[_name].valueOfSurvey);\r\n    //emiting the number of the survey in the array of surveys\r\n    emit surveyNumber(surveys.length - 1);\r\n  }\r\n\r\n  function answerSurvey(string memory _name, string memory _answers) public\r\n  {\r\n    //if the free slots for participation at this survey are filled stop the contract\r\n    if(surveyProps[_name].totalParticipants == surveyProps[_name].participantsAllowed) surveyProps[_name].stoppedStatus = true;\r\n    //require that the survey hase participation slots free and didn't stop\r\n    require(!surveyProps[_name].stoppedStatus);\r\n    //require that the user didn't participate at this survey and setting it's participation\r\n    require(!userParticipated[msg.sender][_name]);\r\n    userParticipated[msg.sender][_name] = true;\r\n    //setting new answers to the survey and updating the number of participants\r\n    surveyProps[_name].answers = _answers;\r\n    surveyProps[_name].totalParticipants++;\r\n    //sending the rewards for participating at the survey\r\n    _transfer(address(this), msg.sender, surveyProps[_name].valueOfSurvey / surveyProps[_name].participantsAllowed);\r\n  }\r\n\r\n  /*function vote(string memory _name, string memory _choice) public\r\n  {\r\n    require(!surveyProps[_name].stoppedStatus);\r\n    require(!userVotes[msg.sender][_name]);\r\n    surveyProps[_name].votesOfEachChoice[_choice].push(msg.sender);\r\n    surveyProps[_name].votedTimes++;\r\n    userVotes[msg.sender][_name] = true;\r\n    assert(userVotes[msg.sender][_name]);\r\n    _transfer(address(this), msg.sender, surveyProps[_name].valueOfSurvey / surveyProps[_name].possibleVotes);\r\n    if(surveyProps[_name].votedTimes == surveyProps[_name].possibleVotes) surveyProps[_name].stoppedStatus = true;\r\n  }*/\r\n\r\n}\r\n",
  "sourcePath": "C:/Users/User/Projects/Surveys_V2/contracts/FunctionalSurveys.sol",
  "compiler": {
    "name": "solc",
    "version": "0.6.12+commit.27d51765.Emscripten.clang"
  },
  "schemaVersion": "3.2.4",
  "updatedAt": "2020-09-19T19:07:01.458Z",
  "networkType": "ethereum",
  "devdoc": {
    "kind": "dev",
    "methods": {
      "allowance(address,address)": {
        "details": "See {IERC20-allowance}."
      },
      "approve(address,uint256)": {
        "details": "See {IERC20-approve}. Requirements: - `spender` cannot be the zero address."
      },
      "balanceOf(address)": {
        "details": "See {IERC20-balanceOf}."
      },
      "decimals()": {
        "details": "Returns the number of decimals used to get its user representation. For example, if `decimals` equals `2`, a balance of `505` tokens should be displayed to a user as `5,05` (`505 / 10 ** 2`). Tokens usually opt for a value of 18, imitating the relationship between Ether and Wei. This is the value {ERC20} uses, unless {_setupDecimals} is called. NOTE: This information is only used for _display_ purposes: it in no way affects any of the arithmetic of the contract, including {IERC20-balanceOf} and {IERC20-transfer}."
      },
      "decreaseAllowance(address,uint256)": {
        "details": "Atomically decreases the allowance granted to `spender` by the caller. This is an alternative to {approve} that can be used as a mitigation for problems described in {IERC20-approve}. Emits an {Approval} event indicating the updated allowance. Requirements: - `spender` cannot be the zero address. - `spender` must have allowance for the caller of at least `subtractedValue`."
      },
      "increaseAllowance(address,uint256)": {
        "details": "Atomically increases the allowance granted to `spender` by the caller. This is an alternative to {approve} that can be used as a mitigation for problems described in {IERC20-approve}. Emits an {Approval} event indicating the updated allowance. Requirements: - `spender` cannot be the zero address."
      },
      "name()": {
        "details": "Returns the name of the token."
      },
      "owner()": {
        "details": "Returns the address of the current owner."
      },
      "renounceOwnership()": {
        "details": "Leaves the contract without owner. It will not be possible to call `onlyOwner` functions anymore. Can only be called by the current owner. NOTE: Renouncing ownership will leave the contract without an owner, thereby removing any functionality that is only available to the owner."
      },
      "symbol()": {
        "details": "Returns the symbol of the token, usually a shorter version of the name."
      },
      "totalSupply()": {
        "details": "See {IERC20-totalSupply}."
      },
      "transfer(address,uint256)": {
        "details": "See {IERC20-transfer}. Requirements: - `recipient` cannot be the zero address. - the caller must have a balance of at least `amount`."
      },
      "transferFrom(address,address,uint256)": {
        "details": "See {IERC20-transferFrom}. Emits an {Approval} event indicating the updated allowance. This is not required by the EIP. See the note at the beginning of {ERC20}; Requirements: - `sender` and `recipient` cannot be the zero address. - `sender` must have a balance of at least `amount`. - the caller must have allowance for ``sender``'s tokens of at least `amount`."
      },
      "transferOwnership(address)": {
        "details": "Transfers ownership of the contract to a new account (`newOwner`). Can only be called by the current owner."
      }
    },
    "version": 1
  },
  "userdoc": {
    "kind": "user",
    "methods": {},
    "version": 1
  }
}