{
  "contractName": "FunctionalSurveys",
  "abi": [
    {
      "inputs": [
        {
          "internalType": "uint256",
          "name": "initialSupply",
          "type": "uint256"
        }
      ],
      "stateMutability": "nonpayable",
      "type": "constructor"
    },
    {
      "anonymous": false,
      "inputs": [
        {
          "indexed": true,
          "internalType": "address",
          "name": "owner",
          "type": "address"
        },
        {
          "indexed": true,
          "internalType": "address",
          "name": "spender",
          "type": "address"
        },
        {
          "indexed": false,
          "internalType": "uint256",
          "name": "value",
          "type": "uint256"
        }
      ],
      "name": "Approval",
      "type": "event"
    },
    {
      "anonymous": false,
      "inputs": [
        {
          "indexed": true,
          "internalType": "address",
          "name": "previousOwner",
          "type": "address"
        },
        {
          "indexed": true,
          "internalType": "address",
          "name": "newOwner",
          "type": "address"
        }
      ],
      "name": "OwnershipTransferred",
      "type": "event"
    },
    {
      "anonymous": false,
      "inputs": [
        {
          "indexed": true,
          "internalType": "address",
          "name": "from",
          "type": "address"
        },
        {
          "indexed": true,
          "internalType": "address",
          "name": "to",
          "type": "address"
        },
        {
          "indexed": false,
          "internalType": "uint256",
          "name": "value",
          "type": "uint256"
        }
      ],
      "name": "Transfer",
      "type": "event"
    },
    {
      "inputs": [],
      "name": "_initialized",
      "outputs": [
        {
          "internalType": "bool",
          "name": "",
          "type": "bool"
        }
      ],
      "stateMutability": "view",
      "type": "function"
    },
    {
      "inputs": [
        {
          "internalType": "address",
          "name": "owner",
          "type": "address"
        },
        {
          "internalType": "address",
          "name": "spender",
          "type": "address"
        }
      ],
      "name": "allowance",
      "outputs": [
        {
          "internalType": "uint256",
          "name": "",
          "type": "uint256"
        }
      ],
      "stateMutability": "view",
      "type": "function"
    },
    {
      "inputs": [
        {
          "internalType": "address",
          "name": "spender",
          "type": "address"
        },
        {
          "internalType": "uint256",
          "name": "amount",
          "type": "uint256"
        }
      ],
      "name": "approve",
      "outputs": [
        {
          "internalType": "bool",
          "name": "",
          "type": "bool"
        }
      ],
      "stateMutability": "nonpayable",
      "type": "function"
    },
    {
      "inputs": [
        {
          "internalType": "address",
          "name": "account",
          "type": "address"
        }
      ],
      "name": "balanceOf",
      "outputs": [
        {
          "internalType": "uint256",
          "name": "",
          "type": "uint256"
        }
      ],
      "stateMutability": "view",
      "type": "function"
    },
    {
      "inputs": [],
      "name": "decimals",
      "outputs": [
        {
          "internalType": "uint8",
          "name": "",
          "type": "uint8"
        }
      ],
      "stateMutability": "view",
      "type": "function"
    },
    {
      "inputs": [
        {
          "internalType": "address",
          "name": "spender",
          "type": "address"
        },
        {
          "internalType": "uint256",
          "name": "subtractedValue",
          "type": "uint256"
        }
      ],
      "name": "decreaseAllowance",
      "outputs": [
        {
          "internalType": "bool",
          "name": "",
          "type": "bool"
        }
      ],
      "stateMutability": "nonpayable",
      "type": "function"
    },
    {
      "inputs": [
        {
          "internalType": "address",
          "name": "spender",
          "type": "address"
        },
        {
          "internalType": "uint256",
          "name": "addedValue",
          "type": "uint256"
        }
      ],
      "name": "increaseAllowance",
      "outputs": [
        {
          "internalType": "bool",
          "name": "",
          "type": "bool"
        }
      ],
      "stateMutability": "nonpayable",
      "type": "function"
    },
    {
      "inputs": [],
      "name": "name",
      "outputs": [
        {
          "internalType": "string",
          "name": "",
          "type": "string"
        }
      ],
      "stateMutability": "view",
      "type": "function"
    },
    {
      "inputs": [],
      "name": "owner",
      "outputs": [
        {
          "internalType": "address",
          "name": "",
          "type": "address"
        }
      ],
      "stateMutability": "view",
      "type": "function"
    },
    {
      "inputs": [],
      "name": "renounceOwnership",
      "outputs": [],
      "stateMutability": "nonpayable",
      "type": "function"
    },
    {
      "inputs": [],
      "name": "symbol",
      "outputs": [
        {
          "internalType": "string",
          "name": "",
          "type": "string"
        }
      ],
      "stateMutability": "view",
      "type": "function"
    },
    {
      "inputs": [],
      "name": "totalSupply",
      "outputs": [
        {
          "internalType": "uint256",
          "name": "",
          "type": "uint256"
        }
      ],
      "stateMutability": "view",
      "type": "function"
    },
    {
      "inputs": [
        {
          "internalType": "address",
          "name": "recipient",
          "type": "address"
        },
        {
          "internalType": "uint256",
          "name": "amount",
          "type": "uint256"
        }
      ],
      "name": "transfer",
      "outputs": [
        {
          "internalType": "bool",
          "name": "",
          "type": "bool"
        }
      ],
      "stateMutability": "nonpayable",
      "type": "function"
    },
    {
      "inputs": [
        {
          "internalType": "address",
          "name": "sender",
          "type": "address"
        },
        {
          "internalType": "address",
          "name": "recipient",
          "type": "address"
        },
        {
          "internalType": "uint256",
          "name": "amount",
          "type": "uint256"
        }
      ],
      "name": "transferFrom",
      "outputs": [
        {
          "internalType": "bool",
          "name": "",
          "type": "bool"
        }
      ],
      "stateMutability": "nonpayable",
      "type": "function"
    },
    {
      "inputs": [
        {
          "internalType": "address",
          "name": "newOwner",
          "type": "address"
        }
      ],
      "name": "transferOwnership",
      "outputs": [],
      "stateMutability": "nonpayable",
      "type": "function"
    },
    {
      "inputs": [
        {
          "internalType": "uint256",
          "name": "initialSupply",
          "type": "uint256"
        }
      ],
      "name": "initialize",
      "outputs": [],
      "stateMutability": "nonpayable",
      "type": "function"
    },
    {
      "inputs": [],
      "name": "getSurveys",
      "outputs": [
        {
          "internalType": "string[]",
          "name": "",
          "type": "string[]"
        }
      ],
      "stateMutability": "view",
      "type": "function"
    },
    {
      "inputs": [
        {
          "internalType": "string",
          "name": "_name",
          "type": "string"
        }
      ],
      "name": "getChoices",
      "outputs": [
        {
          "internalType": "string[]",
          "name": "",
          "type": "string[]"
        }
      ],
      "stateMutability": "view",
      "type": "function"
    },
    {
      "inputs": [
        {
          "internalType": "string",
          "name": "_name",
          "type": "string"
        },
        {
          "internalType": "string",
          "name": "_choice",
          "type": "string"
        }
      ],
      "name": "getVotes",
      "outputs": [
        {
          "internalType": "uint256",
          "name": "",
          "type": "uint256"
        },
        {
          "internalType": "address[]",
          "name": "",
          "type": "address[]"
        }
      ],
      "stateMutability": "view",
      "type": "function"
    },
    {
      "inputs": [
        {
          "internalType": "string",
          "name": "_name",
          "type": "string"
        },
        {
          "internalType": "string[]",
          "name": "_choices",
          "type": "string[]"
        },
        {
          "internalType": "uint256",
          "name": "_possibleVotes",
          "type": "uint256"
        },
        {
          "internalType": "uint256",
          "name": "_valueOfSurvey",
          "type": "uint256"
        }
      ],
      "name": "setSurevey",
      "outputs": [],
      "stateMutability": "payable",
      "type": "function"
    },
    {
      "inputs": [
        {
          "internalType": "string",
          "name": "_name",
          "type": "string"
        },
        {
          "internalType": "string",
          "name": "_choice",
          "type": "string"
        }
      ],
      "name": "vote",
      "outputs": [],
      "stateMutability": "nonpayable",
      "type": "function"
    }
  ],
  "bytecode": "0x60806040523480156200001157600080fd5b5060405162003105380380620031058339818101604052810190620000379190620004ea565b6040518060400160405280600b81526020017f537572766579546f6b656e0000000000000000000000000000000000000000008152506040518060400160405280600381526020017f535654000000000000000000000000000000000000000000000000000000000081525081600c9080519060200190620000bb9291906200042d565b5080600d9080519060200190620000d49291906200042d565b506012600e60006101000a81548160ff021916908360ff1602179055505050600062000105620001bc60201b60201c565b905080600e60016101000a81548173ffffffffffffffffffffffffffffffffffffffff021916908373ffffffffffffffffffffffffffffffffffffffff1602179055508073ffffffffffffffffffffffffffffffffffffffff16600073ffffffffffffffffffffffffffffffffffffffff167f8be0079c531659141344cd1fd0a4f28419497f9722a3daafe3b4186f6b6457e060405160405180910390a350620001b581620001c460201b60201c565b5062000641565b600033905090565b600860009054906101000a900460ff1615620001df57600080fd5b6000670de0b6b3a7640000820290506200020033826200021f60201b60201c565b6001600860006101000a81548160ff0219169083151502179055505050565b600073ffffffffffffffffffffffffffffffffffffffff168273ffffffffffffffffffffffffffffffffffffffff16141562000292576040517f08c379a00000000000000000000000000000000000000000000000000000000081526004016200028990620005cd565b60405180910390fd5b620002a660008383620003d060201b60201c565b620002c281600b54620003d560201b620015fd1790919060201c565b600b819055506200032181600960008573ffffffffffffffffffffffffffffffffffffffff1673ffffffffffffffffffffffffffffffffffffffff16815260200190815260200160002054620003d560201b620015fd1790919060201c565b600960008473ffffffffffffffffffffffffffffffffffffffff1673ffffffffffffffffffffffffffffffffffffffff168152602001908152602001600020819055508173ffffffffffffffffffffffffffffffffffffffff16600073ffffffffffffffffffffffffffffffffffffffff167fddf252ad1be2c89b69c2b068fc378daa952ba7f163c4a11628f55a4df523b3ef83604051620003c49190620005ef565b60405180910390a35050565b505050565b60008082840190508381101562000423576040517f08c379a00000000000000000000000000000000000000000000000000000000081526004016200041a90620005ab565b60405180910390fd5b8091505092915050565b828054600181600116156101000203166002900490600052602060002090601f016020900481019282601f106200047057805160ff1916838001178555620004a1565b82800160010185558215620004a1579182015b82811115620004a057825182559160200191906001019062000483565b5b509050620004b09190620004b4565b5090565b5b80821115620004cf576000816000905550600101620004b5565b5090565b600081519050620004e48162000627565b92915050565b600060208284031215620004fd57600080fd5b60006200050d84828501620004d3565b91505092915050565b600062000525601b836200060c565b91507f536166654d6174683a206164646974696f6e206f766572666c6f7700000000006000830152602082019050919050565b600062000567601f836200060c565b91507f45524332303a206d696e7420746f20746865207a65726f2061646472657373006000830152602082019050919050565b620005a5816200061d565b82525050565b60006020820190508181036000830152620005c68162000516565b9050919050565b60006020820190508181036000830152620005e88162000558565b9050919050565b60006020820190506200060660008301846200059a565b92915050565b600082825260208201905092915050565b6000819050919050565b62000632816200061d565b81146200063e57600080fd5b50565b612ab480620006516000396000f3fe60806040526004361061012a5760003560e01c8063715018a6116100ab578063a9059cbb1161006f578063a9059cbb146103fd578063ab4375a71461043a578063dd62ed3e14610478578063e8d5940d146104b5578063f2fde38b146104de578063fe4b84df146105075761012a565b8063715018a6146103285780637dec82961461033f5780638da5cb5b1461036a57806395d89b4114610395578063a457c2d7146103c05761012a565b806326a38ad5116100f257806326a38ad51461021b5780633072cf6014610258578063313ce5671461028357806339509351146102ae57806370a08231146102eb5761012a565b806306fdde031461012f578063095ea7b31461015a57806318160ddd146101975780631867f532146101c257806323b872dd146101de575b600080fd5b34801561013b57600080fd5b50610144610530565b6040516101519190612682565b60405180910390f35b34801561016657600080fd5b50610181600480360381019061017c9190611fc3565b6105d2565b60405161018e9190612667565b60405180910390f35b3480156101a357600080fd5b506101ac6105f0565b6040516101b991906127a4565b60405180910390f35b6101dc60048036038101906101d79190612040565b6105fa565b005b3480156101ea57600080fd5b5061020560048036038101906102009190611f74565b61080b565b6040516102129190612667565b60405180910390f35b34801561022757600080fd5b50610242600480360381019061023d9190611fff565b6108e4565b60405161024f9190612645565b60405180910390f35b34801561026457600080fd5b5061026d6109ee565b60405161027a9190612667565b60405180910390f35b34801561028f57600080fd5b50610298610a01565b6040516102a591906127ef565b60405180910390f35b3480156102ba57600080fd5b506102d560048036038101906102d09190611fc3565b610a18565b6040516102e29190612667565b60405180910390f35b3480156102f757600080fd5b50610312600480360381019061030d9190611f0f565b610acb565b60405161031f91906127a4565b60405180910390f35b34801561033457600080fd5b5061033d610b14565b005b34801561034b57600080fd5b50610354610c6c565b6040516103619190612645565b60405180910390f35b34801561037657600080fd5b5061037f610d55565b60405161038c919061262a565b60405180910390f35b3480156103a157600080fd5b506103aa610d7f565b6040516103b79190612682565b60405180910390f35b3480156103cc57600080fd5b506103e760048036038101906103e29190611fc3565b610e21565b6040516103f49190612667565b60405180910390f35b34801561040957600080fd5b50610424600480360381019061041f9190611fc3565b610eee565b6040516104319190612667565b60405180910390f35b34801561044657600080fd5b50610461600480360381019061045c91906120d3565b610f0c565b60405161046f9291906127bf565b60405180910390f35b34801561048457600080fd5b5061049f600480360381019061049a9190611f38565b611021565b6040516104ac91906127a4565b60405180910390f35b3480156104c157600080fd5b506104dc60048036038101906104d791906120d3565b6110a8565b005b3480156104ea57600080fd5b5061050560048036038101906105009190611f0f565b6113e4565b005b34801561051357600080fd5b5061052e6004803603810190610529919061213f565b6115ab565b005b6060600c8054600181600116156101000203166002900480601f0160208091040260200160405190810160405280929190818152602001828054600181600116156101000203166002900480156105c85780601f1061059d576101008083540402835291602001916105c8565b820191906000526020600020905b8154815290600101906020018083116105ab57829003601f168201915b5050505050905090565b60006105e66105df611652565b848461165a565b6001905092915050565b6000600b54905090565b6000670de0b6b3a764000082029050655af3107a400083828161061957fe5b04101561062557600080fd5b6000339050600086908060018154018082558091505060019003906000526020600020016000909190919091509080519060200190610665929190611cb4565b50336002876040516106779190612613565b908152602001604051809103902060000160006101000a81548173ffffffffffffffffffffffffffffffffffffffff021916908373ffffffffffffffffffffffffffffffffffffffff160217905550846002876040516106d79190612613565b908152602001604051809103902060010190805190602001906106fb929190611d34565b50600060028760405161070e9190612613565b908152602001604051809103902060020160006101000a81548160ff021916908315150217905550600a6064838161074257fe5b040282036002876040516107569190612613565b9081526020016040518091039020600301819055508360028760405161077c9190612613565b90815260200160405180910390206004018190555060006002876040516107a39190612613565b9081526020016040518091039020600501819055506107d7816107c4610d55565b600a606486816107d057fe5b0402611825565b61080381306002896040516107ec9190612613565b908152602001604051809103902060030154611825565b505050505050565b6000610818848484611825565b6108d984610824611652565b6108d485604051806060016040528060288152602001612a3260289139600a60008b73ffffffffffffffffffffffffffffffffffffffff1673ffffffffffffffffffffffffffffffffffffffff168152602001908152602001600020600061088a611652565b73ffffffffffffffffffffffffffffffffffffffff1673ffffffffffffffffffffffffffffffffffffffff16815260200190815260200160002054611abe9092919063ffffffff16565b61165a565b600190509392505050565b60606002826040516108f69190612613565b9081526020016040518091039020600101805480602002602001604051908101604052809291908181526020016000905b828210156109e3578382906000526020600020018054600181600116156101000203166002900480601f0160208091040260200160405190810160405280929190818152602001828054600181600116156101000203166002900480156109cf5780601f106109a4576101008083540402835291602001916109cf565b820191906000526020600020905b8154815290600101906020018083116109b257829003601f168201915b505050505081526020019060010190610927565b505050509050919050565b600860009054906101000a900460ff1681565b6000600e60009054906101000a900460ff16905090565b6000610ac1610a25611652565b84610abc85600a6000610a36611652565b73ffffffffffffffffffffffffffffffffffffffff1673ffffffffffffffffffffffffffffffffffffffff16815260200190815260200160002060008973ffffffffffffffffffffffffffffffffffffffff1673ffffffffffffffffffffffffffffffffffffffff168152602001908152602001600020546115fd90919063ffffffff16565b61165a565b6001905092915050565b6000600960008373ffffffffffffffffffffffffffffffffffffffff1673ffffffffffffffffffffffffffffffffffffffff168152602001908152602001600020549050919050565b610b1c611652565b73ffffffffffffffffffffffffffffffffffffffff16600e60019054906101000a900473ffffffffffffffffffffffffffffffffffffffff1673ffffffffffffffffffffffffffffffffffffffff1614610bab576040517f08c379a0000000000000000000000000000000000000000000000000000000008152600401610ba290612724565b60405180910390fd5b600073ffffffffffffffffffffffffffffffffffffffff16600e60019054906101000a900473ffffffffffffffffffffffffffffffffffffffff1673ffffffffffffffffffffffffffffffffffffffff167f8be0079c531659141344cd1fd0a4f28419497f9722a3daafe3b4186f6b6457e060405160405180910390a36000600e60016101000a81548173ffffffffffffffffffffffffffffffffffffffff021916908373ffffffffffffffffffffffffffffffffffffffff160217905550565b60606000805480602002602001604051908101604052809291908181526020016000905b82821015610d4c578382906000526020600020018054600181600116156101000203166002900480601f016020809104026020016040519081016040528092919081815260200182805460018160011615610100020316600290048015610d385780601f10610d0d57610100808354040283529160200191610d38565b820191906000526020600020905b815481529060010190602001808311610d1b57829003601f168201915b505050505081526020019060010190610c90565b50505050905090565b6000600e60019054906101000a900473ffffffffffffffffffffffffffffffffffffffff16905090565b6060600d8054600181600116156101000203166002900480601f016020809104026020016040519081016040528092919081815260200182805460018160011615610100020316600290048015610e175780601f10610dec57610100808354040283529160200191610e17565b820191906000526020600020905b815481529060010190602001808311610dfa57829003601f168201915b5050505050905090565b6000610ee4610e2e611652565b84610edf85604051806060016040528060258152602001612a5a60259139600a6000610e58611652565b73ffffffffffffffffffffffffffffffffffffffff1673ffffffffffffffffffffffffffffffffffffffff16815260200190815260200160002060008a73ffffffffffffffffffffffffffffffffffffffff1673ffffffffffffffffffffffffffffffffffffffff16815260200190815260200160002054611abe9092919063ffffffff16565b61165a565b6001905092915050565b6000610f02610efb611652565b8484611825565b6001905092915050565b60006060600284604051610f209190612613565b908152602001604051809103902060060183604051610f3f9190612613565b908152602001604051809103902080549050600285604051610f619190612613565b908152602001604051809103902060060184604051610f809190612613565b90815260200160405180910390208080548060200260200160405190810160405280929190818152602001828054801561100f57602002820191906000526020600020905b8160009054906101000a900473ffffffffffffffffffffffffffffffffffffffff1673ffffffffffffffffffffffffffffffffffffffff1681526020019060010190808311610fc5575b50505050509050915091509250929050565b6000600a60008473ffffffffffffffffffffffffffffffffffffffff1673ffffffffffffffffffffffffffffffffffffffff16815260200190815260200160002060008373ffffffffffffffffffffffffffffffffffffffff1673ffffffffffffffffffffffffffffffffffffffff16815260200190815260200160002054905092915050565b6002826040516110b89190612613565b908152602001604051809103902060020160009054906101000a900460ff16156110e157600080fd5b600160003373ffffffffffffffffffffffffffffffffffffffff1673ffffffffffffffffffffffffffffffffffffffff1681526020019081526020016000208260405161112e9190612613565b908152602001604051809103902060009054906101000a900460ff161561115457600080fd5b6002826040516111649190612613565b9081526020016040518091039020600601816040516111839190612613565b9081526020016040518091039020339080600181540180825580915050600190039060005260206000200160009091909190916101000a81548173ffffffffffffffffffffffffffffffffffffffff021916908373ffffffffffffffffffffffffffffffffffffffff1602179055506002826040516112029190612613565b90815260200160405180910390206005016000815480929190600101919050555060018060003373ffffffffffffffffffffffffffffffffffffffff1673ffffffffffffffffffffffffffffffffffffffff168152602001908152602001600020836040516112719190612613565b908152602001604051809103902060006101000a81548160ff021916908315150217905550600160003373ffffffffffffffffffffffffffffffffffffffff1673ffffffffffffffffffffffffffffffffffffffff168152602001908152602001600020826040516112e39190612613565b908152602001604051809103902060009054906101000a900460ff1661130557fe5b61135b303360028560405161131a9190612613565b90815260200160405180910390206004015460028660405161133c9190612613565b9081526020016040518091039020600301548161135557fe5b04611825565b60028260405161136b9190612613565b90815260200160405180910390206004015460028360405161138d9190612613565b90815260200160405180910390206005015414156113e05760016002836040516113b79190612613565b908152602001604051809103902060020160006101000a81548160ff0219169083151502179055505b5050565b6113ec611652565b73ffffffffffffffffffffffffffffffffffffffff16600e60019054906101000a900473ffffffffffffffffffffffffffffffffffffffff1673ffffffffffffffffffffffffffffffffffffffff161461147b576040517f08c379a000000000000000000000000000000000000000000000000000000000815260040161147290612724565b60405180910390fd5b600073ffffffffffffffffffffffffffffffffffffffff168173ffffffffffffffffffffffffffffffffffffffff1614156114eb576040517f08c379a00000000000000000000000000000000000000000000000000000000081526004016114e2906126c4565b60405180910390fd5b8073ffffffffffffffffffffffffffffffffffffffff16600e60019054906101000a900473ffffffffffffffffffffffffffffffffffffffff1673ffffffffffffffffffffffffffffffffffffffff167f8be0079c531659141344cd1fd0a4f28419497f9722a3daafe3b4186f6b6457e060405160405180910390a380600e60016101000a81548173ffffffffffffffffffffffffffffffffffffffff021916908373ffffffffffffffffffffffffffffffffffffffff16021790555050565b600860009054906101000a900460ff16156115c557600080fd5b6000670de0b6b3a7640000820290506115de3382611b19565b6001600860006101000a81548160ff0219169083151502179055505050565b600080828401905083811015611648576040517f08c379a000000000000000000000000000000000000000000000000000000000815260040161163f90612704565b60405180910390fd5b8091505092915050565b600033905090565b600073ffffffffffffffffffffffffffffffffffffffff168373ffffffffffffffffffffffffffffffffffffffff1614156116ca576040517f08c379a00000000000000000000000000000000000000000000000000000000081526004016116c190612764565b60405180910390fd5b600073ffffffffffffffffffffffffffffffffffffffff168273ffffffffffffffffffffffffffffffffffffffff16141561173a576040517f08c379a0000000000000000000000000000000000000000000000000000000008152600401611731906126e4565b60405180910390fd5b80600a60008573ffffffffffffffffffffffffffffffffffffffff1673ffffffffffffffffffffffffffffffffffffffff16815260200190815260200160002060008473ffffffffffffffffffffffffffffffffffffffff1673ffffffffffffffffffffffffffffffffffffffff168152602001908152602001600020819055508173ffffffffffffffffffffffffffffffffffffffff168373ffffffffffffffffffffffffffffffffffffffff167f8c5be1e5ebec7d5bd14f71427d1e84f3dd0314c0f7b2291e5b200ac8c7c3b9258360405161181891906127a4565b60405180910390a3505050565b600073ffffffffffffffffffffffffffffffffffffffff168373ffffffffffffffffffffffffffffffffffffffff161415611895576040517f08c379a000000000000000000000000000000000000000000000000000000000815260040161188c90612744565b60405180910390fd5b600073ffffffffffffffffffffffffffffffffffffffff168273ffffffffffffffffffffffffffffffffffffffff161415611905576040517f08c379a00000000000000000000000000000000000000000000000000000000081526004016118fc906126a4565b60405180910390fd5b611910838383611caf565b61197c81604051806060016040528060268152602001612a0c60269139600960008773ffffffffffffffffffffffffffffffffffffffff1673ffffffffffffffffffffffffffffffffffffffff16815260200190815260200160002054611abe9092919063ffffffff16565b600960008573ffffffffffffffffffffffffffffffffffffffff1673ffffffffffffffffffffffffffffffffffffffff16815260200190815260200160002081905550611a1181600960008573ffffffffffffffffffffffffffffffffffffffff1673ffffffffffffffffffffffffffffffffffffffff168152602001908152602001600020546115fd90919063ffffffff16565b600960008473ffffffffffffffffffffffffffffffffffffffff1673ffffffffffffffffffffffffffffffffffffffff168152602001908152602001600020819055508173ffffffffffffffffffffffffffffffffffffffff168373ffffffffffffffffffffffffffffffffffffffff167fddf252ad1be2c89b69c2b068fc378daa952ba7f163c4a11628f55a4df523b3ef83604051611ab191906127a4565b60405180910390a3505050565b6000838311158290611b06576040517f08c379a0000000000000000000000000000000000000000000000000000000008152600401611afd9190612682565b60405180910390fd5b5060008385039050809150509392505050565b600073ffffffffffffffffffffffffffffffffffffffff168273ffffffffffffffffffffffffffffffffffffffff161415611b89576040517f08c379a0000000000000000000000000000000000000000000000000000000008152600401611b8090612784565b60405180910390fd5b611b9560008383611caf565b611baa81600b546115fd90919063ffffffff16565b600b81905550611c0281600960008573ffffffffffffffffffffffffffffffffffffffff1673ffffffffffffffffffffffffffffffffffffffff168152602001908152602001600020546115fd90919063ffffffff16565b600960008473ffffffffffffffffffffffffffffffffffffffff1673ffffffffffffffffffffffffffffffffffffffff168152602001908152602001600020819055508173ffffffffffffffffffffffffffffffffffffffff16600073ffffffffffffffffffffffffffffffffffffffff167fddf252ad1be2c89b69c2b068fc378daa952ba7f163c4a11628f55a4df523b3ef83604051611ca391906127a4565b60405180910390a35050565b505050565b828054600181600116156101000203166002900490600052602060002090601f016020900481019282601f10611cf557805160ff1916838001178555611d23565b82800160010185558215611d23579182015b82811115611d22578251825591602001919060010190611d07565b5b509050611d309190611d94565b5090565b828054828255906000526020600020908101928215611d83579160200282015b82811115611d82578251829080519060200190611d72929190611cb4565b5091602001919060010190611d54565b5b509050611d909190611db1565b5090565b5b80821115611dad576000816000905550600101611d95565b5090565b5b80821115611dd15760008181611dc89190611dd5565b50600101611db2565b5090565b50805460018160011615610100020316600290046000825580601f10611dfb5750611e1a565b601f016020900490600052602060002090810190611e199190611d94565b5b50565b600081359050611e2c816129dd565b92915050565b600082601f830112611e4357600080fd5b8135611e56611e5182612837565b61280a565b9150818183526020840193506020810190508360005b83811015611e9c5781358601611e828882611ea6565b845260208401935060208301925050600181019050611e6c565b5050505092915050565b600082601f830112611eb757600080fd5b8135611eca611ec58261285f565b61280a565b91508082526020830160208301858383011115611ee657600080fd5b611ef183828461298a565b50505092915050565b600081359050611f09816129f4565b92915050565b600060208284031215611f2157600080fd5b6000611f2f84828501611e1d565b91505092915050565b60008060408385031215611f4b57600080fd5b6000611f5985828601611e1d565b9250506020611f6a85828601611e1d565b9150509250929050565b600080600060608486031215611f8957600080fd5b6000611f9786828701611e1d565b9350506020611fa886828701611e1d565b9250506040611fb986828701611efa565b9150509250925092565b60008060408385031215611fd657600080fd5b6000611fe485828601611e1d565b9250506020611ff585828601611efa565b9150509250929050565b60006020828403121561201157600080fd5b600082013567ffffffffffffffff81111561202b57600080fd5b61203784828501611ea6565b91505092915050565b6000806000806080858703121561205657600080fd5b600085013567ffffffffffffffff81111561207057600080fd5b61207c87828801611ea6565b945050602085013567ffffffffffffffff81111561209957600080fd5b6120a587828801611e32565b93505060406120b687828801611efa565b92505060606120c787828801611efa565b91505092959194509250565b600080604083850312156120e657600080fd5b600083013567ffffffffffffffff81111561210057600080fd5b61210c85828601611ea6565b925050602083013567ffffffffffffffff81111561212957600080fd5b61213585828601611ea6565b9150509250929050565b60006020828403121561215157600080fd5b600061215f84828501611efa565b91505092915050565b60006121748383612194565b60208301905092915050565b600061218c8383612294565b905092915050565b61219d81612935565b82525050565b6121ac81612935565b82525050565b60006121bd826128ab565b6121c781856128e6565b93506121d28361288b565b8060005b838110156122035781516121ea8882612168565b97506121f5836128cc565b9250506001810190506121d6565b5085935050505092915050565b600061221b826128b6565b61222581856128f7565b9350836020820285016122378561289b565b8060005b8581101561227357848403895281516122548582612180565b945061225f836128d9565b925060208a0199505060018101905061223b565b50829750879550505050505092915050565b61228e81612947565b82525050565b600061229f826128c1565b6122a98185612908565b93506122b9818560208601612999565b6122c2816129cc565b840191505092915050565b60006122d8826128c1565b6122e28185612919565b93506122f2818560208601612999565b6122fb816129cc565b840191505092915050565b6000612311826128c1565b61231b818561292a565b935061232b818560208601612999565b80840191505092915050565b6000612344602383612919565b91507f45524332303a207472616e7366657220746f20746865207a65726f206164647260008301527f65737300000000000000000000000000000000000000000000000000000000006020830152604082019050919050565b60006123aa602683612919565b91507f4f776e61626c653a206e6577206f776e657220697320746865207a65726f206160008301527f64647265737300000000000000000000000000000000000000000000000000006020830152604082019050919050565b6000612410602283612919565b91507f45524332303a20617070726f766520746f20746865207a65726f20616464726560008301527f73730000000000000000000000000000000000000000000000000000000000006020830152604082019050919050565b6000612476601b83612919565b91507f536166654d6174683a206164646974696f6e206f766572666c6f7700000000006000830152602082019050919050565b60006124b6602083612919565b91507f4f776e61626c653a2063616c6c6572206973206e6f7420746865206f776e65726000830152602082019050919050565b60006124f6602583612919565b91507f45524332303a207472616e736665722066726f6d20746865207a65726f20616460008301527f64726573730000000000000000000000000000000000000000000000000000006020830152604082019050919050565b600061255c602483612919565b91507f45524332303a20617070726f76652066726f6d20746865207a65726f2061646460008301527f72657373000000000000000000000000000000000000000000000000000000006020830152604082019050919050565b60006125c2601f83612919565b91507f45524332303a206d696e7420746f20746865207a65726f2061646472657373006000830152602082019050919050565b6125fe81612973565b82525050565b61260d8161297d565b82525050565b600061261f8284612306565b915081905092915050565b600060208201905061263f60008301846121a3565b92915050565b6000602082019050818103600083015261265f8184612210565b905092915050565b600060208201905061267c6000830184612285565b92915050565b6000602082019050818103600083015261269c81846122cd565b905092915050565b600060208201905081810360008301526126bd81612337565b9050919050565b600060208201905081810360008301526126dd8161239d565b9050919050565b600060208201905081810360008301526126fd81612403565b9050919050565b6000602082019050818103600083015261271d81612469565b9050919050565b6000602082019050818103600083015261273d816124a9565b9050919050565b6000602082019050818103600083015261275d816124e9565b9050919050565b6000602082019050818103600083015261277d8161254f565b9050919050565b6000602082019050818103600083015261279d816125b5565b9050919050565b60006020820190506127b960008301846125f5565b92915050565b60006040820190506127d460008301856125f5565b81810360208301526127e681846121b2565b90509392505050565b60006020820190506128046000830184612604565b92915050565b6000604051905081810181811067ffffffffffffffff8211171561282d57600080fd5b8060405250919050565b600067ffffffffffffffff82111561284e57600080fd5b602082029050602081019050919050565b600067ffffffffffffffff82111561287657600080fd5b601f19601f8301169050602081019050919050565b6000819050602082019050919050565b6000819050602082019050919050565b600081519050919050565b600081519050919050565b600081519050919050565b6000602082019050919050565b6000602082019050919050565b600082825260208201905092915050565b600082825260208201905092915050565b600082825260208201905092915050565b600082825260208201905092915050565b600081905092915050565b600061294082612953565b9050919050565b60008115159050919050565b600073ffffffffffffffffffffffffffffffffffffffff82169050919050565b6000819050919050565b600060ff82169050919050565b82818337600083830152505050565b60005b838110156129b757808201518184015260208101905061299c565b838111156129c6576000848401525b50505050565b6000601f19601f8301169050919050565b6129e681612935565b81146129f157600080fd5b50565b6129fd81612973565b8114612a0857600080fd5b5056fe45524332303a207472616e7366657220616d6f756e7420657863656564732062616c616e636545524332303a207472616e7366657220616d6f756e74206578636565647320616c6c6f77616e636545524332303a2064656372656173656420616c6c6f77616e63652062656c6f77207a65726fa2646970667358221220ba67ce372fe0be07a59986537154a0003a1df4aab4c4846faddb6665237bcfd964736f6c634300060c0033",
  "immutableReferences": {},
  "source": "// SPDX-License-Identifier: MIT\r\n\r\npragma solidity ^0.6.0;\r\npragma experimental ABIEncoderV2;\r\n\r\nimport \"@openzeppelin/contracts/token/ERC20/ERC20.sol\";\r\nimport \"@openzeppelin/contracts/access/Ownable.sol\";\r\nimport \"./StorageSurveys.sol\";\r\n\r\ncontract FunctionalSurveys is StorageSurveys, ERC20, Ownable\r\n{\r\n  constructor(uint256 initialSupply) public ERC20(\"SurveyToken\", \"SVT\")\r\n  {\r\n    initialize(initialSupply);\r\n  }\r\n\r\n  function initialize(uint256 initialSupply) public\r\n  {\r\n    require(!_initialized);\r\n    uint internalInitialSupply = initialSupply * (10 ** 18);\r\n    _mint(msg.sender, internalInitialSupply);\r\n    _initialized = true;\r\n  }\r\n\r\n  function getSurveys() public view returns(string[] memory)\r\n  {\r\n    return(questions);\r\n  }\r\n\r\n  function getChoices(string memory _name) public view returns(string[] memory)\r\n  {\r\n    return(surveyProps[_name].choices);\r\n  }\r\n\r\n  function getVotes(string memory _name, string memory _choice) public view returns(uint256, address[] memory)\r\n  {\r\n    return(surveyProps[_name].votesOfEachChoice[_choice].length, surveyProps[_name].votesOfEachChoice[_choice]);\r\n  }\r\n\r\n  function setSurevey(string memory _name, string[] memory _choices, uint256 _possibleVotes, uint256 _valueOfSurvey) public payable\r\n  {\r\n    uint256 _actualValueOfSurvey = _valueOfSurvey * (10**18);\r\n    require(_actualValueOfSurvey/_possibleVotes >= 10**14);\r\n    address msgSender = msg.sender;\r\n    questions.push(_name);\r\n    surveyProps[_name].surveyOwner = msg.sender;\r\n    surveyProps[_name].choices = _choices;\r\n    surveyProps[_name].stoppedStatus = false;\r\n    surveyProps[_name].valueOfSurvey = _actualValueOfSurvey - _actualValueOfSurvey/100*10;\r\n    surveyProps[_name].possibleVotes = _possibleVotes;\r\n    surveyProps[_name].votedTimes = 0;\r\n    _transfer(msgSender, Ownable.owner(), _actualValueOfSurvey/100*10);\r\n    _transfer(msgSender, address(this), surveyProps[_name].valueOfSurvey);\r\n  }\r\n\r\n  /*function toggleStopOfSurvey(string memory _name) public\r\n  {\r\n      require(msg.sender == surveyProps[_name].surveyOwner);\r\n      surveyProps[_name].stoppedStatus = !surveyProps[_name].stoppedStatus;\r\n  }*/\r\n\r\n  function vote(string memory _name, string memory _choice) public\r\n  {\r\n    require(!surveyProps[_name].stoppedStatus);\r\n    require(!userVotes[msg.sender][_name]);\r\n    surveyProps[_name].votesOfEachChoice[_choice].push(msg.sender);\r\n    surveyProps[_name].votedTimes++;\r\n    userVotes[msg.sender][_name] = true;\r\n    assert(userVotes[msg.sender][_name]);\r\n    _transfer(address(this), msg.sender, surveyProps[_name].valueOfSurvey / surveyProps[_name].possibleVotes);\r\n    if(surveyProps[_name].votedTimes == surveyProps[_name].possibleVotes) surveyProps[_name].stoppedStatus = true;\r\n  }\r\n\r\n}\r\n",
  "sourcePath": "C:/Users/User/Projects/Surveys_V2/contracts/FunctionalSurveys.sol",
  "compiler": {
    "name": "solc",
    "version": "0.6.12+commit.27d51765.Emscripten.clang"
  },
  "schemaVersion": "3.2.4",
  "updatedAt": "2020-09-14T14:59:29.350Z",
  "devdoc": {
    "kind": "dev",
    "methods": {
      "allowance(address,address)": {
        "details": "See {IERC20-allowance}."
      },
      "approve(address,uint256)": {
        "details": "See {IERC20-approve}. Requirements: - `spender` cannot be the zero address."
      },
      "balanceOf(address)": {
        "details": "See {IERC20-balanceOf}."
      },
      "decimals()": {
        "details": "Returns the number of decimals used to get its user representation. For example, if `decimals` equals `2`, a balance of `505` tokens should be displayed to a user as `5,05` (`505 / 10 ** 2`). Tokens usually opt for a value of 18, imitating the relationship between Ether and Wei. This is the value {ERC20} uses, unless {_setupDecimals} is called. NOTE: This information is only used for _display_ purposes: it in no way affects any of the arithmetic of the contract, including {IERC20-balanceOf} and {IERC20-transfer}."
      },
      "decreaseAllowance(address,uint256)": {
        "details": "Atomically decreases the allowance granted to `spender` by the caller. This is an alternative to {approve} that can be used as a mitigation for problems described in {IERC20-approve}. Emits an {Approval} event indicating the updated allowance. Requirements: - `spender` cannot be the zero address. - `spender` must have allowance for the caller of at least `subtractedValue`."
      },
      "increaseAllowance(address,uint256)": {
        "details": "Atomically increases the allowance granted to `spender` by the caller. This is an alternative to {approve} that can be used as a mitigation for problems described in {IERC20-approve}. Emits an {Approval} event indicating the updated allowance. Requirements: - `spender` cannot be the zero address."
      },
      "name()": {
        "details": "Returns the name of the token."
      },
      "owner()": {
        "details": "Returns the address of the current owner."
      },
      "renounceOwnership()": {
        "details": "Leaves the contract without owner. It will not be possible to call `onlyOwner` functions anymore. Can only be called by the current owner. NOTE: Renouncing ownership will leave the contract without an owner, thereby removing any functionality that is only available to the owner."
      },
      "symbol()": {
        "details": "Returns the symbol of the token, usually a shorter version of the name."
      },
      "totalSupply()": {
        "details": "See {IERC20-totalSupply}."
      },
      "transfer(address,uint256)": {
        "details": "See {IERC20-transfer}. Requirements: - `recipient` cannot be the zero address. - the caller must have a balance of at least `amount`."
      },
      "transferFrom(address,address,uint256)": {
        "details": "See {IERC20-transferFrom}. Emits an {Approval} event indicating the updated allowance. This is not required by the EIP. See the note at the beginning of {ERC20}; Requirements: - `sender` and `recipient` cannot be the zero address. - `sender` must have a balance of at least `amount`. - the caller must have allowance for ``sender``'s tokens of at least `amount`."
      },
      "transferOwnership(address)": {
        "details": "Transfers ownership of the contract to a new account (`newOwner`). Can only be called by the current owner."
      }
    },
    "version": 1
  },
  "userdoc": {
    "kind": "user",
    "methods": {},
    "version": 1
  }
}