{
  "contractName": "FunctionalSurveys",
  "abi": [
    {
      "inputs": [
        {
          "internalType": "contract IERC777",
          "name": "token",
          "type": "address"
        }
      ],
      "stateMutability": "nonpayable",
      "type": "constructor"
    },
    {
      "anonymous": false,
      "inputs": [
        {
          "indexed": true,
          "internalType": "address",
          "name": "previousOwner",
          "type": "address"
        },
        {
          "indexed": true,
          "internalType": "address",
          "name": "newOwner",
          "type": "address"
        }
      ],
      "name": "OwnershipTransferred",
      "type": "event"
    },
    {
      "anonymous": false,
      "inputs": [
        {
          "indexed": false,
          "internalType": "uint256",
          "name": "nr",
          "type": "uint256"
        }
      ],
      "name": "pollNumber",
      "type": "event"
    },
    {
      "anonymous": false,
      "inputs": [
        {
          "indexed": false,
          "internalType": "uint256",
          "name": "nr",
          "type": "uint256"
        }
      ],
      "name": "surveyNumber",
      "type": "event"
    },
    {
      "inputs": [
        {
          "internalType": "string",
          "name": "_name",
          "type": "string"
        },
        {
          "internalType": "string",
          "name": "_choice",
          "type": "string"
        }
      ],
      "name": "getPollChoiceVotes",
      "outputs": [
        {
          "internalType": "uint256",
          "name": "",
          "type": "uint256"
        }
      ],
      "stateMutability": "view",
      "type": "function",
      "constant": true
    },
    {
      "inputs": [
        {
          "internalType": "string",
          "name": "_name",
          "type": "string"
        }
      ],
      "name": "getPollChoices",
      "outputs": [
        {
          "internalType": "string",
          "name": "",
          "type": "string"
        }
      ],
      "stateMutability": "view",
      "type": "function",
      "constant": true
    },
    {
      "inputs": [
        {
          "internalType": "uint256",
          "name": "_ofNumber",
          "type": "uint256"
        }
      ],
      "name": "getPollName",
      "outputs": [
        {
          "internalType": "string",
          "name": "",
          "type": "string"
        }
      ],
      "stateMutability": "view",
      "type": "function",
      "constant": true
    },
    {
      "inputs": [
        {
          "internalType": "string",
          "name": "_name",
          "type": "string"
        }
      ],
      "name": "getPollOwner",
      "outputs": [
        {
          "internalType": "address",
          "name": "",
          "type": "address"
        }
      ],
      "stateMutability": "view",
      "type": "function",
      "constant": true
    },
    {
      "inputs": [
        {
          "internalType": "string",
          "name": "_name",
          "type": "string"
        }
      ],
      "name": "getPollParticipantsAllowed",
      "outputs": [
        {
          "internalType": "uint256",
          "name": "",
          "type": "uint256"
        }
      ],
      "stateMutability": "view",
      "type": "function",
      "constant": true
    },
    {
      "inputs": [
        {
          "internalType": "string",
          "name": "_name",
          "type": "string"
        }
      ],
      "name": "getPollStoppedStatus",
      "outputs": [
        {
          "internalType": "bool",
          "name": "",
          "type": "bool"
        }
      ],
      "stateMutability": "view",
      "type": "function",
      "constant": true
    },
    {
      "inputs": [
        {
          "internalType": "string",
          "name": "_name",
          "type": "string"
        }
      ],
      "name": "getPollTotalParticipants",
      "outputs": [
        {
          "internalType": "uint256",
          "name": "",
          "type": "uint256"
        }
      ],
      "stateMutability": "view",
      "type": "function",
      "constant": true
    },
    {
      "inputs": [
        {
          "internalType": "string",
          "name": "_name",
          "type": "string"
        }
      ],
      "name": "getPollValue",
      "outputs": [
        {
          "internalType": "uint256",
          "name": "",
          "type": "uint256"
        }
      ],
      "stateMutability": "view",
      "type": "function",
      "constant": true
    },
    {
      "inputs": [
        {
          "internalType": "string",
          "name": "_name",
          "type": "string"
        },
        {
          "internalType": "uint256",
          "name": "_ofNumber",
          "type": "uint256"
        }
      ],
      "name": "getSurveyAnswers",
      "outputs": [
        {
          "internalType": "string",
          "name": "",
          "type": "string"
        }
      ],
      "stateMutability": "view",
      "type": "function",
      "constant": true
    },
    {
      "inputs": [
        {
          "internalType": "uint256",
          "name": "_ofNumber",
          "type": "uint256"
        }
      ],
      "name": "getSurveyName",
      "outputs": [
        {
          "internalType": "string",
          "name": "",
          "type": "string"
        }
      ],
      "stateMutability": "view",
      "type": "function",
      "constant": true
    },
    {
      "inputs": [
        {
          "internalType": "string",
          "name": "_name",
          "type": "string"
        }
      ],
      "name": "getSurveyOwner",
      "outputs": [
        {
          "internalType": "address",
          "name": "",
          "type": "address"
        }
      ],
      "stateMutability": "view",
      "type": "function",
      "constant": true
    },
    {
      "inputs": [
        {
          "internalType": "string",
          "name": "_name",
          "type": "string"
        }
      ],
      "name": "getSurveyParticipantsAllowed",
      "outputs": [
        {
          "internalType": "uint256",
          "name": "",
          "type": "uint256"
        }
      ],
      "stateMutability": "view",
      "type": "function",
      "constant": true
    },
    {
      "inputs": [
        {
          "internalType": "string",
          "name": "_name",
          "type": "string"
        }
      ],
      "name": "getSurveyQuestions",
      "outputs": [
        {
          "internalType": "string",
          "name": "",
          "type": "string"
        }
      ],
      "stateMutability": "view",
      "type": "function",
      "constant": true
    },
    {
      "inputs": [
        {
          "internalType": "string",
          "name": "_name",
          "type": "string"
        }
      ],
      "name": "getSurveyStoppedStatus",
      "outputs": [
        {
          "internalType": "bool",
          "name": "",
          "type": "bool"
        }
      ],
      "stateMutability": "view",
      "type": "function",
      "constant": true
    },
    {
      "inputs": [
        {
          "internalType": "string",
          "name": "_name",
          "type": "string"
        }
      ],
      "name": "getSurveyTotalParticipants",
      "outputs": [
        {
          "internalType": "uint256",
          "name": "",
          "type": "uint256"
        }
      ],
      "stateMutability": "view",
      "type": "function",
      "constant": true
    },
    {
      "inputs": [
        {
          "internalType": "string",
          "name": "_name",
          "type": "string"
        }
      ],
      "name": "getSurveyValue",
      "outputs": [
        {
          "internalType": "uint256",
          "name": "",
          "type": "uint256"
        }
      ],
      "stateMutability": "view",
      "type": "function",
      "constant": true
    },
    {
      "inputs": [
        {
          "internalType": "string",
          "name": "_valueName",
          "type": "string"
        }
      ],
      "name": "getUintStorage",
      "outputs": [
        {
          "internalType": "uint256",
          "name": "",
          "type": "uint256"
        }
      ],
      "stateMutability": "view",
      "type": "function",
      "constant": true
    },
    {
      "inputs": [],
      "name": "getUserCreatedPolls",
      "outputs": [
        {
          "internalType": "uint256",
          "name": "",
          "type": "uint256"
        }
      ],
      "stateMutability": "view",
      "type": "function",
      "constant": true
    },
    {
      "inputs": [],
      "name": "getUserCreatedSurveys",
      "outputs": [
        {
          "internalType": "uint256",
          "name": "",
          "type": "uint256"
        }
      ],
      "stateMutability": "view",
      "type": "function",
      "constant": true
    },
    {
      "inputs": [
        {
          "internalType": "uint256",
          "name": "_index",
          "type": "uint256"
        }
      ],
      "name": "getUserNumberOfPolls",
      "outputs": [
        {
          "internalType": "string",
          "name": "",
          "type": "string"
        }
      ],
      "stateMutability": "view",
      "type": "function",
      "constant": true
    },
    {
      "inputs": [
        {
          "internalType": "uint256",
          "name": "_index",
          "type": "uint256"
        }
      ],
      "name": "getUserNumberOfSurveys",
      "outputs": [
        {
          "internalType": "string",
          "name": "",
          "type": "string"
        }
      ],
      "stateMutability": "view",
      "type": "function",
      "constant": true
    },
    {
      "inputs": [],
      "name": "owner",
      "outputs": [
        {
          "internalType": "address",
          "name": "",
          "type": "address"
        }
      ],
      "stateMutability": "view",
      "type": "function",
      "constant": true
    },
    {
      "inputs": [],
      "name": "renounceOwnership",
      "outputs": [],
      "stateMutability": "nonpayable",
      "type": "function"
    },
    {
      "inputs": [
        {
          "internalType": "address",
          "name": "newOwner",
          "type": "address"
        }
      ],
      "name": "transferOwnership",
      "outputs": [],
      "stateMutability": "nonpayable",
      "type": "function"
    },
    {
      "inputs": [
        {
          "internalType": "string",
          "name": "_name",
          "type": "string"
        },
        {
          "internalType": "string",
          "name": "_questions",
          "type": "string"
        },
        {
          "internalType": "uint256",
          "name": "_participantsAllowed",
          "type": "uint256"
        },
        {
          "internalType": "uint256",
          "name": "_valueOfSurvey",
          "type": "uint256"
        }
      ],
      "name": "setSurvey",
      "outputs": [],
      "stateMutability": "payable",
      "type": "function",
      "payable": true
    },
    {
      "inputs": [
        {
          "internalType": "string",
          "name": "_name",
          "type": "string"
        },
        {
          "internalType": "string",
          "name": "_choices",
          "type": "string"
        },
        {
          "internalType": "uint256",
          "name": "_participantsAllowed",
          "type": "uint256"
        },
        {
          "internalType": "uint256",
          "name": "_valueOfPoll",
          "type": "uint256"
        }
      ],
      "name": "setPoll",
      "outputs": [],
      "stateMutability": "payable",
      "type": "function",
      "payable": true
    },
    {
      "inputs": [
        {
          "internalType": "string",
          "name": "_name",
          "type": "string"
        },
        {
          "internalType": "string",
          "name": "_answers",
          "type": "string"
        }
      ],
      "name": "surveyParticipation",
      "outputs": [],
      "stateMutability": "nonpayable",
      "type": "function"
    },
    {
      "inputs": [
        {
          "internalType": "string",
          "name": "_name",
          "type": "string"
        },
        {
          "internalType": "string",
          "name": "_choice",
          "type": "string"
        }
      ],
      "name": "pollParticipation",
      "outputs": [],
      "stateMutability": "nonpayable",
      "type": "function"
    }
  ],
  "bytecode": "0x60806040523480156200001157600080fd5b50604051620055a0380380620055a0833981810160405260208110156200003757600080fd5b810190808051906020019092919050505060006200005a6200014160201b60201c565b905080600c60006101000a81548173ffffffffffffffffffffffffffffffffffffffff021916908373ffffffffffffffffffffffffffffffffffffffff1602179055508073ffffffffffffffffffffffffffffffffffffffff16600073ffffffffffffffffffffffffffffffffffffffff167f8be0079c531659141344cd1fd0a4f28419497f9722a3daafe3b4186f6b6457e060405160405180910390a35080600d60006101000a81548173ffffffffffffffffffffffffffffffffffffffff021916908373ffffffffffffffffffffffffffffffffffffffff1602179055505062000149565b600033905090565b61544780620001596000396000f3fe6080604052600436106101b75760003560e01c80637886e7aa116100ec5780639ade79a21161008a578063ad27106b11610064578063ad27106b146116a3578063d468991c14611795578063f2e21d82146118f4578063f2fde38b146119a8576101b7565b80639ade79a21461140d578063a441a3fd146114e9578063a99d21b4146115c7576101b7565b80638b6139b2116100c65780638b6139b2146110d65780638c3e778e1461123c5780638da5cb5b1461131857806391c35b7914611359576101b7565b80637886e7aa14610e695780637c1dc72b14610fcf57806385f88303146110ab576101b7565b80633de720831161015957806365ae67c81161013357806365ae67c814610be6578063715018a614610cc2578063739f213f14610cd957806377865d7114610d8d576101b7565b80633de72083146109805780634d25871d14610adf578063613303f314610bbb576101b7565b806316339bf81161019557806316339bf8146104cd5780631ed4cba3146106185780633572a926146107595780633cd4ef181461080d576101b7565b8063094c291b146101bc5780630b5ceb781461029a578063155ddb071461038c575b600080fd5b3480156101c857600080fd5b50610282600480360360208110156101df57600080fd5b81019080803590602001906401000000008111156101fc57600080fd5b82018360208201111561020e57600080fd5b8035906020019184600183028401116401000000008311171561023057600080fd5b91908080601f016020809104026020016040519081016040528093929190818152602001838380828437600081840152601f19601f8201169050808301925050505050505091929192905050506119f9565b60405180821515815260200191505060405180910390f35b3480156102a657600080fd5b50610360600480360360208110156102bd57600080fd5b81019080803590602001906401000000008111156102da57600080fd5b8201836020820111156102ec57600080fd5b8035906020019184600183028401116401000000008311171561030e57600080fd5b91908080601f016020809104026020016040519081016040528093929190818152602001838380828437600081840152601f19601f820116905080830192505050505050509192919290505050611ab8565b604051808273ffffffffffffffffffffffffffffffffffffffff16815260200191505060405180910390f35b34801561039857600080fd5b50610452600480360360208110156103af57600080fd5b81019080803590602001906401000000008111156103cc57600080fd5b8201836020820111156103de57600080fd5b8035906020019184600183028401116401000000008311171561040057600080fd5b91908080601f016020809104026020016040519081016040528093929190818152602001838380828437600081840152601f19601f820116905080830192505050505050509192919290505050611b89565b6040518080602001828103825283818151815260200191508051906020019080838360005b83811015610492578082015181840152602081019050610477565b50505050905090810190601f1680156104bf5780820380516001836020036101000a031916815260200191505b509250505060405180910390f35b3480156104d957600080fd5b5061059d600480360360408110156104f057600080fd5b810190808035906020019064010000000081111561050d57600080fd5b82018360208201111561051f57600080fd5b8035906020019184600183028401116401000000008311171561054157600080fd5b91908080601f016020809104026020016040519081016040528093929190818152602001838380828437600081840152601f19601f82011690508083019250505050505050919291929080359060200190929190505050611cd3565b6040518080602001828103825283818151815260200191508051906020019080838360005b838110156105dd5780820151818401526020810190506105c2565b50505050905090810190601f16801561060a5780820380516001836020036101000a031916815260200191505b509250505060405180910390f35b34801561062457600080fd5b506106de6004803603602081101561063b57600080fd5b810190808035906020019064010000000081111561065857600080fd5b82018360208201111561066a57600080fd5b8035906020019184600183028401116401000000008311171561068c57600080fd5b91908080601f016020809104026020016040519081016040528093929190818152602001838380828437600081840152601f19601f820116905080830192505050505050509192919290505050611e33565b6040518080602001828103825283818151815260200191508051906020019080838360005b8381101561071e578082015181840152602081019050610703565b50505050905090810190601f16801561074b5780820380516001836020036101000a031916815260200191505b509250505060405180910390f35b34801561076557600080fd5b506107926004803603602081101561077c57600080fd5b8101908080359060200190929190505050611f7d565b6040518080602001828103825283818151815260200191508051906020019080838360005b838110156107d25780820151818401526020810190506107b7565b50505050905090810190601f1680156107ff5780820380516001836020036101000a031916815260200191505b509250505060405180910390f35b34801561081957600080fd5b5061096a6004803603604081101561083057600080fd5b810190808035906020019064010000000081111561084d57600080fd5b82018360208201111561085f57600080fd5b8035906020019184600183028401116401000000008311171561088157600080fd5b91908080601f016020809104026020016040519081016040528093929190818152602001838380828437600081840152601f19601f820116905080830192505050505050509192919290803590602001906401000000008111156108e457600080fd5b8201836020820111156108f657600080fd5b8035906020019184600183028401116401000000008311171561091857600080fd5b91908080601f016020809104026020016040519081016040528093929190818152602001838380828437600081840152601f19601f820116905080830192505050505050509192919290505050612072565b6040518082815260200191505060405180910390f35b34801561098c57600080fd5b50610add600480360360408110156109a357600080fd5b81019080803590602001906401000000008111156109c057600080fd5b8201836020820111156109d257600080fd5b803590602001918460018302840111640100000000831117156109f457600080fd5b91908080601f016020809104026020016040519081016040528093929190818152602001838380828437600081840152601f19601f82011690508083019250505050505050919291929080359060200190640100000000811115610a5757600080fd5b820183602082011115610a6957600080fd5b80359060200191846001830284011164010000000083111715610a8b57600080fd5b91908080601f016020809104026020016040519081016040528093929190818152602001838380828437600081840152601f19601f820116905080830192505050505050509192919290505050612150565b005b348015610aeb57600080fd5b50610ba560048036036020811015610b0257600080fd5b8101908080359060200190640100000000811115610b1f57600080fd5b820183602082011115610b3157600080fd5b80359060200191846001830284011164010000000083111715610b5357600080fd5b91908080601f016020809104026020016040519081016040528093929190818152602001838380828437600081840152601f19601f82011690508083019250505050505050919291929050505061298f565b6040518082815260200191505060405180910390f35b348015610bc757600080fd5b50610bd0612a40565b6040518082815260200191505060405180910390f35b348015610bf257600080fd5b50610cac60048036036020811015610c0957600080fd5b8101908080359060200190640100000000811115610c2657600080fd5b820183602082011115610c3857600080fd5b80359060200191846001830284011164010000000083111715610c5a57600080fd5b91908080601f016020809104026020016040519081016040528093929190818152602001838380828437600081840152601f19601f820116905080830192505050505050509192919290505050612ac6565b6040518082815260200191505060405180910390f35b348015610cce57600080fd5b50610cd7612b39565b005b348015610ce557600080fd5b50610d1260048036036020811015610cfc57600080fd5b8101908080359060200190929190505050612cc4565b6040518080602001828103825283818151815260200191508051906020019080838360005b83811015610d52578082015181840152602081019050610d37565b50505050905090810190601f168015610d7f5780820380516001836020036101000a031916815260200191505b509250505060405180910390f35b348015610d9957600080fd5b50610e5360048036036020811015610db057600080fd5b8101908080359060200190640100000000811115610dcd57600080fd5b820183602082011115610ddf57600080fd5b80359060200191846001830284011164010000000083111715610e0157600080fd5b91908080601f016020809104026020016040519081016040528093929190818152602001838380828437600081840152601f19601f820116905080830192505050505050509192919290505050612db9565b6040518082815260200191505060405180910390f35b610fcd60048036036080811015610e7f57600080fd5b8101908080359060200190640100000000811115610e9c57600080fd5b820183602082011115610eae57600080fd5b80359060200191846001830284011164010000000083111715610ed057600080fd5b91908080601f016020809104026020016040519081016040528093929190818152602001838380828437600081840152601f19601f82011690508083019250505050505050919291929080359060200190640100000000811115610f3357600080fd5b820183602082011115610f4557600080fd5b80359060200191846001830284011164010000000083111715610f6757600080fd5b91908080601f016020809104026020016040519081016040528093929190818152602001838380828437600081840152601f19601f8201169050808301925050505050505091929192908035906020019092919080359060200190929190505050612e6b565b005b348015610fdb57600080fd5b5061109560048036036020811015610ff257600080fd5b810190808035906020019064010000000081111561100f57600080fd5b82018360208201111561102157600080fd5b8035906020019184600183028401116401000000008311171561104357600080fd5b91908080601f016020809104026020016040519081016040528093929190818152602001838380828437600081840152601f19601f820116905080830192505050505050509192919290505050613806565b6040518082815260200191505060405180910390f35b3480156110b757600080fd5b506110c06138b8565b6040518082815260200191505060405180910390f35b61123a600480360360808110156110ec57600080fd5b810190808035906020019064010000000081111561110957600080fd5b82018360208201111561111b57600080fd5b8035906020019184600183028401116401000000008311171561113d57600080fd5b91908080601f016020809104026020016040519081016040528093929190818152602001838380828437600081840152601f19601f820116905080830192505050505050509192919290803590602001906401000000008111156111a057600080fd5b8201836020820111156111b257600080fd5b803590602001918460018302840111640100000000831117156111d457600080fd5b91908080601f016020809104026020016040519081016040528093929190818152602001838380828437600081840152601f19601f820116905080830192505050505050509192919290803590602001909291908035906020019092919050505061393e565b005b34801561124857600080fd5b506113026004803603602081101561125f57600080fd5b810190808035906020019064010000000081111561127c57600080fd5b82018360208201111561128e57600080fd5b803590602001918460018302840111640100000000831117156112b057600080fd5b91908080601f016020809104026020016040519081016040528093929190818152602001838380828437600081840152601f19601f82011690508083019250505050505050919291929050505061433f565b6040518082815260200191505060405180910390f35b34801561132457600080fd5b5061132d6143f0565b604051808273ffffffffffffffffffffffffffffffffffffffff16815260200191505060405180910390f35b34801561136557600080fd5b506113926004803603602081101561137c57600080fd5b810190808035906020019092919050505061441a565b6040518080602001828103825283818151815260200191508051906020019080838360005b838110156113d25780820151818401526020810190506113b7565b50505050905090810190601f1680156113ff5780820380516001836020036101000a031916815260200191505b509250505060405180910390f35b34801561141957600080fd5b506114d36004803603602081101561143057600080fd5b810190808035906020019064010000000081111561144d57600080fd5b82018360208201111561145f57600080fd5b8035906020019184600183028401116401000000008311171561148157600080fd5b91908080601f016020809104026020016040519081016040528093929190818152602001838380828437600081840152601f19601f82011690508083019250505050505050919291929050505061450f565b6040518082815260200191505060405180910390f35b3480156114f557600080fd5b506115af6004803603602081101561150c57600080fd5b810190808035906020019064010000000081111561152957600080fd5b82018360208201111561153b57600080fd5b8035906020019184600183028401116401000000008311171561155d57600080fd5b91908080601f016020809104026020016040519081016040528093929190818152602001838380828437600081840152601f19601f8201169050808301925050505050505091929192905050506145c1565b60405180821515815260200191505060405180910390f35b3480156115d357600080fd5b5061168d600480360360208110156115ea57600080fd5b810190808035906020019064010000000081111561160757600080fd5b82018360208201111561161957600080fd5b8035906020019184600183028401116401000000008311171561163b57600080fd5b91908080601f016020809104026020016040519081016040528093929190818152602001838380828437600081840152601f19601f82011690508083019250505050505050919291929050505061467f565b6040518082815260200191505060405180910390f35b3480156116af57600080fd5b50611769600480360360208110156116c657600080fd5b81019080803590602001906401000000008111156116e357600080fd5b8201836020820111156116f557600080fd5b8035906020019184600183028401116401000000008311171561171757600080fd5b91908080601f016020809104026020016040519081016040528093929190818152602001838380828437600081840152601f19601f820116905080830192505050505050509192919290505050614730565b604051808273ffffffffffffffffffffffffffffffffffffffff16815260200191505060405180910390f35b3480156117a157600080fd5b506118f2600480360360408110156117b857600080fd5b81019080803590602001906401000000008111156117d557600080fd5b8201836020820111156117e757600080fd5b8035906020019184600183028401116401000000008311171561180957600080fd5b91908080601f016020809104026020016040519081016040528093929190818152602001838380828437600081840152601f19601f8201169050808301925050505050505091929192908035906020019064010000000081111561186c57600080fd5b82018360208201111561187e57600080fd5b803590602001918460018302840111640100000000831117156118a057600080fd5b91908080601f016020809104026020016040519081016040528093929190818152602001838380828437600081840152601f19601f820116905080830192505050505050509192919290505050614802565b005b34801561190057600080fd5b5061192d6004803603602081101561191757600080fd5b8101908080359060200190929190505050615041565b6040518080602001828103825283818151815260200191508051906020019080838360005b8381101561196d578082015181840152602081019050611952565b50505050905090810190601f16801561199a5780820380516001836020036101000a031916815260200191505b509250505060405180910390f35b3480156119b457600080fd5b506119f7600480360360208110156119cb57600080fd5b81019080803573ffffffffffffffffffffffffffffffffffffffff169060200190929190505050615136565b005b60006001826040518082805190602001908083835b60208310611a315780518252602082019150602081019050602083039250611a0e565b6001836020036101000a038019825116818451168082178552505050505050905001915050908152602001604051809103902060030160405180807f73746f7070656453746174757300000000000000000000000000000000000000815250600d019050908152602001604051809103902060009054906101000a900460ff169050919050565b600080826040518082805190602001908083835b60208310611aef5780518252602082019150602081019050602083039250611acc565b6001836020036101000a038019825116818451168082178552505050505050905001915050908152602001604051809103902060040160405180807f7375727665794f776e6572000000000000000000000000000000000000000000815250600b019050908152602001604051809103902060009054906101000a900473ffffffffffffffffffffffffffffffffffffffff169050919050565b60606000826040518082805190602001908083835b60208310611bc15780518252602082019150602081019050602083039250611b9e565b6001836020036101000a038019825116818451168082178552505050505050905001915050908152602001604051809103902060010160405180807f7175657374696f6e730000000000000000000000000000000000000000000000815250600901905090815260200160405180910390208054600181600116156101000203166002900480601f016020809104026020016040519081016040528092919081815260200182805460018160011615610100020316600290048015611cc75780601f10611c9c57610100808354040283529160200191611cc7565b820191906000526020600020905b815481529060010190602001808311611caa57829003601f168201915b50505050509050919050565b60606000836040518082805190602001908083835b60208310611d0b5780518252602082019150602081019050602083039250611ce8565b6001836020036101000a038019825116818451168082178552505050505050905001915050908152602001604051809103902060020160405180807f616e737765727300000000000000000000000000000000000000000000000000815250600701905090815260200160405180910390208281548110611d8857fe5b906000526020600020018054600181600116156101000203166002900480601f016020809104026020016040519081016040528092919081815260200182805460018160011615610100020316600290048015611e265780601f10611dfb57610100808354040283529160200191611e26565b820191906000526020600020905b815481529060010190602001808311611e0957829003601f168201915b5050505050905092915050565b60606001826040518082805190602001908083835b60208310611e6b5780518252602082019150602081019050602083039250611e48565b6001836020036101000a038019825116818451168082178552505050505050905001915050908152602001604051809103902060010160405180807f63686f6963657300000000000000000000000000000000000000000000000000815250600701905090815260200160405180910390208054600181600116156101000203166002900480601f016020809104026020016040519081016040528092919081815260200182805460018160011615610100020316600290048015611f715780601f10611f4657610100808354040283529160200191611f71565b820191906000526020600020905b815481529060010190602001808311611f5457829003601f168201915b50505050509050919050565b6060600860405180807f706f6c6c73000000000000000000000000000000000000000000000000000000815250600501905090815260200160405180910390208281548110611fc857fe5b906000526020600020018054600181600116156101000203166002900480601f0160208091040260200160405190810160405280929190818152602001828054600181600116156101000203166002900480156120665780601f1061203b57610100808354040283529160200191612066565b820191906000526020600020905b81548152906001019060200180831161204957829003601f168201915b50505050509050919050565b60006001836040518082805190602001908083835b602083106120aa5780518252602082019150602081019050602083039250612087565b6001836020036101000a0380198251168184511680821785525050505050509050019150509081526020016040518091039020600001826040518082805190602001908083835b6020831061211457805182526020820191506020810190506020830392506120f1565b6001836020036101000a038019825116818451168082178552505050505050905001915050908152602001604051809103902054905092915050565b6000826040518082805190602001908083835b602083106121865780518252602082019150602081019050602083039250612163565b6001836020036101000a038019825116818451168082178552505050505050905001915050908152602001604051809103902060030160405180807f73746f7070656453746174757300000000000000000000000000000000000000815250600d019050908152602001604051809103902060009054906101000a900460ff161561221057600080fd5b600460003373ffffffffffffffffffffffffffffffffffffffff1673ffffffffffffffffffffffffffffffffffffffff168152602001908152602001600020826040518082805190602001908083835b602083106122835780518252602082019150602081019050602083039250612260565b6001836020036101000a038019825116818451168082178552505050505050905001915050908152602001604051809103902060009054906101000a900460ff16156122ce57600080fd5b6001600460003373ffffffffffffffffffffffffffffffffffffffff1673ffffffffffffffffffffffffffffffffffffffff168152602001908152602001600020836040518082805190602001908083835b602083106123435780518252602082019150602081019050602083039250612320565b6001836020036101000a038019825116818451168082178552505050505050905001915050908152602001604051809103902060006101000a81548160ff0219169083151502179055506000826040518082805190602001908083835b602083106123c357805182526020820191506020810190506020830392506123a0565b6001836020036101000a038019825116818451168082178552505050505050905001915050908152602001604051809103902060000160405180807f746f74616c50617274696369706174656400000000000000000000000000000081525060110190509081526020016040518091039020600081548092919060010191905055506000826040518082805190602001908083835b6020831061247b5780518252602082019150602081019050602083039250612458565b6001836020036101000a038019825116818451168082178552505050505050905001915050908152602001604051809103902060000160405180807f7061727469636970616e7473416c6c6f7765640000000000000000000000000081525060130190509081526020016040518091039020546000836040518082805190602001908083835b602083106125245780518252602082019150602081019050602083039250612501565b6001836020036101000a038019825116818451168082178552505050505050905001915050908152602001604051809103902060000160405180807f746f74616c5061727469636970617465640000000000000000000000000000008152506011019050908152602001604051809103902054141561265f5760016000836040518082805190602001908083835b602083106125d557805182526020820191506020810190506020830392506125b2565b6001836020036101000a038019825116818451168082178552505050505050905001915050908152602001604051809103902060030160405180807f73746f7070656453746174757300000000000000000000000000000000000000815250600d019050908152602001604051809103902060006101000a81548160ff0219169083151502179055505b6000826040518082805190602001908083835b602083106126955780518252602082019150602081019050602083039250612672565b6001836020036101000a038019825116818451168082178552505050505050905001915050908152602001604051809103902060020160405180807f616e737765727300000000000000000000000000000000000000000000000000815250600701905090815260200160405180910390208190806001815401808255809150506001900390600052602060002001600090919091909150908051906020019061274092919061534e565b50600d60009054906101000a900473ffffffffffffffffffffffffffffffffffffffff1673ffffffffffffffffffffffffffffffffffffffff166362ad1b8330336000866040518082805190602001908083835b602083106127b75780518252602082019150602081019050602083039250612794565b6001836020036101000a038019825116818451168082178552505050505050905001915050908152602001604051809103902060000160405180807f7061727469636970616e7473416c6c6f7765640000000000000000000000000081525060130190509081526020016040518091039020546000876040518082805190602001908083835b60208310612860578051825260208201915060208101905060208303925061283d565b6001836020036101000a038019825116818451168082178552505050505050905001915050908152602001604051809103902060000160405180807f76616c75650000000000000000000000000000000000000000000000000000008152506005019050908152602001604051809103902054816128da57fe5b046040518463ffffffff1660e01b8152600401808473ffffffffffffffffffffffffffffffffffffffff1681526020018373ffffffffffffffffffffffffffffffffffffffff168152602001828152602001806020018060200183810383526000815260200160200183810382526000815260200160200195505050505050600060405180830381600087803b15801561297357600080fd5b505af1158015612987573d6000803e3d6000fd5b505050505050565b600080826040518082805190602001908083835b602083106129c657805182526020820191506020810190506020830392506129a3565b6001836020036101000a038019825116818451168082178552505050505050905001915050908152602001604051809103902060000160405180807f76616c756500000000000000000000000000000000000000000000000000000081525060050190509081526020016040518091039020549050919050565b6000600260003373ffffffffffffffffffffffffffffffffffffffff1673ffffffffffffffffffffffffffffffffffffffff16815260200190815260200160002060000160405180807f7375727665797343726561746564000000000000000000000000000000000000815250600e019050908152602001604051809103902054905090565b60006006826040518082805190602001908083835b60208310612afe5780518252602082019150602081019050602083039250612adb565b6001836020036101000a0380198251168184511680821785525050505050509050019150509081526020016040518091039020549050919050565b612b41615346565b73ffffffffffffffffffffffffffffffffffffffff16600c60009054906101000a900473ffffffffffffffffffffffffffffffffffffffff1673ffffffffffffffffffffffffffffffffffffffff1614612c03576040517f08c379a00000000000000000000000000000000000000000000000000000000081526004018080602001828103825260208152602001807f4f776e61626c653a2063616c6c6572206973206e6f7420746865206f776e657281525060200191505060405180910390fd5b600073ffffffffffffffffffffffffffffffffffffffff16600c60009054906101000a900473ffffffffffffffffffffffffffffffffffffffff1673ffffffffffffffffffffffffffffffffffffffff167f8be0079c531659141344cd1fd0a4f28419497f9722a3daafe3b4186f6b6457e060405160405180910390a36000600c60006101000a81548173ffffffffffffffffffffffffffffffffffffffff021916908373ffffffffffffffffffffffffffffffffffffffff160217905550565b6060600860405180807f7375727665797300000000000000000000000000000000000000000000000000815250600701905090815260200160405180910390208281548110612d0f57fe5b906000526020600020018054600181600116156101000203166002900480601f016020809104026020016040519081016040528092919081815260200182805460018160011615610100020316600290048015612dad5780601f10612d8257610100808354040283529160200191612dad565b820191906000526020600020905b815481529060010190602001808311612d9057829003601f168201915b50505050509050919050565b60006001826040518082805190602001908083835b60208310612df15780518252602082019150602081019050602083039250612dce565b6001836020036101000a038019825116818451168082178552505050505050905001915050908152602001604051809103902060000160405180807f76616c756500000000000000000000000000000000000000000000000000000081525060050190509081526020016040518091039020549050919050565b6000670de0b6b3a764000082029050655af3107a4000838281612e8a57fe5b041015612e9657600080fd5b6000339050600860405180807f73757276657973000000000000000000000000000000000000000000000000008152506007019050908152602001604051809103902086908060018154018082558091505060019003906000526020600020016000909190919091509080519060200190612f1292919061534e565b50600660405180807f746f74616c537572766579730000000000000000000000000000000000000000815250600c019050908152602001604051809103902060008154809291906001019190505550806000876040518082805190602001908083835b60208310612f985780518252602082019150602081019050602083039250612f75565b6001836020036101000a038019825116818451168082178552505050505050905001915050908152602001604051809103902060040160405180807f7375727665794f776e6572000000000000000000000000000000000000000000815250600b019050908152602001604051809103902060006101000a81548173ffffffffffffffffffffffffffffffffffffffff021916908373ffffffffffffffffffffffffffffffffffffffff160217905550846000876040518082805190602001908083835b6020831061307f578051825260208201915060208101905060208303925061305c565b6001836020036101000a038019825116818451168082178552505050505050905001915050908152602001604051809103902060010160405180807f7175657374696f6e73000000000000000000000000000000000000000000000081525060090190509081526020016040518091039020908051906020019061310492919061534e565b50600080876040518082805190602001908083835b6020831061313c5780518252602082019150602081019050602083039250613119565b6001836020036101000a038019825116818451168082178552505050505050905001915050908152602001604051809103902060030160405180807f73746f7070656453746174757300000000000000000000000000000000000000815250600d019050908152602001604051809103902060006101000a81548160ff021916908315150217905550600a82816131cf57fe5b0482036000876040518082805190602001908083835b6020831061320857805182526020820191506020810190506020830392506131e5565b6001836020036101000a038019825116818451168082178552505050505050905001915050908152602001604051809103902060000160405180807f76616c75650000000000000000000000000000000000000000000000000000008152506005019050908152602001604051809103902081905550836000876040518082805190602001908083835b602083106132b55780518252602082019150602081019050602083039250613292565b6001836020036101000a038019825116818451168082178552505050505050905001915050908152602001604051809103902060000160405180807f7061727469636970616e7473416c6c6f776564000000000000000000000000008152506013019050908152602001604051809103902081905550600080876040518082805190602001908083835b60208310613362578051825260208201915060208101905060208303925061333f565b6001836020036101000a038019825116818451168082178552505050505050905001915050908152602001604051809103902060000160405180807f746f74616c506172746963697061746564000000000000000000000000000000815250601101905090815260200160405180910390208190555085600260008373ffffffffffffffffffffffffffffffffffffffff1673ffffffffffffffffffffffffffffffffffffffff1681526020019081526020016000206006016000600260008573ffffffffffffffffffffffffffffffffffffffff1673ffffffffffffffffffffffffffffffffffffffff16815260200190815260200160002060000160405180807f7375727665797343726561746564000000000000000000000000000000000000815250600e019050908152602001604051809103902054815260200190815260200160002090805190602001906134bd92919061534e565b50600260008273ffffffffffffffffffffffffffffffffffffffff1673ffffffffffffffffffffffffffffffffffffffff16815260200190815260200160002060000160405180807f7375727665797343726561746564000000000000000000000000000000000000815250600e019050908152602001604051809103902060008154809291906001019190505550600d60009054906101000a900473ffffffffffffffffffffffffffffffffffffffff1673ffffffffffffffffffffffffffffffffffffffff16639bd9bbc66135926143f0565b600a858161359c57fe5b046040518363ffffffff1660e01b8152600401808373ffffffffffffffffffffffffffffffffffffffff168152602001828152602001806020018281038252600081526020016020019350505050600060405180830381600087803b15801561360457600080fd5b505af1158015613618573d6000803e3d6000fd5b50505050600d60009054906101000a900473ffffffffffffffffffffffffffffffffffffffff1673ffffffffffffffffffffffffffffffffffffffff16639bd9bbc6306000896040518082805190602001908083835b60208310613691578051825260208201915060208101905060208303925061366e565b6001836020036101000a038019825116818451168082178552505050505050905001915050908152602001604051809103902060000160405180807f76616c756500000000000000000000000000000000000000000000000000000081525060050190509081526020016040518091039020546040518363ffffffff1660e01b8152600401808373ffffffffffffffffffffffffffffffffffffffff168152602001828152602001806020018281038252600081526020016020019350505050600060405180830381600087803b15801561376b57600080fd5b505af115801561377f573d6000803e3d6000fd5b505050507f448785165b227b28d3bdfd0e352a52b17641dc504a6eed914cf40d5619cacb5a6001600860405180807f73757276657973000000000000000000000000000000000000000000000000008152506007019050908152602001604051809103902080549050036040518082815260200191505060405180910390a1505050505050565b60006001826040518082805190602001908083835b6020831061383e578051825260208201915060208101905060208303925061381b565b6001836020036101000a038019825116818451168082178552505050505050905001915050908152602001604051809103902060000160405180807f746f74616c50617274696369706174656400000000000000000000000000000081525060110190509081526020016040518091039020549050919050565b6000600260003373ffffffffffffffffffffffffffffffffffffffff1673ffffffffffffffffffffffffffffffffffffffff16815260200190815260200160002060000160405180807f706f6c6c73437265617465640000000000000000000000000000000000000000815250600c019050908152602001604051809103902054905090565b6000670de0b6b3a764000082029050655af3107a400083828161395d57fe5b04101561396957600080fd5b6000339050600860405180807f706f6c6c7300000000000000000000000000000000000000000000000000000081525060050190509081526020016040518091039020869080600181540180825580915050600190039060005260206000200160009091909190915090805190602001906139e592919061534e565b50600660405180807f746f74616c506f6c6c7300000000000000000000000000000000000000000000815250600a019050908152602001604051809103902060008154809291906001019190505550806001876040518082805190602001908083835b60208310613a6b5780518252602082019150602081019050602083039250613a48565b6001836020036101000a038019825116818451168082178552505050505050905001915050908152602001604051809103902060040160405180807f706f6c6c4f776e657200000000000000000000000000000000000000000000008152506009019050908152602001604051809103902060006101000a81548173ffffffffffffffffffffffffffffffffffffffff021916908373ffffffffffffffffffffffffffffffffffffffff160217905550846001876040518082805190602001908083835b60208310613b525780518252602082019150602081019050602083039250613b2f565b6001836020036101000a038019825116818451168082178552505050505050905001915050908152602001604051809103902060010160405180807f63686f6963657300000000000000000000000000000000000000000000000000815250600701905090815260200160405180910390209080519060200190613bd792919061534e565b5060006001876040518082805190602001908083835b60208310613c105780518252602082019150602081019050602083039250613bed565b6001836020036101000a038019825116818451168082178552505050505050905001915050908152602001604051809103902060030160405180807f73746f7070656453746174757300000000000000000000000000000000000000815250600d019050908152602001604051809103902060006101000a81548160ff021916908315150217905550600a8281613ca357fe5b0482036001876040518082805190602001908083835b60208310613cdc5780518252602082019150602081019050602083039250613cb9565b6001836020036101000a038019825116818451168082178552505050505050905001915050908152602001604051809103902060000160405180807f76616c75650000000000000000000000000000000000000000000000000000008152506005019050908152602001604051809103902081905550836001876040518082805190602001908083835b60208310613d895780518252602082019150602081019050602083039250613d66565b6001836020036101000a038019825116818451168082178552505050505050905001915050908152602001604051809103902060000160405180807f7061727469636970616e7473416c6c6f77656400000000000000000000000000815250601301905090815260200160405180910390208190555060006001876040518082805190602001908083835b60208310613e375780518252602082019150602081019050602083039250613e14565b6001836020036101000a038019825116818451168082178552505050505050905001915050908152602001604051809103902060000160405180807f746f74616c506172746963697061746564000000000000000000000000000000815250601101905090815260200160405180910390208190555085600260008373ffffffffffffffffffffffffffffffffffffffff1673ffffffffffffffffffffffffffffffffffffffff1681526020019081526020016000206007016000600260008573ffffffffffffffffffffffffffffffffffffffff1673ffffffffffffffffffffffffffffffffffffffff16815260200190815260200160002060000160405180807f706f6c6c73437265617465640000000000000000000000000000000000000000815250600c01905090815260200160405180910390205481526020019081526020016000209080519060200190613f9292919061534e565b50600260008273ffffffffffffffffffffffffffffffffffffffff1673ffffffffffffffffffffffffffffffffffffffff16815260200190815260200160002060000160405180807f706f6c6c73437265617465640000000000000000000000000000000000000000815250600c019050908152602001604051809103902060008154809291906001019190505550600d60009054906101000a900473ffffffffffffffffffffffffffffffffffffffff1673ffffffffffffffffffffffffffffffffffffffff166362ad1b83826140686143f0565b600a868161407257fe5b046040518463ffffffff1660e01b8152600401808473ffffffffffffffffffffffffffffffffffffffff1681526020018373ffffffffffffffffffffffffffffffffffffffff168152602001828152602001806020018060200183810383526000815260200160200183810382526000815260200160200195505050505050600060405180830381600087803b15801561410b57600080fd5b505af115801561411f573d6000803e3d6000fd5b50505050600d60009054906101000a900473ffffffffffffffffffffffffffffffffffffffff1673ffffffffffffffffffffffffffffffffffffffff166362ad1b83823060018a6040518082805190602001908083835b602083106141995780518252602082019150602081019050602083039250614176565b6001836020036101000a038019825116818451168082178552505050505050905001915050908152602001604051809103902060000160405180807f76616c756500000000000000000000000000000000000000000000000000000081525060050190509081526020016040518091039020546040518463ffffffff1660e01b8152600401808473ffffffffffffffffffffffffffffffffffffffff1681526020018373ffffffffffffffffffffffffffffffffffffffff168152602001828152602001806020018060200183810383526000815260200160200183810382526000815260200160200195505050505050600060405180830381600087803b1580156142a457600080fd5b505af11580156142b8573d6000803e3d6000fd5b505050507f41e06db2bff2d42d101550ddd8e5222c620382b18848b9c317b5abf21efdc1ad6001600860405180807f706f6c6c730000000000000000000000000000000000000000000000000000008152506005019050908152602001604051809103902080549050036040518082815260200191505060405180910390a1505050505050565b600080826040518082805190602001908083835b602083106143765780518252602082019150602081019050602083039250614353565b6001836020036101000a038019825116818451168082178552505050505050905001915050908152602001604051809103902060000160405180807f746f74616c50617274696369706174656400000000000000000000000000000081525060110190509081526020016040518091039020549050919050565b6000600c60009054906101000a900473ffffffffffffffffffffffffffffffffffffffff16905090565b6060600260003373ffffffffffffffffffffffffffffffffffffffff1673ffffffffffffffffffffffffffffffffffffffff16815260200190815260200160002060060160008381526020019081526020016000208054600181600116156101000203166002900480601f0160208091040260200160405190810160405280929190818152602001828054600181600116156101000203166002900480156145035780601f106144d857610100808354040283529160200191614503565b820191906000526020600020905b8154815290600101906020018083116144e657829003601f168201915b50505050509050919050565b60006001826040518082805190602001908083835b602083106145475780518252602082019150602081019050602083039250614524565b6001836020036101000a038019825116818451168082178552505050505050905001915050908152602001604051809103902060000160405180807f7061727469636970616e7473416c6c6f7765640000000000000000000000000081525060130190509081526020016040518091039020549050919050565b600080826040518082805190602001908083835b602083106145f857805182526020820191506020810190506020830392506145d5565b6001836020036101000a038019825116818451168082178552505050505050905001915050908152602001604051809103902060030160405180807f73746f7070656453746174757300000000000000000000000000000000000000815250600d019050908152602001604051809103902060009054906101000a900460ff169050919050565b600080826040518082805190602001908083835b602083106146b65780518252602082019150602081019050602083039250614693565b6001836020036101000a038019825116818451168082178552505050505050905001915050908152602001604051809103902060000160405180807f7061727469636970616e7473416c6c6f7765640000000000000000000000000081525060130190509081526020016040518091039020549050919050565b60006001826040518082805190602001908083835b602083106147685780518252602082019150602081019050602083039250614745565b6001836020036101000a038019825116818451168082178552505050505050905001915050908152602001604051809103902060040160405180807f706f6c6c4f776e657200000000000000000000000000000000000000000000008152506009019050908152602001604051809103902060009054906101000a900473ffffffffffffffffffffffffffffffffffffffff169050919050565b6001826040518082805190602001908083835b602083106148385780518252602082019150602081019050602083039250614815565b6001836020036101000a038019825116818451168082178552505050505050905001915050908152602001604051809103902060030160405180807f73746f7070656453746174757300000000000000000000000000000000000000815250600d019050908152602001604051809103902060009054906101000a900460ff16156148c257600080fd5b600560003373ffffffffffffffffffffffffffffffffffffffff1673ffffffffffffffffffffffffffffffffffffffff168152602001908152602001600020826040518082805190602001908083835b602083106149355780518252602082019150602081019050602083039250614912565b6001836020036101000a038019825116818451168082178552505050505050905001915050908152602001604051809103902060009054906101000a900460ff161561498057600080fd5b6001600560003373ffffffffffffffffffffffffffffffffffffffff1673ffffffffffffffffffffffffffffffffffffffff168152602001908152602001600020836040518082805190602001908083835b602083106149f557805182526020820191506020810190506020830392506149d2565b6001836020036101000a038019825116818451168082178552505050505050905001915050908152602001604051809103902060006101000a81548160ff0219169083151502179055506001826040518082805190602001908083835b60208310614a755780518252602082019150602081019050602083039250614a52565b6001836020036101000a038019825116818451168082178552505050505050905001915050908152602001604051809103902060000160405180807f746f74616c50617274696369706174656400000000000000000000000000000081525060110190509081526020016040518091039020600081548092919060010191905055506001826040518082805190602001908083835b60208310614b2d5780518252602082019150602081019050602083039250614b0a565b6001836020036101000a038019825116818451168082178552505050505050905001915050908152602001604051809103902060000160405180807f7061727469636970616e7473416c6c6f7765640000000000000000000000000081525060130190509081526020016040518091039020546001836040518082805190602001908083835b60208310614bd65780518252602082019150602081019050602083039250614bb3565b6001836020036101000a038019825116818451168082178552505050505050905001915050908152602001604051809103902060000160405180807f746f74616c50617274696369706174656400000000000000000000000000000081525060110190509081526020016040518091039020541415614d1057600180836040518082805190602001908083835b60208310614c865780518252602082019150602081019050602083039250614c63565b6001836020036101000a038019825116818451168082178552505050505050905001915050908152602001604051809103902060030160405180807f73746f7070656453746174757300000000000000000000000000000000000000815250600d019050908152602001604051809103902060006101000a81548160ff0219169083151502179055505b6001826040518082805190602001908083835b60208310614d465780518252602082019150602081019050602083039250614d23565b6001836020036101000a0380198251168184511680821785525050505050509050019150509081526020016040518091039020600001816040518082805190602001908083835b60208310614db05780518252602082019150602081019050602083039250614d8d565b6001836020036101000a038019825116818451168082178552505050505050905001915050908152602001604051809103902060008154809291906001019190505550600d60009054906101000a900473ffffffffffffffffffffffffffffffffffffffff1673ffffffffffffffffffffffffffffffffffffffff166362ad1b8330336001866040518082805190602001908083835b60208310614e695780518252602082019150602081019050602083039250614e46565b6001836020036101000a038019825116818451168082178552505050505050905001915050908152602001604051809103902060000160405180807f7061727469636970616e7473416c6c6f7765640000000000000000000000000081525060130190509081526020016040518091039020546001876040518082805190602001908083835b60208310614f125780518252602082019150602081019050602083039250614eef565b6001836020036101000a038019825116818451168082178552505050505050905001915050908152602001604051809103902060000160405180807f76616c7565000000000000000000000000000000000000000000000000000000815250600501905090815260200160405180910390205481614f8c57fe5b046040518463ffffffff1660e01b8152600401808473ffffffffffffffffffffffffffffffffffffffff1681526020018373ffffffffffffffffffffffffffffffffffffffff168152602001828152602001806020018060200183810383526000815260200160200183810382526000815260200160200195505050505050600060405180830381600087803b15801561502557600080fd5b505af1158015615039573d6000803e3d6000fd5b505050505050565b6060600260003373ffffffffffffffffffffffffffffffffffffffff1673ffffffffffffffffffffffffffffffffffffffff16815260200190815260200160002060070160008381526020019081526020016000208054600181600116156101000203166002900480601f01602080910402602001604051908101604052809291908181526020018280546001816001161561010002031660029004801561512a5780601f106150ff5761010080835404028352916020019161512a565b820191906000526020600020905b81548152906001019060200180831161510d57829003601f168201915b50505050509050919050565b61513e615346565b73ffffffffffffffffffffffffffffffffffffffff16600c60009054906101000a900473ffffffffffffffffffffffffffffffffffffffff1673ffffffffffffffffffffffffffffffffffffffff1614615200576040517f08c379a00000000000000000000000000000000000000000000000000000000081526004018080602001828103825260208152602001807f4f776e61626c653a2063616c6c6572206973206e6f7420746865206f776e657281525060200191505060405180910390fd5b600073ffffffffffffffffffffffffffffffffffffffff168173ffffffffffffffffffffffffffffffffffffffff161415615286576040517f08c379a00000000000000000000000000000000000000000000000000000000081526004018080602001828103825260268152602001806153ec6026913960400191505060405180910390fd5b8073ffffffffffffffffffffffffffffffffffffffff16600c60009054906101000a900473ffffffffffffffffffffffffffffffffffffffff1673ffffffffffffffffffffffffffffffffffffffff167f8be0079c531659141344cd1fd0a4f28419497f9722a3daafe3b4186f6b6457e060405160405180910390a380600c60006101000a81548173ffffffffffffffffffffffffffffffffffffffff021916908373ffffffffffffffffffffffffffffffffffffffff16021790555050565b600033905090565b828054600181600116156101000203166002900490600052602060002090601f016020900481019282601f1061538f57805160ff19168380011785556153bd565b828001600101855582156153bd579182015b828111156153bc5782518255916020019190600101906153a1565b5b5090506153ca91906153ce565b5090565b5b808211156153e75760008160009055506001016153cf565b509056fe4f776e61626c653a206e6577206f776e657220697320746865207a65726f2061646472657373a264697066735822122087b22b6713073ec61bf0e4cfac9cff0845b9a694f5af41080219d9fb5bf3f59464736f6c634300060c0033",
  "immutableReferences": {},
  "source": "// SPDX-License-Identifier: MIT\r\n\r\npragma solidity 0.6.12;\r\n\r\nimport \"./StorageSurveys.sol\";\r\nimport \"@openzeppelin/contracts/access/Ownable.sol\";\r\nimport \"@openzeppelin/contracts/token/ERC777/IERC777.sol\";\r\nimport \"@openzeppelin/contracts/token/ERC777/IERC777Recipient.sol\";\r\nimport \"@openzeppelin/contracts/token/ERC777/IERC777Sender.sol\";\r\n\r\n\r\ncontract FunctionalSurveys is StorageSurveys, Ownable\r\n{\r\n  IERC777 private _token;\r\n  \r\n  constructor (IERC777 token) public {\r\n    _token = token;\r\n  }\r\n\r\n// Events\r\n\r\n  event surveyNumber(uint256 nr);\r\n  event pollNumber(uint256 nr);\r\n\r\n// General app functions\r\n\r\n  function setSurvey(string memory _name, string memory _questions, uint256 _participantsAllowed, uint256 _valueOfSurvey) public payable\r\n  {\r\n    //saving the value of survey with 18 decimals\r\n    uint256 _actualValueOfSurvey = _valueOfSurvey * (10 ** 18);\r\n    //require that every user that participates at the survey gets at least 0.0001 coins\r\n    require(_actualValueOfSurvey/_participantsAllowed >= 10 ** 14);\r\n    address msgSender = msg.sender;\r\n    //saving the new survey name to the array and saving the total number of surveys\r\n    _stringArrayStorage['surveys'].push(_name);\r\n    _uintStorage['totalSurveys']++;\r\n    //creating a survey with it's properties\r\n    _surveyStorage[_name]._addressStorage['surveyOwner'] = msgSender;\r\n    _surveyStorage[_name]._stringStorage['questions'] = _questions;\r\n    _surveyStorage[_name]._boolStorage['stoppedStatus'] = false;\r\n    _surveyStorage[_name]._uintStorage['value'] = _actualValueOfSurvey - _actualValueOfSurvey/10;\r\n    _surveyStorage[_name]._uintStorage['participantsAllowed'] = _participantsAllowed;\r\n    _surveyStorage[_name]._uintStorage['totalParticipated'] = 0;\r\n    //creating user account\r\n    _userStorage[msgSender].surevysTitles[_userStorage[msgSender]._uintStorage['surveysCreated']] = _name;\r\n    _userStorage[msgSender]._uintStorage['surveysCreated']++;\r\n    //sending the rewards to the creator of the contract and setting the value of the survey\r\n    _token.send(Ownable.owner(), _actualValueOfSurvey/10, '');\r\n    _token.send(address(this), _surveyStorage[_name]._uintStorage['value'], '');\r\n    //emiting the number of the survey in the array of surveys\r\n    emit surveyNumber(_stringArrayStorage['surveys'].length - 1);\r\n  }\r\n\r\n  function setPoll(string memory _name, string memory _choices, uint256 _participantsAllowed, uint256 _valueOfPoll) public payable\r\n  {\r\n    //saving the value of survey with 18 decimals\r\n    uint256 _actualValueOfPoll = _valueOfPoll * (10**18);\r\n    //require that every user that participates at the survey gets at least 0.0001 coins\r\n    require(_actualValueOfPoll/_participantsAllowed >= 10**14);\r\n    address msgSender = msg.sender;\r\n    //saving the new poll name to the array and saving the total number of polls\r\n    _stringArrayStorage['polls'].push(_name);\r\n    _uintStorage['totalPolls']++;\r\n    //creating a poll with it's properties\r\n    _pollStorage[_name]._addressStorage['pollOwner'] = msgSender;\r\n    _pollStorage[_name]._stringStorage['choices'] = _choices;\r\n    _pollStorage[_name]._boolStorage['stoppedStatus'] = false;\r\n    _pollStorage[_name]._uintStorage['value'] = _actualValueOfPoll - _actualValueOfPoll/10;\r\n    _pollStorage[_name]._uintStorage['participantsAllowed'] = _participantsAllowed;\r\n    _pollStorage[_name]._uintStorage['totalParticipated'] = 0;\r\n    //creating user account\r\n    _userStorage[msgSender].pollTitles[_userStorage[msgSender]._uintStorage['pollsCreated']] = _name;\r\n    _userStorage[msgSender]._uintStorage['pollsCreated']++;\r\n    //sending the rewards to the creator of the contract and setting the value of the poll\r\n    _token.operatorSend(msgSender, Ownable.owner(), _actualValueOfPoll/10, '', '');\r\n    _token.operatorSend(msgSender, address(this), _pollStorage[_name]._uintStorage['value'], '', '');\r\n    //emiting the number of the survey in the array of surveys\r\n    emit pollNumber(_stringArrayStorage['polls'].length - 1);\r\n  }\r\n\r\n  function surveyParticipation(string memory _name, string memory _answers) public\r\n  {\r\n    //require that the survey has participation slots free and didn't stop\r\n    require(!_surveyStorage[_name]._boolStorage['stoppedStatus']);\r\n    //require that the user didn't participate at this survey and setting it's participation\r\n    require(!userParticipatedSurveys[msg.sender][_name]);\r\n    userParticipatedSurveys[msg.sender][_name] = true;\r\n    //updating the number of participants\r\n    _surveyStorage[_name]._uintStorage['totalParticipated']++;\r\n    //if the free slots for participation at this survey are filled stop the contract\r\n    if(_surveyStorage[_name]._uintStorage['totalParticipated'] == _surveyStorage[_name]._uintStorage['participantsAllowed']) _surveyStorage[_name]._boolStorage['stoppedStatus'] = true;\r\n    //setting new answers to the survey\r\n    _surveyStorage[_name]._stringArrayStorage['answers'].push(_answers);\r\n    //sending the rewards for participating at the survey\r\n    _token.operatorSend(address(this), msg.sender, _surveyStorage[_name]._uintStorage['value'] / _surveyStorage[_name]._uintStorage['participantsAllowed'], '', '');\r\n  }\r\n\r\n  function pollParticipation(string memory _name, string memory _choice) public\r\n  {\r\n    //require that the poll has participation slots free and didn't stop\r\n    require(!_pollStorage[_name]._boolStorage['stoppedStatus']);\r\n    //require that the user didn't participate at this poll and setting it's participation\r\n    require(!userParticipatedPolls[msg.sender][_name]);\r\n    userParticipatedPolls[msg.sender][_name] = true;\r\n    //updating the number of participants\r\n    _pollStorage[_name]._uintStorage['totalParticipated']++;\r\n    //if the free slots for participation at this poll are filled stop the contract\r\n    if(_pollStorage[_name]._uintStorage['totalParticipated'] == _pollStorage[_name]._uintStorage['participantsAllowed']) _pollStorage[_name]._boolStorage['stoppedStatus'] = true;\r\n    //setting new votes to the survey\r\n    _pollStorage[_name]._uintStorage[_choice]++;\r\n    //sending the rewards for participating at the poll\r\n    _token.operatorSend(address(this), msg.sender, _pollStorage[_name]._uintStorage['value'] / _pollStorage[_name]._uintStorage['participantsAllowed'], '', '');\r\n  }\r\n\r\n}\r\n",
  "sourcePath": "C:/Users/Daniel/Projects/Surveys_V2/contracts/FunctionalSurveys.sol",
  "compiler": {
    "name": "solc",
    "version": "0.6.12+commit.27d51765.Emscripten.clang"
  },
  "schemaVersion": "3.2.5",
  "updatedAt": "2020-10-04T19:45:34.880Z",
  "networkType": "ethereum",
  "devdoc": {
    "kind": "dev",
    "methods": {
      "owner()": {
        "details": "Returns the address of the current owner."
      },
      "renounceOwnership()": {
        "details": "Leaves the contract without owner. It will not be possible to call `onlyOwner` functions anymore. Can only be called by the current owner. NOTE: Renouncing ownership will leave the contract without an owner, thereby removing any functionality that is only available to the owner."
      },
      "transferOwnership(address)": {
        "details": "Transfers ownership of the contract to a new account (`newOwner`). Can only be called by the current owner."
      }
    },
    "version": 1
  },
  "userdoc": {
    "kind": "user",
    "methods": {},
    "version": 1
  }
}