{
  "contractName": "FunctionalSurveys",
  "abi": [
    {
      "inputs": [
        {
          "internalType": "uint256",
          "name": "initialSupply",
          "type": "uint256"
        }
      ],
      "stateMutability": "nonpayable",
      "type": "constructor"
    },
    {
      "anonymous": false,
      "inputs": [
        {
          "indexed": true,
          "internalType": "address",
          "name": "owner",
          "type": "address"
        },
        {
          "indexed": true,
          "internalType": "address",
          "name": "spender",
          "type": "address"
        },
        {
          "indexed": false,
          "internalType": "uint256",
          "name": "value",
          "type": "uint256"
        }
      ],
      "name": "Approval",
      "type": "event"
    },
    {
      "anonymous": false,
      "inputs": [
        {
          "indexed": true,
          "internalType": "address",
          "name": "previousOwner",
          "type": "address"
        },
        {
          "indexed": true,
          "internalType": "address",
          "name": "newOwner",
          "type": "address"
        }
      ],
      "name": "OwnershipTransferred",
      "type": "event"
    },
    {
      "anonymous": false,
      "inputs": [
        {
          "indexed": true,
          "internalType": "address",
          "name": "from",
          "type": "address"
        },
        {
          "indexed": true,
          "internalType": "address",
          "name": "to",
          "type": "address"
        },
        {
          "indexed": false,
          "internalType": "uint256",
          "name": "value",
          "type": "uint256"
        }
      ],
      "name": "Transfer",
      "type": "event"
    },
    {
      "anonymous": false,
      "inputs": [
        {
          "indexed": false,
          "internalType": "uint256",
          "name": "nr",
          "type": "uint256"
        }
      ],
      "name": "surveyNumber",
      "type": "event"
    },
    {
      "inputs": [],
      "name": "_initialized",
      "outputs": [
        {
          "internalType": "bool",
          "name": "",
          "type": "bool"
        }
      ],
      "stateMutability": "view",
      "type": "function",
      "constant": true
    },
    {
      "inputs": [
        {
          "internalType": "address",
          "name": "owner",
          "type": "address"
        },
        {
          "internalType": "address",
          "name": "spender",
          "type": "address"
        }
      ],
      "name": "allowance",
      "outputs": [
        {
          "internalType": "uint256",
          "name": "",
          "type": "uint256"
        }
      ],
      "stateMutability": "view",
      "type": "function",
      "constant": true
    },
    {
      "inputs": [
        {
          "internalType": "address",
          "name": "spender",
          "type": "address"
        },
        {
          "internalType": "uint256",
          "name": "amount",
          "type": "uint256"
        }
      ],
      "name": "approve",
      "outputs": [
        {
          "internalType": "bool",
          "name": "",
          "type": "bool"
        }
      ],
      "stateMutability": "nonpayable",
      "type": "function"
    },
    {
      "inputs": [
        {
          "internalType": "address",
          "name": "account",
          "type": "address"
        }
      ],
      "name": "balanceOf",
      "outputs": [
        {
          "internalType": "uint256",
          "name": "",
          "type": "uint256"
        }
      ],
      "stateMutability": "view",
      "type": "function",
      "constant": true
    },
    {
      "inputs": [],
      "name": "decimals",
      "outputs": [
        {
          "internalType": "uint8",
          "name": "",
          "type": "uint8"
        }
      ],
      "stateMutability": "view",
      "type": "function",
      "constant": true
    },
    {
      "inputs": [
        {
          "internalType": "address",
          "name": "spender",
          "type": "address"
        },
        {
          "internalType": "uint256",
          "name": "subtractedValue",
          "type": "uint256"
        }
      ],
      "name": "decreaseAllowance",
      "outputs": [
        {
          "internalType": "bool",
          "name": "",
          "type": "bool"
        }
      ],
      "stateMutability": "nonpayable",
      "type": "function"
    },
    {
      "inputs": [
        {
          "internalType": "address",
          "name": "spender",
          "type": "address"
        },
        {
          "internalType": "uint256",
          "name": "addedValue",
          "type": "uint256"
        }
      ],
      "name": "increaseAllowance",
      "outputs": [
        {
          "internalType": "bool",
          "name": "",
          "type": "bool"
        }
      ],
      "stateMutability": "nonpayable",
      "type": "function"
    },
    {
      "inputs": [],
      "name": "name",
      "outputs": [
        {
          "internalType": "string",
          "name": "",
          "type": "string"
        }
      ],
      "stateMutability": "view",
      "type": "function",
      "constant": true
    },
    {
      "inputs": [],
      "name": "owner",
      "outputs": [
        {
          "internalType": "address",
          "name": "",
          "type": "address"
        }
      ],
      "stateMutability": "view",
      "type": "function",
      "constant": true
    },
    {
      "inputs": [],
      "name": "renounceOwnership",
      "outputs": [],
      "stateMutability": "nonpayable",
      "type": "function"
    },
    {
      "inputs": [],
      "name": "symbol",
      "outputs": [
        {
          "internalType": "string",
          "name": "",
          "type": "string"
        }
      ],
      "stateMutability": "view",
      "type": "function",
      "constant": true
    },
    {
      "inputs": [],
      "name": "totalSupply",
      "outputs": [
        {
          "internalType": "uint256",
          "name": "",
          "type": "uint256"
        }
      ],
      "stateMutability": "view",
      "type": "function",
      "constant": true
    },
    {
      "inputs": [
        {
          "internalType": "address",
          "name": "recipient",
          "type": "address"
        },
        {
          "internalType": "uint256",
          "name": "amount",
          "type": "uint256"
        }
      ],
      "name": "transfer",
      "outputs": [
        {
          "internalType": "bool",
          "name": "",
          "type": "bool"
        }
      ],
      "stateMutability": "nonpayable",
      "type": "function"
    },
    {
      "inputs": [
        {
          "internalType": "address",
          "name": "sender",
          "type": "address"
        },
        {
          "internalType": "address",
          "name": "recipient",
          "type": "address"
        },
        {
          "internalType": "uint256",
          "name": "amount",
          "type": "uint256"
        }
      ],
      "name": "transferFrom",
      "outputs": [
        {
          "internalType": "bool",
          "name": "",
          "type": "bool"
        }
      ],
      "stateMutability": "nonpayable",
      "type": "function"
    },
    {
      "inputs": [
        {
          "internalType": "address",
          "name": "newOwner",
          "type": "address"
        }
      ],
      "name": "transferOwnership",
      "outputs": [],
      "stateMutability": "nonpayable",
      "type": "function"
    },
    {
      "inputs": [
        {
          "internalType": "uint256",
          "name": "initialSupply",
          "type": "uint256"
        }
      ],
      "name": "initialize",
      "outputs": [],
      "stateMutability": "nonpayable",
      "type": "function"
    },
    {
      "inputs": [
        {
          "internalType": "uint256",
          "name": "_ofNumber",
          "type": "uint256"
        }
      ],
      "name": "getSurveyName",
      "outputs": [
        {
          "internalType": "string",
          "name": "",
          "type": "string"
        }
      ],
      "stateMutability": "view",
      "type": "function",
      "constant": true
    },
    {
      "inputs": [
        {
          "internalType": "string",
          "name": "_name",
          "type": "string"
        }
      ],
      "name": "getChoices",
      "outputs": [
        {
          "internalType": "string",
          "name": "",
          "type": "string"
        }
      ],
      "stateMutability": "view",
      "type": "function",
      "constant": true
    },
    {
      "inputs": [
        {
          "internalType": "string",
          "name": "_name",
          "type": "string"
        },
        {
          "internalType": "string",
          "name": "_questions",
          "type": "string"
        },
        {
          "internalType": "uint256",
          "name": "_participantsAllowed",
          "type": "uint256"
        },
        {
          "internalType": "uint256",
          "name": "_valueOfSurvey",
          "type": "uint256"
        }
      ],
      "name": "setSurevey",
      "outputs": [],
      "stateMutability": "payable",
      "type": "function",
      "payable": true
    },
    {
      "inputs": [
        {
          "internalType": "string",
          "name": "_name",
          "type": "string"
        },
        {
          "internalType": "string",
          "name": "_answers",
          "type": "string"
        }
      ],
      "name": "setAnswers",
      "outputs": [],
      "stateMutability": "nonpayable",
      "type": "function"
    }
  ],
  "bytecode": "0x60806040523480156200001157600080fd5b5060405162002f3738038062002f37833981810160405260208110156200003757600080fd5b81019080805190602001909291905050506040518060400160405280600b81526020017f537572766579546f6b656e0000000000000000000000000000000000000000008152506040518060400160405280600381526020017f535654000000000000000000000000000000000000000000000000000000000081525081600c9080519060200190620000cc9291906200049e565b5080600d9080519060200190620000e59291906200049e565b506012600e60006101000a81548160ff021916908360ff1602179055505050600062000116620001cd60201b60201c565b905080600e60016101000a81548173ffffffffffffffffffffffffffffffffffffffff021916908373ffffffffffffffffffffffffffffffffffffffff1602179055508073ffffffffffffffffffffffffffffffffffffffff16600073ffffffffffffffffffffffffffffffffffffffff167f8be0079c531659141344cd1fd0a4f28419497f9722a3daafe3b4186f6b6457e060405160405180910390a350620001c681620001d560201b60201c565b5062000544565b600033905090565b600860009054906101000a900460ff1615620001f057600080fd5b6000670de0b6b3a7640000820290506200021133826200023060201b60201c565b6001600860006101000a81548160ff0219169083151502179055505050565b600073ffffffffffffffffffffffffffffffffffffffff168273ffffffffffffffffffffffffffffffffffffffff161415620002d4576040517f08c379a000000000000000000000000000000000000000000000000000000000815260040180806020018281038252601f8152602001807f45524332303a206d696e7420746f20746865207a65726f20616464726573730081525060200191505060405180910390fd5b620002e8600083836200041060201b60201c565b6200030481600b546200041560201b6200200f1790919060201c565b600b819055506200036381600960008573ffffffffffffffffffffffffffffffffffffffff1673ffffffffffffffffffffffffffffffffffffffff168152602001908152602001600020546200041560201b6200200f1790919060201c565b600960008473ffffffffffffffffffffffffffffffffffffffff1673ffffffffffffffffffffffffffffffffffffffff168152602001908152602001600020819055508173ffffffffffffffffffffffffffffffffffffffff16600073ffffffffffffffffffffffffffffffffffffffff167fddf252ad1be2c89b69c2b068fc378daa952ba7f163c4a11628f55a4df523b3ef836040518082815260200191505060405180910390a35050565b505050565b60008082840190508381101562000494576040517f08c379a000000000000000000000000000000000000000000000000000000000815260040180806020018281038252601b8152602001807f536166654d6174683a206164646974696f6e206f766572666c6f77000000000081525060200191505060405180910390fd5b8091505092915050565b828054600181600116156101000203166002900490600052602060002090601f016020900481019282601f10620004e157805160ff191683800117855562000512565b8280016001018555821562000512579182015b8281111562000511578251825591602001919060010190620004f4565b5b50905062000521919062000525565b5090565b5b808211156200054057600081600090555060010162000526565b5090565b6129e380620005546000396000f3fe60806040526004361061011f5760003560e01c8063739f213f116100a0578063d122183b11610064578063d122183b146107d1578063dd62ed3e14610930578063f2fde38b146109b5578063f50d0e6914610a06578063fe4b84df14610b6c5761011f565b8063739f213f1461056a5780638da5cb5b1461061e57806395d89b411461065f578063a457c2d7146106ef578063a9059cbb146107605761011f565b80633072cf60116100e75780633072cf6014610422578063313ce5671461044f578063395093511461047d57806370a08231146104ee578063715018a6146105535761011f565b806306fdde0314610124578063095ea7b3146101b457806318160ddd1461022557806323b872dd1461025057806326a38ad5146102e1575b600080fd5b34801561013057600080fd5b50610139610ba7565b6040518080602001828103825283818151815260200191508051906020019080838360005b8381101561017957808201518184015260208101905061015e565b50505050905090810190601f1680156101a65780820380516001836020036101000a031916815260200191505b509250505060405180910390f35b3480156101c057600080fd5b5061020d600480360360408110156101d757600080fd5b81019080803573ffffffffffffffffffffffffffffffffffffffff16906020019092919080359060200190929190505050610c49565b60405180821515815260200191505060405180910390f35b34801561023157600080fd5b5061023a610c67565b6040518082815260200191505060405180910390f35b34801561025c57600080fd5b506102c96004803603606081101561027357600080fd5b81019080803573ffffffffffffffffffffffffffffffffffffffff169060200190929190803573ffffffffffffffffffffffffffffffffffffffff16906020019092919080359060200190929190505050610c71565b60405180821515815260200191505060405180910390f35b3480156102ed57600080fd5b506103a76004803603602081101561030457600080fd5b810190808035906020019064010000000081111561032157600080fd5b82018360208201111561033357600080fd5b8035906020019184600183028401116401000000008311171561035557600080fd5b91908080601f016020809104026020016040519081016040528093929190818152602001838380828437600081840152601f19601f820116905080830192505050505050509192919290505050610d4a565b6040518080602001828103825283818151815260200191508051906020019080838360005b838110156103e75780820151818401526020810190506103cc565b50505050905090810190601f1680156104145780820380516001836020036101000a031916815260200191505b509250505060405180910390f35b34801561042e57600080fd5b50610437610e58565b60405180821515815260200191505060405180910390f35b34801561045b57600080fd5b50610464610e6b565b604051808260ff16815260200191505060405180910390f35b34801561048957600080fd5b506104d6600480360360408110156104a057600080fd5b81019080803573ffffffffffffffffffffffffffffffffffffffff16906020019092919080359060200190929190505050610e82565b60405180821515815260200191505060405180910390f35b3480156104fa57600080fd5b5061053d6004803603602081101561051157600080fd5b81019080803573ffffffffffffffffffffffffffffffffffffffff169060200190929190505050610f35565b6040518082815260200191505060405180910390f35b34801561055f57600080fd5b50610568610f7e565b005b34801561057657600080fd5b506105a36004803603602081101561058d57600080fd5b8101908080359060200190929190505050611109565b6040518080602001828103825283818151815260200191508051906020019080838360005b838110156105e35780820151818401526020810190506105c8565b50505050905090810190601f1680156106105780820380516001836020036101000a031916815260200191505b509250505060405180910390f35b34801561062a57600080fd5b506106336111c2565b604051808273ffffffffffffffffffffffffffffffffffffffff16815260200191505060405180910390f35b34801561066b57600080fd5b506106746111ec565b6040518080602001828103825283818151815260200191508051906020019080838360005b838110156106b4578082015181840152602081019050610699565b50505050905090810190601f1680156106e15780820380516001836020036101000a031916815260200191505b509250505060405180910390f35b3480156106fb57600080fd5b506107486004803603604081101561071257600080fd5b81019080803573ffffffffffffffffffffffffffffffffffffffff1690602001909291908035906020019092919050505061128e565b60405180821515815260200191505060405180910390f35b34801561076c57600080fd5b506107b96004803603604081101561078357600080fd5b81019080803573ffffffffffffffffffffffffffffffffffffffff1690602001909291908035906020019092919050505061135b565b60405180821515815260200191505060405180910390f35b3480156107dd57600080fd5b5061092e600480360360408110156107f457600080fd5b810190808035906020019064010000000081111561081157600080fd5b82018360208201111561082357600080fd5b8035906020019184600183028401116401000000008311171561084557600080fd5b91908080601f016020809104026020016040519081016040528093929190818152602001838380828437600081840152601f19601f820116905080830192505050505050509192919290803590602001906401000000008111156108a857600080fd5b8201836020820111156108ba57600080fd5b803590602001918460018302840111640100000000831117156108dc57600080fd5b91908080601f016020809104026020016040519081016040528093929190818152602001838380828437600081840152601f19601f820116905080830192505050505050509192919290505050611379565b005b34801561093c57600080fd5b5061099f6004803603604081101561095357600080fd5b81019080803573ffffffffffffffffffffffffffffffffffffffff169060200190929190803573ffffffffffffffffffffffffffffffffffffffff1690602001909291905050506118cc565b6040518082815260200191505060405180910390f35b3480156109c157600080fd5b50610a04600480360360208110156109d857600080fd5b81019080803573ffffffffffffffffffffffffffffffffffffffff169060200190929190505050611953565b005b610b6a60048036036080811015610a1c57600080fd5b8101908080359060200190640100000000811115610a3957600080fd5b820183602082011115610a4b57600080fd5b80359060200191846001830284011164010000000083111715610a6d57600080fd5b91908080601f016020809104026020016040519081016040528093929190818152602001838380828437600081840152601f19601f82011690508083019250505050505050919291929080359060200190640100000000811115610ad057600080fd5b820183602082011115610ae257600080fd5b80359060200191846001830284011164010000000083111715610b0457600080fd5b91908080601f016020809104026020016040519081016040528093929190818152602001838380828437600081840152601f19601f8201169050808301925050505050505091929192908035906020019092919080359060200190929190505050611b63565b005b348015610b7857600080fd5b50610ba560048036036020811015610b8f57600080fd5b8101908080359060200190929190505050611fbd565b005b6060600c8054600181600116156101000203166002900480601f016020809104026020016040519081016040528092919081815260200182805460018160011615610100020316600290048015610c3f5780601f10610c1457610100808354040283529160200191610c3f565b820191906000526020600020905b815481529060010190602001808311610c2257829003601f168201915b5050505050905090565b6000610c5d610c56612097565b848461209f565b6001905092915050565b6000600b54905090565b6000610c7e848484612296565b610d3f84610c8a612097565b610d3a8560405180606001604052806028815260200161291860289139600a60008b73ffffffffffffffffffffffffffffffffffffffff1673ffffffffffffffffffffffffffffffffffffffff1681526020019081526020016000206000610cf0612097565b73ffffffffffffffffffffffffffffffffffffffff1673ffffffffffffffffffffffffffffffffffffffff1681526020019081526020016000205461255b9092919063ffffffff16565b61209f565b600190509392505050565b60606002826040518082805190602001908083835b60208310610d825780518252602082019150602081019050602083039250610d5f565b6001836020036101000a03801982511681845116808217855250505050505090500191505090815260200160405180910390206001018054600181600116156101000203166002900480601f016020809104026020016040519081016040528092919081815260200182805460018160011615610100020316600290048015610e4c5780601f10610e2157610100808354040283529160200191610e4c565b820191906000526020600020905b815481529060010190602001808311610e2f57829003601f168201915b50505050509050919050565b600860009054906101000a900460ff1681565b6000600e60009054906101000a900460ff16905090565b6000610f2b610e8f612097565b84610f2685600a6000610ea0612097565b73ffffffffffffffffffffffffffffffffffffffff1673ffffffffffffffffffffffffffffffffffffffff16815260200190815260200160002060008973ffffffffffffffffffffffffffffffffffffffff1673ffffffffffffffffffffffffffffffffffffffff1681526020019081526020016000205461200f90919063ffffffff16565b61209f565b6001905092915050565b6000600960008373ffffffffffffffffffffffffffffffffffffffff1673ffffffffffffffffffffffffffffffffffffffff168152602001908152602001600020549050919050565b610f86612097565b73ffffffffffffffffffffffffffffffffffffffff16600e60019054906101000a900473ffffffffffffffffffffffffffffffffffffffff1673ffffffffffffffffffffffffffffffffffffffff1614611048576040517f08c379a00000000000000000000000000000000000000000000000000000000081526004018080602001828103825260208152602001807f4f776e61626c653a2063616c6c6572206973206e6f7420746865206f776e657281525060200191505060405180910390fd5b600073ffffffffffffffffffffffffffffffffffffffff16600e60019054906101000a900473ffffffffffffffffffffffffffffffffffffffff1673ffffffffffffffffffffffffffffffffffffffff167f8be0079c531659141344cd1fd0a4f28419497f9722a3daafe3b4186f6b6457e060405160405180910390a36000600e60016101000a81548173ffffffffffffffffffffffffffffffffffffffff021916908373ffffffffffffffffffffffffffffffffffffffff160217905550565b60606000828154811061111857fe5b906000526020600020018054600181600116156101000203166002900480601f0160208091040260200160405190810160405280929190818152602001828054600181600116156101000203166002900480156111b65780601f1061118b576101008083540402835291602001916111b6565b820191906000526020600020905b81548152906001019060200180831161119957829003601f168201915b50505050509050919050565b6000600e60019054906101000a900473ffffffffffffffffffffffffffffffffffffffff16905090565b6060600d8054600181600116156101000203166002900480601f0160208091040260200160405190810160405280929190818152602001828054600181600116156101000203166002900480156112845780601f1061125957610100808354040283529160200191611284565b820191906000526020600020905b81548152906001019060200180831161126757829003601f168201915b5050505050905090565b600061135161129b612097565b8461134c8560405180606001604052806025815260200161298960259139600a60006112c5612097565b73ffffffffffffffffffffffffffffffffffffffff1673ffffffffffffffffffffffffffffffffffffffff16815260200190815260200160002060008a73ffffffffffffffffffffffffffffffffffffffff1673ffffffffffffffffffffffffffffffffffffffff1681526020019081526020016000205461255b9092919063ffffffff16565b61209f565b6001905092915050565b600061136f611368612097565b8484612296565b6001905092915050565b600160003373ffffffffffffffffffffffffffffffffffffffff1673ffffffffffffffffffffffffffffffffffffffff168152602001908152602001600020826040518082805190602001908083835b602083106113ec57805182526020820191506020810190506020830392506113c9565b6001836020036101000a038019825116818451168082178552505050505050905001915050908152602001604051809103902060009054906101000a900460ff161561143757600080fd5b60018060003373ffffffffffffffffffffffffffffffffffffffff1673ffffffffffffffffffffffffffffffffffffffff168152602001908152602001600020836040518082805190602001908083835b602083106114ab5780518252602082019150602081019050602083039250611488565b6001836020036101000a038019825116818451168082178552505050505050905001915050908152602001604051809103902060006101000a81548160ff0219169083151502179055506002826040518082805190602001908083835b6020831061152b5780518252602082019150602081019050602083039250611508565b6001836020036101000a038019825116818451168082178552505050505050905001915050908152602001604051809103902060030160009054906101000a900460ff161561157957600080fd5b806002836040518082805190602001908083835b602083106115b0578051825260208201915060208101905060208303925061158d565b6001836020036101000a038019825116818451168082178552505050505050905001915050908152602001604051809103902060020190805190602001906115f99291906127e9565b506002826040518082805190602001908083835b60208310611630578051825260208201915060208101905060208303925061160d565b6001836020036101000a03801982511681845116808217855250505050505090500191505090815260200160405180910390206006016000815480929190600101919050555061176230336002856040518082805190602001908083835b602083106116b1578051825260208201915060208101905060208303925061168e565b6001836020036101000a0380198251168184511680821785525050505050509050019150509081526020016040518091039020600501546002866040518082805190602001908083835b6020831061171e57805182526020820191506020810190506020830392506116fb565b6001836020036101000a0380198251168184511680821785525050505050509050019150509081526020016040518091039020600401548161175c57fe5b04612296565b6002826040518082805190602001908083835b602083106117985780518252602082019150602081019050602083039250611775565b6001836020036101000a0380198251168184511680821785525050505050509050019150509081526020016040518091039020600501546002836040518082805190602001908083835b6020831061180557805182526020820191506020810190506020830392506117e2565b6001836020036101000a03801982511681845116808217855250505050505090500191505090815260200160405180910390206006015414156118c85760016002836040518082805190602001908083835b6020831061187a5780518252602082019150602081019050602083039250611857565b6001836020036101000a038019825116818451168082178552505050505050905001915050908152602001604051809103902060030160006101000a81548160ff0219169083151502179055505b5050565b6000600a60008473ffffffffffffffffffffffffffffffffffffffff1673ffffffffffffffffffffffffffffffffffffffff16815260200190815260200160002060008373ffffffffffffffffffffffffffffffffffffffff1673ffffffffffffffffffffffffffffffffffffffff16815260200190815260200160002054905092915050565b61195b612097565b73ffffffffffffffffffffffffffffffffffffffff16600e60019054906101000a900473ffffffffffffffffffffffffffffffffffffffff1673ffffffffffffffffffffffffffffffffffffffff1614611a1d576040517f08c379a00000000000000000000000000000000000000000000000000000000081526004018080602001828103825260208152602001807f4f776e61626c653a2063616c6c6572206973206e6f7420746865206f776e657281525060200191505060405180910390fd5b600073ffffffffffffffffffffffffffffffffffffffff168173ffffffffffffffffffffffffffffffffffffffff161415611aa3576040517f08c379a00000000000000000000000000000000000000000000000000000000081526004018080602001828103825260268152602001806128aa6026913960400191505060405180910390fd5b8073ffffffffffffffffffffffffffffffffffffffff16600e60019054906101000a900473ffffffffffffffffffffffffffffffffffffffff1673ffffffffffffffffffffffffffffffffffffffff167f8be0079c531659141344cd1fd0a4f28419497f9722a3daafe3b4186f6b6457e060405160405180910390a380600e60016101000a81548173ffffffffffffffffffffffffffffffffffffffff021916908373ffffffffffffffffffffffffffffffffffffffff16021790555050565b6000670de0b6b3a764000082029050655af3107a4000838281611b8257fe5b041015611b8e57600080fd5b6000339050600086908060018154018082558091505060019003906000526020600020016000909190919091509080519060200190611bce9291906127e9565b50336002876040518082805190602001908083835b60208310611c065780518252602082019150602081019050602083039250611be3565b6001836020036101000a038019825116818451168082178552505050505050905001915050908152602001604051809103902060000160006101000a81548173ffffffffffffffffffffffffffffffffffffffff021916908373ffffffffffffffffffffffffffffffffffffffff160217905550846002876040518082805190602001908083835b60208310611cb15780518252602082019150602081019050602083039250611c8e565b6001836020036101000a03801982511681845116808217855250505050505090500191505090815260200160405180910390206001019080519060200190611cfa9291906127e9565b5060006002876040518082805190602001908083835b60208310611d335780518252602082019150602081019050602083039250611d10565b6001836020036101000a038019825116818451168082178552505050505050905001915050908152602001604051809103902060030160006101000a81548160ff021916908315150217905550600a60648381611d8c57fe5b040282036002876040518082805190602001908083835b60208310611dc65780518252602082019150602081019050602083039250611da3565b6001836020036101000a038019825116818451168082178552505050505050905001915050908152602001604051809103902060040181905550836002876040518082805190602001908083835b60208310611e375780518252602082019150602081019050602083039250611e14565b6001836020036101000a03801982511681845116808217855250505050505090500191505090815260200160405180910390206005018190555060006002876040518082805190602001908083835b60208310611ea95780518252602082019150602081019050602083039250611e86565b6001836020036101000a038019825116818451168082178552505050505050905001915050908152602001604051809103902060060181905550611f0281611eef6111c2565b600a60648681611efb57fe5b0402612296565b611f7981306002896040518082805190602001908083835b60208310611f3d5780518252602082019150602081019050602083039250611f1a565b6001836020036101000a038019825116818451168082178552505050505050905001915050908152602001604051809103902060040154612296565b7f448785165b227b28d3bdfd0e352a52b17641dc504a6eed914cf40d5619cacb5a6000805490506040518082815260200191505060405180910390a1505050505050565b600860009054906101000a900460ff1615611fd757600080fd5b6000670de0b6b3a764000082029050611ff0338261261b565b6001600860006101000a81548160ff0219169083151502179055505050565b60008082840190508381101561208d576040517f08c379a000000000000000000000000000000000000000000000000000000000815260040180806020018281038252601b8152602001807f536166654d6174683a206164646974696f6e206f766572666c6f77000000000081525060200191505060405180910390fd5b8091505092915050565b600033905090565b600073ffffffffffffffffffffffffffffffffffffffff168373ffffffffffffffffffffffffffffffffffffffff161415612125576040517f08c379a00000000000000000000000000000000000000000000000000000000081526004018080602001828103825260248152602001806129656024913960400191505060405180910390fd5b600073ffffffffffffffffffffffffffffffffffffffff168273ffffffffffffffffffffffffffffffffffffffff1614156121ab576040517f08c379a00000000000000000000000000000000000000000000000000000000081526004018080602001828103825260228152602001806128d06022913960400191505060405180910390fd5b80600a60008573ffffffffffffffffffffffffffffffffffffffff1673ffffffffffffffffffffffffffffffffffffffff16815260200190815260200160002060008473ffffffffffffffffffffffffffffffffffffffff1673ffffffffffffffffffffffffffffffffffffffff168152602001908152602001600020819055508173ffffffffffffffffffffffffffffffffffffffff168373ffffffffffffffffffffffffffffffffffffffff167f8c5be1e5ebec7d5bd14f71427d1e84f3dd0314c0f7b2291e5b200ac8c7c3b925836040518082815260200191505060405180910390a3505050565b600073ffffffffffffffffffffffffffffffffffffffff168373ffffffffffffffffffffffffffffffffffffffff16141561231c576040517f08c379a00000000000000000000000000000000000000000000000000000000081526004018080602001828103825260258152602001806129406025913960400191505060405180910390fd5b600073ffffffffffffffffffffffffffffffffffffffff168273ffffffffffffffffffffffffffffffffffffffff1614156123a2576040517f08c379a00000000000000000000000000000000000000000000000000000000081526004018080602001828103825260238152602001806128876023913960400191505060405180910390fd5b6123ad8383836127e4565b612419816040518060600160405280602681526020016128f260269139600960008773ffffffffffffffffffffffffffffffffffffffff1673ffffffffffffffffffffffffffffffffffffffff1681526020019081526020016000205461255b9092919063ffffffff16565b600960008573ffffffffffffffffffffffffffffffffffffffff1673ffffffffffffffffffffffffffffffffffffffff168152602001908152602001600020819055506124ae81600960008573ffffffffffffffffffffffffffffffffffffffff1673ffffffffffffffffffffffffffffffffffffffff1681526020019081526020016000205461200f90919063ffffffff16565b600960008473ffffffffffffffffffffffffffffffffffffffff1673ffffffffffffffffffffffffffffffffffffffff168152602001908152602001600020819055508173ffffffffffffffffffffffffffffffffffffffff168373ffffffffffffffffffffffffffffffffffffffff167fddf252ad1be2c89b69c2b068fc378daa952ba7f163c4a11628f55a4df523b3ef836040518082815260200191505060405180910390a3505050565b6000838311158290612608576040517f08c379a00000000000000000000000000000000000000000000000000000000081526004018080602001828103825283818151815260200191508051906020019080838360005b838110156125cd5780820151818401526020810190506125b2565b50505050905090810190601f1680156125fa5780820380516001836020036101000a031916815260200191505b509250505060405180910390fd5b5060008385039050809150509392505050565b600073ffffffffffffffffffffffffffffffffffffffff168273ffffffffffffffffffffffffffffffffffffffff1614156126be576040517f08c379a000000000000000000000000000000000000000000000000000000000815260040180806020018281038252601f8152602001807f45524332303a206d696e7420746f20746865207a65726f20616464726573730081525060200191505060405180910390fd5b6126ca600083836127e4565b6126df81600b5461200f90919063ffffffff16565b600b8190555061273781600960008573ffffffffffffffffffffffffffffffffffffffff1673ffffffffffffffffffffffffffffffffffffffff1681526020019081526020016000205461200f90919063ffffffff16565b600960008473ffffffffffffffffffffffffffffffffffffffff1673ffffffffffffffffffffffffffffffffffffffff168152602001908152602001600020819055508173ffffffffffffffffffffffffffffffffffffffff16600073ffffffffffffffffffffffffffffffffffffffff167fddf252ad1be2c89b69c2b068fc378daa952ba7f163c4a11628f55a4df523b3ef836040518082815260200191505060405180910390a35050565b505050565b828054600181600116156101000203166002900490600052602060002090601f016020900481019282601f1061282a57805160ff1916838001178555612858565b82800160010185558215612858579182015b8281111561285757825182559160200191906001019061283c565b5b5090506128659190612869565b5090565b5b8082111561288257600081600090555060010161286a565b509056fe45524332303a207472616e7366657220746f20746865207a65726f20616464726573734f776e61626c653a206e6577206f776e657220697320746865207a65726f206164647265737345524332303a20617070726f766520746f20746865207a65726f206164647265737345524332303a207472616e7366657220616d6f756e7420657863656564732062616c616e636545524332303a207472616e7366657220616d6f756e74206578636565647320616c6c6f77616e636545524332303a207472616e736665722066726f6d20746865207a65726f206164647265737345524332303a20617070726f76652066726f6d20746865207a65726f206164647265737345524332303a2064656372656173656420616c6c6f77616e63652062656c6f77207a65726fa2646970667358221220d1e55ae5c011877492723847031c950b405d70c7470886296c447e830f16fe0d64736f6c634300060c0033",
  "immutableReferences": {},
  "source": "// SPDX-License-Identifier: MIT\r\n\r\npragma solidity ^0.6.0;\r\n\r\nimport \"@openzeppelin/contracts/token/ERC20/ERC20.sol\";\r\nimport \"@openzeppelin/contracts/access/Ownable.sol\";\r\nimport \"./StorageSurveys.sol\";\r\n\r\ncontract FunctionalSurveys is StorageSurveys, ERC20, Ownable\r\n{\r\n// Initializing the contract\r\n\r\n  constructor(uint256 initialSupply) public ERC20(\"SurveyToken\", \"SVT\")\r\n  {\r\n    initialize(initialSupply);\r\n  }\r\n\r\n  function initialize(uint256 initialSupply) public\r\n  {\r\n    require(!_initialized);\r\n    uint internalInitialSupply = initialSupply * (10 ** 18);\r\n    _mint(msg.sender, internalInitialSupply);\r\n    _initialized = true;\r\n  }\r\n\r\n// Events\r\n\r\n  event surveyNumber(uint256 nr);\r\n\r\n// General app functions\r\n\r\n  function getSurveyName(uint256 _ofNumber) public view returns(string memory)\r\n  {\r\n    return(surveys[_ofNumber]);\r\n  }\r\n\r\n  function getChoices(string memory _name) public view returns(string memory)\r\n  {\r\n    return(surveyProps[_name].questions);\r\n  }\r\n\r\n  function setSurevey(string memory _name, string memory _questions, uint256 _participantsAllowed, uint256 _valueOfSurvey) public payable\r\n  {\r\n    uint256 _actualValueOfSurvey = _valueOfSurvey * (10**18);\r\n    require(_actualValueOfSurvey/_participantsAllowed >= 10**14);\r\n    address msgSender = msg.sender;\r\n    surveys.push(_name);\r\n    surveyProps[_name].surveyOwner = msg.sender;\r\n    surveyProps[_name].questions = _questions;\r\n    surveyProps[_name].stoppedStatus = false;\r\n    surveyProps[_name].valueOfSurvey = _actualValueOfSurvey - _actualValueOfSurvey/100*10;\r\n    surveyProps[_name].participantsAllowed = _participantsAllowed;\r\n    surveyProps[_name].totalParticipants = 0;\r\n    _transfer(msgSender, Ownable.owner(), _actualValueOfSurvey/100*10);\r\n    _transfer(msgSender, address(this), surveyProps[_name].valueOfSurvey);\r\n    emit surveyNumber(surveys.length);\r\n  }\r\n\r\n  function setAnswers(string memory _name, string memory _answers) public\r\n  {\r\n    require(!userVotes[msg.sender][_name]);\r\n    userVotes[msg.sender][_name] = true;\r\n    require(!surveyProps[_name].stoppedStatus);\r\n    surveyProps[_name].answers = _answers;\r\n    surveyProps[_name].totalParticipants++;\r\n    _transfer(address(this), msg.sender, surveyProps[_name].valueOfSurvey / surveyProps[_name].participantsAllowed);\r\n    if(surveyProps[_name].totalParticipants == surveyProps[_name].participantsAllowed) surveyProps[_name].stoppedStatus = true;\r\n  }\r\n\r\n  /*function vote(string memory _name, string memory _choice) public\r\n  {\r\n    require(!surveyProps[_name].stoppedStatus);\r\n    require(!userVotes[msg.sender][_name]);\r\n    surveyProps[_name].votesOfEachChoice[_choice].push(msg.sender);\r\n    surveyProps[_name].votedTimes++;\r\n    userVotes[msg.sender][_name] = true;\r\n    assert(userVotes[msg.sender][_name]);\r\n    _transfer(address(this), msg.sender, surveyProps[_name].valueOfSurvey / surveyProps[_name].possibleVotes);\r\n    if(surveyProps[_name].votedTimes == surveyProps[_name].possibleVotes) surveyProps[_name].stoppedStatus = true;\r\n  }*/\r\n\r\n}\r\n",
  "sourcePath": "C:/Users/User/Projects/Surveys_V2/contracts/FunctionalSurveys.sol",
  "compiler": {
    "name": "solc",
    "version": "0.6.12+commit.27d51765.Emscripten.clang"
  },
  "schemaVersion": "3.2.4",
  "updatedAt": "2020-09-15T18:12:17.923Z",
  "networkType": "ethereum",
  "devdoc": {
    "kind": "dev",
    "methods": {
      "allowance(address,address)": {
        "details": "See {IERC20-allowance}."
      },
      "approve(address,uint256)": {
        "details": "See {IERC20-approve}. Requirements: - `spender` cannot be the zero address."
      },
      "balanceOf(address)": {
        "details": "See {IERC20-balanceOf}."
      },
      "decimals()": {
        "details": "Returns the number of decimals used to get its user representation. For example, if `decimals` equals `2`, a balance of `505` tokens should be displayed to a user as `5,05` (`505 / 10 ** 2`). Tokens usually opt for a value of 18, imitating the relationship between Ether and Wei. This is the value {ERC20} uses, unless {_setupDecimals} is called. NOTE: This information is only used for _display_ purposes: it in no way affects any of the arithmetic of the contract, including {IERC20-balanceOf} and {IERC20-transfer}."
      },
      "decreaseAllowance(address,uint256)": {
        "details": "Atomically decreases the allowance granted to `spender` by the caller. This is an alternative to {approve} that can be used as a mitigation for problems described in {IERC20-approve}. Emits an {Approval} event indicating the updated allowance. Requirements: - `spender` cannot be the zero address. - `spender` must have allowance for the caller of at least `subtractedValue`."
      },
      "increaseAllowance(address,uint256)": {
        "details": "Atomically increases the allowance granted to `spender` by the caller. This is an alternative to {approve} that can be used as a mitigation for problems described in {IERC20-approve}. Emits an {Approval} event indicating the updated allowance. Requirements: - `spender` cannot be the zero address."
      },
      "name()": {
        "details": "Returns the name of the token."
      },
      "owner()": {
        "details": "Returns the address of the current owner."
      },
      "renounceOwnership()": {
        "details": "Leaves the contract without owner. It will not be possible to call `onlyOwner` functions anymore. Can only be called by the current owner. NOTE: Renouncing ownership will leave the contract without an owner, thereby removing any functionality that is only available to the owner."
      },
      "symbol()": {
        "details": "Returns the symbol of the token, usually a shorter version of the name."
      },
      "totalSupply()": {
        "details": "See {IERC20-totalSupply}."
      },
      "transfer(address,uint256)": {
        "details": "See {IERC20-transfer}. Requirements: - `recipient` cannot be the zero address. - the caller must have a balance of at least `amount`."
      },
      "transferFrom(address,address,uint256)": {
        "details": "See {IERC20-transferFrom}. Emits an {Approval} event indicating the updated allowance. This is not required by the EIP. See the note at the beginning of {ERC20}; Requirements: - `sender` and `recipient` cannot be the zero address. - `sender` must have a balance of at least `amount`. - the caller must have allowance for ``sender``'s tokens of at least `amount`."
      },
      "transferOwnership(address)": {
        "details": "Transfers ownership of the contract to a new account (`newOwner`). Can only be called by the current owner."
      }
    },
    "version": 1
  },
  "userdoc": {
    "kind": "user",
    "methods": {},
    "version": 1
  }
}