{
  "contractName": "FunctionalSurveys",
  "abi": [
    {
      "inputs": [],
      "stateMutability": "nonpayable",
      "type": "constructor"
    },
    {
      "anonymous": false,
      "inputs": [
        {
          "indexed": true,
          "internalType": "address",
          "name": "owner",
          "type": "address"
        },
        {
          "indexed": true,
          "internalType": "address",
          "name": "spender",
          "type": "address"
        },
        {
          "indexed": false,
          "internalType": "uint256",
          "name": "value",
          "type": "uint256"
        }
      ],
      "name": "Approval",
      "type": "event"
    },
    {
      "anonymous": false,
      "inputs": [
        {
          "indexed": true,
          "internalType": "address",
          "name": "previousOwner",
          "type": "address"
        },
        {
          "indexed": true,
          "internalType": "address",
          "name": "newOwner",
          "type": "address"
        }
      ],
      "name": "OwnershipTransferred",
      "type": "event"
    },
    {
      "anonymous": false,
      "inputs": [
        {
          "indexed": true,
          "internalType": "address",
          "name": "from",
          "type": "address"
        },
        {
          "indexed": true,
          "internalType": "address",
          "name": "to",
          "type": "address"
        },
        {
          "indexed": false,
          "internalType": "uint256",
          "name": "value",
          "type": "uint256"
        }
      ],
      "name": "Transfer",
      "type": "event"
    },
    {
      "anonymous": false,
      "inputs": [
        {
          "indexed": false,
          "internalType": "uint256",
          "name": "nr",
          "type": "uint256"
        }
      ],
      "name": "surveyNumber",
      "type": "event"
    },
    {
      "inputs": [],
      "name": "_initialized",
      "outputs": [
        {
          "internalType": "bool",
          "name": "",
          "type": "bool"
        }
      ],
      "stateMutability": "view",
      "type": "function",
      "constant": true
    },
    {
      "inputs": [
        {
          "internalType": "address",
          "name": "owner",
          "type": "address"
        },
        {
          "internalType": "address",
          "name": "spender",
          "type": "address"
        }
      ],
      "name": "allowance",
      "outputs": [
        {
          "internalType": "uint256",
          "name": "",
          "type": "uint256"
        }
      ],
      "stateMutability": "view",
      "type": "function",
      "constant": true
    },
    {
      "inputs": [
        {
          "internalType": "address",
          "name": "spender",
          "type": "address"
        },
        {
          "internalType": "uint256",
          "name": "amount",
          "type": "uint256"
        }
      ],
      "name": "approve",
      "outputs": [
        {
          "internalType": "bool",
          "name": "",
          "type": "bool"
        }
      ],
      "stateMutability": "nonpayable",
      "type": "function"
    },
    {
      "inputs": [
        {
          "internalType": "address",
          "name": "account",
          "type": "address"
        }
      ],
      "name": "balanceOf",
      "outputs": [
        {
          "internalType": "uint256",
          "name": "",
          "type": "uint256"
        }
      ],
      "stateMutability": "view",
      "type": "function",
      "constant": true
    },
    {
      "inputs": [],
      "name": "decimals",
      "outputs": [
        {
          "internalType": "uint8",
          "name": "",
          "type": "uint8"
        }
      ],
      "stateMutability": "view",
      "type": "function",
      "constant": true
    },
    {
      "inputs": [
        {
          "internalType": "address",
          "name": "spender",
          "type": "address"
        },
        {
          "internalType": "uint256",
          "name": "subtractedValue",
          "type": "uint256"
        }
      ],
      "name": "decreaseAllowance",
      "outputs": [
        {
          "internalType": "bool",
          "name": "",
          "type": "bool"
        }
      ],
      "stateMutability": "nonpayable",
      "type": "function"
    },
    {
      "inputs": [
        {
          "internalType": "string",
          "name": "_name",
          "type": "string"
        }
      ],
      "name": "getParticipantsAllowed",
      "outputs": [
        {
          "internalType": "uint256",
          "name": "",
          "type": "uint256"
        }
      ],
      "stateMutability": "view",
      "type": "function",
      "constant": true
    },
    {
      "inputs": [
        {
          "internalType": "string",
          "name": "_name",
          "type": "string"
        },
        {
          "internalType": "uint256",
          "name": "_ofNumber",
          "type": "uint256"
        }
      ],
      "name": "getSurveyAnswers",
      "outputs": [
        {
          "internalType": "string",
          "name": "",
          "type": "string"
        }
      ],
      "stateMutability": "view",
      "type": "function",
      "constant": true
    },
    {
      "inputs": [
        {
          "internalType": "uint256",
          "name": "_ofNumber",
          "type": "uint256"
        }
      ],
      "name": "getSurveyName",
      "outputs": [
        {
          "internalType": "string",
          "name": "",
          "type": "string"
        }
      ],
      "stateMutability": "view",
      "type": "function",
      "constant": true
    },
    {
      "inputs": [
        {
          "internalType": "string",
          "name": "_name",
          "type": "string"
        }
      ],
      "name": "getSurveyQuestions",
      "outputs": [
        {
          "internalType": "string",
          "name": "",
          "type": "string"
        }
      ],
      "stateMutability": "view",
      "type": "function",
      "constant": true
    },
    {
      "inputs": [
        {
          "internalType": "string",
          "name": "_name",
          "type": "string"
        }
      ],
      "name": "getSurveyTotalParticipants",
      "outputs": [
        {
          "internalType": "uint256",
          "name": "",
          "type": "uint256"
        }
      ],
      "stateMutability": "view",
      "type": "function",
      "constant": true
    },
    {
      "inputs": [
        {
          "internalType": "string",
          "name": "_valueName",
          "type": "string"
        }
      ],
      "name": "getUintStorage",
      "outputs": [
        {
          "internalType": "uint256",
          "name": "",
          "type": "uint256"
        }
      ],
      "stateMutability": "view",
      "type": "function",
      "constant": true
    },
    {
      "inputs": [],
      "name": "getUserCreatedSurveys",
      "outputs": [
        {
          "internalType": "uint256",
          "name": "",
          "type": "uint256"
        }
      ],
      "stateMutability": "view",
      "type": "function",
      "constant": true
    },
    {
      "inputs": [
        {
          "internalType": "uint256",
          "name": "_index",
          "type": "uint256"
        }
      ],
      "name": "getUserSurveyOfNumber",
      "outputs": [
        {
          "internalType": "string",
          "name": "",
          "type": "string"
        }
      ],
      "stateMutability": "view",
      "type": "function",
      "constant": true
    },
    {
      "inputs": [
        {
          "internalType": "address",
          "name": "spender",
          "type": "address"
        },
        {
          "internalType": "uint256",
          "name": "addedValue",
          "type": "uint256"
        }
      ],
      "name": "increaseAllowance",
      "outputs": [
        {
          "internalType": "bool",
          "name": "",
          "type": "bool"
        }
      ],
      "stateMutability": "nonpayable",
      "type": "function"
    },
    {
      "inputs": [],
      "name": "name",
      "outputs": [
        {
          "internalType": "string",
          "name": "",
          "type": "string"
        }
      ],
      "stateMutability": "view",
      "type": "function",
      "constant": true
    },
    {
      "inputs": [],
      "name": "owner",
      "outputs": [
        {
          "internalType": "address",
          "name": "",
          "type": "address"
        }
      ],
      "stateMutability": "view",
      "type": "function",
      "constant": true
    },
    {
      "inputs": [],
      "name": "renounceOwnership",
      "outputs": [],
      "stateMutability": "nonpayable",
      "type": "function"
    },
    {
      "inputs": [],
      "name": "symbol",
      "outputs": [
        {
          "internalType": "string",
          "name": "",
          "type": "string"
        }
      ],
      "stateMutability": "view",
      "type": "function",
      "constant": true
    },
    {
      "inputs": [],
      "name": "totalSupply",
      "outputs": [
        {
          "internalType": "uint256",
          "name": "",
          "type": "uint256"
        }
      ],
      "stateMutability": "view",
      "type": "function",
      "constant": true
    },
    {
      "inputs": [
        {
          "internalType": "address",
          "name": "recipient",
          "type": "address"
        },
        {
          "internalType": "uint256",
          "name": "amount",
          "type": "uint256"
        }
      ],
      "name": "transfer",
      "outputs": [
        {
          "internalType": "bool",
          "name": "",
          "type": "bool"
        }
      ],
      "stateMutability": "nonpayable",
      "type": "function"
    },
    {
      "inputs": [
        {
          "internalType": "address",
          "name": "sender",
          "type": "address"
        },
        {
          "internalType": "address",
          "name": "recipient",
          "type": "address"
        },
        {
          "internalType": "uint256",
          "name": "amount",
          "type": "uint256"
        }
      ],
      "name": "transferFrom",
      "outputs": [
        {
          "internalType": "bool",
          "name": "",
          "type": "bool"
        }
      ],
      "stateMutability": "nonpayable",
      "type": "function"
    },
    {
      "inputs": [
        {
          "internalType": "address",
          "name": "newOwner",
          "type": "address"
        }
      ],
      "name": "transferOwnership",
      "outputs": [],
      "stateMutability": "nonpayable",
      "type": "function"
    },
    {
      "inputs": [],
      "name": "initialize",
      "outputs": [],
      "stateMutability": "nonpayable",
      "type": "function"
    },
    {
      "inputs": [
        {
          "internalType": "string",
          "name": "_name",
          "type": "string"
        },
        {
          "internalType": "string",
          "name": "_questions",
          "type": "string"
        },
        {
          "internalType": "uint256",
          "name": "_participantsAllowed",
          "type": "uint256"
        },
        {
          "internalType": "uint256",
          "name": "_valueOfSurvey",
          "type": "uint256"
        }
      ],
      "name": "setSurvey",
      "outputs": [],
      "stateMutability": "payable",
      "type": "function",
      "payable": true
    },
    {
      "inputs": [
        {
          "internalType": "string",
          "name": "_name",
          "type": "string"
        },
        {
          "internalType": "string",
          "name": "_answers",
          "type": "string"
        }
      ],
      "name": "answerSurvey",
      "outputs": [],
      "stateMutability": "nonpayable",
      "type": "function"
    }
  ],
  "bytecode": "0x60806040523480156200001157600080fd5b506103e86040518060400160405280600b81526020017f537572766579546f6b656e0000000000000000000000000000000000000000008152506040518060400160405280600381526020017f5356540000000000000000000000000000000000000000000000000000000000815250816003908051906020019062000099929190620004ab565b508060049080519060200190620000b2929190620004ab565b506012600560006101000a81548160ff021916908360ff16021790555050506000620000e3620001bb60201b60201c565b905080600560016101000a81548173ffffffffffffffffffffffffffffffffffffffff021916908373ffffffffffffffffffffffffffffffffffffffff1602179055508073ffffffffffffffffffffffffffffffffffffffff16600073ffffffffffffffffffffffffffffffffffffffff167f8be0079c531659141344cd1fd0a4f28419497f9722a3daafe3b4186f6b6457e060405160405180910390a3506000670de0b6b3a764000082029050620001a33382620001c360201b60201c565b5050620001b5620003a160201b60201c565b62000551565b600033905090565b600073ffffffffffffffffffffffffffffffffffffffff168273ffffffffffffffffffffffffffffffffffffffff16141562000267576040517f08c379a000000000000000000000000000000000000000000000000000000000815260040180806020018281038252601f8152602001807f45524332303a206d696e7420746f20746865207a65726f20616464726573730081525060200191505060405180910390fd5b6200027b600083836200041d60201b60201c565b62000297816002546200042260201b62002a681790919060201c565b600281905550620002f5816000808573ffffffffffffffffffffffffffffffffffffffff1673ffffffffffffffffffffffffffffffffffffffff168152602001908152602001600020546200042260201b62002a681790919060201c565b6000808473ffffffffffffffffffffffffffffffffffffffff1673ffffffffffffffffffffffffffffffffffffffff168152602001908152602001600020819055508173ffffffffffffffffffffffffffffffffffffffff16600073ffffffffffffffffffffffffffffffffffffffff167fddf252ad1be2c89b69c2b068fc378daa952ba7f163c4a11628f55a4df523b3ef836040518082815260200191505060405180910390a35050565b600f60009054906101000a900460ff1615620003bc57600080fd5b6000600a60405180807f746f74616c537572766579730000000000000000000000000000000000000000815250600c0190509081526020016040518091039020819055506001600f60006101000a81548160ff021916908315150217905550565b505050565b600080828401905083811015620004a1576040517f08c379a000000000000000000000000000000000000000000000000000000000815260040180806020018281038252601b8152602001807f536166654d6174683a206164646974696f6e206f766572666c6f77000000000081525060200191505060405180910390fd5b8091505092915050565b828054600181600116156101000203166002900490600052602060002090601f016020900481019282601f10620004ee57805160ff19168380011785556200051f565b828001600101855582156200051f579182015b828111156200051e57825182559160200191906001019062000501565b5b5090506200052e919062000532565b5090565b5b808211156200054d57600081600090555060010162000533565b5090565b61326f80620005616000396000f3fe6080604052600436106101815760003560e01c8063715018a6116100d15780638da5cb5b1161008a578063a9059cbb11610064578063a9059cbb14610dfd578063c5b4471214610e6e578063dd62ed3e14610fcd578063f2fde38b1461105257610181565b80638da5cb5b14610cbb57806395d89b4114610cfc578063a457c2d714610d8c57610181565b8063715018a6146108bb57806371f40077146108d2578063739f213f146109ae5780637886e7aa14610a625780638129fc1c14610bc85780638c3e778e14610bdf57610181565b80633072cf601161013e5780634d9dddb3116101185780634d9dddb31461069b578063613303f31461074f57806365ae67c81461077a57806370a082311461085657610181565b80633072cf60146105cf578063313ce567146105fc578063395093511461062a57610181565b806306fdde0314610186578063095ea7b314610216578063155ddb071461028757806316339bf8146103c857806318160ddd1461051357806323b872dd1461053e575b600080fd5b34801561019257600080fd5b5061019b6110a3565b6040518080602001828103825283818151815260200191508051906020019080838360005b838110156101db5780820151818401526020810190506101c0565b50505050905090810190601f1680156102085780820380516001836020036101000a031916815260200191505b509250505060405180910390f35b34801561022257600080fd5b5061026f6004803603604081101561023957600080fd5b81019080803573ffffffffffffffffffffffffffffffffffffffff16906020019092919080359060200190929190505050611145565b60405180821515815260200191505060405180910390f35b34801561029357600080fd5b5061034d600480360360208110156102aa57600080fd5b81019080803590602001906401000000008111156102c757600080fd5b8201836020820111156102d957600080fd5b803590602001918460018302840111640100000000831117156102fb57600080fd5b91908080601f016020809104026020016040519081016040528093929190818152602001838380828437600081840152601f19601f820116905080830192505050505050509192919290505050611163565b6040518080602001828103825283818151815260200191508051906020019080838360005b8381101561038d578082015181840152602081019050610372565b50505050905090810190601f1680156103ba5780820380516001836020036101000a031916815260200191505b509250505060405180910390f35b3480156103d457600080fd5b50610498600480360360408110156103eb57600080fd5b810190808035906020019064010000000081111561040857600080fd5b82018360208201111561041a57600080fd5b8035906020019184600183028401116401000000008311171561043c57600080fd5b91908080601f016020809104026020016040519081016040528093929190818152602001838380828437600081840152601f19601f82011690508083019250505050505050919291929080359060200190929190505050611271565b6040518080602001828103825283818151815260200191508051906020019080838360005b838110156104d85780820151818401526020810190506104bd565b50505050905090810190601f1680156105055780820380516001836020036101000a031916815260200191505b509250505060405180910390f35b34801561051f57600080fd5b50610528611395565b6040518082815260200191505060405180910390f35b34801561054a57600080fd5b506105b76004803603606081101561056157600080fd5b81019080803573ffffffffffffffffffffffffffffffffffffffff169060200190929190803573ffffffffffffffffffffffffffffffffffffffff1690602001909291908035906020019092919050505061139f565b60405180821515815260200191505060405180910390f35b3480156105db57600080fd5b506105e4611478565b60405180821515815260200191505060405180910390f35b34801561060857600080fd5b5061061161148b565b604051808260ff16815260200191505060405180910390f35b34801561063657600080fd5b506106836004803603604081101561064d57600080fd5b81019080803573ffffffffffffffffffffffffffffffffffffffff169060200190929190803590602001909291905050506114a2565b60405180821515815260200191505060405180910390f35b3480156106a757600080fd5b506106d4600480360360208110156106be57600080fd5b8101908080359060200190929190505050611555565b6040518080602001828103825283818151815260200191508051906020019080838360005b838110156107145780820151818401526020810190506106f9565b50505050905090810190601f1680156107415780820380516001836020036101000a031916815260200191505b509250505060405180910390f35b34801561075b57600080fd5b5061076461164a565b6040518082815260200191505060405180910390f35b34801561078657600080fd5b506108406004803603602081101561079d57600080fd5b81019080803590602001906401000000008111156107ba57600080fd5b8201836020820111156107cc57600080fd5b803590602001918460018302840111640100000000831117156107ee57600080fd5b91908080601f016020809104026020016040519081016040528093929190818152602001838380828437600081840152601f19601f820116905080830192505050505050509192919290505050611694565b6040518082815260200191505060405180910390f35b34801561086257600080fd5b506108a56004803603602081101561087957600080fd5b81019080803573ffffffffffffffffffffffffffffffffffffffff169060200190929190505050611707565b6040518082815260200191505060405180910390f35b3480156108c757600080fd5b506108d061174f565b005b3480156108de57600080fd5b50610998600480360360208110156108f557600080fd5b810190808035906020019064010000000081111561091257600080fd5b82018360208201111561092457600080fd5b8035906020019184600183028401116401000000008311171561094657600080fd5b91908080601f016020809104026020016040519081016040528093929190818152602001838380828437600081840152601f19601f8201169050808301925050505050505091929192905050506118da565b6040518082815260200191505060405180910390f35b3480156109ba57600080fd5b506109e7600480360360208110156109d157600080fd5b8101908080359060200190929190505050611950565b6040518080602001828103825283818151815260200191508051906020019080838360005b83811015610a27578082015181840152602081019050610a0c565b50505050905090810190601f168015610a545780820380516001836020036101000a031916815260200191505b509250505060405180910390f35b610bc660048036036080811015610a7857600080fd5b8101908080359060200190640100000000811115610a9557600080fd5b820183602082011115610aa757600080fd5b80359060200191846001830284011164010000000083111715610ac957600080fd5b91908080601f016020809104026020016040519081016040528093929190818152602001838380828437600081840152601f19601f82011690508083019250505050505050919291929080359060200190640100000000811115610b2c57600080fd5b820183602082011115610b3e57600080fd5b80359060200191846001830284011164010000000083111715610b6057600080fd5b91908080601f016020809104026020016040519081016040528093929190818152602001838380828437600081840152601f19601f8201169050808301925050505050505091929192908035906020019092919080359060200190929190505050611a09565b005b348015610bd457600080fd5b50610bdd611fb0565b005b348015610beb57600080fd5b50610ca560048036036020811015610c0257600080fd5b8101908080359060200190640100000000811115610c1f57600080fd5b820183602082011115610c3157600080fd5b80359060200191846001830284011164010000000083111715610c5357600080fd5b91908080601f016020809104026020016040519081016040528093929190818152602001838380828437600081840152601f19601f82011690508083019250505050505050919291929050505061202b565b6040518082815260200191505060405180910390f35b348015610cc757600080fd5b50610cd06120a1565b604051808273ffffffffffffffffffffffffffffffffffffffff16815260200191505060405180910390f35b348015610d0857600080fd5b50610d116120cb565b6040518080602001828103825283818151815260200191508051906020019080838360005b83811015610d51578082015181840152602081019050610d36565b50505050905090810190601f168015610d7e5780820380516001836020036101000a031916815260200191505b509250505060405180910390f35b348015610d9857600080fd5b50610de560048036036040811015610daf57600080fd5b81019080803573ffffffffffffffffffffffffffffffffffffffff1690602001909291908035906020019092919050505061216d565b60405180821515815260200191505060405180910390f35b348015610e0957600080fd5b50610e5660048036036040811015610e2057600080fd5b81019080803573ffffffffffffffffffffffffffffffffffffffff1690602001909291908035906020019092919050505061223a565b60405180821515815260200191505060405180910390f35b348015610e7a57600080fd5b50610fcb60048036036040811015610e9157600080fd5b8101908080359060200190640100000000811115610eae57600080fd5b820183602082011115610ec057600080fd5b80359060200191846001830284011164010000000083111715610ee257600080fd5b91908080601f016020809104026020016040519081016040528093929190818152602001838380828437600081840152601f19601f82011690508083019250505050505050919291929080359060200190640100000000811115610f4557600080fd5b820183602082011115610f5757600080fd5b80359060200191846001830284011164010000000083111715610f7957600080fd5b91908080601f016020809104026020016040519081016040528093929190818152602001838380828437600081840152601f19601f820116905080830192505050505050509192919290505050612258565b005b348015610fd957600080fd5b5061103c60048036036040811015610ff057600080fd5b81019080803573ffffffffffffffffffffffffffffffffffffffff169060200190929190803573ffffffffffffffffffffffffffffffffffffffff1690602001909291905050506127d1565b6040518082815260200191505060405180910390f35b34801561105e57600080fd5b506110a16004803603602081101561107557600080fd5b81019080803573ffffffffffffffffffffffffffffffffffffffff169060200190929190505050612858565b005b606060038054600181600116156101000203166002900480601f01602080910402602001604051908101604052809291908181526020018280546001816001161561010002031660029004801561113b5780601f106111105761010080835404028352916020019161113b565b820191906000526020600020905b81548152906001019060200180831161111e57829003601f168201915b5050505050905090565b6000611159611152612af0565b8484612af8565b6001905092915050565b60606006826040518082805190602001908083835b6020831061119b5780518252602082019150602081019050602083039250611178565b6001836020036101000a03801982511681845116808217855250505050505090500191505090815260200160405180910390206001018054600181600116156101000203166002900480601f0160208091040260200160405190810160405280929190818152602001828054600181600116156101000203166002900480156112655780601f1061123a57610100808354040283529160200191611265565b820191906000526020600020905b81548152906001019060200180831161124857829003601f168201915b50505050509050919050565b60606006836040518082805190602001908083835b602083106112a95780518252602082019150602081019050602083039250611286565b6001836020036101000a038019825116818451168082178552505050505050905001915050908152602001604051809103902060020182815481106112ea57fe5b906000526020600020018054600181600116156101000203166002900480601f0160208091040260200160405190810160405280929190818152602001828054600181600116156101000203166002900480156113885780601f1061135d57610100808354040283529160200191611388565b820191906000526020600020905b81548152906001019060200180831161136b57829003601f168201915b5050505050905092915050565b6000600254905090565b60006113ac848484612cef565b61146d846113b8612af0565b611468856040518060600160405280602881526020016131a460289139600160008b73ffffffffffffffffffffffffffffffffffffffff1673ffffffffffffffffffffffffffffffffffffffff168152602001908152602001600020600061141e612af0565b73ffffffffffffffffffffffffffffffffffffffff1673ffffffffffffffffffffffffffffffffffffffff16815260200190815260200160002054612fb09092919063ffffffff16565b612af8565b600190509392505050565b600f60009054906101000a900460ff1681565b6000600560009054906101000a900460ff16905090565b600061154b6114af612af0565b8461154685600160006114c0612af0565b73ffffffffffffffffffffffffffffffffffffffff1673ffffffffffffffffffffffffffffffffffffffff16815260200190815260200160002060008973ffffffffffffffffffffffffffffffffffffffff1673ffffffffffffffffffffffffffffffffffffffff16815260200190815260200160002054612a6890919063ffffffff16565b612af8565b6001905092915050565b6060600760003373ffffffffffffffffffffffffffffffffffffffff1673ffffffffffffffffffffffffffffffffffffffff16815260200190815260200160002060010160008381526020019081526020016000208054600181600116156101000203166002900480601f01602080910402602001604051908101604052809291908181526020018280546001816001161561010002031660029004801561163e5780601f106116135761010080835404028352916020019161163e565b820191906000526020600020905b81548152906001019060200180831161162157829003601f168201915b50505050509050919050565b6000600760003373ffffffffffffffffffffffffffffffffffffffff1673ffffffffffffffffffffffffffffffffffffffff16815260200190815260200160002060000154905090565b6000600a826040518082805190602001908083835b602083106116cc57805182526020820191506020810190506020830392506116a9565b6001836020036101000a0380198251168184511680821785525050505050509050019150509081526020016040518091039020549050919050565b60008060008373ffffffffffffffffffffffffffffffffffffffff1673ffffffffffffffffffffffffffffffffffffffff168152602001908152602001600020549050919050565b611757612af0565b73ffffffffffffffffffffffffffffffffffffffff16600560019054906101000a900473ffffffffffffffffffffffffffffffffffffffff1673ffffffffffffffffffffffffffffffffffffffff1614611819576040517f08c379a00000000000000000000000000000000000000000000000000000000081526004018080602001828103825260208152602001807f4f776e61626c653a2063616c6c6572206973206e6f7420746865206f776e657281525060200191505060405180910390fd5b600073ffffffffffffffffffffffffffffffffffffffff16600560019054906101000a900473ffffffffffffffffffffffffffffffffffffffff1673ffffffffffffffffffffffffffffffffffffffff167f8be0079c531659141344cd1fd0a4f28419497f9722a3daafe3b4186f6b6457e060405160405180910390a36000600560016101000a81548173ffffffffffffffffffffffffffffffffffffffff021916908373ffffffffffffffffffffffffffffffffffffffff160217905550565b60006006826040518082805190602001908083835b6020831061191257805182526020820191506020810190506020830392506118ef565b6001836020036101000a0380198251168184511680821785525050505050509050019150509081526020016040518091039020600501549050919050565b60606008828154811061195f57fe5b906000526020600020018054600181600116156101000203166002900480601f0160208091040260200160405190810160405280929190818152602001828054600181600116156101000203166002900480156119fd5780601f106119d2576101008083540402835291602001916119fd565b820191906000526020600020905b8154815290600101906020018083116119e057829003601f168201915b50505050509050919050565b6000670de0b6b3a764000082029050655af3107a4000838281611a2857fe5b041015611a3457600080fd5b6000339050600886908060018154018082558091505060019003906000526020600020016000909190919091509080519060200190611a74929190613075565b50600a60405180807f746f74616c537572766579730000000000000000000000000000000000000000815250600c019050908152602001604051809103902060008154809291906001019190505550806006876040518082805190602001908083835b60208310611afa5780518252602082019150602081019050602083039250611ad7565b6001836020036101000a038019825116818451168082178552505050505050905001915050908152602001604051809103902060000160006101000a81548173ffffffffffffffffffffffffffffffffffffffff021916908373ffffffffffffffffffffffffffffffffffffffff160217905550846006876040518082805190602001908083835b60208310611ba55780518252602082019150602081019050602083039250611b82565b6001836020036101000a03801982511681845116808217855250505050505090500191505090815260200160405180910390206001019080519060200190611bee929190613075565b5060006006876040518082805190602001908083835b60208310611c275780518252602082019150602081019050602083039250611c04565b6001836020036101000a038019825116818451168082178552505050505050905001915050908152602001604051809103902060030160006101000a81548160ff021916908315150217905550600a60648381611c8057fe5b040282036006876040518082805190602001908083835b60208310611cba5780518252602082019150602081019050602083039250611c97565b6001836020036101000a038019825116818451168082178552505050505050905001915050908152602001604051809103902060040181905550836006876040518082805190602001908083835b60208310611d2b5780518252602082019150602081019050602083039250611d08565b6001836020036101000a03801982511681845116808217855250505050505090500191505090815260200160405180910390206005018190555060006006876040518082805190602001908083835b60208310611d9d5780518252602082019150602081019050602083039250611d7a565b6001836020036101000a03801982511681845116808217855250505050505090500191505090815260200160405180910390206006018190555085600760008373ffffffffffffffffffffffffffffffffffffffff1673ffffffffffffffffffffffffffffffffffffffff1681526020019081526020016000206001016000600760008573ffffffffffffffffffffffffffffffffffffffff1673ffffffffffffffffffffffffffffffffffffffff1681526020019081526020016000206000015481526020019081526020016000209080519060200190611e80929190613075565b50600760008273ffffffffffffffffffffffffffffffffffffffff1673ffffffffffffffffffffffffffffffffffffffff16815260200190815260200160002060000160008154809291906001019190505550611ef281611edf6120a1565b600a60648681611eeb57fe5b0402612cef565b611f6981306006896040518082805190602001908083835b60208310611f2d5780518252602082019150602081019050602083039250611f0a565b6001836020036101000a038019825116818451168082178552505050505050905001915050908152602001604051809103902060040154612cef565b7f448785165b227b28d3bdfd0e352a52b17641dc504a6eed914cf40d5619cacb5a6001600880549050036040518082815260200191505060405180910390a1505050505050565b600f60009054906101000a900460ff1615611fca57600080fd5b6000600a60405180807f746f74616c537572766579730000000000000000000000000000000000000000815250600c0190509081526020016040518091039020819055506001600f60006101000a81548160ff021916908315150217905550565b60006006826040518082805190602001908083835b602083106120635780518252602082019150602081019050602083039250612040565b6001836020036101000a0380198251168184511680821785525050505050509050019150509081526020016040518091039020600601549050919050565b6000600560019054906101000a900473ffffffffffffffffffffffffffffffffffffffff16905090565b606060048054600181600116156101000203166002900480601f0160208091040260200160405190810160405280929190818152602001828054600181600116156101000203166002900480156121635780601f1061213857610100808354040283529160200191612163565b820191906000526020600020905b81548152906001019060200180831161214657829003601f168201915b5050505050905090565b600061223061217a612af0565b8461222b8560405180606001604052806025815260200161321560259139600160006121a4612af0565b73ffffffffffffffffffffffffffffffffffffffff1673ffffffffffffffffffffffffffffffffffffffff16815260200190815260200160002060008a73ffffffffffffffffffffffffffffffffffffffff1673ffffffffffffffffffffffffffffffffffffffff16815260200190815260200160002054612fb09092919063ffffffff16565b612af8565b6001905092915050565b600061224e612247612af0565b8484612cef565b6001905092915050565b6006826040518082805190602001908083835b6020831061228e578051825260208201915060208101905060208303925061226b565b6001836020036101000a0380198251168184511680821785525050505050509050019150509081526020016040518091039020600501546006836040518082805190602001908083835b602083106122fb57805182526020820191506020810190506020830392506122d8565b6001836020036101000a03801982511681845116808217855250505050505090500191505090815260200160405180910390206006015414156123be5760016006836040518082805190602001908083835b60208310612370578051825260208201915060208101905060208303925061234d565b6001836020036101000a038019825116818451168082178552505050505050905001915050908152602001604051809103902060030160006101000a81548160ff0219169083151502179055505b6006826040518082805190602001908083835b602083106123f457805182526020820191506020810190506020830392506123d1565b6001836020036101000a038019825116818451168082178552505050505050905001915050908152602001604051809103902060030160009054906101000a900460ff161561244257600080fd5b600960003373ffffffffffffffffffffffffffffffffffffffff1673ffffffffffffffffffffffffffffffffffffffff168152602001908152602001600020826040518082805190602001908083835b602083106124b55780518252602082019150602081019050602083039250612492565b6001836020036101000a038019825116818451168082178552505050505050905001915050908152602001604051809103902060009054906101000a900460ff161561250057600080fd5b6001600960003373ffffffffffffffffffffffffffffffffffffffff1673ffffffffffffffffffffffffffffffffffffffff168152602001908152602001600020836040518082805190602001908083835b602083106125755780518252602082019150602081019050602083039250612552565b6001836020036101000a038019825116818451168082178552505050505050905001915050908152602001604051809103902060006101000a81548160ff0219169083151502179055506006826040518082805190602001908083835b602083106125f557805182526020820191506020810190506020830392506125d2565b6001836020036101000a038019825116818451168082178552505050505050905001915050908152602001604051809103902060020181908060018154018082558091505060019003906000526020600020016000909190919091509080519060200190612664929190613075565b506006826040518082805190602001908083835b6020831061269b5780518252602082019150602081019050602083039250612678565b6001836020036101000a0380198251168184511680821785525050505050509050019150509081526020016040518091039020600601600081548092919060010191905055506127cd30336006856040518082805190602001908083835b6020831061271c57805182526020820191506020810190506020830392506126f9565b6001836020036101000a0380198251168184511680821785525050505050509050019150509081526020016040518091039020600501546006866040518082805190602001908083835b602083106127895780518252602082019150602081019050602083039250612766565b6001836020036101000a038019825116818451168082178552505050505050905001915050908152602001604051809103902060040154816127c757fe5b04612cef565b5050565b6000600160008473ffffffffffffffffffffffffffffffffffffffff1673ffffffffffffffffffffffffffffffffffffffff16815260200190815260200160002060008373ffffffffffffffffffffffffffffffffffffffff1673ffffffffffffffffffffffffffffffffffffffff16815260200190815260200160002054905092915050565b612860612af0565b73ffffffffffffffffffffffffffffffffffffffff16600560019054906101000a900473ffffffffffffffffffffffffffffffffffffffff1673ffffffffffffffffffffffffffffffffffffffff1614612922576040517f08c379a00000000000000000000000000000000000000000000000000000000081526004018080602001828103825260208152602001807f4f776e61626c653a2063616c6c6572206973206e6f7420746865206f776e657281525060200191505060405180910390fd5b600073ffffffffffffffffffffffffffffffffffffffff168173ffffffffffffffffffffffffffffffffffffffff1614156129a8576040517f08c379a00000000000000000000000000000000000000000000000000000000081526004018080602001828103825260268152602001806131366026913960400191505060405180910390fd5b8073ffffffffffffffffffffffffffffffffffffffff16600560019054906101000a900473ffffffffffffffffffffffffffffffffffffffff1673ffffffffffffffffffffffffffffffffffffffff167f8be0079c531659141344cd1fd0a4f28419497f9722a3daafe3b4186f6b6457e060405160405180910390a380600560016101000a81548173ffffffffffffffffffffffffffffffffffffffff021916908373ffffffffffffffffffffffffffffffffffffffff16021790555050565b600080828401905083811015612ae6576040517f08c379a000000000000000000000000000000000000000000000000000000000815260040180806020018281038252601b8152602001807f536166654d6174683a206164646974696f6e206f766572666c6f77000000000081525060200191505060405180910390fd5b8091505092915050565b600033905090565b600073ffffffffffffffffffffffffffffffffffffffff168373ffffffffffffffffffffffffffffffffffffffff161415612b7e576040517f08c379a00000000000000000000000000000000000000000000000000000000081526004018080602001828103825260248152602001806131f16024913960400191505060405180910390fd5b600073ffffffffffffffffffffffffffffffffffffffff168273ffffffffffffffffffffffffffffffffffffffff161415612c04576040517f08c379a000000000000000000000000000000000000000000000000000000000815260040180806020018281038252602281526020018061315c6022913960400191505060405180910390fd5b80600160008573ffffffffffffffffffffffffffffffffffffffff1673ffffffffffffffffffffffffffffffffffffffff16815260200190815260200160002060008473ffffffffffffffffffffffffffffffffffffffff1673ffffffffffffffffffffffffffffffffffffffff168152602001908152602001600020819055508173ffffffffffffffffffffffffffffffffffffffff168373ffffffffffffffffffffffffffffffffffffffff167f8c5be1e5ebec7d5bd14f71427d1e84f3dd0314c0f7b2291e5b200ac8c7c3b925836040518082815260200191505060405180910390a3505050565b600073ffffffffffffffffffffffffffffffffffffffff168373ffffffffffffffffffffffffffffffffffffffff161415612d75576040517f08c379a00000000000000000000000000000000000000000000000000000000081526004018080602001828103825260258152602001806131cc6025913960400191505060405180910390fd5b600073ffffffffffffffffffffffffffffffffffffffff168273ffffffffffffffffffffffffffffffffffffffff161415612dfb576040517f08c379a00000000000000000000000000000000000000000000000000000000081526004018080602001828103825260238152602001806131136023913960400191505060405180910390fd5b612e06838383613070565b612e718160405180606001604052806026815260200161317e602691396000808773ffffffffffffffffffffffffffffffffffffffff1673ffffffffffffffffffffffffffffffffffffffff16815260200190815260200160002054612fb09092919063ffffffff16565b6000808573ffffffffffffffffffffffffffffffffffffffff1673ffffffffffffffffffffffffffffffffffffffff16815260200190815260200160002081905550612f04816000808573ffffffffffffffffffffffffffffffffffffffff1673ffffffffffffffffffffffffffffffffffffffff16815260200190815260200160002054612a6890919063ffffffff16565b6000808473ffffffffffffffffffffffffffffffffffffffff1673ffffffffffffffffffffffffffffffffffffffff168152602001908152602001600020819055508173ffffffffffffffffffffffffffffffffffffffff168373ffffffffffffffffffffffffffffffffffffffff167fddf252ad1be2c89b69c2b068fc378daa952ba7f163c4a11628f55a4df523b3ef836040518082815260200191505060405180910390a3505050565b600083831115829061305d576040517f08c379a00000000000000000000000000000000000000000000000000000000081526004018080602001828103825283818151815260200191508051906020019080838360005b83811015613022578082015181840152602081019050613007565b50505050905090810190601f16801561304f5780820380516001836020036101000a031916815260200191505b509250505060405180910390fd5b5060008385039050809150509392505050565b505050565b828054600181600116156101000203166002900490600052602060002090601f016020900481019282601f106130b657805160ff19168380011785556130e4565b828001600101855582156130e4579182015b828111156130e35782518255916020019190600101906130c8565b5b5090506130f191906130f5565b5090565b5b8082111561310e5760008160009055506001016130f6565b509056fe45524332303a207472616e7366657220746f20746865207a65726f20616464726573734f776e61626c653a206e6577206f776e657220697320746865207a65726f206164647265737345524332303a20617070726f766520746f20746865207a65726f206164647265737345524332303a207472616e7366657220616d6f756e7420657863656564732062616c616e636545524332303a207472616e7366657220616d6f756e74206578636565647320616c6c6f77616e636545524332303a207472616e736665722066726f6d20746865207a65726f206164647265737345524332303a20617070726f76652066726f6d20746865207a65726f206164647265737345524332303a2064656372656173656420616c6c6f77616e63652062656c6f77207a65726fa2646970667358221220f849054bb0e162cbfcc0ab8828fe2cfb2b80c0daef7f78af73e67501affc7ea164736f6c634300060c0033",
  "immutableReferences": {},
  "source": "// SPDX-License-Identifier: MIT\r\n\r\npragma solidity ^0.6.0;\r\n\r\nimport \"@openzeppelin/contracts/access/Ownable.sol\";\r\nimport \"./StorageSurveys.sol\";\r\nimport \"./TokenSurveys.sol\";\r\n\r\n\r\ncontract FunctionalSurveys is Ownable, StorageSurveys, TokenSurveys(1000)\r\n{\r\n// Initializing the contract\r\n\r\n  constructor() public\r\n  {\r\n    initialize();\r\n  }\r\n\r\n  function initialize() public\r\n  {\r\n    require(!_initialized);\r\n    _uintStorage['totalSurveys'] = 0;\r\n    _initialized = true;\r\n  }\r\n\r\n// Events\r\n\r\n  event surveyNumber(uint256 nr);\r\n\r\n// General app functions\r\n\r\n  function setSurvey(string memory _name, string memory _questions, uint256 _participantsAllowed, uint256 _valueOfSurvey) public payable\r\n  {\r\n    //saving the value of survey with 18 decimals\r\n    uint256 _actualValueOfSurvey = _valueOfSurvey * (10**18);\r\n    //require that every user that participates at the survey gets at least 0.0001 coins\r\n    require(_actualValueOfSurvey/_participantsAllowed >= 10**14);\r\n    address msgSender = msg.sender;\r\n    //saving the new survey name to the array and saving the total number of surveys\r\n    surveys.push(_name);\r\n    _uintStorage['totalSurveys']++;\r\n    //creating a survey with it's properties\r\n    surveyProps[_name].surveyOwner = msgSender;\r\n    surveyProps[_name].questions = _questions;\r\n    surveyProps[_name].stoppedStatus = false;\r\n    surveyProps[_name].valueOfSurvey = _actualValueOfSurvey - _actualValueOfSurvey/100*10;\r\n    surveyProps[_name].participantsAllowed = _participantsAllowed;\r\n    surveyProps[_name].totalParticipants = 0;\r\n    //creating user account\r\n    userInfo[msgSender].surevysTitles[userInfo[msgSender].surveysCreated] = _name;\r\n    userInfo[msgSender].surveysCreated++;\r\n    //sending the rewards to the creator of the contract and setting the value of the survey\r\n    _transfer(msgSender, Ownable.owner(), _actualValueOfSurvey/100*10);\r\n    _transfer(msgSender, address(this), surveyProps[_name].valueOfSurvey);\r\n    //emiting the number of the survey in the array of surveys\r\n    emit surveyNumber(surveys.length - 1);\r\n  }\r\n\r\n  function answerSurvey(string memory _name, string memory _answers) public\r\n  {\r\n    //if the free slots for participation at this survey are filled stop the contract\r\n    if(surveyProps[_name].totalParticipants == surveyProps[_name].participantsAllowed) surveyProps[_name].stoppedStatus = true;\r\n    //require that the survey hase participation slots free and didn't stop\r\n    require(!surveyProps[_name].stoppedStatus);\r\n    //require that the user didn't participate at this survey and setting it's participation\r\n    require(!userParticipated[msg.sender][_name]);\r\n    userParticipated[msg.sender][_name] = true;\r\n    //setting new answers to the survey and updating the number of participants\r\n    surveyProps[_name].answers.push(_answers);\r\n    surveyProps[_name].totalParticipants++;\r\n    //sending the rewards for participating at the survey\r\n    _transfer(address(this), msg.sender, surveyProps[_name].valueOfSurvey / surveyProps[_name].participantsAllowed);\r\n  }\r\n\r\n  /*function vote(string memory _name, string memory _choice) public\r\n  {\r\n    require(!surveyProps[_name].stoppedStatus);\r\n    require(!userVotes[msg.sender][_name]);\r\n    surveyProps[_name].votesOfEachChoice[_choice].push(msg.sender);\r\n    surveyProps[_name].votedTimes++;\r\n    userVotes[msg.sender][_name] = true;\r\n    assert(userVotes[msg.sender][_name]);\r\n    _transfer(address(this), msg.sender, surveyProps[_name].valueOfSurvey / surveyProps[_name].possibleVotes);\r\n    if(surveyProps[_name].votedTimes == surveyProps[_name].possibleVotes) surveyProps[_name].stoppedStatus = true;\r\n  }*/\r\n\r\n}\r\n",
  "sourcePath": "C:/Users/Daniel/Projects/Surveys_V2/contracts/FunctionalSurveys.sol",
  "compiler": {
    "name": "solc",
    "version": "0.6.12+commit.27d51765.Emscripten.clang"
  },
  "schemaVersion": "3.2.5",
  "updatedAt": "2020-09-25T21:02:49.815Z",
  "networkType": "ethereum",
  "devdoc": {
    "kind": "dev",
    "methods": {
      "allowance(address,address)": {
        "details": "See {IERC20-allowance}."
      },
      "approve(address,uint256)": {
        "details": "See {IERC20-approve}. Requirements: - `spender` cannot be the zero address."
      },
      "balanceOf(address)": {
        "details": "See {IERC20-balanceOf}."
      },
      "decimals()": {
        "details": "Returns the number of decimals used to get its user representation. For example, if `decimals` equals `2`, a balance of `505` tokens should be displayed to a user as `5,05` (`505 / 10 ** 2`). Tokens usually opt for a value of 18, imitating the relationship between Ether and Wei. This is the value {ERC20} uses, unless {_setupDecimals} is called. NOTE: This information is only used for _display_ purposes: it in no way affects any of the arithmetic of the contract, including {IERC20-balanceOf} and {IERC20-transfer}."
      },
      "decreaseAllowance(address,uint256)": {
        "details": "Atomically decreases the allowance granted to `spender` by the caller. This is an alternative to {approve} that can be used as a mitigation for problems described in {IERC20-approve}. Emits an {Approval} event indicating the updated allowance. Requirements: - `spender` cannot be the zero address. - `spender` must have allowance for the caller of at least `subtractedValue`."
      },
      "increaseAllowance(address,uint256)": {
        "details": "Atomically increases the allowance granted to `spender` by the caller. This is an alternative to {approve} that can be used as a mitigation for problems described in {IERC20-approve}. Emits an {Approval} event indicating the updated allowance. Requirements: - `spender` cannot be the zero address."
      },
      "name()": {
        "details": "Returns the name of the token."
      },
      "owner()": {
        "details": "Returns the address of the current owner."
      },
      "renounceOwnership()": {
        "details": "Leaves the contract without owner. It will not be possible to call `onlyOwner` functions anymore. Can only be called by the current owner. NOTE: Renouncing ownership will leave the contract without an owner, thereby removing any functionality that is only available to the owner."
      },
      "symbol()": {
        "details": "Returns the symbol of the token, usually a shorter version of the name."
      },
      "totalSupply()": {
        "details": "See {IERC20-totalSupply}."
      },
      "transfer(address,uint256)": {
        "details": "See {IERC20-transfer}. Requirements: - `recipient` cannot be the zero address. - the caller must have a balance of at least `amount`."
      },
      "transferFrom(address,address,uint256)": {
        "details": "See {IERC20-transferFrom}. Emits an {Approval} event indicating the updated allowance. This is not required by the EIP. See the note at the beginning of {ERC20}; Requirements: - `sender` and `recipient` cannot be the zero address. - `sender` must have a balance of at least `amount`. - the caller must have allowance for ``sender``'s tokens of at least `amount`."
      },
      "transferOwnership(address)": {
        "details": "Transfers ownership of the contract to a new account (`newOwner`). Can only be called by the current owner."
      }
    },
    "version": 1
  },
  "userdoc": {
    "kind": "user",
    "methods": {},
    "version": 1
  }
}