{
  "contractName": "PollFunc",
  "abi": [
    {
      "inputs": [
        {
          "internalType": "address",
          "name": "token",
          "type": "address"
        }
      ],
      "stateMutability": "nonpayable",
      "type": "constructor"
    },
    {
      "anonymous": false,
      "inputs": [
        {
          "indexed": false,
          "internalType": "address",
          "name": "operator",
          "type": "address"
        },
        {
          "indexed": false,
          "internalType": "address",
          "name": "from",
          "type": "address"
        },
        {
          "indexed": false,
          "internalType": "address",
          "name": "to",
          "type": "address"
        },
        {
          "indexed": false,
          "internalType": "uint256",
          "name": "amount",
          "type": "uint256"
        },
        {
          "indexed": false,
          "internalType": "bytes",
          "name": "userData",
          "type": "bytes"
        },
        {
          "indexed": false,
          "internalType": "bytes",
          "name": "operatorData",
          "type": "bytes"
        }
      ],
      "name": "DoneStuff",
      "type": "event"
    },
    {
      "anonymous": false,
      "inputs": [
        {
          "indexed": true,
          "internalType": "address",
          "name": "previousOwner",
          "type": "address"
        },
        {
          "indexed": true,
          "internalType": "address",
          "name": "newOwner",
          "type": "address"
        }
      ],
      "name": "OwnershipTransferred",
      "type": "event"
    },
    {
      "anonymous": false,
      "inputs": [
        {
          "indexed": false,
          "internalType": "uint256",
          "name": "nr",
          "type": "uint256"
        }
      ],
      "name": "pollNumber",
      "type": "event"
    },
    {
      "inputs": [
        {
          "internalType": "string",
          "name": "_name",
          "type": "string"
        },
        {
          "internalType": "string",
          "name": "_choice",
          "type": "string"
        }
      ],
      "name": "getPollChoiceVotes",
      "outputs": [
        {
          "internalType": "uint256",
          "name": "",
          "type": "uint256"
        }
      ],
      "stateMutability": "view",
      "type": "function",
      "constant": true
    },
    {
      "inputs": [
        {
          "internalType": "string",
          "name": "_name",
          "type": "string"
        }
      ],
      "name": "getPollChoices",
      "outputs": [
        {
          "internalType": "string",
          "name": "",
          "type": "string"
        }
      ],
      "stateMutability": "view",
      "type": "function",
      "constant": true
    },
    {
      "inputs": [
        {
          "internalType": "uint256",
          "name": "_ofNumber",
          "type": "uint256"
        }
      ],
      "name": "getPollName",
      "outputs": [
        {
          "internalType": "string",
          "name": "",
          "type": "string"
        }
      ],
      "stateMutability": "view",
      "type": "function",
      "constant": true
    },
    {
      "inputs": [
        {
          "internalType": "string",
          "name": "_name",
          "type": "string"
        }
      ],
      "name": "getPollOwner",
      "outputs": [
        {
          "internalType": "address",
          "name": "",
          "type": "address"
        }
      ],
      "stateMutability": "view",
      "type": "function",
      "constant": true
    },
    {
      "inputs": [
        {
          "internalType": "string",
          "name": "_name",
          "type": "string"
        }
      ],
      "name": "getPollParticipantsAllowed",
      "outputs": [
        {
          "internalType": "uint256",
          "name": "",
          "type": "uint256"
        }
      ],
      "stateMutability": "view",
      "type": "function",
      "constant": true
    },
    {
      "inputs": [
        {
          "internalType": "string",
          "name": "_name",
          "type": "string"
        }
      ],
      "name": "getPollStoppedStatus",
      "outputs": [
        {
          "internalType": "bool",
          "name": "",
          "type": "bool"
        }
      ],
      "stateMutability": "view",
      "type": "function",
      "constant": true
    },
    {
      "inputs": [
        {
          "internalType": "string",
          "name": "_name",
          "type": "string"
        }
      ],
      "name": "getPollTotalParticipants",
      "outputs": [
        {
          "internalType": "uint256",
          "name": "",
          "type": "uint256"
        }
      ],
      "stateMutability": "view",
      "type": "function",
      "constant": true
    },
    {
      "inputs": [
        {
          "internalType": "string",
          "name": "_name",
          "type": "string"
        }
      ],
      "name": "getPollValue",
      "outputs": [
        {
          "internalType": "uint256",
          "name": "",
          "type": "uint256"
        }
      ],
      "stateMutability": "view",
      "type": "function",
      "constant": true
    },
    {
      "inputs": [
        {
          "internalType": "string",
          "name": "_name",
          "type": "string"
        },
        {
          "internalType": "uint256",
          "name": "_ofNumber",
          "type": "uint256"
        }
      ],
      "name": "getSurveyAnswers",
      "outputs": [
        {
          "internalType": "string",
          "name": "",
          "type": "string"
        }
      ],
      "stateMutability": "view",
      "type": "function",
      "constant": true
    },
    {
      "inputs": [
        {
          "internalType": "uint256",
          "name": "_ofNumber",
          "type": "uint256"
        }
      ],
      "name": "getSurveyName",
      "outputs": [
        {
          "internalType": "string",
          "name": "",
          "type": "string"
        }
      ],
      "stateMutability": "view",
      "type": "function",
      "constant": true
    },
    {
      "inputs": [
        {
          "internalType": "string",
          "name": "_name",
          "type": "string"
        }
      ],
      "name": "getSurveyOwner",
      "outputs": [
        {
          "internalType": "address",
          "name": "",
          "type": "address"
        }
      ],
      "stateMutability": "view",
      "type": "function",
      "constant": true
    },
    {
      "inputs": [
        {
          "internalType": "string",
          "name": "_name",
          "type": "string"
        }
      ],
      "name": "getSurveyParticipantsAllowed",
      "outputs": [
        {
          "internalType": "uint256",
          "name": "",
          "type": "uint256"
        }
      ],
      "stateMutability": "view",
      "type": "function",
      "constant": true
    },
    {
      "inputs": [
        {
          "internalType": "string",
          "name": "_name",
          "type": "string"
        }
      ],
      "name": "getSurveyQuestions",
      "outputs": [
        {
          "internalType": "string",
          "name": "",
          "type": "string"
        }
      ],
      "stateMutability": "view",
      "type": "function",
      "constant": true
    },
    {
      "inputs": [
        {
          "internalType": "string",
          "name": "_name",
          "type": "string"
        }
      ],
      "name": "getSurveyStoppedStatus",
      "outputs": [
        {
          "internalType": "bool",
          "name": "",
          "type": "bool"
        }
      ],
      "stateMutability": "view",
      "type": "function",
      "constant": true
    },
    {
      "inputs": [
        {
          "internalType": "string",
          "name": "_name",
          "type": "string"
        }
      ],
      "name": "getSurveyTotalParticipants",
      "outputs": [
        {
          "internalType": "uint256",
          "name": "",
          "type": "uint256"
        }
      ],
      "stateMutability": "view",
      "type": "function",
      "constant": true
    },
    {
      "inputs": [
        {
          "internalType": "string",
          "name": "_name",
          "type": "string"
        }
      ],
      "name": "getSurveyValue",
      "outputs": [
        {
          "internalType": "uint256",
          "name": "",
          "type": "uint256"
        }
      ],
      "stateMutability": "view",
      "type": "function",
      "constant": true
    },
    {
      "inputs": [
        {
          "internalType": "string",
          "name": "_valueName",
          "type": "string"
        }
      ],
      "name": "getUintStorage",
      "outputs": [
        {
          "internalType": "uint256",
          "name": "",
          "type": "uint256"
        }
      ],
      "stateMutability": "view",
      "type": "function",
      "constant": true
    },
    {
      "inputs": [],
      "name": "getUserCreatedPolls",
      "outputs": [
        {
          "internalType": "uint256",
          "name": "",
          "type": "uint256"
        }
      ],
      "stateMutability": "view",
      "type": "function",
      "constant": true
    },
    {
      "inputs": [],
      "name": "getUserCreatedSurveys",
      "outputs": [
        {
          "internalType": "uint256",
          "name": "",
          "type": "uint256"
        }
      ],
      "stateMutability": "view",
      "type": "function",
      "constant": true
    },
    {
      "inputs": [
        {
          "internalType": "uint256",
          "name": "_index",
          "type": "uint256"
        }
      ],
      "name": "getUserNumberOfPolls",
      "outputs": [
        {
          "internalType": "string",
          "name": "",
          "type": "string"
        }
      ],
      "stateMutability": "view",
      "type": "function",
      "constant": true
    },
    {
      "inputs": [
        {
          "internalType": "uint256",
          "name": "_index",
          "type": "uint256"
        }
      ],
      "name": "getUserNumberOfSurveys",
      "outputs": [
        {
          "internalType": "string",
          "name": "",
          "type": "string"
        }
      ],
      "stateMutability": "view",
      "type": "function",
      "constant": true
    },
    {
      "inputs": [],
      "name": "owner",
      "outputs": [
        {
          "internalType": "address",
          "name": "",
          "type": "address"
        }
      ],
      "stateMutability": "view",
      "type": "function",
      "constant": true
    },
    {
      "inputs": [],
      "name": "renounceOwnership",
      "outputs": [],
      "stateMutability": "nonpayable",
      "type": "function"
    },
    {
      "inputs": [
        {
          "internalType": "address",
          "name": "newOwner",
          "type": "address"
        }
      ],
      "name": "transferOwnership",
      "outputs": [],
      "stateMutability": "nonpayable",
      "type": "function"
    },
    {
      "inputs": [
        {
          "internalType": "address",
          "name": "operator",
          "type": "address"
        },
        {
          "internalType": "address",
          "name": "from",
          "type": "address"
        },
        {
          "internalType": "address",
          "name": "to",
          "type": "address"
        },
        {
          "internalType": "uint256",
          "name": "amount",
          "type": "uint256"
        },
        {
          "internalType": "bytes",
          "name": "userData",
          "type": "bytes"
        },
        {
          "internalType": "bytes",
          "name": "operatorData",
          "type": "bytes"
        }
      ],
      "name": "tokensReceived",
      "outputs": [],
      "stateMutability": "nonpayable",
      "type": "function"
    },
    {
      "inputs": [
        {
          "internalType": "string",
          "name": "_name",
          "type": "string"
        },
        {
          "internalType": "string",
          "name": "_choices",
          "type": "string"
        },
        {
          "internalType": "uint256",
          "name": "_participantsAllowed",
          "type": "uint256"
        },
        {
          "internalType": "uint256",
          "name": "_valueOfPoll",
          "type": "uint256"
        }
      ],
      "name": "setPoll",
      "outputs": [],
      "stateMutability": "payable",
      "type": "function",
      "payable": true
    },
    {
      "inputs": [
        {
          "internalType": "string",
          "name": "_name",
          "type": "string"
        },
        {
          "internalType": "string",
          "name": "_choice",
          "type": "string"
        }
      ],
      "name": "pollParticipation",
      "outputs": [],
      "stateMutability": "nonpayable",
      "type": "function"
    }
  ],
  "bytecode": "0x6080604052731820a4b7618bde71dce8cdc73aab6c95905fad24600e60006101000a81548173ffffffffffffffffffffffffffffffffffffffff021916908373ffffffffffffffffffffffffffffffffffffffff1602179055503480156200006657600080fd5b506040516200448c3803806200448c833981810160405260208110156200008c57600080fd5b81019080805190602001909291905050506000620000af6200028160201b60201c565b905080600c60006101000a81548173ffffffffffffffffffffffffffffffffffffffff021916908373ffffffffffffffffffffffffffffffffffffffff1602179055508073ffffffffffffffffffffffffffffffffffffffff16600073ffffffffffffffffffffffffffffffffffffffff167f8be0079c531659141344cd1fd0a4f28419497f9722a3daafe3b4186f6b6457e060405160405180910390a35080600f60006101000a81548173ffffffffffffffffffffffffffffffffffffffff021916908373ffffffffffffffffffffffffffffffffffffffff160217905550600e60009054906101000a900473ffffffffffffffffffffffffffffffffffffffff1673ffffffffffffffffffffffffffffffffffffffff166329965a1d307fb281fc8c12954d22544db45de3159a39272895b169a852b314f9cc762e44c53b306040518463ffffffff1660e01b8152600401808473ffffffffffffffffffffffffffffffffffffffff1681526020018381526020018273ffffffffffffffffffffffffffffffffffffffff1681526020019350505050600060405180830381600087803b1580156200026157600080fd5b505af115801562000276573d6000803e3d6000fd5b505050505062000289565b600033905090565b6141f380620002996000396000f3fe60806040526004361061019b5760003560e01c806377865d71116100ec5780639ade79a21161008a578063ad27106b11610064578063ad27106b14611507578063d468991c146115f9578063f2e21d8214611758578063f2fde38b1461180c5761019b565b80639ade79a214611271578063a441a3fd1461134d578063a99d21b41461142b5761019b565b80638b6139b2116100c65780638b6139b214610f3a5780638c3e778e146110a05780638da5cb5b1461117c57806391c35b79146111bd5761019b565b806377865d7114610d575780637c1dc72b14610e3357806385f8830314610f0f5761019b565b80633572a92611610159578063613303f311610133578063613303f314610b8557806365ae67c814610bb0578063715018a614610c8c578063739f213f14610ca35761019b565b80633572a926146108825780633cd4ef18146109365780634d25871d14610aa95761019b565b806223de29146101a0578063094c291b146102e55780630b5ceb78146103c3578063155ddb07146104b557806316339bf8146105f65780631ed4cba314610741575b600080fd5b3480156101ac57600080fd5b506102e3600480360360c08110156101c357600080fd5b81019080803573ffffffffffffffffffffffffffffffffffffffff169060200190929190803573ffffffffffffffffffffffffffffffffffffffff169060200190929190803573ffffffffffffffffffffffffffffffffffffffff169060200190929190803590602001909291908035906020019064010000000081111561024a57600080fd5b82018360208201111561025c57600080fd5b8035906020019184600183028401116401000000008311171561027e57600080fd5b90919293919293908035906020019064010000000081111561029f57600080fd5b8201836020820111156102b157600080fd5b803590602001918460018302840111640100000000831117156102d357600080fd5b909192939192939050505061185d565b005b3480156102f157600080fd5b506103ab6004803603602081101561030857600080fd5b810190808035906020019064010000000081111561032557600080fd5b82018360208201111561033757600080fd5b8035906020019184600183028401116401000000008311171561035957600080fd5b91908080601f016020809104026020016040519081016040528093929190818152602001838380828437600081840152601f19601f820116905080830192505050505050509192919290505050611a06565b60405180821515815260200191505060405180910390f35b3480156103cf57600080fd5b50610489600480360360208110156103e657600080fd5b810190808035906020019064010000000081111561040357600080fd5b82018360208201111561041557600080fd5b8035906020019184600183028401116401000000008311171561043757600080fd5b91908080601f016020809104026020016040519081016040528093929190818152602001838380828437600081840152601f19601f820116905080830192505050505050509192919290505050611ac5565b604051808273ffffffffffffffffffffffffffffffffffffffff16815260200191505060405180910390f35b3480156104c157600080fd5b5061057b600480360360208110156104d857600080fd5b81019080803590602001906401000000008111156104f557600080fd5b82018360208201111561050757600080fd5b8035906020019184600183028401116401000000008311171561052957600080fd5b91908080601f016020809104026020016040519081016040528093929190818152602001838380828437600081840152601f19601f820116905080830192505050505050509192919290505050611b96565b6040518080602001828103825283818151815260200191508051906020019080838360005b838110156105bb5780820151818401526020810190506105a0565b50505050905090810190601f1680156105e85780820380516001836020036101000a031916815260200191505b509250505060405180910390f35b34801561060257600080fd5b506106c66004803603604081101561061957600080fd5b810190808035906020019064010000000081111561063657600080fd5b82018360208201111561064857600080fd5b8035906020019184600183028401116401000000008311171561066a57600080fd5b91908080601f016020809104026020016040519081016040528093929190818152602001838380828437600081840152601f19601f82011690508083019250505050505050919291929080359060200190929190505050611ce0565b6040518080602001828103825283818151815260200191508051906020019080838360005b838110156107065780820151818401526020810190506106eb565b50505050905090810190601f1680156107335780820380516001836020036101000a031916815260200191505b509250505060405180910390f35b34801561074d57600080fd5b506108076004803603602081101561076457600080fd5b810190808035906020019064010000000081111561078157600080fd5b82018360208201111561079357600080fd5b803590602001918460018302840111640100000000831117156107b557600080fd5b91908080601f016020809104026020016040519081016040528093929190818152602001838380828437600081840152601f19601f820116905080830192505050505050509192919290505050611e40565b6040518080602001828103825283818151815260200191508051906020019080838360005b8381101561084757808201518184015260208101905061082c565b50505050905090810190601f1680156108745780820380516001836020036101000a031916815260200191505b509250505060405180910390f35b34801561088e57600080fd5b506108bb600480360360208110156108a557600080fd5b8101908080359060200190929190505050611f8a565b6040518080602001828103825283818151815260200191508051906020019080838360005b838110156108fb5780820151818401526020810190506108e0565b50505050905090810190601f1680156109285780820380516001836020036101000a031916815260200191505b509250505060405180910390f35b34801561094257600080fd5b50610a936004803603604081101561095957600080fd5b810190808035906020019064010000000081111561097657600080fd5b82018360208201111561098857600080fd5b803590602001918460018302840111640100000000831117156109aa57600080fd5b91908080601f016020809104026020016040519081016040528093929190818152602001838380828437600081840152601f19601f82011690508083019250505050505050919291929080359060200190640100000000811115610a0d57600080fd5b820183602082011115610a1f57600080fd5b80359060200191846001830284011164010000000083111715610a4157600080fd5b91908080601f016020809104026020016040519081016040528093929190818152602001838380828437600081840152601f19601f82011690508083019250505050505050919291929050505061207f565b6040518082815260200191505060405180910390f35b348015610ab557600080fd5b50610b6f60048036036020811015610acc57600080fd5b8101908080359060200190640100000000811115610ae957600080fd5b820183602082011115610afb57600080fd5b80359060200191846001830284011164010000000083111715610b1d57600080fd5b91908080601f016020809104026020016040519081016040528093929190818152602001838380828437600081840152601f19601f82011690508083019250505050505050919291929050505061215d565b6040518082815260200191505060405180910390f35b348015610b9157600080fd5b50610b9a61220e565b6040518082815260200191505060405180910390f35b348015610bbc57600080fd5b50610c7660048036036020811015610bd357600080fd5b8101908080359060200190640100000000811115610bf057600080fd5b820183602082011115610c0257600080fd5b80359060200191846001830284011164010000000083111715610c2457600080fd5b91908080601f016020809104026020016040519081016040528093929190818152602001838380828437600081840152601f19601f820116905080830192505050505050509192919290505050612294565b6040518082815260200191505060405180910390f35b348015610c9857600080fd5b50610ca1612307565b005b348015610caf57600080fd5b50610cdc60048036036020811015610cc657600080fd5b8101908080359060200190929190505050612492565b6040518080602001828103825283818151815260200191508051906020019080838360005b83811015610d1c578082015181840152602081019050610d01565b50505050905090810190601f168015610d495780820380516001836020036101000a031916815260200191505b509250505060405180910390f35b348015610d6357600080fd5b50610e1d60048036036020811015610d7a57600080fd5b8101908080359060200190640100000000811115610d9757600080fd5b820183602082011115610da957600080fd5b80359060200191846001830284011164010000000083111715610dcb57600080fd5b91908080601f016020809104026020016040519081016040528093929190818152602001838380828437600081840152601f19601f820116905080830192505050505050509192919290505050612587565b6040518082815260200191505060405180910390f35b348015610e3f57600080fd5b50610ef960048036036020811015610e5657600080fd5b8101908080359060200190640100000000811115610e7357600080fd5b820183602082011115610e8557600080fd5b80359060200191846001830284011164010000000083111715610ea757600080fd5b91908080601f016020809104026020016040519081016040528093929190818152602001838380828437600081840152601f19601f820116905080830192505050505050509192919290505050612639565b6040518082815260200191505060405180910390f35b348015610f1b57600080fd5b50610f246126eb565b6040518082815260200191505060405180910390f35b61109e60048036036080811015610f5057600080fd5b8101908080359060200190640100000000811115610f6d57600080fd5b820183602082011115610f7f57600080fd5b80359060200191846001830284011164010000000083111715610fa157600080fd5b91908080601f016020809104026020016040519081016040528093929190818152602001838380828437600081840152601f19601f8201169050808301925050505050505091929192908035906020019064010000000081111561100457600080fd5b82018360208201111561101657600080fd5b8035906020019184600183028401116401000000008311171561103857600080fd5b91908080601f016020809104026020016040519081016040528093929190818152602001838380828437600081840152601f19601f8201169050808301925050505050505091929192908035906020019092919080359060200190929190505050612771565b005b3480156110ac57600080fd5b50611166600480360360208110156110c357600080fd5b81019080803590602001906401000000008111156110e057600080fd5b8201836020820111156110f257600080fd5b8035906020019184600183028401116401000000008311171561111457600080fd5b91908080601f016020809104026020016040519081016040528093929190818152602001838380828437600081840152601f19601f8201169050808301925050505050505091929192905050506130ca565b6040518082815260200191505060405180910390f35b34801561118857600080fd5b5061119161317b565b604051808273ffffffffffffffffffffffffffffffffffffffff16815260200191505060405180910390f35b3480156111c957600080fd5b506111f6600480360360208110156111e057600080fd5b81019080803590602001909291905050506131a5565b6040518080602001828103825283818151815260200191508051906020019080838360005b8381101561123657808201518184015260208101905061121b565b50505050905090810190601f1680156112635780820380516001836020036101000a031916815260200191505b509250505060405180910390f35b34801561127d57600080fd5b506113376004803603602081101561129457600080fd5b81019080803590602001906401000000008111156112b157600080fd5b8201836020820111156112c357600080fd5b803590602001918460018302840111640100000000831117156112e557600080fd5b91908080601f016020809104026020016040519081016040528093929190818152602001838380828437600081840152601f19601f82011690508083019250505050505050919291929050505061329a565b6040518082815260200191505060405180910390f35b34801561135957600080fd5b506114136004803603602081101561137057600080fd5b810190808035906020019064010000000081111561138d57600080fd5b82018360208201111561139f57600080fd5b803590602001918460018302840111640100000000831117156113c157600080fd5b91908080601f016020809104026020016040519081016040528093929190818152602001838380828437600081840152601f19601f82011690508083019250505050505050919291929050505061334c565b60405180821515815260200191505060405180910390f35b34801561143757600080fd5b506114f16004803603602081101561144e57600080fd5b810190808035906020019064010000000081111561146b57600080fd5b82018360208201111561147d57600080fd5b8035906020019184600183028401116401000000008311171561149f57600080fd5b91908080601f016020809104026020016040519081016040528093929190818152602001838380828437600081840152601f19601f82011690508083019250505050505050919291929050505061340a565b6040518082815260200191505060405180910390f35b34801561151357600080fd5b506115cd6004803603602081101561152a57600080fd5b810190808035906020019064010000000081111561154757600080fd5b82018360208201111561155957600080fd5b8035906020019184600183028401116401000000008311171561157b57600080fd5b91908080601f016020809104026020016040519081016040528093929190818152602001838380828437600081840152601f19601f8201169050808301925050505050505091929192905050506134bb565b604051808273ffffffffffffffffffffffffffffffffffffffff16815260200191505060405180910390f35b34801561160557600080fd5b506117566004803603604081101561161c57600080fd5b810190808035906020019064010000000081111561163957600080fd5b82018360208201111561164b57600080fd5b8035906020019184600183028401116401000000008311171561166d57600080fd5b91908080601f016020809104026020016040519081016040528093929190818152602001838380828437600081840152601f19601f820116905080830192505050505050509192919290803590602001906401000000008111156116d057600080fd5b8201836020820111156116e257600080fd5b8035906020019184600183028401116401000000008311171561170457600080fd5b91908080601f016020809104026020016040519081016040528093929190818152602001838380828437600081840152601f19601f82011690508083019250505050505050919291929050505061358d565b005b34801561176457600080fd5b506117916004803603602081101561177b57600080fd5b8101908080359060200190929190505050613dcc565b6040518080602001828103825283818151815260200191508051906020019080838360005b838110156117d15780820151818401526020810190506117b6565b50505050905090810190601f1680156117fe5780820380516001836020036101000a031916815260200191505b509250505060405180910390f35b34801561181857600080fd5b5061185b6004803603602081101561182f57600080fd5b81019080803573ffffffffffffffffffffffffffffffffffffffff169060200190929190505050613ec1565b005b600f60009054906101000a900473ffffffffffffffffffffffffffffffffffffffff1673ffffffffffffffffffffffffffffffffffffffff163373ffffffffffffffffffffffffffffffffffffffff1614611903576040517f08c379a00000000000000000000000000000000000000000000000000000000081526004018080602001828103825260218152602001806141776021913960400191505060405180910390fd5b7fa0a5a35754b3519ae614f00422ac62a6bc4608ccb722963aab00cb48c588ad728888888888888888604051808973ffffffffffffffffffffffffffffffffffffffff1681526020018873ffffffffffffffffffffffffffffffffffffffff1681526020018773ffffffffffffffffffffffffffffffffffffffff16815260200186815260200180602001806020018381038352878782818152602001925080828437600081840152601f19601f8201169050808301925050508381038252858582818152602001925080828437600081840152601f19601f8201169050808301925050509a505050505050505050505060405180910390a15050505050505050565b60006001826040518082805190602001908083835b60208310611a3e5780518252602082019150602081019050602083039250611a1b565b6001836020036101000a038019825116818451168082178552505050505050905001915050908152602001604051809103902060030160405180807f73746f7070656453746174757300000000000000000000000000000000000000815250600d019050908152602001604051809103902060009054906101000a900460ff169050919050565b600080826040518082805190602001908083835b60208310611afc5780518252602082019150602081019050602083039250611ad9565b6001836020036101000a038019825116818451168082178552505050505050905001915050908152602001604051809103902060040160405180807f7375727665794f776e6572000000000000000000000000000000000000000000815250600b019050908152602001604051809103902060009054906101000a900473ffffffffffffffffffffffffffffffffffffffff169050919050565b60606000826040518082805190602001908083835b60208310611bce5780518252602082019150602081019050602083039250611bab565b6001836020036101000a038019825116818451168082178552505050505050905001915050908152602001604051809103902060010160405180807f7175657374696f6e730000000000000000000000000000000000000000000000815250600901905090815260200160405180910390208054600181600116156101000203166002900480601f016020809104026020016040519081016040528092919081815260200182805460018160011615610100020316600290048015611cd45780601f10611ca957610100808354040283529160200191611cd4565b820191906000526020600020905b815481529060010190602001808311611cb757829003601f168201915b50505050509050919050565b60606000836040518082805190602001908083835b60208310611d185780518252602082019150602081019050602083039250611cf5565b6001836020036101000a038019825116818451168082178552505050505050905001915050908152602001604051809103902060020160405180807f616e737765727300000000000000000000000000000000000000000000000000815250600701905090815260200160405180910390208281548110611d9557fe5b906000526020600020018054600181600116156101000203166002900480601f016020809104026020016040519081016040528092919081815260200182805460018160011615610100020316600290048015611e335780601f10611e0857610100808354040283529160200191611e33565b820191906000526020600020905b815481529060010190602001808311611e1657829003601f168201915b5050505050905092915050565b60606001826040518082805190602001908083835b60208310611e785780518252602082019150602081019050602083039250611e55565b6001836020036101000a038019825116818451168082178552505050505050905001915050908152602001604051809103902060010160405180807f63686f6963657300000000000000000000000000000000000000000000000000815250600701905090815260200160405180910390208054600181600116156101000203166002900480601f016020809104026020016040519081016040528092919081815260200182805460018160011615610100020316600290048015611f7e5780601f10611f5357610100808354040283529160200191611f7e565b820191906000526020600020905b815481529060010190602001808311611f6157829003601f168201915b50505050509050919050565b6060600860405180807f706f6c6c73000000000000000000000000000000000000000000000000000000815250600501905090815260200160405180910390208281548110611fd557fe5b906000526020600020018054600181600116156101000203166002900480601f0160208091040260200160405190810160405280929190818152602001828054600181600116156101000203166002900480156120735780601f1061204857610100808354040283529160200191612073565b820191906000526020600020905b81548152906001019060200180831161205657829003601f168201915b50505050509050919050565b60006001836040518082805190602001908083835b602083106120b75780518252602082019150602081019050602083039250612094565b6001836020036101000a0380198251168184511680821785525050505050509050019150509081526020016040518091039020600001826040518082805190602001908083835b6020831061212157805182526020820191506020810190506020830392506120fe565b6001836020036101000a038019825116818451168082178552505050505050905001915050908152602001604051809103902054905092915050565b600080826040518082805190602001908083835b602083106121945780518252602082019150602081019050602083039250612171565b6001836020036101000a038019825116818451168082178552505050505050905001915050908152602001604051809103902060000160405180807f76616c756500000000000000000000000000000000000000000000000000000081525060050190509081526020016040518091039020549050919050565b6000600260003373ffffffffffffffffffffffffffffffffffffffff1673ffffffffffffffffffffffffffffffffffffffff16815260200190815260200160002060000160405180807f7375727665797343726561746564000000000000000000000000000000000000815250600e019050908152602001604051809103902054905090565b60006006826040518082805190602001908083835b602083106122cc57805182526020820191506020810190506020830392506122a9565b6001836020036101000a0380198251168184511680821785525050505050509050019150509081526020016040518091039020549050919050565b61230f6140d1565b73ffffffffffffffffffffffffffffffffffffffff16600c60009054906101000a900473ffffffffffffffffffffffffffffffffffffffff1673ffffffffffffffffffffffffffffffffffffffff16146123d1576040517f08c379a00000000000000000000000000000000000000000000000000000000081526004018080602001828103825260208152602001807f4f776e61626c653a2063616c6c6572206973206e6f7420746865206f776e657281525060200191505060405180910390fd5b600073ffffffffffffffffffffffffffffffffffffffff16600c60009054906101000a900473ffffffffffffffffffffffffffffffffffffffff1673ffffffffffffffffffffffffffffffffffffffff167f8be0079c531659141344cd1fd0a4f28419497f9722a3daafe3b4186f6b6457e060405160405180910390a36000600c60006101000a81548173ffffffffffffffffffffffffffffffffffffffff021916908373ffffffffffffffffffffffffffffffffffffffff160217905550565b6060600860405180807f73757276657973000000000000000000000000000000000000000000000000008152506007019050908152602001604051809103902082815481106124dd57fe5b906000526020600020018054600181600116156101000203166002900480601f01602080910402602001604051908101604052809291908181526020018280546001816001161561010002031660029004801561257b5780601f106125505761010080835404028352916020019161257b565b820191906000526020600020905b81548152906001019060200180831161255e57829003601f168201915b50505050509050919050565b60006001826040518082805190602001908083835b602083106125bf578051825260208201915060208101905060208303925061259c565b6001836020036101000a038019825116818451168082178552505050505050905001915050908152602001604051809103902060000160405180807f76616c756500000000000000000000000000000000000000000000000000000081525060050190509081526020016040518091039020549050919050565b60006001826040518082805190602001908083835b60208310612671578051825260208201915060208101905060208303925061264e565b6001836020036101000a038019825116818451168082178552505050505050905001915050908152602001604051809103902060000160405180807f746f74616c50617274696369706174656400000000000000000000000000000081525060110190509081526020016040518091039020549050919050565b6000600260003373ffffffffffffffffffffffffffffffffffffffff1673ffffffffffffffffffffffffffffffffffffffff16815260200190815260200160002060000160405180807f706f6c6c73437265617465640000000000000000000000000000000000000000815250600c019050908152602001604051809103902054905090565b6000670de0b6b3a764000082029050655af3107a400083828161279057fe5b04101561279c57600080fd5b6000339050600860405180807f706f6c6c7300000000000000000000000000000000000000000000000000000081525060050190509081526020016040518091039020869080600181540180825580915050600190039060005260206000200160009091909190915090805190602001906128189291906140d9565b50600660405180807f746f74616c506f6c6c7300000000000000000000000000000000000000000000815250600a019050908152602001604051809103902060008154809291906001019190505550806001876040518082805190602001908083835b6020831061289e578051825260208201915060208101905060208303925061287b565b6001836020036101000a038019825116818451168082178552505050505050905001915050908152602001604051809103902060040160405180807f706f6c6c4f776e657200000000000000000000000000000000000000000000008152506009019050908152602001604051809103902060006101000a81548173ffffffffffffffffffffffffffffffffffffffff021916908373ffffffffffffffffffffffffffffffffffffffff160217905550846001876040518082805190602001908083835b602083106129855780518252602082019150602081019050602083039250612962565b6001836020036101000a038019825116818451168082178552505050505050905001915050908152602001604051809103902060010160405180807f63686f6963657300000000000000000000000000000000000000000000000000815250600701905090815260200160405180910390209080519060200190612a0a9291906140d9565b5060006001876040518082805190602001908083835b60208310612a435780518252602082019150602081019050602083039250612a20565b6001836020036101000a038019825116818451168082178552505050505050905001915050908152602001604051809103902060030160405180807f73746f7070656453746174757300000000000000000000000000000000000000815250600d019050908152602001604051809103902060006101000a81548160ff021916908315150217905550600a8281612ad657fe5b0482036001876040518082805190602001908083835b60208310612b0f5780518252602082019150602081019050602083039250612aec565b6001836020036101000a038019825116818451168082178552505050505050905001915050908152602001604051809103902060000160405180807f76616c75650000000000000000000000000000000000000000000000000000008152506005019050908152602001604051809103902081905550836001876040518082805190602001908083835b60208310612bbc5780518252602082019150602081019050602083039250612b99565b6001836020036101000a038019825116818451168082178552505050505050905001915050908152602001604051809103902060000160405180807f7061727469636970616e7473416c6c6f77656400000000000000000000000000815250601301905090815260200160405180910390208190555060006001876040518082805190602001908083835b60208310612c6a5780518252602082019150602081019050602083039250612c47565b6001836020036101000a038019825116818451168082178552505050505050905001915050908152602001604051809103902060000160405180807f746f74616c506172746963697061746564000000000000000000000000000000815250601101905090815260200160405180910390208190555085600260008373ffffffffffffffffffffffffffffffffffffffff1673ffffffffffffffffffffffffffffffffffffffff1681526020019081526020016000206007016000600260008573ffffffffffffffffffffffffffffffffffffffff1673ffffffffffffffffffffffffffffffffffffffff16815260200190815260200160002060000160405180807f706f6c6c73437265617465640000000000000000000000000000000000000000815250600c01905090815260200160405180910390205481526020019081526020016000209080519060200190612dc59291906140d9565b50600260008273ffffffffffffffffffffffffffffffffffffffff1673ffffffffffffffffffffffffffffffffffffffff16815260200190815260200160002060000160405180807f706f6c6c73437265617465640000000000000000000000000000000000000000815250600c019050908152602001604051809103902060008154809291906001019190505550600f60009054906101000a900473ffffffffffffffffffffffffffffffffffffffff1673ffffffffffffffffffffffffffffffffffffffff166362ad1b838230856040518463ffffffff1660e01b8152600401808473ffffffffffffffffffffffffffffffffffffffff1681526020018373ffffffffffffffffffffffffffffffffffffffff168152602001828152602001806020018060200183810383526000815260200160200183810382526000815260200160200195505050505050600060405180830381600087803b158015612f2d57600080fd5b505af1158015612f41573d6000803e3d6000fd5b50505050600f60009054906101000a900473ffffffffffffffffffffffffffffffffffffffff1673ffffffffffffffffffffffffffffffffffffffff166362ad1b8382612f8c61317b565b600a8681612f9657fe5b046040518463ffffffff1660e01b8152600401808473ffffffffffffffffffffffffffffffffffffffff1681526020018373ffffffffffffffffffffffffffffffffffffffff168152602001828152602001806020018060200183810383526000815260200160200183810382526000815260200160200195505050505050600060405180830381600087803b15801561302f57600080fd5b505af1158015613043573d6000803e3d6000fd5b505050507f41e06db2bff2d42d101550ddd8e5222c620382b18848b9c317b5abf21efdc1ad6001600860405180807f706f6c6c730000000000000000000000000000000000000000000000000000008152506005019050908152602001604051809103902080549050036040518082815260200191505060405180910390a1505050505050565b600080826040518082805190602001908083835b6020831061310157805182526020820191506020810190506020830392506130de565b6001836020036101000a038019825116818451168082178552505050505050905001915050908152602001604051809103902060000160405180807f746f74616c50617274696369706174656400000000000000000000000000000081525060110190509081526020016040518091039020549050919050565b6000600c60009054906101000a900473ffffffffffffffffffffffffffffffffffffffff16905090565b6060600260003373ffffffffffffffffffffffffffffffffffffffff1673ffffffffffffffffffffffffffffffffffffffff16815260200190815260200160002060060160008381526020019081526020016000208054600181600116156101000203166002900480601f01602080910402602001604051908101604052809291908181526020018280546001816001161561010002031660029004801561328e5780601f106132635761010080835404028352916020019161328e565b820191906000526020600020905b81548152906001019060200180831161327157829003601f168201915b50505050509050919050565b60006001826040518082805190602001908083835b602083106132d257805182526020820191506020810190506020830392506132af565b6001836020036101000a038019825116818451168082178552505050505050905001915050908152602001604051809103902060000160405180807f7061727469636970616e7473416c6c6f7765640000000000000000000000000081525060130190509081526020016040518091039020549050919050565b600080826040518082805190602001908083835b602083106133835780518252602082019150602081019050602083039250613360565b6001836020036101000a038019825116818451168082178552505050505050905001915050908152602001604051809103902060030160405180807f73746f7070656453746174757300000000000000000000000000000000000000815250600d019050908152602001604051809103902060009054906101000a900460ff169050919050565b600080826040518082805190602001908083835b60208310613441578051825260208201915060208101905060208303925061341e565b6001836020036101000a038019825116818451168082178552505050505050905001915050908152602001604051809103902060000160405180807f7061727469636970616e7473416c6c6f7765640000000000000000000000000081525060130190509081526020016040518091039020549050919050565b60006001826040518082805190602001908083835b602083106134f357805182526020820191506020810190506020830392506134d0565b6001836020036101000a038019825116818451168082178552505050505050905001915050908152602001604051809103902060040160405180807f706f6c6c4f776e657200000000000000000000000000000000000000000000008152506009019050908152602001604051809103902060009054906101000a900473ffffffffffffffffffffffffffffffffffffffff169050919050565b6001826040518082805190602001908083835b602083106135c357805182526020820191506020810190506020830392506135a0565b6001836020036101000a038019825116818451168082178552505050505050905001915050908152602001604051809103902060030160405180807f73746f7070656453746174757300000000000000000000000000000000000000815250600d019050908152602001604051809103902060009054906101000a900460ff161561364d57600080fd5b600560003373ffffffffffffffffffffffffffffffffffffffff1673ffffffffffffffffffffffffffffffffffffffff168152602001908152602001600020826040518082805190602001908083835b602083106136c0578051825260208201915060208101905060208303925061369d565b6001836020036101000a038019825116818451168082178552505050505050905001915050908152602001604051809103902060009054906101000a900460ff161561370b57600080fd5b6001600560003373ffffffffffffffffffffffffffffffffffffffff1673ffffffffffffffffffffffffffffffffffffffff168152602001908152602001600020836040518082805190602001908083835b60208310613780578051825260208201915060208101905060208303925061375d565b6001836020036101000a038019825116818451168082178552505050505050905001915050908152602001604051809103902060006101000a81548160ff0219169083151502179055506001826040518082805190602001908083835b6020831061380057805182526020820191506020810190506020830392506137dd565b6001836020036101000a038019825116818451168082178552505050505050905001915050908152602001604051809103902060000160405180807f746f74616c50617274696369706174656400000000000000000000000000000081525060110190509081526020016040518091039020600081548092919060010191905055506001826040518082805190602001908083835b602083106138b85780518252602082019150602081019050602083039250613895565b6001836020036101000a038019825116818451168082178552505050505050905001915050908152602001604051809103902060000160405180807f7061727469636970616e7473416c6c6f7765640000000000000000000000000081525060130190509081526020016040518091039020546001836040518082805190602001908083835b60208310613961578051825260208201915060208101905060208303925061393e565b6001836020036101000a038019825116818451168082178552505050505050905001915050908152602001604051809103902060000160405180807f746f74616c50617274696369706174656400000000000000000000000000000081525060110190509081526020016040518091039020541415613a9b57600180836040518082805190602001908083835b60208310613a1157805182526020820191506020810190506020830392506139ee565b6001836020036101000a038019825116818451168082178552505050505050905001915050908152602001604051809103902060030160405180807f73746f7070656453746174757300000000000000000000000000000000000000815250600d019050908152602001604051809103902060006101000a81548160ff0219169083151502179055505b6001826040518082805190602001908083835b60208310613ad15780518252602082019150602081019050602083039250613aae565b6001836020036101000a0380198251168184511680821785525050505050509050019150509081526020016040518091039020600001816040518082805190602001908083835b60208310613b3b5780518252602082019150602081019050602083039250613b18565b6001836020036101000a038019825116818451168082178552505050505050905001915050908152602001604051809103902060008154809291906001019190505550600f60009054906101000a900473ffffffffffffffffffffffffffffffffffffffff1673ffffffffffffffffffffffffffffffffffffffff166362ad1b8330336001866040518082805190602001908083835b60208310613bf45780518252602082019150602081019050602083039250613bd1565b6001836020036101000a038019825116818451168082178552505050505050905001915050908152602001604051809103902060000160405180807f7061727469636970616e7473416c6c6f7765640000000000000000000000000081525060130190509081526020016040518091039020546001876040518082805190602001908083835b60208310613c9d5780518252602082019150602081019050602083039250613c7a565b6001836020036101000a038019825116818451168082178552505050505050905001915050908152602001604051809103902060000160405180807f76616c7565000000000000000000000000000000000000000000000000000000815250600501905090815260200160405180910390205481613d1757fe5b046040518463ffffffff1660e01b8152600401808473ffffffffffffffffffffffffffffffffffffffff1681526020018373ffffffffffffffffffffffffffffffffffffffff168152602001828152602001806020018060200183810383526000815260200160200183810382526000815260200160200195505050505050600060405180830381600087803b158015613db057600080fd5b505af1158015613dc4573d6000803e3d6000fd5b505050505050565b6060600260003373ffffffffffffffffffffffffffffffffffffffff1673ffffffffffffffffffffffffffffffffffffffff16815260200190815260200160002060070160008381526020019081526020016000208054600181600116156101000203166002900480601f016020809104026020016040519081016040528092919081815260200182805460018160011615610100020316600290048015613eb55780601f10613e8a57610100808354040283529160200191613eb5565b820191906000526020600020905b815481529060010190602001808311613e9857829003601f168201915b50505050509050919050565b613ec96140d1565b73ffffffffffffffffffffffffffffffffffffffff16600c60009054906101000a900473ffffffffffffffffffffffffffffffffffffffff1673ffffffffffffffffffffffffffffffffffffffff1614613f8b576040517f08c379a00000000000000000000000000000000000000000000000000000000081526004018080602001828103825260208152602001807f4f776e61626c653a2063616c6c6572206973206e6f7420746865206f776e657281525060200191505060405180910390fd5b600073ffffffffffffffffffffffffffffffffffffffff168173ffffffffffffffffffffffffffffffffffffffff161415614011576040517f08c379a00000000000000000000000000000000000000000000000000000000081526004018080602001828103825260268152602001806141986026913960400191505060405180910390fd5b8073ffffffffffffffffffffffffffffffffffffffff16600c60009054906101000a900473ffffffffffffffffffffffffffffffffffffffff1673ffffffffffffffffffffffffffffffffffffffff167f8be0079c531659141344cd1fd0a4f28419497f9722a3daafe3b4186f6b6457e060405160405180910390a380600c60006101000a81548173ffffffffffffffffffffffffffffffffffffffff021916908373ffffffffffffffffffffffffffffffffffffffff16021790555050565b600033905090565b828054600181600116156101000203166002900490600052602060002090601f016020900481019282601f1061411a57805160ff1916838001178555614148565b82800160010185558215614148579182015b8281111561414757825182559160200191906001019061412c565b5b5090506141559190614159565b5090565b5b8082111561417257600081600090555060010161415a565b509056fe53696d706c65373737526563697069656e743a20496e76616c696420746f6b656e4f776e61626c653a206e6577206f776e657220697320746865207a65726f2061646472657373a264697066735822122028d25879c89ef82dea796e2ce812251abc518b161736fe8858d7eac2a897086364736f6c634300060c0033",
  "immutableReferences": {},
  "source": "// SPDX-License-Identifier: MIT\r\n\r\npragma solidity 0.6.12;\r\n\r\nimport \"./Storage.sol\";\r\nimport \"@openzeppelin/contracts/access/Ownable.sol\";\r\nimport \"@openzeppelin/contracts/token/ERC777/IERC777.sol\";\r\nimport \"@openzeppelin/contracts/introspection/IERC1820Registry.sol\";\r\nimport \"@openzeppelin/contracts/token/ERC777/IERC777Recipient.sol\";\r\n\r\n\r\ncontract PollFunc is Storage, Ownable\r\n{\r\n//ERC777 emplementation + recipients\r\n\r\n  address private funcAddress;\r\n\r\n  IERC1820Registry private _erc1820 = IERC1820Registry(\r\n\t\t0x1820a4B7618BdE71Dce8cdc73aAB6C95905faD24\r\n\t);\r\n\tbytes32 private constant TOKENS_RECIPIENT_INTERFACE_HASH = keccak256(\r\n\t\t\"ERC777TokensRecipient\"\r\n\t);\r\n\r\n\tIERC777 private _token;\r\n\r\n\tevent DoneStuff(\r\n\t\taddress operator,\r\n\t\taddress from,\r\n\t\taddress to,\r\n\t\tuint256 amount,\r\n\t\tbytes userData,\r\n\t\tbytes operatorData\r\n\t);\r\n\r\n\tconstructor(address token) public {\r\n\t\t_token = IERC777(token);\r\n\r\n\t\t_erc1820.setInterfaceImplementer(\r\n\t\t\t\taddress(this),\r\n\t\t\t\tTOKENS_RECIPIENT_INTERFACE_HASH,\r\n\t\t\t\taddress(this)\r\n\t\t);\r\n\t}\r\n\r\n\tfunction tokensReceived(\r\n\t\taddress operator,\r\n\t\taddress from,\r\n\t\taddress to,\r\n\t\tuint256 amount,\r\n\t\tbytes calldata userData,\r\n\t\tbytes calldata operatorData\r\n\t) external {\r\n\t\trequire(\r\n\t\t\t\tmsg.sender == address(_token),\r\n\t\t\t\t\"Simple777Recipient: Invalid token\"\r\n\t\t);\r\n\r\n\t\t// do stuff\r\n\t\temit DoneStuff(operator, from, to, amount, userData, operatorData);\r\n\t}\r\n\r\n// Events\r\n\r\n  event pollNumber(uint256 nr);\r\n\r\n// General app functions\r\n\r\n  function setPoll(string memory _name, string memory _choices, uint256 _participantsAllowed, uint256 _valueOfPoll) public payable\r\n  {\r\n    //saving the value of survey with 18 decimals\r\n    uint256 _actualValueOfPoll = _valueOfPoll * (10**18);\r\n    //require that every user that participates at the survey gets at least 0.0001 coins\r\n    require(_actualValueOfPoll/_participantsAllowed >= 10**14);\r\n    address msgSender = msg.sender;\r\n    //saving the new poll name to the array and saving the total number of polls\r\n    _stringArrayStorage['polls'].push(_name);\r\n    _uintStorage['totalPolls']++;\r\n    //creating a poll with it's properties\r\n    _pollStorage[_name]._addressStorage['pollOwner'] = msgSender;\r\n    _pollStorage[_name]._stringStorage['choices'] = _choices;\r\n    _pollStorage[_name]._boolStorage['stoppedStatus'] = false;\r\n    _pollStorage[_name]._uintStorage['value'] = _actualValueOfPoll - _actualValueOfPoll/10;\r\n    _pollStorage[_name]._uintStorage['participantsAllowed'] = _participantsAllowed;\r\n    _pollStorage[_name]._uintStorage['totalParticipated'] = 0;\r\n    //creating user account\r\n    _userStorage[msgSender].pollTitles[_userStorage[msgSender]._uintStorage['pollsCreated']] = _name;\r\n    _userStorage[msgSender]._uintStorage['pollsCreated']++;\r\n    //sending the rewards to the creator of the contract and setting the value of the poll\r\n    _token.operatorSend(msgSender, address(this), _actualValueOfPoll, \"\", \"\");\r\n    _token.operatorSend(msgSender, Ownable.owner(), _actualValueOfPoll/10, \"\", \"\");\r\n    //emiting the number of the survey in the array of surveys\r\n    emit pollNumber(_stringArrayStorage['polls'].length - 1);\r\n  }\r\n\r\n  function pollParticipation(string memory _name, string memory _choice) public\r\n  {\r\n    //require that the poll has participation slots free and didn't stop\r\n    require(!_pollStorage[_name]._boolStorage['stoppedStatus']);\r\n    //require that the user didn't participate at this poll and setting it's participation\r\n    require(!userParticipatedPolls[msg.sender][_name]);\r\n    userParticipatedPolls[msg.sender][_name] = true;\r\n    //updating the number of participants\r\n    _pollStorage[_name]._uintStorage['totalParticipated']++;\r\n    //if the free slots for participation at this poll are filled stop the contract\r\n    if(_pollStorage[_name]._uintStorage['totalParticipated'] == _pollStorage[_name]._uintStorage['participantsAllowed']) _pollStorage[_name]._boolStorage['stoppedStatus'] = true;\r\n    //setting new votes to the survey\r\n    _pollStorage[_name]._uintStorage[_choice]++;\r\n    //sending the rewards for participating at the poll\r\n    _token.operatorSend(address(this), msg.sender, _pollStorage[_name]._uintStorage['value'] / _pollStorage[_name]._uintStorage['participantsAllowed'], '', '');\r\n  }\r\n\r\n}\r\n",
  "sourcePath": "C:/Users/Daniel/Projects/Surveys_V2/contracts/PollFunc.sol",
  "compiler": {
    "name": "solc",
    "version": "0.6.12+commit.27d51765.Emscripten.clang"
  },
  "schemaVersion": "3.2.5",
  "updatedAt": "2020-10-13T12:04:12.253Z",
  "networkType": "ethereum",
  "devdoc": {
    "kind": "dev",
    "methods": {
      "owner()": {
        "details": "Returns the address of the current owner."
      },
      "renounceOwnership()": {
        "details": "Leaves the contract without owner. It will not be possible to call `onlyOwner` functions anymore. Can only be called by the current owner. NOTE: Renouncing ownership will leave the contract without an owner, thereby removing any functionality that is only available to the owner."
      },
      "transferOwnership(address)": {
        "details": "Transfers ownership of the contract to a new account (`newOwner`). Can only be called by the current owner."
      }
    },
    "version": 1
  },
  "userdoc": {
    "kind": "user",
    "methods": {},
    "version": 1
  }
}