{
  "contractName": "PollFunc",
  "abi": [
    {
      "inputs": [
        {
          "internalType": "address",
          "name": "token",
          "type": "address"
        }
      ],
      "stateMutability": "nonpayable",
      "type": "constructor"
    },
    {
      "anonymous": false,
      "inputs": [
        {
          "indexed": false,
          "internalType": "address",
          "name": "operator",
          "type": "address"
        },
        {
          "indexed": false,
          "internalType": "address",
          "name": "from",
          "type": "address"
        },
        {
          "indexed": false,
          "internalType": "address",
          "name": "to",
          "type": "address"
        },
        {
          "indexed": false,
          "internalType": "uint256",
          "name": "amount",
          "type": "uint256"
        },
        {
          "indexed": false,
          "internalType": "bytes",
          "name": "userData",
          "type": "bytes"
        },
        {
          "indexed": false,
          "internalType": "bytes",
          "name": "operatorData",
          "type": "bytes"
        }
      ],
      "name": "DoneStuff",
      "type": "event"
    },
    {
      "anonymous": false,
      "inputs": [
        {
          "indexed": true,
          "internalType": "address",
          "name": "previousOwner",
          "type": "address"
        },
        {
          "indexed": true,
          "internalType": "address",
          "name": "newOwner",
          "type": "address"
        }
      ],
      "name": "OwnershipTransferred",
      "type": "event"
    },
    {
      "anonymous": false,
      "inputs": [
        {
          "indexed": false,
          "internalType": "uint256",
          "name": "nr",
          "type": "uint256"
        }
      ],
      "name": "pollNumber",
      "type": "event"
    },
    {
      "inputs": [
        {
          "internalType": "bytes32",
          "name": "_pollName",
          "type": "bytes32"
        },
        {
          "internalType": "string",
          "name": "_variableName",
          "type": "string"
        }
      ],
      "name": "getPollAddressStorage",
      "outputs": [
        {
          "internalType": "address",
          "name": "",
          "type": "address"
        }
      ],
      "stateMutability": "view",
      "type": "function",
      "constant": true
    },
    {
      "inputs": [
        {
          "internalType": "bytes32",
          "name": "_pollName",
          "type": "bytes32"
        },
        {
          "internalType": "string",
          "name": "_variableName",
          "type": "string"
        }
      ],
      "name": "getPollBoolStorage",
      "outputs": [
        {
          "internalType": "bool",
          "name": "",
          "type": "bool"
        }
      ],
      "stateMutability": "view",
      "type": "function",
      "constant": true
    },
    {
      "inputs": [
        {
          "internalType": "bytes32",
          "name": "_pollName",
          "type": "bytes32"
        },
        {
          "internalType": "bytes32",
          "name": "_variableName",
          "type": "bytes32"
        }
      ],
      "name": "getPollBytes32UintStorage",
      "outputs": [
        {
          "internalType": "uint256",
          "name": "",
          "type": "uint256"
        }
      ],
      "stateMutability": "view",
      "type": "function",
      "constant": true
    },
    {
      "inputs": [
        {
          "internalType": "bytes32",
          "name": "_pollName",
          "type": "bytes32"
        },
        {
          "internalType": "string",
          "name": "_variableName",
          "type": "string"
        }
      ],
      "name": "getPollStringStorage",
      "outputs": [
        {
          "internalType": "string",
          "name": "",
          "type": "string"
        }
      ],
      "stateMutability": "view",
      "type": "function",
      "constant": true
    },
    {
      "inputs": [
        {
          "internalType": "bytes32",
          "name": "_pollName",
          "type": "bytes32"
        },
        {
          "internalType": "string",
          "name": "_variableName",
          "type": "string"
        }
      ],
      "name": "getPollStringToBytes32ArrayStorage",
      "outputs": [
        {
          "internalType": "bytes32[]",
          "name": "",
          "type": "bytes32[]"
        }
      ],
      "stateMutability": "view",
      "type": "function",
      "constant": true
    },
    {
      "inputs": [
        {
          "internalType": "bytes32",
          "name": "_pollName",
          "type": "bytes32"
        },
        {
          "internalType": "string",
          "name": "_variableName",
          "type": "string"
        }
      ],
      "name": "getPollUintStorage",
      "outputs": [
        {
          "internalType": "uint256",
          "name": "",
          "type": "uint256"
        }
      ],
      "stateMutability": "view",
      "type": "function",
      "constant": true
    },
    {
      "inputs": [
        {
          "internalType": "bytes32",
          "name": "_pollName",
          "type": "bytes32"
        },
        {
          "internalType": "uint256",
          "name": "_variableNumber",
          "type": "uint256"
        }
      ],
      "name": "getPollUintToBytes32ArrayStorage",
      "outputs": [
        {
          "internalType": "bytes32[]",
          "name": "",
          "type": "bytes32[]"
        }
      ],
      "stateMutability": "view",
      "type": "function",
      "constant": true
    },
    {
      "inputs": [
        {
          "internalType": "string",
          "name": "_arrayName",
          "type": "string"
        }
      ],
      "name": "getStringToBytes32ArrayStorrage",
      "outputs": [
        {
          "internalType": "bytes32[]",
          "name": "",
          "type": "bytes32[]"
        }
      ],
      "stateMutability": "view",
      "type": "function",
      "constant": true
    },
    {
      "inputs": [
        {
          "internalType": "bytes32",
          "name": "_surveyName",
          "type": "bytes32"
        },
        {
          "internalType": "string",
          "name": "_variableName",
          "type": "string"
        }
      ],
      "name": "getSurveyAddressStorage",
      "outputs": [
        {
          "internalType": "address",
          "name": "",
          "type": "address"
        }
      ],
      "stateMutability": "view",
      "type": "function",
      "constant": true
    },
    {
      "inputs": [
        {
          "internalType": "bytes32",
          "name": "_surveyName",
          "type": "bytes32"
        },
        {
          "internalType": "string",
          "name": "_variableName",
          "type": "string"
        }
      ],
      "name": "getSurveyBoolStorage",
      "outputs": [
        {
          "internalType": "bool",
          "name": "",
          "type": "bool"
        }
      ],
      "stateMutability": "view",
      "type": "function",
      "constant": true
    },
    {
      "inputs": [
        {
          "internalType": "bytes32",
          "name": "_surveyName",
          "type": "bytes32"
        },
        {
          "internalType": "bytes32",
          "name": "_variableName",
          "type": "bytes32"
        }
      ],
      "name": "getSurveyBytes32UintStorage",
      "outputs": [
        {
          "internalType": "uint256",
          "name": "",
          "type": "uint256"
        }
      ],
      "stateMutability": "view",
      "type": "function",
      "constant": true
    },
    {
      "inputs": [
        {
          "internalType": "bytes32",
          "name": "_surveyName",
          "type": "bytes32"
        },
        {
          "internalType": "string",
          "name": "_variableName",
          "type": "string"
        }
      ],
      "name": "getSurveyStringStorage",
      "outputs": [
        {
          "internalType": "string",
          "name": "",
          "type": "string"
        }
      ],
      "stateMutability": "view",
      "type": "function",
      "constant": true
    },
    {
      "inputs": [
        {
          "internalType": "bytes32",
          "name": "_surveyName",
          "type": "bytes32"
        },
        {
          "internalType": "string",
          "name": "_variableName",
          "type": "string"
        }
      ],
      "name": "getSurveyStringToBytes32ArrayStorage",
      "outputs": [
        {
          "internalType": "bytes32[]",
          "name": "",
          "type": "bytes32[]"
        }
      ],
      "stateMutability": "view",
      "type": "function",
      "constant": true
    },
    {
      "inputs": [
        {
          "internalType": "bytes32",
          "name": "_surveyName",
          "type": "bytes32"
        },
        {
          "internalType": "string",
          "name": "_variableName",
          "type": "string"
        }
      ],
      "name": "getSurveyUintStorage",
      "outputs": [
        {
          "internalType": "uint256",
          "name": "",
          "type": "uint256"
        }
      ],
      "stateMutability": "view",
      "type": "function",
      "constant": true
    },
    {
      "inputs": [
        {
          "internalType": "bytes32",
          "name": "_surveyName",
          "type": "bytes32"
        },
        {
          "internalType": "uint256",
          "name": "_variableNumber",
          "type": "uint256"
        }
      ],
      "name": "getSurveyUintToBytes32ArrayStorage",
      "outputs": [
        {
          "internalType": "bytes32[]",
          "name": "",
          "type": "bytes32[]"
        }
      ],
      "stateMutability": "view",
      "type": "function",
      "constant": true
    },
    {
      "inputs": [
        {
          "internalType": "bytes32",
          "name": "_pollName",
          "type": "bytes32"
        }
      ],
      "name": "getUserParticipatedPollStatus",
      "outputs": [
        {
          "internalType": "bool",
          "name": "",
          "type": "bool"
        }
      ],
      "stateMutability": "view",
      "type": "function",
      "constant": true
    },
    {
      "inputs": [
        {
          "internalType": "bytes32",
          "name": "_surveyName",
          "type": "bytes32"
        }
      ],
      "name": "getUserParticipatedSurveyStatus",
      "outputs": [
        {
          "internalType": "bool",
          "name": "",
          "type": "bool"
        }
      ],
      "stateMutability": "view",
      "type": "function",
      "constant": true
    },
    {
      "inputs": [
        {
          "internalType": "string",
          "name": "_variableName",
          "type": "string"
        }
      ],
      "name": "getUserStringToBytes32ArrayStorage",
      "outputs": [
        {
          "internalType": "bytes32[]",
          "name": "",
          "type": "bytes32[]"
        }
      ],
      "stateMutability": "view",
      "type": "function",
      "constant": true
    },
    {
      "inputs": [],
      "name": "owner",
      "outputs": [
        {
          "internalType": "address",
          "name": "",
          "type": "address"
        }
      ],
      "stateMutability": "view",
      "type": "function",
      "constant": true
    },
    {
      "inputs": [],
      "name": "renounceOwnership",
      "outputs": [],
      "stateMutability": "nonpayable",
      "type": "function"
    },
    {
      "inputs": [
        {
          "internalType": "address",
          "name": "newOwner",
          "type": "address"
        }
      ],
      "name": "transferOwnership",
      "outputs": [],
      "stateMutability": "nonpayable",
      "type": "function"
    },
    {
      "inputs": [
        {
          "internalType": "address",
          "name": "operator",
          "type": "address"
        },
        {
          "internalType": "address",
          "name": "from",
          "type": "address"
        },
        {
          "internalType": "address",
          "name": "to",
          "type": "address"
        },
        {
          "internalType": "uint256",
          "name": "amount",
          "type": "uint256"
        },
        {
          "internalType": "bytes",
          "name": "userData",
          "type": "bytes"
        },
        {
          "internalType": "bytes",
          "name": "operatorData",
          "type": "bytes"
        }
      ],
      "name": "tokensReceived",
      "outputs": [],
      "stateMutability": "nonpayable",
      "type": "function"
    },
    {
      "inputs": [
        {
          "internalType": "bytes32",
          "name": "_name",
          "type": "bytes32"
        },
        {
          "internalType": "bytes32[]",
          "name": "_choices",
          "type": "bytes32[]"
        },
        {
          "internalType": "uint256",
          "name": "_maxParticipants",
          "type": "uint256"
        },
        {
          "internalType": "uint256",
          "name": "_valueOfPoll",
          "type": "uint256"
        }
      ],
      "name": "setPoll",
      "outputs": [],
      "stateMutability": "nonpayable",
      "type": "function"
    },
    {
      "inputs": [
        {
          "internalType": "bytes32",
          "name": "_name",
          "type": "bytes32"
        },
        {
          "internalType": "bytes32",
          "name": "_choice",
          "type": "bytes32"
        }
      ],
      "name": "pollParticipation",
      "outputs": [],
      "stateMutability": "nonpayable",
      "type": "function"
    },
    {
      "inputs": [
        {
          "internalType": "bytes32",
          "name": "_name",
          "type": "bytes32"
        }
      ],
      "name": "deletePoll",
      "outputs": [],
      "stateMutability": "nonpayable",
      "type": "function"
    }
  ],
  "bytecode": "0x6080604052731820a4b7618bde71dce8cdc73aab6c95905fad24600b60006101000a81548173ffffffffffffffffffffffffffffffffffffffff021916908373ffffffffffffffffffffffffffffffffffffffff1602179055503480156200006657600080fd5b506040516200407b3803806200407b833981810160405260208110156200008c57600080fd5b81019080805190602001909291905050506000620000af6200028160201b60201c565b905080600960006101000a81548173ffffffffffffffffffffffffffffffffffffffff021916908373ffffffffffffffffffffffffffffffffffffffff1602179055508073ffffffffffffffffffffffffffffffffffffffff16600073ffffffffffffffffffffffffffffffffffffffff167f8be0079c531659141344cd1fd0a4f28419497f9722a3daafe3b4186f6b6457e060405160405180910390a35080600c60006101000a81548173ffffffffffffffffffffffffffffffffffffffff021916908373ffffffffffffffffffffffffffffffffffffffff160217905550600b60009054906101000a900473ffffffffffffffffffffffffffffffffffffffff1673ffffffffffffffffffffffffffffffffffffffff166329965a1d307fb281fc8c12954d22544db45de3159a39272895b169a852b314f9cc762e44c53b306040518463ffffffff1660e01b8152600401808473ffffffffffffffffffffffffffffffffffffffff1681526020018381526020018273ffffffffffffffffffffffffffffffffffffffff1681526020019350505050600060405180830381600087803b1580156200026157600080fd5b505af115801562000276573d6000803e3d6000fd5b505050505062000289565b600033905090565b613de280620002996000396000f3fe608060405234801561001057600080fd5b50600436106101725760003560e01c80638c4c564d116100de578063b2fa5c5511610097578063e509e58e11610071578063e509e58e146110a4578063e8a42335146110dc578063f054dda414611169578063f2fde38b1461127957610172565b8063b2fa5c5514610ea4578063cf35778014610ef0578063dfb70e1614610fcb57610172565b80638c4c564d14610aaf5780638da5cb5b14610add57806397a0c3fa14610b115780639cdbc76c14610c005780639f82f84c14610d3e578063a77b47ee14610e5857610172565b806364431b9c1161013057806364431b9c1461077d57806370bd0fc7146107c1578063715018a61461089c57806374c00140146108a6578063761010f4146109955780637dc7047814610a6b57610172565b806223de29146101775780630a3225a5146102af5780631d6d7cf41461033c5780632cf80fcb146104155780632de1a2ca1461052f5780635959954e1461066d575b600080fd5b6102ad600480360360c081101561018d57600080fd5b81019080803573ffffffffffffffffffffffffffffffffffffffff169060200190929190803573ffffffffffffffffffffffffffffffffffffffff169060200190929190803573ffffffffffffffffffffffffffffffffffffffff169060200190929190803590602001909291908035906020019064010000000081111561021457600080fd5b82018360208201111561022657600080fd5b8035906020019184600183028401116401000000008311171561024857600080fd5b90919293919293908035906020019064010000000081111561026957600080fd5b82018360208201111561027b57600080fd5b8035906020019184600183028401116401000000008311171561029d57600080fd5b90919293919293905050506112bd565b005b6102e5600480360360408110156102c557600080fd5b810190808035906020019092919080359060200190929190505050611466565b6040518080602001828103825283818151815260200191508051906020019060200280838360005b8381101561032857808201518184015260208101905061030d565b505050509050019250505060405180910390f35b6103ff6004803603604081101561035257600080fd5b81019080803590602001909291908035906020019064010000000081111561037957600080fd5b82018360208201111561038b57600080fd5b803590602001918460018302840111640100000000831117156103ad57600080fd5b91908080601f016020809104026020016040519081016040528093929190818152602001838380828437600081840152601f19601f8201169050808301925050505050505091929192905050506114e6565b6040518082815260200191505060405180910390f35b6104d86004803603604081101561042b57600080fd5b81019080803590602001909291908035906020019064010000000081111561045257600080fd5b82018360208201111561046457600080fd5b8035906020019184600183028401116401000000008311171561048657600080fd5b91908080601f016020809104026020016040519081016040528093929190818152602001838380828437600081840152601f19601f82011690508083019250505050505050919291929050505061156e565b6040518080602001828103825283818151815260200191508051906020019060200280838360005b8381101561051b578082015181840152602081019050610500565b505050509050019250505060405180910390f35b6105f26004803603604081101561054557600080fd5b81019080803590602001909291908035906020019064010000000081111561056c57600080fd5b82018360208201111561057e57600080fd5b803590602001918460018302840111640100000000831117156105a057600080fd5b91908080601f016020809104026020016040519081016040528093929190818152602001838380828437600081840152601f19601f820116905080830192505050505050509192919290505050611644565b6040518080602001828103825283818151815260200191508051906020019080838360005b83811015610632578082015181840152602081019050610617565b50505050905090810190601f16801561065f5780820380516001836020036101000a031916815260200191505b509250505060405180910390f35b6107266004803603602081101561068357600080fd5b81019080803590602001906401000000008111156106a057600080fd5b8201836020820111156106b257600080fd5b803590602001918460018302840111640100000000831117156106d457600080fd5b91908080601f016020809104026020016040519081016040528093929190818152602001838380828437600081840152601f19601f820116905080830192505050505050509192919290505050611763565b6040518080602001828103825283818151815260200191508051906020019060200280838360005b8381101561076957808201518184015260208101905061074e565b505050509050019250505060405180910390f35b6107a96004803603602081101561079357600080fd5b8101908080359060200190929190505050611864565b60405180821515815260200191505060405180910390f35b610884600480360360408110156107d757600080fd5b8101908080359060200190929190803590602001906401000000008111156107fe57600080fd5b82018360208201111561081057600080fd5b8035906020019184600183028401116401000000008311171561083257600080fd5b91908080601f016020809104026020016040519081016040528093929190818152602001838380828437600081840152601f19601f8201169050808301925050505050505091929192905050506118ce565b60405180821515815260200191505060405180910390f35b6108a4611963565b005b610969600480360360408110156108bc57600080fd5b8101908080359060200190929190803590602001906401000000008111156108e357600080fd5b8201836020820111156108f557600080fd5b8035906020019184600183028401116401000000008311171561091757600080fd5b91908080601f016020809104026020016040519081016040528093929190818152602001838380828437600081840152601f19601f820116905080830192505050505050509192919290505050611aee565b604051808273ffffffffffffffffffffffffffffffffffffffff16815260200191505060405180910390f35b610a69600480360360808110156109ab57600080fd5b8101908080359060200190929190803590602001906401000000008111156109d257600080fd5b8201836020820111156109e457600080fd5b80359060200191846020830284011164010000000083111715610a0657600080fd5b919080806020026020016040519081016040528093929190818152602001838360200280828437600081840152601f19601f8201169050808301925050505050505091929192908035906020019092919080359060200190929190505050611b95565b005b610a9760048036036020811015610a8157600080fd5b8101908080359060200190929190505050612375565b60405180821515815260200191505060405180910390f35b610adb60048036036020811015610ac557600080fd5b81019080803590602001909291905050506123df565b005b610ae5612d38565b604051808273ffffffffffffffffffffffffffffffffffffffff16815260200191505060405180910390f35b610bd460048036036040811015610b2757600080fd5b810190808035906020019092919080359060200190640100000000811115610b4e57600080fd5b820183602082011115610b6057600080fd5b80359060200191846001830284011164010000000083111715610b8257600080fd5b91908080601f016020809104026020016040519081016040528093929190818152602001838380828437600081840152601f19601f820116905080830192505050505050509192919290505050612d62565b604051808273ffffffffffffffffffffffffffffffffffffffff16815260200191505060405180910390f35b610cc360048036036040811015610c1657600080fd5b810190808035906020019092919080359060200190640100000000811115610c3d57600080fd5b820183602082011115610c4f57600080fd5b80359060200191846001830284011164010000000083111715610c7157600080fd5b91908080601f016020809104026020016040519081016040528093929190818152602001838380828437600081840152601f19601f820116905080830192505050505050509192919290505050612e0a565b6040518080602001828103825283818151815260200191508051906020019080838360005b83811015610d03578082015181840152602081019050610ce8565b50505050905090810190601f168015610d305780820380516001836020036101000a031916815260200191505b509250505060405180910390f35b610e0160048036036040811015610d5457600080fd5b810190808035906020019092919080359060200190640100000000811115610d7b57600080fd5b820183602082011115610d8d57600080fd5b80359060200191846001830284011164010000000083111715610daf57600080fd5b91908080601f016020809104026020016040519081016040528093929190818152602001838380828437600081840152601f19601f820116905080830192505050505050509192919290505050612f2a565b6040518080602001828103825283818151815260200191508051906020019060200280838360005b83811015610e44578082015181840152602081019050610e29565b505050509050019250505060405180910390f35b610e8e60048036036040811015610e6e57600080fd5b810190808035906020019092919080359060200190929190505050612fff565b6040518082815260200191505060405180910390f35b610eda60048036036040811015610eba57600080fd5b810190808035906020019092919080359060200190929190505050613030565b6040518082815260200191505060405180910390f35b610fb360048036036040811015610f0657600080fd5b810190808035906020019092919080359060200190640100000000811115610f2d57600080fd5b820183602082011115610f3f57600080fd5b80359060200191846001830284011164010000000083111715610f6157600080fd5b91908080601f016020809104026020016040519081016040528093929190818152602001838380828437600081840152601f19601f820116905080830192505050505050509192919290505050613062565b60405180821515815260200191505060405180910390f35b61108e60048036036040811015610fe157600080fd5b81019080803590602001909291908035906020019064010000000081111561100857600080fd5b82018360208201111561101a57600080fd5b8035906020019184600183028401116401000000008311171561103c57600080fd5b91908080601f016020809104026020016040519081016040528093929190818152602001838380828437600081840152601f19601f8201169050808301925050505050505091929192905050506130f6565b6040518082815260200191505060405180910390f35b6110da600480360360408110156110ba57600080fd5b81019080803590602001909291908035906020019092919050505061317d565b005b611112600480360360408110156110f257600080fd5b810190808035906020019092919080359060200190929190505050613911565b6040518080602001828103825283818151815260200191508051906020019060200280838360005b8381101561115557808201518184015260208101905061113a565b505050509050019250505060405180910390f35b6112226004803603602081101561117f57600080fd5b810190808035906020019064010000000081111561119c57600080fd5b8201836020820111156111ae57600080fd5b803590602001918460018302840111640100000000831117156111d057600080fd5b91908080601f016020809104026020016040519081016040528093929190818152602001838380828437600081840152601f19601f820116905080830192505050505050509192919290505050613990565b6040518080602001828103825283818151815260200191508051906020019060200280838360005b8381101561126557808201518184015260208101905061124a565b505050509050019250505060405180910390f35b6112bb6004803603602081101561128f57600080fd5b81019080803573ffffffffffffffffffffffffffffffffffffffff169060200190929190505050613a51565b005b600c60009054906101000a900473ffffffffffffffffffffffffffffffffffffffff1673ffffffffffffffffffffffffffffffffffffffff163373ffffffffffffffffffffffffffffffffffffffff1614611363576040517f08c379a0000000000000000000000000000000000000000000000000000000008152600401808060200182810382526021815260200180613cf56021913960400191505060405180910390fd5b7fa0a5a35754b3519ae614f00422ac62a6bc4608ccb722963aab00cb48c588ad728888888888888888604051808973ffffffffffffffffffffffffffffffffffffffff1681526020018873ffffffffffffffffffffffffffffffffffffffff1681526020018773ffffffffffffffffffffffffffffffffffffffff16815260200186815260200180602001806020018381038352878782818152602001925080828437600081840152601f19601f8201169050808301925050508381038252858582818152602001925080828437600081840152601f19601f8201169050808301925050509a505050505050505050505060405180910390a15050505050505050565b60606001600084815260200190815260200160002060000160008381526020019081526020016000208054806020026020016040519081016040528092919081815260200182805480156114d957602002820191906000526020600020905b8154815260200190600101908083116114c5575b5050505050905092915050565b600060016000848152602001908152602001600020600301826040518082805190602001908083835b60208310611532578051825260208201915060208101905060208303925061150f565b6001836020036101000a038019825116818451168082178552505050505050905001915050908152602001604051809103902054905092915050565b606060016000848152602001908152602001600020600101826040518082805190602001908083835b602083106115ba5780518252602082019150602081019050602083039250611597565b6001836020036101000a038019825116818451168082178552505050505050905001915050908152602001604051809103902080548060200260200160405190810160405280929190818152602001828054801561163757602002820191906000526020600020905b815481526020019060010190808311611623575b5050505050905092915050565b6060600080848152602001908152602001600020600401826040518082805190602001908083835b6020831061168f578051825260208201915060208101905060208303925061166c565b6001836020036101000a03801982511681845116808217855250505050505090500191505090815260200160405180910390208054600181600116156101000203166002900480601f0160208091040260200160405190810160405280929190818152602001828054600181600116156101000203166002900480156117565780601f1061172b57610100808354040283529160200191611756565b820191906000526020600020905b81548152906001019060200180831161173957829003601f168201915b5050505050905092915050565b6060600260003373ffffffffffffffffffffffffffffffffffffffff1673ffffffffffffffffffffffffffffffffffffffff168152602001908152602001600020600201826040518082805190602001908083835b602083106117db57805182526020820191506020810190506020830392506117b8565b6001836020036101000a038019825116818451168082178552505050505050905001915050908152602001604051809103902080548060200260200160405190810160405280929190818152602001828054801561185857602002820191906000526020600020905b815481526020019060010190808311611844575b50505050509050919050565b6000600260003373ffffffffffffffffffffffffffffffffffffffff1673ffffffffffffffffffffffffffffffffffffffff168152602001908152602001600020600001600083815260200190815260200160002060009054906101000a900460ff169050919050565b600060016000848152602001908152602001600020600501826040518082805190602001908083835b6020831061191a57805182526020820191506020810190506020830392506118f7565b6001836020036101000a038019825116818451168082178552505050505050905001915050908152602001604051809103902060009054906101000a900460ff16905092915050565b61196b613c61565b73ffffffffffffffffffffffffffffffffffffffff16600960009054906101000a900473ffffffffffffffffffffffffffffffffffffffff1673ffffffffffffffffffffffffffffffffffffffff1614611a2d576040517f08c379a00000000000000000000000000000000000000000000000000000000081526004018080602001828103825260208152602001807f4f776e61626c653a2063616c6c6572206973206e6f7420746865206f776e657281525060200191505060405180910390fd5b600073ffffffffffffffffffffffffffffffffffffffff16600960009054906101000a900473ffffffffffffffffffffffffffffffffffffffff1673ffffffffffffffffffffffffffffffffffffffff167f8be0079c531659141344cd1fd0a4f28419497f9722a3daafe3b4186f6b6457e060405160405180910390a36000600960006101000a81548173ffffffffffffffffffffffffffffffffffffffff021916908373ffffffffffffffffffffffffffffffffffffffff160217905550565b6000806000848152602001908152602001600020600601826040518082805190602001908083835b60208310611b395780518252602082019150602081019050602083039250611b16565b6001836020036101000a038019825116818451168082178552505050505050905001915050908152602001604051809103902060009054906101000a900473ffffffffffffffffffffffffffffffffffffffff16905092915050565b655af3107a4000828281611ba557fe5b041015611bfd576040517f08c379a0000000000000000000000000000000000000000000000000000000008152600401808060200182810382526025815260200180613d886025913960400191505060405180910390fd5b600360405180807f706f6c6c73000000000000000000000000000000000000000000000000000000815250600501905090815260200160405180910390208490806001815401808255809150506001900390600052602060002001600090919091909150556001600085815260200190815260200160002060050160405180807f696e697469616c697a6564000000000000000000000000000000000000000000815250600b019050908152602001604051809103902060009054906101000a900460ff1615611d18576040517f08c379a0000000000000000000000000000000000000000000000000000000008152600401808060200182810382526027815260200180613d166027913960400191505060405180910390fd5b600180600086815260200190815260200160002060050160405180807f696e697469616c697a6564000000000000000000000000000000000000000000815250600b019050908152602001604051809103902060006101000a81548160ff021916908315150217905550826001600086815260200190815260200160002060010160405180807f63686f6963657300000000000000000000000000000000000000000000000000815250600701905090815260200160405180910390209080519060200190611de8929190613c69565b50336001600086815260200190815260200160002060060160405180807f6f776e65720000000000000000000000000000000000000000000000000000008152506005019050908152602001604051809103902060006101000a81548173ffffffffffffffffffffffffffffffffffffffff021916908373ffffffffffffffffffffffffffffffffffffffff16021790555060006001600086815260200190815260200160002060050160405180807f73746f7070656453746174757300000000000000000000000000000000000000815250600d019050908152602001604051809103902060006101000a81548160ff021916908315150217905550806001600086815260200190815260200160002060030160405180807f76616c75650000000000000000000000000000000000000000000000000000008152506005019050908152602001604051809103902081905550816001600086815260200190815260200160002060030160405180807f6d61785061727469636970616e74730000000000000000000000000000000000815250600f01905090815260200160405180910390208190555060006001600086815260200190815260200160002060030160405180807f746f74616c50617274696369706174656400000000000000000000000000000081525060110190509081526020016040518091039020819055506001600360405180807f706f6c6c730000000000000000000000000000000000000000000000000000008152506005019050908152602001604051809103902080549050036001600086815260200190815260200160002060030160405180807f706f6c6c496e646578496e416c6c506f6c6c73417272617900000000000000008152506018019050908152602001604051809103902081905550600260003373ffffffffffffffffffffffffffffffffffffffff1673ffffffffffffffffffffffffffffffffffffffff16815260200190815260200160002060020160405180807f706f6c6c73000000000000000000000000000000000000000000000000000000815250600501905090815260200160405180910390208490806001815401808255809150506001900390600052602060002001600090919091909150556001600260003373ffffffffffffffffffffffffffffffffffffffff1673ffffffffffffffffffffffffffffffffffffffff16815260200190815260200160002060020160405180807f706f6c6c730000000000000000000000000000000000000000000000000000008152506005019050908152602001604051809103902080549050036001600086815260200190815260200160002060030160405180807f706f6c6c496e646578496e5573657243726561746564506f6c6c7341727261798152506020019050908152602001604051809103902081905550600c60009054906101000a900473ffffffffffffffffffffffffffffffffffffffff1673ffffffffffffffffffffffffffffffffffffffff166362ad1b833330846040518463ffffffff1660e01b8152600401808473ffffffffffffffffffffffffffffffffffffffff1681526020018373ffffffffffffffffffffffffffffffffffffffff168152602001828152602001806020018060200183810383526000815260200160200183810382526000815260200160200195505050505050600060405180830381600087803b1580156122df57600080fd5b505af11580156122f3573d6000803e3d6000fd5b505050507f41e06db2bff2d42d101550ddd8e5222c620382b18848b9c317b5abf21efdc1ad600360405180807f706f6c6c7300000000000000000000000000000000000000000000000000000081525060050190509081526020016040518091039020805490506040518082815260200191505060405180910390a150505050565b6000600260003373ffffffffffffffffffffffffffffffffffffffff1673ffffffffffffffffffffffffffffffffffffffff168152602001908152602001600020600101600083815260200190815260200160002060009054906101000a900460ff169050919050565b3373ffffffffffffffffffffffffffffffffffffffff166001600083815260200190815260200160002060060160405180807f6f776e65720000000000000000000000000000000000000000000000000000008152506005019050908152602001604051809103902060009054906101000a900473ffffffffffffffffffffffffffffffffffffffff1673ffffffffffffffffffffffffffffffffffffffff161461248957600080fd5b6001600082815260200190815260200160002060050160405180807f696e697469616c697a6564000000000000000000000000000000000000000000815250600b019050908152602001604051809103902060006101000a81549060ff021916905560005b6001600083815260200190815260200160002060010160405180807f63686f696365730000000000000000000000000000000000000000000000000081525060070190509081526020016040518091039020805490508110156125c3576001600083815260200190815260200160002060010160405180807f63686f69636573000000000000000000000000000000000000000000000000008152506007019050908152602001604051809103902081815481106125a857fe5b906000526020600020016000905580806001019150506124ee565b506001600082815260200190815260200160002060010160405180807f63686f69636573000000000000000000000000000000000000000000000000008152506007019050908152602001604051809103902060006126229190613cb6565b6001600082815260200190815260200160002060060160405180807f6f776e65720000000000000000000000000000000000000000000000000000008152506005019050908152602001604051809103902060006101000a81549073ffffffffffffffffffffffffffffffffffffffff02191690556001600082815260200190815260200160002060050160405180807f73746f7070656453746174757300000000000000000000000000000000000000815250600d019050908152602001604051809103902060006101000a81549060ff02191690556001600082815260200190815260200160002060030160405180807f76616c756500000000000000000000000000000000000000000000000000000081525060050190509081526020016040518091039020600090556001600082815260200190815260200160002060030160405180807f6d61785061727469636970616e74730000000000000000000000000000000000815250600f0190509081526020016040518091039020600090556001600082815260200190815260200160002060030160405180807f746f74616c506172746963697061746564000000000000000000000000000000815250601101905090815260200160405180910390206000905560006001600083815260200190815260200160002060030160405180807f706f6c6c496e646578496e416c6c506f6c6c7341727261790000000000000000815250601801905090815260200160405180910390205490505b6001600360405180807f706f6c6c7300000000000000000000000000000000000000000000000000000081525060050190509081526020016040518091039020805490500381101561295a57600360405180807f706f6c6c730000000000000000000000000000000000000000000000000000008152506005019050908152602001604051809103902060018201815481106128eb57fe5b9060005260206000200154600360405180807f706f6c6c7300000000000000000000000000000000000000000000000000000081525060050190509081526020016040518091039020828154811061293f57fe5b90600052602060002001819055508080600101915050612853565b50600360405180807f706f6c6c73000000000000000000000000000000000000000000000000000000815250600501905090815260200160405180910390208054806129a257fe5b600190038181906000526020600020016000905590556001600082815260200190815260200160002060030160405180807f706f6c6c496e646578496e416c6c506f6c6c7341727261790000000000000000815250601801905090815260200160405180910390206000905560006001600083815260200190815260200160002060030160405180807f706f6c6c496e646578496e5573657243726561746564506f6c6c734172726179815250602001905090815260200160405180910390205490505b6001600260003373ffffffffffffffffffffffffffffffffffffffff1673ffffffffffffffffffffffffffffffffffffffff16815260200190815260200160002060020160405180807f706f6c6c73000000000000000000000000000000000000000000000000000000815250600501905090815260200160405180910390208054905003811015612c2d57600260003373ffffffffffffffffffffffffffffffffffffffff1673ffffffffffffffffffffffffffffffffffffffff16815260200190815260200160002060020160405180807f706f6c6c73000000000000000000000000000000000000000000000000000000815250600501905090815260200160405180910390206001820181548110612b7e57fe5b9060005260206000200154600260003373ffffffffffffffffffffffffffffffffffffffff1673ffffffffffffffffffffffffffffffffffffffff16815260200190815260200160002060020160405180807f706f6c6c73000000000000000000000000000000000000000000000000000000815250600501905090815260200160405180910390208281548110612c1257fe5b90600052602060002001819055508080600101915050612a66565b50600260003373ffffffffffffffffffffffffffffffffffffffff1673ffffffffffffffffffffffffffffffffffffffff16815260200190815260200160002060020160405180807f706f6c6c7300000000000000000000000000000000000000000000000000000081525060050190509081526020016040518091039020805480612cb557fe5b600190038181906000526020600020016000905590556001600082815260200190815260200160002060030160405180807f706f6c6c496e646578496e5573657243726561746564506f6c6c7341727261798152506020019050908152602001604051809103902060009055600160008281526020019081526020016000205050565b6000600960009054906101000a900473ffffffffffffffffffffffffffffffffffffffff16905090565b600060016000848152602001908152602001600020600601826040518082805190602001908083835b60208310612dae5780518252602082019150602081019050602083039250612d8b565b6001836020036101000a038019825116818451168082178552505050505050905001915050908152602001604051809103902060009054906101000a900473ffffffffffffffffffffffffffffffffffffffff16905092915050565b606060016000848152602001908152602001600020600401826040518082805190602001908083835b60208310612e565780518252602082019150602081019050602083039250612e33565b6001836020036101000a03801982511681845116808217855250505050505090500191505090815260200160405180910390208054600181600116156101000203166002900480601f016020809104026020016040519081016040528092919081815260200182805460018160011615610100020316600290048015612f1d5780601f10612ef257610100808354040283529160200191612f1d565b820191906000526020600020905b815481529060010190602001808311612f0057829003601f168201915b5050505050905092915050565b6060600080848152602001908152602001600020600101826040518082805190602001908083835b60208310612f755780518252602082019150602081019050602083039250612f52565b6001836020036101000a0380198251168184511680821785525050505050509050019150509081526020016040518091039020805480602002602001604051908101604052809291908181526020018280548015612ff257602002820191906000526020600020905b815481526020019060010190808311612fde575b5050505050905092915050565b6000806000848152602001908152602001600020600201600083815260200190815260200160002054905092915050565b600060016000848152602001908152602001600020600201600083815260200190815260200160002054905092915050565b6000806000848152602001908152602001600020600501826040518082805190602001908083835b602083106130ad578051825260208201915060208101905060208303925061308a565b6001836020036101000a038019825116818451168082178552505050505050905001915050908152602001604051809103902060009054906101000a900460ff16905092915050565b6000806000848152602001908152602001600020600301826040518082805190602001908083835b60208310613141578051825260208201915060208101905060208303925061311e565b6001836020036101000a038019825116818451168082178552505050505050905001915050908152602001604051809103902054905092915050565b6001600083815260200190815260200160002060050160405180807f73746f7070656453746174757300000000000000000000000000000000000000815250600d019050908152602001604051809103902060009054906101000a900460ff16156131e757600080fd5b600260003373ffffffffffffffffffffffffffffffffffffffff1673ffffffffffffffffffffffffffffffffffffffff168152602001908152602001600020600101600083815260200190815260200160002060009054906101000a900460ff161561325257600080fd5b3373ffffffffffffffffffffffffffffffffffffffff166001600084815260200190815260200160002060060160405180807f6f776e65720000000000000000000000000000000000000000000000000000008152506005019050908152602001604051809103902060009054906101000a900473ffffffffffffffffffffffffffffffffffffffff1673ffffffffffffffffffffffffffffffffffffffff1614156132fd57600080fd5b6000805b8115801561336357506001600085815260200190815260200160002060010160405180807f63686f6963657300000000000000000000000000000000000000000000000000815250600701905090815260200160405180910390208054905081105b156133e957826001600086815260200190815260200160002060010160405180807f63686f69636573000000000000000000000000000000000000000000000000008152506007019050908152602001604051809103902082815481106133c657fe5b906000526020600020015414156133dc57600191505b8080600101915050613301565b506001151581151514613447576040517f08c379a0000000000000000000000000000000000000000000000000000000008152600401808060200182810382526025815260200180613d3d6025913960400191505060405180910390fd5b6001600260003373ffffffffffffffffffffffffffffffffffffffff1673ffffffffffffffffffffffffffffffffffffffff168152602001908152602001600020600101600085815260200190815260200160002060006101000a81548160ff0219169083151502179055506001600084815260200190815260200160002060030160405180807f746f74616c50617274696369706174656400000000000000000000000000000081525060110190509081526020016040518091039020600081548092919060010191905055506001600084815260200190815260200160002060030160405180807f746f74616c50617274696369706174656400000000000000000000000000000081525060110190509081526020016040518091039020546001600085815260200190815260200160002060030160405180807f6d61785061727469636970616e74730000000000000000000000000000000000815250600f019050908152602001604051809103902054141561362c57600180600085815260200190815260200160002060050160405180807f73746f7070656453746174757300000000000000000000000000000000000000815250600d019050908152602001604051809103902060006101000a81548160ff0219169083151502179055505b600160008481526020019081526020016000206002016000838152602001908152602001600020600081548092919060010191905055506000600a6001600086815260200190815260200160002060030160405180807f7061727469636970616e7473416c6c6f7765640000000000000000000000000081525060130190509081526020016040518091039020546001600087815260200190815260200160002060030160405180807f76616c756500000000000000000000000000000000000000000000000000000081525060050190509081526020016040518091039020548161371457fe5b048161371c57fe5b049050600c60009054906101000a900473ffffffffffffffffffffffffffffffffffffffff1673ffffffffffffffffffffffffffffffffffffffff166362ad1b8330613766612d38565b846040518463ffffffff1660e01b8152600401808473ffffffffffffffffffffffffffffffffffffffff1681526020018373ffffffffffffffffffffffffffffffffffffffff168152602001828152602001806020018060200183810383526000815260200160200183810382526000815260200160200195505050505050600060405180830381600087803b1580156137ff57600080fd5b505af1158015613813573d6000803e3d6000fd5b50505050600c60009054906101000a900473ffffffffffffffffffffffffffffffffffffffff1673ffffffffffffffffffffffffffffffffffffffff166362ad1b833033600985026040518463ffffffff1660e01b8152600401808473ffffffffffffffffffffffffffffffffffffffff1681526020018373ffffffffffffffffffffffffffffffffffffffff168152602001828152602001806020018060200183810383526000815260200160200183810382526000815260200160200195505050505050600060405180830381600087803b1580156138f357600080fd5b505af1158015613907573d6000803e3d6000fd5b5050505050505050565b6060600080848152602001908152602001600020600001600083815260200190815260200160002080548060200260200160405190810160405280929190818152602001828054801561398357602002820191906000526020600020905b81548152602001906001019080831161396f575b5050505050905092915050565b60606003826040518082805190602001908083835b602083106139c857805182526020820191506020810190506020830392506139a5565b6001836020036101000a0380198251168184511680821785525050505050509050019150509081526020016040518091039020805480602002602001604051908101604052809291908181526020018280548015613a4557602002820191906000526020600020905b815481526020019060010190808311613a31575b50505050509050919050565b613a59613c61565b73ffffffffffffffffffffffffffffffffffffffff16600960009054906101000a900473ffffffffffffffffffffffffffffffffffffffff1673ffffffffffffffffffffffffffffffffffffffff1614613b1b576040517f08c379a00000000000000000000000000000000000000000000000000000000081526004018080602001828103825260208152602001807f4f776e61626c653a2063616c6c6572206973206e6f7420746865206f776e657281525060200191505060405180910390fd5b600073ffffffffffffffffffffffffffffffffffffffff168173ffffffffffffffffffffffffffffffffffffffff161415613ba1576040517f08c379a0000000000000000000000000000000000000000000000000000000008152600401808060200182810382526026815260200180613d626026913960400191505060405180910390fd5b8073ffffffffffffffffffffffffffffffffffffffff16600960009054906101000a900473ffffffffffffffffffffffffffffffffffffffff1673ffffffffffffffffffffffffffffffffffffffff167f8be0079c531659141344cd1fd0a4f28419497f9722a3daafe3b4186f6b6457e060405160405180910390a380600960006101000a81548173ffffffffffffffffffffffffffffffffffffffff021916908373ffffffffffffffffffffffffffffffffffffffff16021790555050565b600033905090565b828054828255906000526020600020908101928215613ca5579160200282015b82811115613ca4578251825591602001919060010190613c89565b5b509050613cb29190613cd7565b5090565b5080546000825590600052602060002090810190613cd49190613cd7565b50565b5b80821115613cf0576000816000905550600101613cd8565b509056fe53696d706c65373737526563697069656e743a20496e76616c696420746f6b656e546865726520697320616e6f7468657220706f6c6c20776974682074652073616d65206e616d65596f75722063686f696365206973206e6f742076616c696420696e207468697320706f6c6c4f776e61626c653a206e6577206f776e657220697320746865207a65726f20616464726573735061727469636970616e74277320626f756e74792073686f756c6420626520626967676572a2646970667358221220eba67841643b5270a2a8b42f288bec666e9d654a784d5e84b528140a5a3971d064736f6c634300060c0033",
  "immutableReferences": {},
  "source": "// SPDX-License-Identifier: MIT\r\n\r\npragma solidity 0.6.12;\r\n\r\nimport \"./Storage.sol\";\r\nimport \"@openzeppelin/contracts/access/Ownable.sol\";\r\nimport \"@openzeppelin/contracts/token/ERC777/IERC777.sol\";\r\nimport \"@openzeppelin/contracts/introspection/IERC1820Registry.sol\";\r\nimport \"@openzeppelin/contracts/token/ERC777/IERC777Recipient.sol\";\r\n\r\n\r\ncontract PollFunc is Storage, Ownable\r\n{\r\n//ERC777 emplementation + recipients\r\n\r\n  address private funcAddress;\r\n\r\n  IERC1820Registry private _erc1820 = IERC1820Registry(\r\n\t\t0x1820a4B7618BdE71Dce8cdc73aAB6C95905faD24\r\n\t);\r\n\tbytes32 private constant TOKENS_RECIPIENT_INTERFACE_HASH = keccak256(\r\n\t\t\"ERC777TokensRecipient\"\r\n\t);\r\n\r\n\tIERC777 private _token;\r\n\r\n\tevent DoneStuff(\r\n\t\taddress operator,\r\n\t\taddress from,\r\n\t\taddress to,\r\n\t\tuint256 amount,\r\n\t\tbytes userData,\r\n\t\tbytes operatorData\r\n\t);\r\n\r\n\tconstructor(address token) public {\r\n\t\t_token = IERC777(token);\r\n\r\n\t\t_erc1820.setInterfaceImplementer(\r\n\t\t\t\taddress(this),\r\n\t\t\t\tTOKENS_RECIPIENT_INTERFACE_HASH,\r\n\t\t\t\taddress(this)\r\n\t\t);\r\n\t}\r\n\r\n\tfunction tokensReceived(\r\n\t\taddress operator,\r\n\t\taddress from,\r\n\t\taddress to,\r\n\t\tuint256 amount,\r\n\t\tbytes calldata userData,\r\n\t\tbytes calldata operatorData\r\n\t) external {\r\n\t\trequire(\r\n\t\t\t\tmsg.sender == address(_token),\r\n\t\t\t\t\"Simple777Recipient: Invalid token\"\r\n\t\t);\r\n\r\n\t\t// do stuff\r\n\t\temit DoneStuff(operator, from, to, amount, userData, operatorData);\r\n\t}\r\n\r\n// Events\r\n\r\n  event pollNumber(uint256 nr);\r\n\r\n// General app functions\r\n\r\n  function setPoll(bytes32 _name, bytes32[] memory _choices, uint256 _maxParticipants, uint256 _valueOfPoll) public\r\n  {\r\n    require(_valueOfPoll/_maxParticipants >= 10 ** 14, \"Participant's bounty should be bigger\"); //participants bounty >= 0.0001\r\n    _stringToBytes32ArrayStorage['polls'].push(_name); //save new poll name\r\n    require(!_pollStorage[_name]._boolStorage['initialized'], \"There is another poll with te same name\"); //create unique polls\r\n    _pollStorage[_name]._boolStorage['initialized'] = true; //initialize the poll\r\n    _pollStorage[_name]._stringToBytes32ArrayStorage['choices'] = _choices; //save choices\r\n    _pollStorage[_name]._addressStorage['owner'] = msg.sender; //save owner\r\n    _pollStorage[_name]._boolStorage['stoppedStatus'] = false; //set stop status for new poll\r\n    _pollStorage[_name]._uintStorage['value'] = _valueOfPoll; //set the value of poll in UFO tokens\r\n    _pollStorage[_name]._uintStorage['maxParticipants'] = _maxParticipants; //set max participants allowed\r\n    _pollStorage[_name]._uintStorage['totalParticipated'] = 0; //set total participants for new poll\r\n    _pollStorage[_name]._uintStorage['pollIndexInAllPollsArray'] = _stringToBytes32ArrayStorage['polls'].length - 1; //set index in all polls array\r\n    _userStorage[msg.sender]._stringToBytes32ArrayStorage['polls'].push(_name); //add new poll to user account\r\n    _pollStorage[_name]._uintStorage['pollIndexInUserCreatedPollsArray'] = _userStorage[msg.sender]._stringToBytes32ArrayStorage['polls'].length - 1; //set index in user created polls array\r\n    _token.operatorSend(msg.sender, address(this), _valueOfPoll, \"\", \"\"); //send tokens to Smart Contract\r\n    emit pollNumber(_stringToBytes32ArrayStorage['polls'].length); //emit total number of poll\r\n  }\r\n\r\n  function pollParticipation(bytes32 _name, bytes32 _choice) public\r\n  {\r\n    require(!_pollStorage[_name]._boolStorage['stoppedStatus']); //require that the poll is still active\r\n    require(!_userStorage[msg.sender].participatedPolls[_name]); //require that the user did not participate at this poll\r\n    require(_pollStorage[_name]._addressStorage['owner'] != msg.sender); //the owner cannot participate at his poll\r\n    bool found = false;\r\n    for(uint i = 0; !found && i < _pollStorage[_name]._stringToBytes32ArrayStorage['choices'].length; i++) {\r\n      if(_pollStorage[_name]._stringToBytes32ArrayStorage['choices'][i] == _choice) {\r\n        found = true; //check if user's choice is valid for this poll\r\n      }\r\n    }\r\n    require(found == true, \"Your choice is not valid in this poll\");\r\n    _userStorage[msg.sender].participatedPolls[_name] = true; //set participation\r\n    _pollStorage[_name]._uintStorage['totalParticipated']++; //increase participants\r\n    if(_pollStorage[_name]._uintStorage['maxParticipants'] == _pollStorage[_name]._uintStorage['totalParticipated']) {\r\n      _pollStorage[_name]._boolStorage['stoppedStatus'] = true; //if max participants number is reached, stop the poll\r\n    }\r\n    _pollStorage[_name]._bytes32ToUintStorage[_choice]++; //add new vote\r\n    uint256 _dappCreatorsReward = (_pollStorage[_name]._uintStorage['value'] / _pollStorage[_name]._uintStorage['participantsAllowed'])/10;\r\n    _token.operatorSend(address(this), Ownable.owner(), _dappCreatorsReward, '', ''); //send rewards to owner\r\n    _token.operatorSend(address(this), msg.sender, _dappCreatorsReward * 9, '', ''); //send bounty to participants\r\n  }\r\n\r\n  function deletePoll(bytes32 _name) public\r\n  {\r\n    require(_pollStorage[_name]._addressStorage['owner'] == msg.sender); //only the owner of the poll can delete the poll\r\n    //delete the poll\r\n    delete _pollStorage[_name]._boolStorage['initialized'];\r\n    for(uint256 i = 0; i < _pollStorage[_name]._stringToBytes32ArrayStorage['choices'].length; i++) {\r\n      delete _pollStorage[_name]._stringToBytes32ArrayStorage['choices'][i];\r\n    }\r\n    delete _pollStorage[_name]._stringToBytes32ArrayStorage['choices'];\r\n    delete _pollStorage[_name]._addressStorage['owner'];\r\n    delete _pollStorage[_name]._boolStorage['stoppedStatus'];\r\n    delete _pollStorage[_name]._uintStorage['value'];\r\n    delete _pollStorage[_name]._uintStorage['maxParticipants'];\r\n    delete _pollStorage[_name]._uintStorage['totalParticipated'];\r\n    for (uint256 i = _pollStorage[_name]._uintStorage['pollIndexInAllPollsArray']; i < _stringToBytes32ArrayStorage['polls'].length - 1; i++) {\r\n      _stringToBytes32ArrayStorage['polls'][i] = _stringToBytes32ArrayStorage['polls'][i + 1];\r\n    }\r\n    _stringToBytes32ArrayStorage['polls'].pop();\r\n    delete _pollStorage[_name]._uintStorage['pollIndexInAllPollsArray'];\r\n    for (uint256 i = _pollStorage[_name]._uintStorage['pollIndexInUserCreatedPollsArray']; i < _userStorage[msg.sender]._stringToBytes32ArrayStorage['polls'].length - 1; i++) {\r\n      _userStorage[msg.sender]._stringToBytes32ArrayStorage['polls'][i] = _userStorage[msg.sender]._stringToBytes32ArrayStorage['polls'][i + 1];\r\n    }\r\n    _userStorage[msg.sender]._stringToBytes32ArrayStorage['polls'].pop();\r\n    delete _pollStorage[_name]._uintStorage['pollIndexInUserCreatedPollsArray'];\r\n    delete _pollStorage[_name];\r\n  }\r\n\r\n}\r\n",
  "sourcePath": "C:/Users/Daniel/Projects/Surveys_V2/contracts/PollFunc.sol",
  "compiler": {
    "name": "solc",
    "version": "0.6.12+commit.27d51765.Emscripten.clang"
  },
  "schemaVersion": "3.2.5",
  "updatedAt": "2020-10-15T22:37:13.367Z",
  "networkType": "ethereum",
  "devdoc": {
    "kind": "dev",
    "methods": {
      "owner()": {
        "details": "Returns the address of the current owner."
      },
      "renounceOwnership()": {
        "details": "Leaves the contract without owner. It will not be possible to call `onlyOwner` functions anymore. Can only be called by the current owner. NOTE: Renouncing ownership will leave the contract without an owner, thereby removing any functionality that is only available to the owner."
      },
      "transferOwnership(address)": {
        "details": "Transfers ownership of the contract to a new account (`newOwner`). Can only be called by the current owner."
      }
    },
    "version": 1
  },
  "userdoc": {
    "kind": "user",
    "methods": {},
    "version": 1
  }
}