{
  "contractName": "ProxySurveys",
  "abi": [
    {
      "inputs": [
        {
          "internalType": "address",
          "name": "_currentAddress",
          "type": "address"
        },
        {
          "internalType": "uint256",
          "name": "initialSupply",
          "type": "uint256"
        }
      ],
      "stateMutability": "nonpayable",
      "type": "constructor"
    },
    {
      "anonymous": false,
      "inputs": [
        {
          "indexed": true,
          "internalType": "address",
          "name": "owner",
          "type": "address"
        },
        {
          "indexed": true,
          "internalType": "address",
          "name": "spender",
          "type": "address"
        },
        {
          "indexed": false,
          "internalType": "uint256",
          "name": "value",
          "type": "uint256"
        }
      ],
      "name": "Approval",
      "type": "event"
    },
    {
      "anonymous": false,
      "inputs": [
        {
          "indexed": true,
          "internalType": "address",
          "name": "previousOwner",
          "type": "address"
        },
        {
          "indexed": true,
          "internalType": "address",
          "name": "newOwner",
          "type": "address"
        }
      ],
      "name": "OwnershipTransferred",
      "type": "event"
    },
    {
      "anonymous": false,
      "inputs": [
        {
          "indexed": true,
          "internalType": "address",
          "name": "from",
          "type": "address"
        },
        {
          "indexed": true,
          "internalType": "address",
          "name": "to",
          "type": "address"
        },
        {
          "indexed": false,
          "internalType": "uint256",
          "name": "value",
          "type": "uint256"
        }
      ],
      "name": "Transfer",
      "type": "event"
    },
    {
      "stateMutability": "payable",
      "type": "fallback"
    },
    {
      "inputs": [],
      "name": "_initialized",
      "outputs": [
        {
          "internalType": "bool",
          "name": "",
          "type": "bool"
        }
      ],
      "stateMutability": "view",
      "type": "function"
    },
    {
      "inputs": [
        {
          "internalType": "address",
          "name": "owner",
          "type": "address"
        },
        {
          "internalType": "address",
          "name": "spender",
          "type": "address"
        }
      ],
      "name": "allowance",
      "outputs": [
        {
          "internalType": "uint256",
          "name": "",
          "type": "uint256"
        }
      ],
      "stateMutability": "view",
      "type": "function"
    },
    {
      "inputs": [
        {
          "internalType": "address",
          "name": "spender",
          "type": "address"
        },
        {
          "internalType": "uint256",
          "name": "amount",
          "type": "uint256"
        }
      ],
      "name": "approve",
      "outputs": [
        {
          "internalType": "bool",
          "name": "",
          "type": "bool"
        }
      ],
      "stateMutability": "nonpayable",
      "type": "function"
    },
    {
      "inputs": [
        {
          "internalType": "address",
          "name": "account",
          "type": "address"
        }
      ],
      "name": "balanceOf",
      "outputs": [
        {
          "internalType": "uint256",
          "name": "",
          "type": "uint256"
        }
      ],
      "stateMutability": "view",
      "type": "function"
    },
    {
      "inputs": [],
      "name": "decimals",
      "outputs": [
        {
          "internalType": "uint8",
          "name": "",
          "type": "uint8"
        }
      ],
      "stateMutability": "view",
      "type": "function"
    },
    {
      "inputs": [
        {
          "internalType": "address",
          "name": "spender",
          "type": "address"
        },
        {
          "internalType": "uint256",
          "name": "subtractedValue",
          "type": "uint256"
        }
      ],
      "name": "decreaseAllowance",
      "outputs": [
        {
          "internalType": "bool",
          "name": "",
          "type": "bool"
        }
      ],
      "stateMutability": "nonpayable",
      "type": "function"
    },
    {
      "inputs": [
        {
          "internalType": "address",
          "name": "spender",
          "type": "address"
        },
        {
          "internalType": "uint256",
          "name": "addedValue",
          "type": "uint256"
        }
      ],
      "name": "increaseAllowance",
      "outputs": [
        {
          "internalType": "bool",
          "name": "",
          "type": "bool"
        }
      ],
      "stateMutability": "nonpayable",
      "type": "function"
    },
    {
      "inputs": [],
      "name": "name",
      "outputs": [
        {
          "internalType": "string",
          "name": "",
          "type": "string"
        }
      ],
      "stateMutability": "view",
      "type": "function"
    },
    {
      "inputs": [],
      "name": "owner",
      "outputs": [
        {
          "internalType": "address",
          "name": "",
          "type": "address"
        }
      ],
      "stateMutability": "view",
      "type": "function"
    },
    {
      "inputs": [],
      "name": "renounceOwnership",
      "outputs": [],
      "stateMutability": "nonpayable",
      "type": "function"
    },
    {
      "inputs": [],
      "name": "symbol",
      "outputs": [
        {
          "internalType": "string",
          "name": "",
          "type": "string"
        }
      ],
      "stateMutability": "view",
      "type": "function"
    },
    {
      "inputs": [],
      "name": "totalSupply",
      "outputs": [
        {
          "internalType": "uint256",
          "name": "",
          "type": "uint256"
        }
      ],
      "stateMutability": "view",
      "type": "function"
    },
    {
      "inputs": [
        {
          "internalType": "address",
          "name": "recipient",
          "type": "address"
        },
        {
          "internalType": "uint256",
          "name": "amount",
          "type": "uint256"
        }
      ],
      "name": "transfer",
      "outputs": [
        {
          "internalType": "bool",
          "name": "",
          "type": "bool"
        }
      ],
      "stateMutability": "nonpayable",
      "type": "function"
    },
    {
      "inputs": [
        {
          "internalType": "address",
          "name": "sender",
          "type": "address"
        },
        {
          "internalType": "address",
          "name": "recipient",
          "type": "address"
        },
        {
          "internalType": "uint256",
          "name": "amount",
          "type": "uint256"
        }
      ],
      "name": "transferFrom",
      "outputs": [
        {
          "internalType": "bool",
          "name": "",
          "type": "bool"
        }
      ],
      "stateMutability": "nonpayable",
      "type": "function"
    },
    {
      "inputs": [
        {
          "internalType": "address",
          "name": "newOwner",
          "type": "address"
        }
      ],
      "name": "transferOwnership",
      "outputs": [],
      "stateMutability": "nonpayable",
      "type": "function"
    },
    {
      "inputs": [
        {
          "internalType": "address",
          "name": "_newAddress",
          "type": "address"
        }
      ],
      "name": "update",
      "outputs": [],
      "stateMutability": "nonpayable",
      "type": "function"
    }
  ],
  "bytecode": "0x60806040523480156200001157600080fd5b5060405162002056380380620020568339818101604052810190620000379190620004f9565b6040518060400160405280600b81526020017f537572766579546f6b656e0000000000000000000000000000000000000000008152506040518060400160405280600381526020017f535654000000000000000000000000000000000000000000000000000000000081525081600c9080519060200190620000bb92919062000425565b5080600d9080519060200190620000d492919062000425565b506012600e60006101000a81548160ff021916908360ff16021790555050506000620001056200020f60201b60201c565b905080600e60016101000a81548173ffffffffffffffffffffffffffffffffffffffff021916908373ffffffffffffffffffffffffffffffffffffffff1602179055508073ffffffffffffffffffffffffffffffffffffffff16600073ffffffffffffffffffffffffffffffffffffffff167f8be0079c531659141344cd1fd0a4f28419497f9722a3daafe3b4186f6b6457e060405160405180910390a35081600f60006101000a81548173ffffffffffffffffffffffffffffffffffffffff021916908373ffffffffffffffffffffffffffffffffffffffff1602179055506000670de0b6b3a7640000820290506200020633826200021760201b60201c565b505050620006b3565b600033905090565b600073ffffffffffffffffffffffffffffffffffffffff168273ffffffffffffffffffffffffffffffffffffffff1614156200028a576040517f08c379a00000000000000000000000000000000000000000000000000000000081526004016200028190620005f1565b60405180910390fd5b6200029e60008383620003c860201b60201c565b620002ba81600b54620003cd60201b62000d6b1790919060201c565b600b819055506200031981600960008573ffffffffffffffffffffffffffffffffffffffff1673ffffffffffffffffffffffffffffffffffffffff16815260200190815260200160002054620003cd60201b62000d6b1790919060201c565b600960008473ffffffffffffffffffffffffffffffffffffffff1673ffffffffffffffffffffffffffffffffffffffff168152602001908152602001600020819055508173ffffffffffffffffffffffffffffffffffffffff16600073ffffffffffffffffffffffffffffffffffffffff167fddf252ad1be2c89b69c2b068fc378daa952ba7f163c4a11628f55a4df523b3ef83604051620003bc919062000613565b60405180910390a35050565b505050565b6000808284019050838110156200041b576040517f08c379a00000000000000000000000000000000000000000000000000000000081526004016200041290620005cf565b60405180910390fd5b8091505092915050565b828054600181600116156101000203166002900490600052602060002090601f016020900481019282601f106200046857805160ff191683800117855562000499565b8280016001018555821562000499579182015b82811115620004985782518255916020019190600101906200047b565b5b509050620004a89190620004ac565b5090565b5b80821115620004c7576000816000905550600101620004ad565b5090565b600081519050620004dc816200067f565b92915050565b600081519050620004f38162000699565b92915050565b600080604083850312156200050d57600080fd5b60006200051d85828601620004cb565b92505060206200053085828601620004e2565b9150509250929050565b600062000549601b8362000630565b91507f536166654d6174683a206164646974696f6e206f766572666c6f7700000000006000830152602082019050919050565b60006200058b601f8362000630565b91507f45524332303a206d696e7420746f20746865207a65726f2061646472657373006000830152602082019050919050565b620005c98162000675565b82525050565b60006020820190508181036000830152620005ea816200053a565b9050919050565b600060208201905081810360008301526200060c816200057c565b9050919050565b60006020820190506200062a6000830184620005be565b92915050565b600082825260208201905092915050565b60006200064e8262000655565b9050919050565b600073ffffffffffffffffffffffffffffffffffffffff82169050919050565b6000819050919050565b6200068a8162000641565b81146200069657600080fd5b50565b620006a48162000675565b8114620006b057600080fd5b50565b61199380620006c36000396000f3fe6080604052600436106100f75760003560e01c806370a082311161008a578063a457c2d711610059578063a457c2d714610421578063a9059cbb1461045e578063dd62ed3e1461049b578063f2fde38b146104d8576100f8565b806370a0823114610377578063715018a6146103b45780638da5cb5b146103cb57806395d89b41146103f6576100f8565b806323b872dd116100c657806323b872dd146102a75780633072cf60146102e4578063313ce5671461030f578063395093511461033a576100f8565b806306fdde03146101eb578063095ea7b31461021657806318160ddd146102535780631c1b87721461027e576100f8565b5b6000600f60009054906101000a900473ffffffffffffffffffffffffffffffffffffffff169050600073ffffffffffffffffffffffffffffffffffffffff16600f60009054906101000a900473ffffffffffffffffffffffffffffffffffffffff1673ffffffffffffffffffffffffffffffffffffffff16141561017b57600080fd5b60606000368080601f016020809104026020016040519081016040528093929190818152602001838380828437600081840152601f19601f820116905080830192505050505050509050600080825160208401855af43d604051816000823e82600081146101e7578282f35b8282fd5b3480156101f757600080fd5b50610200610501565b60405161020d91906116cf565b60405180910390f35b34801561022257600080fd5b5061023d6004803603810190610238919061136a565b6105a3565b60405161024a91906116b4565b60405180910390f35b34801561025f57600080fd5b506102686105c1565b60405161027591906117d1565b60405180910390f35b34801561028a57600080fd5b506102a560048036038101906102a091906112b6565b6105cb565b005b3480156102b357600080fd5b506102ce60048036038101906102c9919061131b565b61060f565b6040516102db91906116b4565b60405180910390f35b3480156102f057600080fd5b506102f96106e8565b60405161030691906116b4565b60405180910390f35b34801561031b57600080fd5b506103246106fb565b60405161033191906117ec565b60405180910390f35b34801561034657600080fd5b50610361600480360381019061035c919061136a565b610712565b60405161036e91906116b4565b60405180910390f35b34801561038357600080fd5b5061039e600480360381019061039991906112b6565b6107c5565b6040516103ab91906117d1565b60405180910390f35b3480156103c057600080fd5b506103c961080e565b005b3480156103d757600080fd5b506103e0610966565b6040516103ed9190611699565b60405180910390f35b34801561040257600080fd5b5061040b610990565b60405161041891906116cf565b60405180910390f35b34801561042d57600080fd5b506104486004803603810190610443919061136a565b610a32565b60405161045591906116b4565b60405180910390f35b34801561046a57600080fd5b506104856004803603810190610480919061136a565b610aff565b60405161049291906116b4565b60405180910390f35b3480156104a757600080fd5b506104c260048036038101906104bd91906112df565b610b1d565b6040516104cf91906117d1565b60405180910390f35b3480156104e457600080fd5b506104ff60048036038101906104fa91906112b6565b610ba4565b005b6060600c8054600181600116156101000203166002900480601f0160208091040260200160405190810160405280929190818152602001828054600181600116156101000203166002900480156105995780601f1061056e57610100808354040283529160200191610599565b820191906000526020600020905b81548152906001019060200180831161057c57829003601f168201915b5050505050905090565b60006105b76105b0610dc0565b8484610dc8565b6001905092915050565b6000600b54905090565b80600f60006101000a81548173ffffffffffffffffffffffffffffffffffffffff021916908373ffffffffffffffffffffffffffffffffffffffff16021790555050565b600061061c848484610f93565b6106dd84610628610dc0565b6106d88560405180606001604052806028815260200161191160289139600a60008b73ffffffffffffffffffffffffffffffffffffffff1673ffffffffffffffffffffffffffffffffffffffff168152602001908152602001600020600061068e610dc0565b73ffffffffffffffffffffffffffffffffffffffff1673ffffffffffffffffffffffffffffffffffffffff1681526020019081526020016000205461122c9092919063ffffffff16565b610dc8565b600190509392505050565b600860009054906101000a900460ff1681565b6000600e60009054906101000a900460ff16905090565b60006107bb61071f610dc0565b846107b685600a6000610730610dc0565b73ffffffffffffffffffffffffffffffffffffffff1673ffffffffffffffffffffffffffffffffffffffff16815260200190815260200160002060008973ffffffffffffffffffffffffffffffffffffffff1673ffffffffffffffffffffffffffffffffffffffff16815260200190815260200160002054610d6b90919063ffffffff16565b610dc8565b6001905092915050565b6000600960008373ffffffffffffffffffffffffffffffffffffffff1673ffffffffffffffffffffffffffffffffffffffff168152602001908152602001600020549050919050565b610816610dc0565b73ffffffffffffffffffffffffffffffffffffffff16600e60019054906101000a900473ffffffffffffffffffffffffffffffffffffffff1673ffffffffffffffffffffffffffffffffffffffff16146108a5576040517f08c379a000000000000000000000000000000000000000000000000000000000815260040161089c90611771565b60405180910390fd5b600073ffffffffffffffffffffffffffffffffffffffff16600e60019054906101000a900473ffffffffffffffffffffffffffffffffffffffff1673ffffffffffffffffffffffffffffffffffffffff167f8be0079c531659141344cd1fd0a4f28419497f9722a3daafe3b4186f6b6457e060405160405180910390a36000600e60016101000a81548173ffffffffffffffffffffffffffffffffffffffff021916908373ffffffffffffffffffffffffffffffffffffffff160217905550565b6000600e60019054906101000a900473ffffffffffffffffffffffffffffffffffffffff16905090565b6060600d8054600181600116156101000203166002900480601f016020809104026020016040519081016040528092919081815260200182805460018160011615610100020316600290048015610a285780601f106109fd57610100808354040283529160200191610a28565b820191906000526020600020905b815481529060010190602001808311610a0b57829003601f168201915b5050505050905090565b6000610af5610a3f610dc0565b84610af08560405180606001604052806025815260200161193960259139600a6000610a69610dc0565b73ffffffffffffffffffffffffffffffffffffffff1673ffffffffffffffffffffffffffffffffffffffff16815260200190815260200160002060008a73ffffffffffffffffffffffffffffffffffffffff1673ffffffffffffffffffffffffffffffffffffffff1681526020019081526020016000205461122c9092919063ffffffff16565b610dc8565b6001905092915050565b6000610b13610b0c610dc0565b8484610f93565b6001905092915050565b6000600a60008473ffffffffffffffffffffffffffffffffffffffff1673ffffffffffffffffffffffffffffffffffffffff16815260200190815260200160002060008373ffffffffffffffffffffffffffffffffffffffff1673ffffffffffffffffffffffffffffffffffffffff16815260200190815260200160002054905092915050565b610bac610dc0565b73ffffffffffffffffffffffffffffffffffffffff16600e60019054906101000a900473ffffffffffffffffffffffffffffffffffffffff1673ffffffffffffffffffffffffffffffffffffffff1614610c3b576040517f08c379a0000000000000000000000000000000000000000000000000000000008152600401610c3290611771565b60405180910390fd5b600073ffffffffffffffffffffffffffffffffffffffff168173ffffffffffffffffffffffffffffffffffffffff161415610cab576040517f08c379a0000000000000000000000000000000000000000000000000000000008152600401610ca290611711565b60405180910390fd5b8073ffffffffffffffffffffffffffffffffffffffff16600e60019054906101000a900473ffffffffffffffffffffffffffffffffffffffff1673ffffffffffffffffffffffffffffffffffffffff167f8be0079c531659141344cd1fd0a4f28419497f9722a3daafe3b4186f6b6457e060405160405180910390a380600e60016101000a81548173ffffffffffffffffffffffffffffffffffffffff021916908373ffffffffffffffffffffffffffffffffffffffff16021790555050565b600080828401905083811015610db6576040517f08c379a0000000000000000000000000000000000000000000000000000000008152600401610dad90611751565b60405180910390fd5b8091505092915050565b600033905090565b600073ffffffffffffffffffffffffffffffffffffffff168373ffffffffffffffffffffffffffffffffffffffff161415610e38576040517f08c379a0000000000000000000000000000000000000000000000000000000008152600401610e2f906117b1565b60405180910390fd5b600073ffffffffffffffffffffffffffffffffffffffff168273ffffffffffffffffffffffffffffffffffffffff161415610ea8576040517f08c379a0000000000000000000000000000000000000000000000000000000008152600401610e9f90611731565b60405180910390fd5b80600a60008573ffffffffffffffffffffffffffffffffffffffff1673ffffffffffffffffffffffffffffffffffffffff16815260200190815260200160002060008473ffffffffffffffffffffffffffffffffffffffff1673ffffffffffffffffffffffffffffffffffffffff168152602001908152602001600020819055508173ffffffffffffffffffffffffffffffffffffffff168373ffffffffffffffffffffffffffffffffffffffff167f8c5be1e5ebec7d5bd14f71427d1e84f3dd0314c0f7b2291e5b200ac8c7c3b92583604051610f8691906117d1565b60405180910390a3505050565b600073ffffffffffffffffffffffffffffffffffffffff168373ffffffffffffffffffffffffffffffffffffffff161415611003576040517f08c379a0000000000000000000000000000000000000000000000000000000008152600401610ffa90611791565b60405180910390fd5b600073ffffffffffffffffffffffffffffffffffffffff168273ffffffffffffffffffffffffffffffffffffffff161415611073576040517f08c379a000000000000000000000000000000000000000000000000000000000815260040161106a906116f1565b60405180910390fd5b61107e838383611287565b6110ea816040518060600160405280602681526020016118eb60269139600960008773ffffffffffffffffffffffffffffffffffffffff1673ffffffffffffffffffffffffffffffffffffffff1681526020019081526020016000205461122c9092919063ffffffff16565b600960008573ffffffffffffffffffffffffffffffffffffffff1673ffffffffffffffffffffffffffffffffffffffff1681526020019081526020016000208190555061117f81600960008573ffffffffffffffffffffffffffffffffffffffff1673ffffffffffffffffffffffffffffffffffffffff16815260200190815260200160002054610d6b90919063ffffffff16565b600960008473ffffffffffffffffffffffffffffffffffffffff1673ffffffffffffffffffffffffffffffffffffffff168152602001908152602001600020819055508173ffffffffffffffffffffffffffffffffffffffff168373ffffffffffffffffffffffffffffffffffffffff167fddf252ad1be2c89b69c2b068fc378daa952ba7f163c4a11628f55a4df523b3ef8360405161121f91906117d1565b60405180910390a3505050565b6000838311158290611274576040517f08c379a000000000000000000000000000000000000000000000000000000000815260040161126b91906116cf565b60405180910390fd5b5060008385039050809150509392505050565b505050565b60008135905061129b816118bc565b92915050565b6000813590506112b0816118d3565b92915050565b6000602082840312156112c857600080fd5b60006112d68482850161128c565b91505092915050565b600080604083850312156112f257600080fd5b60006113008582860161128c565b92505060206113118582860161128c565b9150509250929050565b60008060006060848603121561133057600080fd5b600061133e8682870161128c565b935050602061134f8682870161128c565b9250506040611360868287016112a1565b9150509250925092565b6000806040838503121561137d57600080fd5b600061138b8582860161128c565b925050602061139c858286016112a1565b9150509250929050565b6113af81611823565b82525050565b6113be81611835565b82525050565b60006113cf82611807565b6113d98185611812565b93506113e9818560208601611878565b6113f2816118ab565b840191505092915050565b600061140a602383611812565b91507f45524332303a207472616e7366657220746f20746865207a65726f206164647260008301527f65737300000000000000000000000000000000000000000000000000000000006020830152604082019050919050565b6000611470602683611812565b91507f4f776e61626c653a206e6577206f776e657220697320746865207a65726f206160008301527f64647265737300000000000000000000000000000000000000000000000000006020830152604082019050919050565b60006114d6602283611812565b91507f45524332303a20617070726f766520746f20746865207a65726f20616464726560008301527f73730000000000000000000000000000000000000000000000000000000000006020830152604082019050919050565b600061153c601b83611812565b91507f536166654d6174683a206164646974696f6e206f766572666c6f7700000000006000830152602082019050919050565b600061157c602083611812565b91507f4f776e61626c653a2063616c6c6572206973206e6f7420746865206f776e65726000830152602082019050919050565b60006115bc602583611812565b91507f45524332303a207472616e736665722066726f6d20746865207a65726f20616460008301527f64726573730000000000000000000000000000000000000000000000000000006020830152604082019050919050565b6000611622602483611812565b91507f45524332303a20617070726f76652066726f6d20746865207a65726f2061646460008301527f72657373000000000000000000000000000000000000000000000000000000006020830152604082019050919050565b61168481611861565b82525050565b6116938161186b565b82525050565b60006020820190506116ae60008301846113a6565b92915050565b60006020820190506116c960008301846113b5565b92915050565b600060208201905081810360008301526116e981846113c4565b905092915050565b6000602082019050818103600083015261170a816113fd565b9050919050565b6000602082019050818103600083015261172a81611463565b9050919050565b6000602082019050818103600083015261174a816114c9565b9050919050565b6000602082019050818103600083015261176a8161152f565b9050919050565b6000602082019050818103600083015261178a8161156f565b9050919050565b600060208201905081810360008301526117aa816115af565b9050919050565b600060208201905081810360008301526117ca81611615565b9050919050565b60006020820190506117e6600083018461167b565b92915050565b6000602082019050611801600083018461168a565b92915050565b600081519050919050565b600082825260208201905092915050565b600061182e82611841565b9050919050565b60008115159050919050565b600073ffffffffffffffffffffffffffffffffffffffff82169050919050565b6000819050919050565b600060ff82169050919050565b60005b8381101561189657808201518184015260208101905061187b565b838111156118a5576000848401525b50505050565b6000601f19601f8301169050919050565b6118c581611823565b81146118d057600080fd5b50565b6118dc81611861565b81146118e757600080fd5b5056fe45524332303a207472616e7366657220616d6f756e7420657863656564732062616c616e636545524332303a207472616e7366657220616d6f756e74206578636565647320616c6c6f77616e636545524332303a2064656372656173656420616c6c6f77616e63652062656c6f77207a65726fa2646970667358221220b4a35b0116bf0a0b7202539031052a4ca2cf15e20fbfe1c504816c0b2bd9bdc064736f6c634300060c0033",
  "immutableReferences": {},
  "source": "// SPDX-License-Identifier: MIT\r\n\r\npragma solidity ^0.6.0;\r\npragma experimental ABIEncoderV2;\r\n\r\nimport \"@openzeppelin/contracts/token/ERC20/ERC20.sol\";\r\nimport \"@openzeppelin/contracts/access/Ownable.sol\";\r\nimport \"./StorageSurveys.sol\";\r\n\r\ncontract ProxySurveys is StorageSurveys, ERC20, Ownable\r\n{\r\n  address currentAddress;\r\n\r\n  constructor(address _currentAddress, uint256 initialSupply) public ERC20(\"SurveyToken\", \"SVT\")\r\n  {\r\n    currentAddress = _currentAddress;\r\n    uint internalInitialSupply = initialSupply * (10 ** 18);\r\n    _mint(msg.sender, internalInitialSupply);\r\n  }\r\n\r\n  function update(address _newAddress) public\r\n  {\r\n    currentAddress = _newAddress;\r\n  }\r\n\r\n  //FALLBACK function\r\n  fallback() payable external\r\n  {\r\n    //Redirect to currentAddress\r\n    address implementation = currentAddress;\r\n    require(currentAddress != address(0));\r\n    bytes memory data = msg.data;\r\n\r\n    assembly\r\n    {\r\n      let result := delegatecall(gas(), implementation, add(data, 0x20), mload(data), 0, 0)\r\n      let size := returndatasize()\r\n      let ptr := mload(0x40)\r\n      returndatacopy(ptr, 0, size)\r\n      switch result\r\n      case 0 {revert(ptr, size)}\r\n      default {return(ptr, size)}\r\n    }\r\n  }\r\n}\r\n",
  "sourcePath": "C:/Users/User/Projects/Surveys_V2/contracts/ProxySurveys.sol",
  "compiler": {
    "name": "solc",
    "version": "0.6.12+commit.27d51765.Emscripten.clang"
  },
  "schemaVersion": "3.2.4",
  "updatedAt": "2020-09-14T14:59:29.582Z",
  "devdoc": {
    "kind": "dev",
    "methods": {
      "allowance(address,address)": {
        "details": "See {IERC20-allowance}."
      },
      "approve(address,uint256)": {
        "details": "See {IERC20-approve}. Requirements: - `spender` cannot be the zero address."
      },
      "balanceOf(address)": {
        "details": "See {IERC20-balanceOf}."
      },
      "decimals()": {
        "details": "Returns the number of decimals used to get its user representation. For example, if `decimals` equals `2`, a balance of `505` tokens should be displayed to a user as `5,05` (`505 / 10 ** 2`). Tokens usually opt for a value of 18, imitating the relationship between Ether and Wei. This is the value {ERC20} uses, unless {_setupDecimals} is called. NOTE: This information is only used for _display_ purposes: it in no way affects any of the arithmetic of the contract, including {IERC20-balanceOf} and {IERC20-transfer}."
      },
      "decreaseAllowance(address,uint256)": {
        "details": "Atomically decreases the allowance granted to `spender` by the caller. This is an alternative to {approve} that can be used as a mitigation for problems described in {IERC20-approve}. Emits an {Approval} event indicating the updated allowance. Requirements: - `spender` cannot be the zero address. - `spender` must have allowance for the caller of at least `subtractedValue`."
      },
      "increaseAllowance(address,uint256)": {
        "details": "Atomically increases the allowance granted to `spender` by the caller. This is an alternative to {approve} that can be used as a mitigation for problems described in {IERC20-approve}. Emits an {Approval} event indicating the updated allowance. Requirements: - `spender` cannot be the zero address."
      },
      "name()": {
        "details": "Returns the name of the token."
      },
      "owner()": {
        "details": "Returns the address of the current owner."
      },
      "renounceOwnership()": {
        "details": "Leaves the contract without owner. It will not be possible to call `onlyOwner` functions anymore. Can only be called by the current owner. NOTE: Renouncing ownership will leave the contract without an owner, thereby removing any functionality that is only available to the owner."
      },
      "symbol()": {
        "details": "Returns the symbol of the token, usually a shorter version of the name."
      },
      "totalSupply()": {
        "details": "See {IERC20-totalSupply}."
      },
      "transfer(address,uint256)": {
        "details": "See {IERC20-transfer}. Requirements: - `recipient` cannot be the zero address. - the caller must have a balance of at least `amount`."
      },
      "transferFrom(address,address,uint256)": {
        "details": "See {IERC20-transferFrom}. Emits an {Approval} event indicating the updated allowance. This is not required by the EIP. See the note at the beginning of {ERC20}; Requirements: - `sender` and `recipient` cannot be the zero address. - `sender` must have a balance of at least `amount`. - the caller must have allowance for ``sender``'s tokens of at least `amount`."
      },
      "transferOwnership(address)": {
        "details": "Transfers ownership of the contract to a new account (`newOwner`). Can only be called by the current owner."
      }
    },
    "version": 1
  },
  "userdoc": {
    "kind": "user",
    "methods": {},
    "version": 1
  }
}