{
  "contractName": "ProxySurveys",
  "abi": [
    {
      "inputs": [
        {
          "internalType": "address",
          "name": "_currentAddress",
          "type": "address"
        },
        {
          "internalType": "contract IERC777",
          "name": "token",
          "type": "address"
        }
      ],
      "stateMutability": "nonpayable",
      "type": "constructor"
    },
    {
      "anonymous": false,
      "inputs": [
        {
          "indexed": true,
          "internalType": "address",
          "name": "previousOwner",
          "type": "address"
        },
        {
          "indexed": true,
          "internalType": "address",
          "name": "newOwner",
          "type": "address"
        }
      ],
      "name": "OwnershipTransferred",
      "type": "event"
    },
    {
      "stateMutability": "payable",
      "type": "fallback",
      "payable": true
    },
    {
      "inputs": [
        {
          "internalType": "string",
          "name": "_name",
          "type": "string"
        },
        {
          "internalType": "string",
          "name": "_choice",
          "type": "string"
        }
      ],
      "name": "getPollChoiceVotes",
      "outputs": [
        {
          "internalType": "uint256",
          "name": "",
          "type": "uint256"
        }
      ],
      "stateMutability": "view",
      "type": "function",
      "constant": true
    },
    {
      "inputs": [
        {
          "internalType": "string",
          "name": "_name",
          "type": "string"
        }
      ],
      "name": "getPollChoices",
      "outputs": [
        {
          "internalType": "string",
          "name": "",
          "type": "string"
        }
      ],
      "stateMutability": "view",
      "type": "function",
      "constant": true
    },
    {
      "inputs": [
        {
          "internalType": "uint256",
          "name": "_ofNumber",
          "type": "uint256"
        }
      ],
      "name": "getPollName",
      "outputs": [
        {
          "internalType": "string",
          "name": "",
          "type": "string"
        }
      ],
      "stateMutability": "view",
      "type": "function",
      "constant": true
    },
    {
      "inputs": [
        {
          "internalType": "string",
          "name": "_name",
          "type": "string"
        }
      ],
      "name": "getPollOwner",
      "outputs": [
        {
          "internalType": "address",
          "name": "",
          "type": "address"
        }
      ],
      "stateMutability": "view",
      "type": "function",
      "constant": true
    },
    {
      "inputs": [
        {
          "internalType": "string",
          "name": "_name",
          "type": "string"
        }
      ],
      "name": "getPollParticipantsAllowed",
      "outputs": [
        {
          "internalType": "uint256",
          "name": "",
          "type": "uint256"
        }
      ],
      "stateMutability": "view",
      "type": "function",
      "constant": true
    },
    {
      "inputs": [
        {
          "internalType": "string",
          "name": "_name",
          "type": "string"
        }
      ],
      "name": "getPollStoppedStatus",
      "outputs": [
        {
          "internalType": "bool",
          "name": "",
          "type": "bool"
        }
      ],
      "stateMutability": "view",
      "type": "function",
      "constant": true
    },
    {
      "inputs": [
        {
          "internalType": "string",
          "name": "_name",
          "type": "string"
        }
      ],
      "name": "getPollTotalParticipants",
      "outputs": [
        {
          "internalType": "uint256",
          "name": "",
          "type": "uint256"
        }
      ],
      "stateMutability": "view",
      "type": "function",
      "constant": true
    },
    {
      "inputs": [
        {
          "internalType": "string",
          "name": "_name",
          "type": "string"
        }
      ],
      "name": "getPollValue",
      "outputs": [
        {
          "internalType": "uint256",
          "name": "",
          "type": "uint256"
        }
      ],
      "stateMutability": "view",
      "type": "function",
      "constant": true
    },
    {
      "inputs": [
        {
          "internalType": "string",
          "name": "_name",
          "type": "string"
        },
        {
          "internalType": "uint256",
          "name": "_ofNumber",
          "type": "uint256"
        }
      ],
      "name": "getSurveyAnswers",
      "outputs": [
        {
          "internalType": "string",
          "name": "",
          "type": "string"
        }
      ],
      "stateMutability": "view",
      "type": "function",
      "constant": true
    },
    {
      "inputs": [
        {
          "internalType": "uint256",
          "name": "_ofNumber",
          "type": "uint256"
        }
      ],
      "name": "getSurveyName",
      "outputs": [
        {
          "internalType": "string",
          "name": "",
          "type": "string"
        }
      ],
      "stateMutability": "view",
      "type": "function",
      "constant": true
    },
    {
      "inputs": [
        {
          "internalType": "string",
          "name": "_name",
          "type": "string"
        }
      ],
      "name": "getSurveyOwner",
      "outputs": [
        {
          "internalType": "address",
          "name": "",
          "type": "address"
        }
      ],
      "stateMutability": "view",
      "type": "function",
      "constant": true
    },
    {
      "inputs": [
        {
          "internalType": "string",
          "name": "_name",
          "type": "string"
        }
      ],
      "name": "getSurveyParticipantsAllowed",
      "outputs": [
        {
          "internalType": "uint256",
          "name": "",
          "type": "uint256"
        }
      ],
      "stateMutability": "view",
      "type": "function",
      "constant": true
    },
    {
      "inputs": [
        {
          "internalType": "string",
          "name": "_name",
          "type": "string"
        }
      ],
      "name": "getSurveyQuestions",
      "outputs": [
        {
          "internalType": "string",
          "name": "",
          "type": "string"
        }
      ],
      "stateMutability": "view",
      "type": "function",
      "constant": true
    },
    {
      "inputs": [
        {
          "internalType": "string",
          "name": "_name",
          "type": "string"
        }
      ],
      "name": "getSurveyStoppedStatus",
      "outputs": [
        {
          "internalType": "bool",
          "name": "",
          "type": "bool"
        }
      ],
      "stateMutability": "view",
      "type": "function",
      "constant": true
    },
    {
      "inputs": [
        {
          "internalType": "string",
          "name": "_name",
          "type": "string"
        }
      ],
      "name": "getSurveyTotalParticipants",
      "outputs": [
        {
          "internalType": "uint256",
          "name": "",
          "type": "uint256"
        }
      ],
      "stateMutability": "view",
      "type": "function",
      "constant": true
    },
    {
      "inputs": [
        {
          "internalType": "string",
          "name": "_name",
          "type": "string"
        }
      ],
      "name": "getSurveyValue",
      "outputs": [
        {
          "internalType": "uint256",
          "name": "",
          "type": "uint256"
        }
      ],
      "stateMutability": "view",
      "type": "function",
      "constant": true
    },
    {
      "inputs": [
        {
          "internalType": "string",
          "name": "_valueName",
          "type": "string"
        }
      ],
      "name": "getUintStorage",
      "outputs": [
        {
          "internalType": "uint256",
          "name": "",
          "type": "uint256"
        }
      ],
      "stateMutability": "view",
      "type": "function",
      "constant": true
    },
    {
      "inputs": [],
      "name": "getUserCreatedPolls",
      "outputs": [
        {
          "internalType": "uint256",
          "name": "",
          "type": "uint256"
        }
      ],
      "stateMutability": "view",
      "type": "function",
      "constant": true
    },
    {
      "inputs": [],
      "name": "getUserCreatedSurveys",
      "outputs": [
        {
          "internalType": "uint256",
          "name": "",
          "type": "uint256"
        }
      ],
      "stateMutability": "view",
      "type": "function",
      "constant": true
    },
    {
      "inputs": [
        {
          "internalType": "uint256",
          "name": "_index",
          "type": "uint256"
        }
      ],
      "name": "getUserNumberOfPolls",
      "outputs": [
        {
          "internalType": "string",
          "name": "",
          "type": "string"
        }
      ],
      "stateMutability": "view",
      "type": "function",
      "constant": true
    },
    {
      "inputs": [
        {
          "internalType": "uint256",
          "name": "_index",
          "type": "uint256"
        }
      ],
      "name": "getUserNumberOfSurveys",
      "outputs": [
        {
          "internalType": "string",
          "name": "",
          "type": "string"
        }
      ],
      "stateMutability": "view",
      "type": "function",
      "constant": true
    },
    {
      "inputs": [],
      "name": "owner",
      "outputs": [
        {
          "internalType": "address",
          "name": "",
          "type": "address"
        }
      ],
      "stateMutability": "view",
      "type": "function",
      "constant": true
    },
    {
      "inputs": [],
      "name": "renounceOwnership",
      "outputs": [],
      "stateMutability": "nonpayable",
      "type": "function"
    },
    {
      "inputs": [
        {
          "internalType": "address",
          "name": "newOwner",
          "type": "address"
        }
      ],
      "name": "transferOwnership",
      "outputs": [],
      "stateMutability": "nonpayable",
      "type": "function"
    },
    {
      "inputs": [
        {
          "internalType": "address",
          "name": "_newAddress",
          "type": "address"
        }
      ],
      "name": "update",
      "outputs": [],
      "stateMutability": "nonpayable",
      "type": "function"
    }
  ],
  "bytecode": "0x60806040523480156200001157600080fd5b5060405162002dac38038062002dac833981810160405260408110156200003757600080fd5b8101908080519060200190929190805190602001909291905050506000620000646200018d60201b60201c565b905080600c60006101000a81548173ffffffffffffffffffffffffffffffffffffffff021916908373ffffffffffffffffffffffffffffffffffffffff1602179055508073ffffffffffffffffffffffffffffffffffffffff16600073ffffffffffffffffffffffffffffffffffffffff167f8be0079c531659141344cd1fd0a4f28419497f9722a3daafe3b4186f6b6457e060405160405180910390a35081600d60006101000a81548173ffffffffffffffffffffffffffffffffffffffff021916908373ffffffffffffffffffffffffffffffffffffffff16021790555080600e60006101000a81548173ffffffffffffffffffffffffffffffffffffffff021916908373ffffffffffffffffffffffffffffffffffffffff160217905550505062000195565b600033905090565b612c0780620001a56000396000f3fe60806040526004361061016a5760003560e01c8063739f213f116100d157806391c35b791161008a578063a99d21b411610064578063a99d21b41461128f578063ad27106b1461136b578063f2e21d821461145d578063f2fde38b146115115761016b565b806391c35b79146110215780639ade79a2146110d5578063a441a3fd146111b15761016b565b8063739f213f14610c6d57806377865d7114610d215780637c1dc72b14610dfd57806385f8830314610ed95780638c3e778e14610f045780638da5cb5b14610fe05761016b565b80633572a926116101235780633572a9261461084c5780633cd4ef18146109005780634d25871d14610a73578063613303f314610b4f57806365ae67c814610b7a578063715018a614610c565761016b565b8063094c291b1461025e5780630b5ceb781461033c578063155ddb071461042e57806316339bf81461056f5780631c1b8772146106ba5780631ed4cba31461070b5761016b565b5b6000600d60009054906101000a900473ffffffffffffffffffffffffffffffffffffffff169050600073ffffffffffffffffffffffffffffffffffffffff16600d60009054906101000a900473ffffffffffffffffffffffffffffffffffffffff1673ffffffffffffffffffffffffffffffffffffffff1614156101ee57600080fd5b60606000368080601f016020809104026020016040519081016040528093929190818152602001838380828437600081840152601f19601f820116905080830192505050505050509050600080825160208401855af43d604051816000823e826000811461025a578282f35b8282fd5b34801561026a57600080fd5b506103246004803603602081101561028157600080fd5b810190808035906020019064010000000081111561029e57600080fd5b8201836020820111156102b057600080fd5b803590602001918460018302840111640100000000831117156102d257600080fd5b91908080601f016020809104026020016040519081016040528093929190818152602001838380828437600081840152601f19601f820116905080830192505050505050509192919290505050611562565b60405180821515815260200191505060405180910390f35b34801561034857600080fd5b506104026004803603602081101561035f57600080fd5b810190808035906020019064010000000081111561037c57600080fd5b82018360208201111561038e57600080fd5b803590602001918460018302840111640100000000831117156103b057600080fd5b91908080601f016020809104026020016040519081016040528093929190818152602001838380828437600081840152601f19601f820116905080830192505050505050509192919290505050611621565b604051808273ffffffffffffffffffffffffffffffffffffffff16815260200191505060405180910390f35b34801561043a57600080fd5b506104f46004803603602081101561045157600080fd5b810190808035906020019064010000000081111561046e57600080fd5b82018360208201111561048057600080fd5b803590602001918460018302840111640100000000831117156104a257600080fd5b91908080601f016020809104026020016040519081016040528093929190818152602001838380828437600081840152601f19601f8201169050808301925050505050505091929192905050506116f2565b6040518080602001828103825283818151815260200191508051906020019080838360005b83811015610534578082015181840152602081019050610519565b50505050905090810190601f1680156105615780820380516001836020036101000a031916815260200191505b509250505060405180910390f35b34801561057b57600080fd5b5061063f6004803603604081101561059257600080fd5b81019080803590602001906401000000008111156105af57600080fd5b8201836020820111156105c157600080fd5b803590602001918460018302840111640100000000831117156105e357600080fd5b91908080601f016020809104026020016040519081016040528093929190818152602001838380828437600081840152601f19601f8201169050808301925050505050505091929192908035906020019092919050505061183c565b6040518080602001828103825283818151815260200191508051906020019080838360005b8381101561067f578082015181840152602081019050610664565b50505050905090810190601f1680156106ac5780820380516001836020036101000a031916815260200191505b509250505060405180910390f35b3480156106c657600080fd5b50610709600480360360208110156106dd57600080fd5b81019080803573ffffffffffffffffffffffffffffffffffffffff16906020019092919050505061199c565b005b34801561071757600080fd5b506107d16004803603602081101561072e57600080fd5b810190808035906020019064010000000081111561074b57600080fd5b82018360208201111561075d57600080fd5b8035906020019184600183028401116401000000008311171561077f57600080fd5b91908080601f016020809104026020016040519081016040528093929190818152602001838380828437600081840152601f19601f820116905080830192505050505050509192919290505050611aaa565b6040518080602001828103825283818151815260200191508051906020019080838360005b838110156108115780820151818401526020810190506107f6565b50505050905090810190601f16801561083e5780820380516001836020036101000a031916815260200191505b509250505060405180910390f35b34801561085857600080fd5b506108856004803603602081101561086f57600080fd5b8101908080359060200190929190505050611bf4565b6040518080602001828103825283818151815260200191508051906020019080838360005b838110156108c55780820151818401526020810190506108aa565b50505050905090810190601f1680156108f25780820380516001836020036101000a031916815260200191505b509250505060405180910390f35b34801561090c57600080fd5b50610a5d6004803603604081101561092357600080fd5b810190808035906020019064010000000081111561094057600080fd5b82018360208201111561095257600080fd5b8035906020019184600183028401116401000000008311171561097457600080fd5b91908080601f016020809104026020016040519081016040528093929190818152602001838380828437600081840152601f19601f820116905080830192505050505050509192919290803590602001906401000000008111156109d757600080fd5b8201836020820111156109e957600080fd5b80359060200191846001830284011164010000000083111715610a0b57600080fd5b91908080601f016020809104026020016040519081016040528093929190818152602001838380828437600081840152601f19601f820116905080830192505050505050509192919290505050611ce9565b6040518082815260200191505060405180910390f35b348015610a7f57600080fd5b50610b3960048036036020811015610a9657600080fd5b8101908080359060200190640100000000811115610ab357600080fd5b820183602082011115610ac557600080fd5b80359060200191846001830284011164010000000083111715610ae757600080fd5b91908080601f016020809104026020016040519081016040528093929190818152602001838380828437600081840152601f19601f820116905080830192505050505050509192919290505050611dc7565b6040518082815260200191505060405180910390f35b348015610b5b57600080fd5b50610b64611e78565b6040518082815260200191505060405180910390f35b348015610b8657600080fd5b50610c4060048036036020811015610b9d57600080fd5b8101908080359060200190640100000000811115610bba57600080fd5b820183602082011115610bcc57600080fd5b80359060200191846001830284011164010000000083111715610bee57600080fd5b91908080601f016020809104026020016040519081016040528093929190818152602001838380828437600081840152601f19601f820116905080830192505050505050509192919290505050611efe565b6040518082815260200191505060405180910390f35b348015610c6257600080fd5b50610c6b611f71565b005b348015610c7957600080fd5b50610ca660048036036020811015610c9057600080fd5b81019080803590602001909291905050506120fc565b6040518080602001828103825283818151815260200191508051906020019080838360005b83811015610ce6578082015181840152602081019050610ccb565b50505050905090810190601f168015610d135780820380516001836020036101000a031916815260200191505b509250505060405180910390f35b348015610d2d57600080fd5b50610de760048036036020811015610d4457600080fd5b8101908080359060200190640100000000811115610d6157600080fd5b820183602082011115610d7357600080fd5b80359060200191846001830284011164010000000083111715610d9557600080fd5b91908080601f016020809104026020016040519081016040528093929190818152602001838380828437600081840152601f19601f8201169050808301925050505050505091929192905050506121f1565b6040518082815260200191505060405180910390f35b348015610e0957600080fd5b50610ec360048036036020811015610e2057600080fd5b8101908080359060200190640100000000811115610e3d57600080fd5b820183602082011115610e4f57600080fd5b80359060200191846001830284011164010000000083111715610e7157600080fd5b91908080601f016020809104026020016040519081016040528093929190818152602001838380828437600081840152601f19601f8201169050808301925050505050505091929192905050506122a3565b6040518082815260200191505060405180910390f35b348015610ee557600080fd5b50610eee612355565b6040518082815260200191505060405180910390f35b348015610f1057600080fd5b50610fca60048036036020811015610f2757600080fd5b8101908080359060200190640100000000811115610f4457600080fd5b820183602082011115610f5657600080fd5b80359060200191846001830284011164010000000083111715610f7857600080fd5b91908080601f016020809104026020016040519081016040528093929190818152602001838380828437600081840152601f19601f8201169050808301925050505050505091929192905050506123db565b6040518082815260200191505060405180910390f35b348015610fec57600080fd5b50610ff561248c565b604051808273ffffffffffffffffffffffffffffffffffffffff16815260200191505060405180910390f35b34801561102d57600080fd5b5061105a6004803603602081101561104457600080fd5b81019080803590602001909291905050506124b6565b6040518080602001828103825283818151815260200191508051906020019080838360005b8381101561109a57808201518184015260208101905061107f565b50505050905090810190601f1680156110c75780820380516001836020036101000a031916815260200191505b509250505060405180910390f35b3480156110e157600080fd5b5061119b600480360360208110156110f857600080fd5b810190808035906020019064010000000081111561111557600080fd5b82018360208201111561112757600080fd5b8035906020019184600183028401116401000000008311171561114957600080fd5b91908080601f016020809104026020016040519081016040528093929190818152602001838380828437600081840152601f19601f8201169050808301925050505050505091929192905050506125ab565b6040518082815260200191505060405180910390f35b3480156111bd57600080fd5b50611277600480360360208110156111d457600080fd5b81019080803590602001906401000000008111156111f157600080fd5b82018360208201111561120357600080fd5b8035906020019184600183028401116401000000008311171561122557600080fd5b91908080601f016020809104026020016040519081016040528093929190818152602001838380828437600081840152601f19601f82011690508083019250505050505050919291929050505061265d565b60405180821515815260200191505060405180910390f35b34801561129b57600080fd5b50611355600480360360208110156112b257600080fd5b81019080803590602001906401000000008111156112cf57600080fd5b8201836020820111156112e157600080fd5b8035906020019184600183028401116401000000008311171561130357600080fd5b91908080601f016020809104026020016040519081016040528093929190818152602001838380828437600081840152601f19601f82011690508083019250505050505050919291929050505061271b565b6040518082815260200191505060405180910390f35b34801561137757600080fd5b506114316004803603602081101561138e57600080fd5b81019080803590602001906401000000008111156113ab57600080fd5b8201836020820111156113bd57600080fd5b803590602001918460018302840111640100000000831117156113df57600080fd5b91908080601f016020809104026020016040519081016040528093929190818152602001838380828437600081840152601f19601f8201169050808301925050505050505091929192905050506127cc565b604051808273ffffffffffffffffffffffffffffffffffffffff16815260200191505060405180910390f35b34801561146957600080fd5b506114966004803603602081101561148057600080fd5b810190808035906020019092919050505061289e565b6040518080602001828103825283818151815260200191508051906020019080838360005b838110156114d65780820151818401526020810190506114bb565b50505050905090810190601f1680156115035780820380516001836020036101000a031916815260200191505b509250505060405180910390f35b34801561151d57600080fd5b506115606004803603602081101561153457600080fd5b81019080803573ffffffffffffffffffffffffffffffffffffffff169060200190929190505050612993565b005b60006001826040518082805190602001908083835b6020831061159a5780518252602082019150602081019050602083039250611577565b6001836020036101000a038019825116818451168082178552505050505050905001915050908152602001604051809103902060030160405180807f73746f7070656453746174757300000000000000000000000000000000000000815250600d019050908152602001604051809103902060009054906101000a900460ff169050919050565b600080826040518082805190602001908083835b602083106116585780518252602082019150602081019050602083039250611635565b6001836020036101000a038019825116818451168082178552505050505050905001915050908152602001604051809103902060040160405180807f7375727665794f776e6572000000000000000000000000000000000000000000815250600b019050908152602001604051809103902060009054906101000a900473ffffffffffffffffffffffffffffffffffffffff169050919050565b60606000826040518082805190602001908083835b6020831061172a5780518252602082019150602081019050602083039250611707565b6001836020036101000a038019825116818451168082178552505050505050905001915050908152602001604051809103902060010160405180807f7175657374696f6e730000000000000000000000000000000000000000000000815250600901905090815260200160405180910390208054600181600116156101000203166002900480601f0160208091040260200160405190810160405280929190818152602001828054600181600116156101000203166002900480156118305780601f1061180557610100808354040283529160200191611830565b820191906000526020600020905b81548152906001019060200180831161181357829003601f168201915b50505050509050919050565b60606000836040518082805190602001908083835b602083106118745780518252602082019150602081019050602083039250611851565b6001836020036101000a038019825116818451168082178552505050505050905001915050908152602001604051809103902060020160405180807f616e7377657273000000000000000000000000000000000000000000000000008152506007019050908152602001604051809103902082815481106118f157fe5b906000526020600020018054600181600116156101000203166002900480601f01602080910402602001604051908101604052809291908181526020018280546001816001161561010002031660029004801561198f5780601f106119645761010080835404028352916020019161198f565b820191906000526020600020905b81548152906001019060200180831161197257829003601f168201915b5050505050905092915050565b6119a4612ba3565b73ffffffffffffffffffffffffffffffffffffffff16600c60009054906101000a900473ffffffffffffffffffffffffffffffffffffffff1673ffffffffffffffffffffffffffffffffffffffff1614611a66576040517f08c379a00000000000000000000000000000000000000000000000000000000081526004018080602001828103825260208152602001807f4f776e61626c653a2063616c6c6572206973206e6f7420746865206f776e657281525060200191505060405180910390fd5b80600d60006101000a81548173ffffffffffffffffffffffffffffffffffffffff021916908373ffffffffffffffffffffffffffffffffffffffff16021790555050565b60606001826040518082805190602001908083835b60208310611ae25780518252602082019150602081019050602083039250611abf565b6001836020036101000a038019825116818451168082178552505050505050905001915050908152602001604051809103902060010160405180807f63686f6963657300000000000000000000000000000000000000000000000000815250600701905090815260200160405180910390208054600181600116156101000203166002900480601f016020809104026020016040519081016040528092919081815260200182805460018160011615610100020316600290048015611be85780601f10611bbd57610100808354040283529160200191611be8565b820191906000526020600020905b815481529060010190602001808311611bcb57829003601f168201915b50505050509050919050565b6060600860405180807f706f6c6c73000000000000000000000000000000000000000000000000000000815250600501905090815260200160405180910390208281548110611c3f57fe5b906000526020600020018054600181600116156101000203166002900480601f016020809104026020016040519081016040528092919081815260200182805460018160011615610100020316600290048015611cdd5780601f10611cb257610100808354040283529160200191611cdd565b820191906000526020600020905b815481529060010190602001808311611cc057829003601f168201915b50505050509050919050565b60006001836040518082805190602001908083835b60208310611d215780518252602082019150602081019050602083039250611cfe565b6001836020036101000a0380198251168184511680821785525050505050509050019150509081526020016040518091039020600001826040518082805190602001908083835b60208310611d8b5780518252602082019150602081019050602083039250611d68565b6001836020036101000a038019825116818451168082178552505050505050905001915050908152602001604051809103902054905092915050565b600080826040518082805190602001908083835b60208310611dfe5780518252602082019150602081019050602083039250611ddb565b6001836020036101000a038019825116818451168082178552505050505050905001915050908152602001604051809103902060000160405180807f76616c756500000000000000000000000000000000000000000000000000000081525060050190509081526020016040518091039020549050919050565b6000600260003373ffffffffffffffffffffffffffffffffffffffff1673ffffffffffffffffffffffffffffffffffffffff16815260200190815260200160002060000160405180807f7375727665797343726561746564000000000000000000000000000000000000815250600e019050908152602001604051809103902054905090565b60006006826040518082805190602001908083835b60208310611f365780518252602082019150602081019050602083039250611f13565b6001836020036101000a0380198251168184511680821785525050505050509050019150509081526020016040518091039020549050919050565b611f79612ba3565b73ffffffffffffffffffffffffffffffffffffffff16600c60009054906101000a900473ffffffffffffffffffffffffffffffffffffffff1673ffffffffffffffffffffffffffffffffffffffff161461203b576040517f08c379a00000000000000000000000000000000000000000000000000000000081526004018080602001828103825260208152602001807f4f776e61626c653a2063616c6c6572206973206e6f7420746865206f776e657281525060200191505060405180910390fd5b600073ffffffffffffffffffffffffffffffffffffffff16600c60009054906101000a900473ffffffffffffffffffffffffffffffffffffffff1673ffffffffffffffffffffffffffffffffffffffff167f8be0079c531659141344cd1fd0a4f28419497f9722a3daafe3b4186f6b6457e060405160405180910390a36000600c60006101000a81548173ffffffffffffffffffffffffffffffffffffffff021916908373ffffffffffffffffffffffffffffffffffffffff160217905550565b6060600860405180807f737572766579730000000000000000000000000000000000000000000000000081525060070190509081526020016040518091039020828154811061214757fe5b906000526020600020018054600181600116156101000203166002900480601f0160208091040260200160405190810160405280929190818152602001828054600181600116156101000203166002900480156121e55780601f106121ba576101008083540402835291602001916121e5565b820191906000526020600020905b8154815290600101906020018083116121c857829003601f168201915b50505050509050919050565b60006001826040518082805190602001908083835b602083106122295780518252602082019150602081019050602083039250612206565b6001836020036101000a038019825116818451168082178552505050505050905001915050908152602001604051809103902060000160405180807f76616c756500000000000000000000000000000000000000000000000000000081525060050190509081526020016040518091039020549050919050565b60006001826040518082805190602001908083835b602083106122db57805182526020820191506020810190506020830392506122b8565b6001836020036101000a038019825116818451168082178552505050505050905001915050908152602001604051809103902060000160405180807f746f74616c50617274696369706174656400000000000000000000000000000081525060110190509081526020016040518091039020549050919050565b6000600260003373ffffffffffffffffffffffffffffffffffffffff1673ffffffffffffffffffffffffffffffffffffffff16815260200190815260200160002060000160405180807f706f6c6c73437265617465640000000000000000000000000000000000000000815250600c019050908152602001604051809103902054905090565b600080826040518082805190602001908083835b6020831061241257805182526020820191506020810190506020830392506123ef565b6001836020036101000a038019825116818451168082178552505050505050905001915050908152602001604051809103902060000160405180807f746f74616c50617274696369706174656400000000000000000000000000000081525060110190509081526020016040518091039020549050919050565b6000600c60009054906101000a900473ffffffffffffffffffffffffffffffffffffffff16905090565b6060600260003373ffffffffffffffffffffffffffffffffffffffff1673ffffffffffffffffffffffffffffffffffffffff16815260200190815260200160002060060160008381526020019081526020016000208054600181600116156101000203166002900480601f01602080910402602001604051908101604052809291908181526020018280546001816001161561010002031660029004801561259f5780601f106125745761010080835404028352916020019161259f565b820191906000526020600020905b81548152906001019060200180831161258257829003601f168201915b50505050509050919050565b60006001826040518082805190602001908083835b602083106125e357805182526020820191506020810190506020830392506125c0565b6001836020036101000a038019825116818451168082178552505050505050905001915050908152602001604051809103902060000160405180807f7061727469636970616e7473416c6c6f7765640000000000000000000000000081525060130190509081526020016040518091039020549050919050565b600080826040518082805190602001908083835b602083106126945780518252602082019150602081019050602083039250612671565b6001836020036101000a038019825116818451168082178552505050505050905001915050908152602001604051809103902060030160405180807f73746f7070656453746174757300000000000000000000000000000000000000815250600d019050908152602001604051809103902060009054906101000a900460ff169050919050565b600080826040518082805190602001908083835b60208310612752578051825260208201915060208101905060208303925061272f565b6001836020036101000a038019825116818451168082178552505050505050905001915050908152602001604051809103902060000160405180807f7061727469636970616e7473416c6c6f7765640000000000000000000000000081525060130190509081526020016040518091039020549050919050565b60006001826040518082805190602001908083835b6020831061280457805182526020820191506020810190506020830392506127e1565b6001836020036101000a038019825116818451168082178552505050505050905001915050908152602001604051809103902060040160405180807f706f6c6c4f776e657200000000000000000000000000000000000000000000008152506009019050908152602001604051809103902060009054906101000a900473ffffffffffffffffffffffffffffffffffffffff169050919050565b6060600260003373ffffffffffffffffffffffffffffffffffffffff1673ffffffffffffffffffffffffffffffffffffffff16815260200190815260200160002060070160008381526020019081526020016000208054600181600116156101000203166002900480601f0160208091040260200160405190810160405280929190818152602001828054600181600116156101000203166002900480156129875780601f1061295c57610100808354040283529160200191612987565b820191906000526020600020905b81548152906001019060200180831161296a57829003601f168201915b50505050509050919050565b61299b612ba3565b73ffffffffffffffffffffffffffffffffffffffff16600c60009054906101000a900473ffffffffffffffffffffffffffffffffffffffff1673ffffffffffffffffffffffffffffffffffffffff1614612a5d576040517f08c379a00000000000000000000000000000000000000000000000000000000081526004018080602001828103825260208152602001807f4f776e61626c653a2063616c6c6572206973206e6f7420746865206f776e657281525060200191505060405180910390fd5b600073ffffffffffffffffffffffffffffffffffffffff168173ffffffffffffffffffffffffffffffffffffffff161415612ae3576040517f08c379a0000000000000000000000000000000000000000000000000000000008152600401808060200182810382526026815260200180612bac6026913960400191505060405180910390fd5b8073ffffffffffffffffffffffffffffffffffffffff16600c60009054906101000a900473ffffffffffffffffffffffffffffffffffffffff1673ffffffffffffffffffffffffffffffffffffffff167f8be0079c531659141344cd1fd0a4f28419497f9722a3daafe3b4186f6b6457e060405160405180910390a380600c60006101000a81548173ffffffffffffffffffffffffffffffffffffffff021916908373ffffffffffffffffffffffffffffffffffffffff16021790555050565b60003390509056fe4f776e61626c653a206e6577206f776e657220697320746865207a65726f2061646472657373a2646970667358221220217c7a20d16d021e656d825df644be44d00c4a260c17f01948acbb590720d2a364736f6c634300060c0033",
  "immutableReferences": {},
  "source": "// SPDX-License-Identifier: MIT\r\n\r\npragma solidity 0.6.12;\r\n\r\nimport \"./StorageSurveys.sol\";\r\nimport \"@openzeppelin/contracts/access/Ownable.sol\";\r\nimport \"@openzeppelin/contracts/token/ERC777/IERC777.sol\";\r\nimport \"@openzeppelin/contracts/token/ERC777/IERC777Recipient.sol\";\r\nimport \"@openzeppelin/contracts/token/ERC777/IERC777Sender.sol\";\r\n\r\ncontract ProxySurveys is StorageSurveys, Ownable\r\n{\r\n  address currentAddress;\r\n  \r\n  IERC777 private _token;\r\n\r\n  constructor(address _currentAddress, IERC777 token) public\r\n  {\r\n    currentAddress = _currentAddress;\r\n    _token = token;\r\n  }\r\n\r\n  function update(address _newAddress) onlyOwner public\r\n  {\r\n    currentAddress = _newAddress;\r\n  }\r\n\r\n  //FALLBACK function\r\n  fallback() payable external\r\n  {\r\n    //Redirect to currentAddress\r\n    address implementation = currentAddress;\r\n    require(currentAddress != address(0));\r\n    bytes memory data = msg.data;\r\n\r\n    assembly\r\n    {\r\n      let result := delegatecall(gas(), implementation, add(data, 0x20), mload(data), 0, 0)\r\n      let size := returndatasize()\r\n      let ptr := mload(0x40)\r\n      returndatacopy(ptr, 0, size)\r\n      switch result\r\n      case 0 {revert(ptr, size)}\r\n      default {return(ptr, size)}\r\n    }\r\n  }\r\n}\r\n",
  "sourcePath": "C:/Users/Daniel/Projects/Surveys_V2/contracts/ProxySurveys.sol",
  "compiler": {
    "name": "solc",
    "version": "0.6.12+commit.27d51765.Emscripten.clang"
  },
  "schemaVersion": "3.2.5",
  "updatedAt": "2020-10-04T19:45:34.892Z",
  "networkType": "ethereum",
  "devdoc": {
    "kind": "dev",
    "methods": {
      "owner()": {
        "details": "Returns the address of the current owner."
      },
      "renounceOwnership()": {
        "details": "Leaves the contract without owner. It will not be possible to call `onlyOwner` functions anymore. Can only be called by the current owner. NOTE: Renouncing ownership will leave the contract without an owner, thereby removing any functionality that is only available to the owner."
      },
      "transferOwnership(address)": {
        "details": "Transfers ownership of the contract to a new account (`newOwner`). Can only be called by the current owner."
      }
    },
    "version": 1
  },
  "userdoc": {
    "kind": "user",
    "methods": {},
    "version": 1
  }
}