{
  "contractName": "Recipient",
  "abi": [
    {
      "inputs": [
        {
          "internalType": "address",
          "name": "token",
          "type": "address"
        }
      ],
      "stateMutability": "nonpayable",
      "type": "constructor"
    },
    {
      "anonymous": false,
      "inputs": [
        {
          "indexed": false,
          "internalType": "address",
          "name": "operator",
          "type": "address"
        },
        {
          "indexed": false,
          "internalType": "address",
          "name": "from",
          "type": "address"
        },
        {
          "indexed": false,
          "internalType": "address",
          "name": "to",
          "type": "address"
        },
        {
          "indexed": false,
          "internalType": "uint256",
          "name": "amount",
          "type": "uint256"
        },
        {
          "indexed": false,
          "internalType": "bytes",
          "name": "userData",
          "type": "bytes"
        },
        {
          "indexed": false,
          "internalType": "bytes",
          "name": "operatorData",
          "type": "bytes"
        }
      ],
      "name": "DoneStuff",
      "type": "event"
    },
    {
      "inputs": [
        {
          "internalType": "address",
          "name": "operator",
          "type": "address"
        },
        {
          "internalType": "address",
          "name": "from",
          "type": "address"
        },
        {
          "internalType": "address",
          "name": "to",
          "type": "address"
        },
        {
          "internalType": "uint256",
          "name": "amount",
          "type": "uint256"
        },
        {
          "internalType": "bytes",
          "name": "userData",
          "type": "bytes"
        },
        {
          "internalType": "bytes",
          "name": "operatorData",
          "type": "bytes"
        }
      ],
      "name": "tokensReceived",
      "outputs": [],
      "stateMutability": "nonpayable",
      "type": "function"
    }
  ],
  "bytecode": "0x6080604052731820a4b7618bde71dce8cdc73aab6c95905fad246000806101000a81548173ffffffffffffffffffffffffffffffffffffffff021916908373ffffffffffffffffffffffffffffffffffffffff16021790555034801561006457600080fd5b506040516105373803806105378339818101604052602081101561008757600080fd5b810190808051906020019092919050505080600160006101000a81548173ffffffffffffffffffffffffffffffffffffffff021916908373ffffffffffffffffffffffffffffffffffffffff16021790555060008054906101000a900473ffffffffffffffffffffffffffffffffffffffff1673ffffffffffffffffffffffffffffffffffffffff166329965a1d307fb281fc8c12954d22544db45de3159a39272895b169a852b314f9cc762e44c53b306040518463ffffffff1660e01b8152600401808473ffffffffffffffffffffffffffffffffffffffff1681526020018381526020018273ffffffffffffffffffffffffffffffffffffffff1681526020019350505050600060405180830381600087803b1580156101a857600080fd5b505af11580156101bc573d6000803e3d6000fd5b5050505050610367806101d06000396000f3fe608060405234801561001057600080fd5b506004361061002a5760003560e01c806223de291461002f575b600080fd5b610165600480360360c081101561004557600080fd5b81019080803573ffffffffffffffffffffffffffffffffffffffff169060200190929190803573ffffffffffffffffffffffffffffffffffffffff169060200190929190803573ffffffffffffffffffffffffffffffffffffffff16906020019092919080359060200190929190803590602001906401000000008111156100cc57600080fd5b8201836020820111156100de57600080fd5b8035906020019184600183028401116401000000008311171561010057600080fd5b90919293919293908035906020019064010000000081111561012157600080fd5b82018360208201111561013357600080fd5b8035906020019184600183028401116401000000008311171561015557600080fd5b9091929391929390505050610167565b005b600160009054906101000a900473ffffffffffffffffffffffffffffffffffffffff1673ffffffffffffffffffffffffffffffffffffffff163373ffffffffffffffffffffffffffffffffffffffff161461020d576040517f08c379a00000000000000000000000000000000000000000000000000000000081526004018080602001828103825260218152602001806103116021913960400191505060405180910390fd5b7fa0a5a35754b3519ae614f00422ac62a6bc4608ccb722963aab00cb48c588ad728888888888888888604051808973ffffffffffffffffffffffffffffffffffffffff1681526020018873ffffffffffffffffffffffffffffffffffffffff1681526020018773ffffffffffffffffffffffffffffffffffffffff16815260200186815260200180602001806020018381038352878782818152602001925080828437600081840152601f19601f8201169050808301925050508381038252858582818152602001925080828437600081840152601f19601f8201169050808301925050509a505050505050505050505060405180910390a1505050505050505056fe53696d706c65373737526563697069656e743a20496e76616c696420746f6b656ea2646970667358221220b591e4dd7d34dce824a823fa47488d660e3ff4ea4e3bad906dcd850617d94f1064736f6c634300060c0033",
  "immutableReferences": {},
  "source": "// SPDX-License-Identifier: MIT\r\n\r\npragma solidity 0.6.12;\r\n\r\nimport \"@openzeppelin/contracts/token/ERC777/IERC777.sol\";\r\nimport \"@openzeppelin/contracts/introspection/IERC1820Registry.sol\";\r\nimport \"@openzeppelin/contracts/token/ERC777/IERC777Recipient.sol\";\r\n\r\ncontract Recipient is IERC777Recipient {\r\n\tIERC1820Registry private _erc1820 = IERC1820Registry(\r\n\t\t0x1820a4B7618BdE71Dce8cdc73aAB6C95905faD24\r\n\t);\r\n\tbytes32 private constant TOKENS_RECIPIENT_INTERFACE_HASH = keccak256(\r\n\t\t\"ERC777TokensRecipient\"\r\n\t);\r\n\r\n\tIERC777 private _token;\r\n\r\n\tevent DoneStuff(\r\n\t\taddress operator,\r\n\t\taddress from,\r\n\t\taddress to,\r\n\t\tuint256 amount,\r\n\t\tbytes userData,\r\n\t\tbytes operatorData\r\n\t);\r\n\r\n\tconstructor(address token) public {\r\n\t\t_token = IERC777(token);\r\n\r\n\t\t_erc1820.setInterfaceImplementer(\r\n\t\t\t\taddress(this),\r\n\t\t\t\tTOKENS_RECIPIENT_INTERFACE_HASH,\r\n\t\t\t\taddress(this)\r\n\t\t);\r\n\t}\r\n\r\n\tfunction tokensReceived(\r\n\t\taddress operator,\r\n\t\taddress from,\r\n\t\taddress to,\r\n\t\tuint256 amount,\r\n\t\tbytes calldata userData,\r\n\t\tbytes calldata operatorData\r\n\t) external override {\r\n\t\trequire(\r\n\t\t\t\tmsg.sender == address(_token),\r\n\t\t\t\t\"Simple777Recipient: Invalid token\"\r\n\t\t);\r\n\r\n\t\t// do stuff\r\n\t\temit DoneStuff(operator, from, to, amount, userData, operatorData);\r\n\t}\r\n}\r\n",
  "sourcePath": "C:\\Users\\Daniel\\Projects\\Surveys_V2\\contracts\\Recipient.sol",
  "compiler": {
    "name": "solc",
    "version": "0.6.12+commit.27d51765.Emscripten.clang"
  },
  "schemaVersion": "3.2.5",
  "updatedAt": "2020-10-05T12:23:40.873Z",
  "devdoc": {
    "kind": "dev",
    "methods": {
      "tokensReceived(address,address,address,uint256,bytes,bytes)": {
        "details": "Called by an {IERC777} token contract whenever tokens are being moved or created into a registered account (`to`). The type of operation is conveyed by `from` being the zero address or not. This call occurs _after_ the token contract's state is updated, so {IERC777-balanceOf}, etc., can be used to query the post-operation state. This function may revert to prevent the operation from being executed."
      }
    },
    "version": 1
  },
  "userdoc": {
    "kind": "user",
    "methods": {},
    "version": 1
  }
}