{
  "contractName": "StorageSurveys",
  "abi": [
    {
      "inputs": [],
      "name": "_initialized",
      "outputs": [
        {
          "internalType": "bool",
          "name": "",
          "type": "bool"
        }
      ],
      "stateMutability": "view",
      "type": "function"
    },
    {
      "inputs": [
        {
          "internalType": "string",
          "name": "_valueName",
          "type": "string"
        }
      ],
      "name": "getUintStorage",
      "outputs": [
        {
          "internalType": "uint256",
          "name": "",
          "type": "uint256"
        }
      ],
      "stateMutability": "view",
      "type": "function"
    },
    {
      "inputs": [],
      "name": "getUserCreatedSurveys",
      "outputs": [
        {
          "internalType": "uint256",
          "name": "",
          "type": "uint256"
        }
      ],
      "stateMutability": "view",
      "type": "function"
    },
    {
      "inputs": [
        {
          "internalType": "uint256",
          "name": "_index",
          "type": "uint256"
        }
      ],
      "name": "getUserSurveyOfNumber",
      "outputs": [
        {
          "internalType": "string",
          "name": "",
          "type": "string"
        }
      ],
      "stateMutability": "view",
      "type": "function"
    }
  ],
  "bytecode": "0x608060405234801561001057600080fd5b50610400806100206000396000f3fe608060405234801561001057600080fd5b506004361061004c5760003560e01c80633072cf60146100515780634d9dddb314610071578063613303f31461011857806365ae67c814610136575b600080fd5b610059610205565b60405180821515815260200191505060405180910390f35b61009d6004803603602081101561008757600080fd5b8101908080359060200190929190505050610218565b6040518080602001828103825283818151815260200191508051906020019080838360005b838110156100dd5780820151818401526020810190506100c2565b50505050905090810190601f16801561010a5780820380516001836020036101000a031916815260200191505b509250505060405180910390f35b61012061030d565b6040518082815260200191505060405180910390f35b6101ef6004803603602081101561014c57600080fd5b810190808035906020019064010000000081111561016957600080fd5b82018360208201111561017b57600080fd5b8035906020019184600183028401116401000000008311171561019d57600080fd5b91908080601f016020809104026020016040519081016040528093929190818152602001838380828437600081840152601f19601f820116905080830192505050505050509192919290505050610357565b6040518082815260200191505060405180910390f35b600960009054906101000a900460ff1681565b6060600160003373ffffffffffffffffffffffffffffffffffffffff1673ffffffffffffffffffffffffffffffffffffffff16815260200190815260200160002060010160008381526020019081526020016000208054600181600116156101000203166002900480601f0160208091040260200160405190810160405280929190818152602001828054600181600116156101000203166002900480156103015780601f106102d657610100808354040283529160200191610301565b820191906000526020600020905b8154815290600101906020018083116102e457829003601f168201915b50505050509050919050565b6000600160003373ffffffffffffffffffffffffffffffffffffffff1673ffffffffffffffffffffffffffffffffffffffff16815260200190815260200160002060000154905090565b60006004826040518082805190602001908083835b6020831061038f578051825260208201915060208101905060208303925061036c565b6001836020036101000a038019825116818451168082178552505050505050905001915050908152602001604051809103902054905091905056fea26469706673582212200d27e9ed07269e335c82db1d419136df38aa674a84b0fc03c9cd9504b408f69d64736f6c634300060c0033",
  "immutableReferences": {},
  "source": "// SPDX-License-Identifier: MIT\r\n\r\npragma solidity ^0.6.0;\r\n\r\ncontract StorageSurveys\r\n{\r\n  //creating a sruct with all properties of a survey and saving all the properties of a survey in a mapping\r\n  struct Survey\r\n  {\r\n    address surveyOwner;\r\n    string questions;\r\n    string answers;\r\n    bool stoppedStatus;\r\n    uint256 valueOfSurvey;\r\n    uint256 participantsAllowed;\r\n    uint256 totalParticipants;\r\n  }\r\n  mapping (string => Survey) internal surveyProps;\r\n\r\n  //\r\n  struct User\r\n  {\r\n    uint256 surveysCreated;\r\n    mapping (uint256 => string) surevysTitles;\r\n  }\r\n  mapping (address => User) internal userInfo;\r\n\r\n  //an array of strings, titles of surveys\r\n  string[] internal surveys;\r\n\r\n  //saving the surveys at which a certain user did participate\r\n  mapping (address => mapping (string => bool)) internal userParticipated;\r\n\r\n  //setting all possible variables needed in future\r\n  mapping (string => uint256) internal _uintStorage;\r\n  mapping (string => string) internal _stringStorage;\r\n  mapping (string => bool) internal _boolStorage;\r\n  mapping (string => address) internal _addressStorage;\r\n  mapping (string => bytes4) internal _bytesStorage;\r\n\r\n  bool public _initialized;\r\n\r\n  function getUintStorage(string memory _valueName) public view returns(uint256)\r\n  {\r\n    return(_uintStorage[_valueName]);\r\n  }\r\n  function getUserCreatedSurveys() public view returns(uint256)\r\n  {\r\n    return(userInfo[msg.sender].surveysCreated);\r\n  }\r\n  function getUserSurveyOfNumber(uint256 _index) public view returns(string memory)\r\n  {\r\n    return(userInfo[msg.sender].surevysTitles[_index]);\r\n  }\r\n}\r\n",
  "sourcePath": "C:\\Users\\Daniel\\Projects\\Surveys_V2\\contracts\\StorageSurveys.sol",
  "compiler": {
    "name": "solc",
    "version": "0.6.12+commit.27d51765.Emscripten.clang"
  },
  "schemaVersion": "3.2.5",
  "updatedAt": "2020-09-24T17:46:30.200Z",
  "devdoc": {
    "kind": "dev",
    "methods": {},
    "version": 1
  },
  "userdoc": {
    "kind": "user",
    "methods": {},
    "version": 1
  }
}