{
  "contractName": "StorageSurveys",
  "abi": [
    {
      "inputs": [],
      "name": "_initialized",
      "outputs": [
        {
          "internalType": "bool",
          "name": "",
          "type": "bool"
        }
      ],
      "stateMutability": "view",
      "type": "function"
    },
    {
      "inputs": [
        {
          "internalType": "string",
          "name": "_valueName",
          "type": "string"
        }
      ],
      "name": "getUintStorage",
      "outputs": [
        {
          "internalType": "uint256",
          "name": "",
          "type": "uint256"
        }
      ],
      "stateMutability": "view",
      "type": "function"
    }
  ],
  "bytecode": "0x608060405234801561001057600080fd5b506101e6806100206000396000f3fe608060405234801561001057600080fd5b50600436106100365760003560e01c80633072cf601461003b57806365ae67c81461005b575b600080fd5b61004361012a565b60405180821515815260200191505060405180910390f35b6101146004803603602081101561007157600080fd5b810190808035906020019064010000000081111561008e57600080fd5b8201836020820111156100a057600080fd5b803590602001918460018302840111640100000000831117156100c257600080fd5b91908080601f016020809104026020016040519081016040528093929190818152602001838380828437600081840152601f19601f82011690508083019250505050505050919291929050505061013d565b6040518082815260200191505060405180910390f35b600960009054906101000a900460ff1681565b60006004826040518082805190602001908083835b602083106101755780518252602082019150602081019050602083039250610152565b6001836020036101000a038019825116818451168082178552505050505050905001915050908152602001604051809103902054905091905056fea26469706673582212203d6a4439a2caeadd8b1d137025f5c14deb2aab062d710cfc0cc8fd9c6087688364736f6c634300060c0033",
  "immutableReferences": {},
  "source": "// SPDX-License-Identifier: MIT\r\n\r\npragma solidity ^0.6.0;\r\n\r\ncontract StorageSurveys\r\n{\r\n  //creating a sruct with all properties of a survey and saving all the properties of a survey in a mapping\r\n  struct Survey\r\n  {\r\n    address surveyOwner;\r\n    string questions;\r\n    string answers;\r\n    bool stoppedStatus;\r\n    uint256 valueOfSurvey;\r\n    uint256 participantsAllowed;\r\n    uint256 totalParticipants;\r\n  }\r\n  mapping (string => Survey) internal surveyProps;\r\n\r\n  //\r\n  struct User\r\n  {\r\n    uint256 surveysCreated;\r\n    mapping (uint256 => string) surevysTitles;\r\n  }\r\n  mapping (address => User) userInfo;\r\n\r\n  //an array of strings, titles of surveys\r\n  string[] internal surveys;\r\n\r\n  //saving the surveys at which a certain user did participate\r\n  mapping (address => mapping (string => bool)) internal userParticipated;\r\n\r\n  //setting all possible variables needed in future\r\n  mapping (string => uint256) _uintStorage;\r\n  mapping (string => string) _stringStorage;\r\n  mapping (string => bool) _boolStorage;\r\n  mapping (string => address) _addressStorage;\r\n  mapping (string => bytes4) _bytesStorage;\r\n\r\n  bool public _initialized;\r\n\r\n  function getUintStorage(string memory _valueName) public view returns(uint256)\r\n  {\r\n    return(_uintStorage[_valueName]);\r\n  }\r\n}\r\n",
  "sourcePath": "C:\\Users\\User\\Projects\\Surveys_V2\\contracts\\StorageSurveys.sol",
  "compiler": {
    "name": "solc",
    "version": "0.6.12+commit.27d51765.Emscripten.clang"
  },
  "schemaVersion": "3.2.4",
  "updatedAt": "2020-09-19T19:06:58.999Z",
  "devdoc": {
    "kind": "dev",
    "methods": {},
    "version": 1
  },
  "userdoc": {
    "kind": "user",
    "methods": {},
    "version": 1
  }
}