{
  "contractName": "StorageSurveys",
  "abi": [
    {
      "inputs": [],
      "name": "_initialized",
      "outputs": [
        {
          "internalType": "bool",
          "name": "",
          "type": "bool"
        }
      ],
      "stateMutability": "view",
      "type": "function"
    },
    {
      "inputs": [
        {
          "internalType": "uint256",
          "name": "_ofNumber",
          "type": "uint256"
        }
      ],
      "name": "getSurveyName",
      "outputs": [
        {
          "internalType": "string",
          "name": "",
          "type": "string"
        }
      ],
      "stateMutability": "view",
      "type": "function"
    },
    {
      "inputs": [
        {
          "internalType": "string",
          "name": "_name",
          "type": "string"
        }
      ],
      "name": "getSurveyQuestions",
      "outputs": [
        {
          "internalType": "string",
          "name": "",
          "type": "string"
        }
      ],
      "stateMutability": "view",
      "type": "function"
    },
    {
      "inputs": [
        {
          "internalType": "string",
          "name": "_name",
          "type": "string"
        }
      ],
      "name": "getParticipantsAllowed",
      "outputs": [
        {
          "internalType": "uint256",
          "name": "",
          "type": "uint256"
        }
      ],
      "stateMutability": "view",
      "type": "function"
    },
    {
      "inputs": [
        {
          "internalType": "string",
          "name": "_name",
          "type": "string"
        }
      ],
      "name": "getSurveyTotalParticipants",
      "outputs": [
        {
          "internalType": "uint256",
          "name": "",
          "type": "uint256"
        }
      ],
      "stateMutability": "view",
      "type": "function"
    },
    {
      "inputs": [
        {
          "internalType": "string",
          "name": "_name",
          "type": "string"
        },
        {
          "internalType": "uint256",
          "name": "_ofNumber",
          "type": "uint256"
        }
      ],
      "name": "getSurveyAnswers",
      "outputs": [
        {
          "internalType": "string",
          "name": "",
          "type": "string"
        }
      ],
      "stateMutability": "view",
      "type": "function"
    },
    {
      "inputs": [
        {
          "internalType": "string",
          "name": "_valueName",
          "type": "string"
        }
      ],
      "name": "getUintStorage",
      "outputs": [
        {
          "internalType": "uint256",
          "name": "",
          "type": "uint256"
        }
      ],
      "stateMutability": "view",
      "type": "function"
    },
    {
      "inputs": [],
      "name": "getUserCreatedSurveys",
      "outputs": [
        {
          "internalType": "uint256",
          "name": "",
          "type": "uint256"
        }
      ],
      "stateMutability": "view",
      "type": "function"
    },
    {
      "inputs": [
        {
          "internalType": "uint256",
          "name": "_index",
          "type": "uint256"
        }
      ],
      "name": "getUserSurveyOfNumber",
      "outputs": [
        {
          "internalType": "string",
          "name": "",
          "type": "string"
        }
      ],
      "stateMutability": "view",
      "type": "function"
    }
  ],
  "bytecode": "0x608060405234801561001057600080fd5b50610cd3806100206000396000f3fe608060405234801561001057600080fd5b50600436106100935760003560e01c8063613303f311610066578063613303f3146103d157806365ae67c8146103ef57806371f40077146104be578063739f213f1461058d5780638c3e778e1461063457610093565b8063155ddb071461009857806316339bf8146101cc5780633072cf601461030a5780634d9dddb31461032a575b600080fd5b610151600480360360208110156100ae57600080fd5b81019080803590602001906401000000008111156100cb57600080fd5b8201836020820111156100dd57600080fd5b803590602001918460018302840111640100000000831117156100ff57600080fd5b91908080601f016020809104026020016040519081016040528093929190818152602001838380828437600081840152601f19601f820116905080830192505050505050509192919290505050610703565b6040518080602001828103825283818151815260200191508051906020019080838360005b83811015610191578082015181840152602081019050610176565b50505050905090810190601f1680156101be5780820380516001836020036101000a031916815260200191505b509250505060405180910390f35b61028f600480360360408110156101e257600080fd5b81019080803590602001906401000000008111156101ff57600080fd5b82018360208201111561021157600080fd5b8035906020019184600183028401116401000000008311171561023357600080fd5b91908080601f016020809104026020016040519081016040528093929190818152602001838380828437600081840152601f19601f82011690508083019250505050505050919291929080359060200190929190505050610811565b6040518080602001828103825283818151815260200191508051906020019080838360005b838110156102cf5780820151818401526020810190506102b4565b50505050905090810190601f1680156102fc5780820380516001836020036101000a031916815260200191505b509250505060405180910390f35b610312610935565b60405180821515815260200191505060405180910390f35b6103566004803603602081101561034057600080fd5b8101908080359060200190929190505050610948565b6040518080602001828103825283818151815260200191508051906020019080838360005b8381101561039657808201518184015260208101905061037b565b50505050905090810190601f1680156103c35780820380516001836020036101000a031916815260200191505b509250505060405180910390f35b6103d9610a3d565b6040518082815260200191505060405180910390f35b6104a86004803603602081101561040557600080fd5b810190808035906020019064010000000081111561042257600080fd5b82018360208201111561043457600080fd5b8035906020019184600183028401116401000000008311171561045657600080fd5b91908080601f016020809104026020016040519081016040528093929190818152602001838380828437600081840152601f19601f820116905080830192505050505050509192919290505050610a87565b6040518082815260200191505060405180910390f35b610577600480360360208110156104d457600080fd5b81019080803590602001906401000000008111156104f157600080fd5b82018360208201111561050357600080fd5b8035906020019184600183028401116401000000008311171561052557600080fd5b91908080601f016020809104026020016040519081016040528093929190818152602001838380828437600081840152601f19601f820116905080830192505050505050509192919290505050610afa565b6040518082815260200191505060405180910390f35b6105b9600480360360208110156105a357600080fd5b8101908080359060200190929190505050610b6f565b6040518080602001828103825283818151815260200191508051906020019080838360005b838110156105f95780820151818401526020810190506105de565b50505050905090810190601f1680156106265780820380516001836020036101000a031916815260200191505b509250505060405180910390f35b6106ed6004803603602081101561064a57600080fd5b810190808035906020019064010000000081111561066757600080fd5b82018360208201111561067957600080fd5b8035906020019184600183028401116401000000008311171561069b57600080fd5b91908080601f016020809104026020016040519081016040528093929190818152602001838380828437600081840152601f19601f820116905080830192505050505050509192919290505050610c28565b6040518082815260200191505060405180910390f35b60606000826040518082805190602001908083835b6020831061073b5780518252602082019150602081019050602083039250610718565b6001836020036101000a03801982511681845116808217855250505050505090500191505090815260200160405180910390206001018054600181600116156101000203166002900480601f0160208091040260200160405190810160405280929190818152602001828054600181600116156101000203166002900480156108055780601f106107da57610100808354040283529160200191610805565b820191906000526020600020905b8154815290600101906020018083116107e857829003601f168201915b50505050509050919050565b60606000836040518082805190602001908083835b602083106108495780518252602082019150602081019050602083039250610826565b6001836020036101000a0380198251168184511680821785525050505050509050019150509081526020016040518091039020600201828154811061088a57fe5b906000526020600020018054600181600116156101000203166002900480601f0160208091040260200160405190810160405280929190818152602001828054600181600116156101000203166002900480156109285780601f106108fd57610100808354040283529160200191610928565b820191906000526020600020905b81548152906001019060200180831161090b57829003601f168201915b5050505050905092915050565b600960009054906101000a900460ff1681565b6060600160003373ffffffffffffffffffffffffffffffffffffffff1673ffffffffffffffffffffffffffffffffffffffff16815260200190815260200160002060010160008381526020019081526020016000208054600181600116156101000203166002900480601f016020809104026020016040519081016040528092919081815260200182805460018160011615610100020316600290048015610a315780601f10610a0657610100808354040283529160200191610a31565b820191906000526020600020905b815481529060010190602001808311610a1457829003601f168201915b50505050509050919050565b6000600160003373ffffffffffffffffffffffffffffffffffffffff1673ffffffffffffffffffffffffffffffffffffffff16815260200190815260200160002060000154905090565b60006004826040518082805190602001908083835b60208310610abf5780518252602082019150602081019050602083039250610a9c565b6001836020036101000a0380198251168184511680821785525050505050509050019150509081526020016040518091039020549050919050565b600080826040518082805190602001908083835b60208310610b315780518252602082019150602081019050602083039250610b0e565b6001836020036101000a0380198251168184511680821785525050505050509050019150509081526020016040518091039020600501549050919050565b606060028281548110610b7e57fe5b906000526020600020018054600181600116156101000203166002900480601f016020809104026020016040519081016040528092919081815260200182805460018160011615610100020316600290048015610c1c5780601f10610bf157610100808354040283529160200191610c1c565b820191906000526020600020905b815481529060010190602001808311610bff57829003601f168201915b50505050509050919050565b600080826040518082805190602001908083835b60208310610c5f5780518252602082019150602081019050602083039250610c3c565b6001836020036101000a038019825116818451168082178552505050505050905001915050908152602001604051809103902060060154905091905056fea2646970667358221220cb88a3fb1a218aa36e054c4149f20eba9b41660ad705cffafeb39719e1ca1bfe64736f6c634300060c0033",
  "immutableReferences": {},
  "source": "// SPDX-License-Identifier: MIT\r\n\r\npragma solidity ^0.6.0;\r\n\r\ncontract StorageSurveys\r\n{\r\n  //creating a sruct with all properties of a survey and saving all the properties of a survey in a mapping\r\n  struct Survey\r\n  {\r\n    address surveyOwner;\r\n    string questions;\r\n    string[] answers;\r\n    bool stoppedStatus;\r\n    uint256 valueOfSurvey;\r\n    uint256 participantsAllowed;\r\n    uint256 totalParticipants;\r\n  }\r\n  mapping (string => Survey) internal surveyProps;\r\n\r\n  //\r\n  struct User\r\n  {\r\n    uint256 surveysCreated;\r\n    mapping (uint256 => string) surevysTitles;\r\n  }\r\n  mapping (address => User) internal userInfo;\r\n\r\n  //an array of strings, titles of surveys\r\n  string[] internal surveys;\r\n\r\n  //saving the surveys at which a certain user did participate\r\n  mapping (address => mapping (string => bool)) internal userParticipated;\r\n\r\n  //setting all possible variables needed in future\r\n  mapping (string => uint256) internal _uintStorage;\r\n  mapping (string => string) internal _stringStorage;\r\n  mapping (string => bool) internal _boolStorage;\r\n  mapping (string => address) internal _addressStorage;\r\n  mapping (string => bytes4) internal _bytesStorage;\r\n\r\n  bool public _initialized;\r\n\r\n  function getSurveyName(uint256 _ofNumber) public view returns(string memory)\r\n  {\r\n    return(surveys[_ofNumber]);\r\n  }\r\n  function getSurveyQuestions(string memory _name) public view returns(string memory)\r\n  {\r\n    return(surveyProps[_name].questions);\r\n  }\r\n  function getParticipantsAllowed(string memory _name) public view returns(uint256)\r\n  {\r\n    return(surveyProps[_name].participantsAllowed);\r\n  }\r\n  function getSurveyTotalParticipants(string memory _name) public view returns(uint256)\r\n  {\r\n    return(surveyProps[_name].totalParticipants);\r\n  }\r\n  function getSurveyAnswers(string memory _name, uint256 _ofNumber) public view returns(string memory)\r\n  {\r\n    return(surveyProps[_name].answers[_ofNumber]);\r\n  }\r\n\r\n  function getUintStorage(string memory _valueName) public view returns(uint256)\r\n  {\r\n    return(_uintStorage[_valueName]);\r\n  }\r\n\r\n  function getUserCreatedSurveys() public view returns(uint256)\r\n  {\r\n    return(userInfo[msg.sender].surveysCreated);\r\n  }\r\n  function getUserSurveyOfNumber(uint256 _index) public view returns(string memory)\r\n  {\r\n    return(userInfo[msg.sender].surevysTitles[_index]);\r\n  }\r\n}\r\n",
  "sourcePath": "C:\\Users\\Daniel\\Projects\\Surveys_V2\\contracts\\StorageSurveys.sol",
  "compiler": {
    "name": "solc",
    "version": "0.6.12+commit.27d51765.Emscripten.clang"
  },
  "schemaVersion": "3.2.5",
  "updatedAt": "2020-09-25T20:59:39.435Z",
  "devdoc": {
    "kind": "dev",
    "methods": {},
    "version": 1
  },
  "userdoc": {
    "kind": "user",
    "methods": {},
    "version": 1
  }
}