{
  "contractName": "StorageSurveys",
  "abi": [
    {
      "inputs": [],
      "name": "_initialized",
      "outputs": [
        {
          "internalType": "bool",
          "name": "",
          "type": "bool"
        }
      ],
      "stateMutability": "view",
      "type": "function"
    }
  ],
  "bytecode": "0x6080604052348015600f57600080fd5b5060948061001e6000396000f3fe6080604052348015600f57600080fd5b506004361060285760003560e01c80633072cf6014602d575b600080fd5b6033604b565b60405180821515815260200191505060405180910390f35b600860009054906101000a900460ff168156fea264697066735822122016851c40e081bfda9e4590dbc8457bbe72ab4d3612aaa06f5c8eb6c7bbe65d7864736f6c634300060c0033",
  "immutableReferences": {},
  "source": "// SPDX-License-Identifier: MIT\r\n\r\npragma solidity ^0.6.0;\r\n\r\ncontract StorageSurveys\r\n{\r\n  struct Survey\r\n  {\r\n    address surveyOwner;\r\n    string questions;\r\n    string answers;\r\n    bool stoppedStatus;\r\n    uint256 valueOfSurvey;\r\n    uint256 participantsAllowed;\r\n    uint256 totalParticipants;\r\n  }\r\n\r\n  //an array of strings, titles of surveys\r\n  string[] internal surveys;\r\n\r\n  //saving the surveys at which a certain user did participate\r\n  mapping (address => mapping (string => bool)) internal userVotes;\r\n\r\n  //saving all the properties of a survey\r\n  mapping (string => Survey) internal surveyProps;\r\n\r\n  //setting all possible variables needed in future\r\n  mapping (string => uint256) _uintStorage;\r\n  mapping (string => string) _stringStorage;\r\n  mapping (string => bool) _boolStorage;\r\n  mapping (string => address) _addressStorage;\r\n  mapping (string => bytes4) _bytesStorage;\r\n\r\n  bool public _initialized;\r\n}\r\n",
  "sourcePath": "C:\\Users\\User\\Projects\\Surveys_V2\\contracts\\StorageSurveys.sol",
  "compiler": {
    "name": "solc",
    "version": "0.6.12+commit.27d51765.Emscripten.clang"
  },
  "schemaVersion": "3.2.4",
  "updatedAt": "2020-09-15T18:12:10.452Z",
  "devdoc": {
    "kind": "dev",
    "methods": {},
    "version": 1
  },
  "userdoc": {
    "kind": "user",
    "methods": {},
    "version": 1
  }
}