{
  "contractName": "Storage",
  "abi": [
    {
      "inputs": [
        {
          "internalType": "uint256",
          "name": "_ofNumber",
          "type": "uint256"
        }
      ],
      "name": "getSurveyName",
      "outputs": [
        {
          "internalType": "string",
          "name": "",
          "type": "string"
        }
      ],
      "stateMutability": "view",
      "type": "function"
    },
    {
      "inputs": [
        {
          "internalType": "string",
          "name": "_name",
          "type": "string"
        }
      ],
      "name": "getSurveyQuestions",
      "outputs": [
        {
          "internalType": "string",
          "name": "",
          "type": "string"
        }
      ],
      "stateMutability": "view",
      "type": "function"
    },
    {
      "inputs": [
        {
          "internalType": "string",
          "name": "_name",
          "type": "string"
        }
      ],
      "name": "getSurveyParticipantsAllowed",
      "outputs": [
        {
          "internalType": "uint256",
          "name": "",
          "type": "uint256"
        }
      ],
      "stateMutability": "view",
      "type": "function"
    },
    {
      "inputs": [
        {
          "internalType": "string",
          "name": "_name",
          "type": "string"
        }
      ],
      "name": "getSurveyTotalParticipants",
      "outputs": [
        {
          "internalType": "uint256",
          "name": "",
          "type": "uint256"
        }
      ],
      "stateMutability": "view",
      "type": "function"
    },
    {
      "inputs": [
        {
          "internalType": "string",
          "name": "_name",
          "type": "string"
        },
        {
          "internalType": "uint256",
          "name": "_ofNumber",
          "type": "uint256"
        }
      ],
      "name": "getSurveyAnswers",
      "outputs": [
        {
          "internalType": "string",
          "name": "",
          "type": "string"
        }
      ],
      "stateMutability": "view",
      "type": "function"
    },
    {
      "inputs": [
        {
          "internalType": "string",
          "name": "_name",
          "type": "string"
        }
      ],
      "name": "getSurveyValue",
      "outputs": [
        {
          "internalType": "uint256",
          "name": "",
          "type": "uint256"
        }
      ],
      "stateMutability": "view",
      "type": "function"
    },
    {
      "inputs": [
        {
          "internalType": "string",
          "name": "_name",
          "type": "string"
        }
      ],
      "name": "getSurveyStoppedStatus",
      "outputs": [
        {
          "internalType": "bool",
          "name": "",
          "type": "bool"
        }
      ],
      "stateMutability": "view",
      "type": "function"
    },
    {
      "inputs": [
        {
          "internalType": "string",
          "name": "_name",
          "type": "string"
        }
      ],
      "name": "getSurveyOwner",
      "outputs": [
        {
          "internalType": "address",
          "name": "",
          "type": "address"
        }
      ],
      "stateMutability": "view",
      "type": "function"
    },
    {
      "inputs": [
        {
          "internalType": "uint256",
          "name": "_ofNumber",
          "type": "uint256"
        }
      ],
      "name": "getPollName",
      "outputs": [
        {
          "internalType": "string",
          "name": "",
          "type": "string"
        }
      ],
      "stateMutability": "view",
      "type": "function"
    },
    {
      "inputs": [
        {
          "internalType": "string",
          "name": "_name",
          "type": "string"
        }
      ],
      "name": "getPollChoices",
      "outputs": [
        {
          "internalType": "string",
          "name": "",
          "type": "string"
        }
      ],
      "stateMutability": "view",
      "type": "function"
    },
    {
      "inputs": [
        {
          "internalType": "string",
          "name": "_name",
          "type": "string"
        }
      ],
      "name": "getPollParticipantsAllowed",
      "outputs": [
        {
          "internalType": "uint256",
          "name": "",
          "type": "uint256"
        }
      ],
      "stateMutability": "view",
      "type": "function"
    },
    {
      "inputs": [
        {
          "internalType": "string",
          "name": "_name",
          "type": "string"
        }
      ],
      "name": "getPollTotalParticipants",
      "outputs": [
        {
          "internalType": "uint256",
          "name": "",
          "type": "uint256"
        }
      ],
      "stateMutability": "view",
      "type": "function"
    },
    {
      "inputs": [
        {
          "internalType": "string",
          "name": "_name",
          "type": "string"
        },
        {
          "internalType": "string",
          "name": "_choice",
          "type": "string"
        }
      ],
      "name": "getPollChoiceVotes",
      "outputs": [
        {
          "internalType": "uint256",
          "name": "",
          "type": "uint256"
        }
      ],
      "stateMutability": "view",
      "type": "function"
    },
    {
      "inputs": [
        {
          "internalType": "string",
          "name": "_name",
          "type": "string"
        }
      ],
      "name": "getPollValue",
      "outputs": [
        {
          "internalType": "uint256",
          "name": "",
          "type": "uint256"
        }
      ],
      "stateMutability": "view",
      "type": "function"
    },
    {
      "inputs": [
        {
          "internalType": "string",
          "name": "_name",
          "type": "string"
        }
      ],
      "name": "getPollStoppedStatus",
      "outputs": [
        {
          "internalType": "bool",
          "name": "",
          "type": "bool"
        }
      ],
      "stateMutability": "view",
      "type": "function"
    },
    {
      "inputs": [
        {
          "internalType": "string",
          "name": "_name",
          "type": "string"
        }
      ],
      "name": "getPollOwner",
      "outputs": [
        {
          "internalType": "address",
          "name": "",
          "type": "address"
        }
      ],
      "stateMutability": "view",
      "type": "function"
    },
    {
      "inputs": [
        {
          "internalType": "string",
          "name": "_valueName",
          "type": "string"
        }
      ],
      "name": "getUintStorage",
      "outputs": [
        {
          "internalType": "uint256",
          "name": "",
          "type": "uint256"
        }
      ],
      "stateMutability": "view",
      "type": "function"
    },
    {
      "inputs": [],
      "name": "getUserCreatedSurveys",
      "outputs": [
        {
          "internalType": "uint256",
          "name": "",
          "type": "uint256"
        }
      ],
      "stateMutability": "view",
      "type": "function"
    },
    {
      "inputs": [
        {
          "internalType": "uint256",
          "name": "_index",
          "type": "uint256"
        }
      ],
      "name": "getUserNumberOfSurveys",
      "outputs": [
        {
          "internalType": "string",
          "name": "",
          "type": "string"
        }
      ],
      "stateMutability": "view",
      "type": "function"
    },
    {
      "inputs": [],
      "name": "getUserCreatedPolls",
      "outputs": [
        {
          "internalType": "uint256",
          "name": "",
          "type": "uint256"
        }
      ],
      "stateMutability": "view",
      "type": "function"
    },
    {
      "inputs": [
        {
          "internalType": "uint256",
          "name": "_index",
          "type": "uint256"
        }
      ],
      "name": "getUserNumberOfPolls",
      "outputs": [
        {
          "internalType": "string",
          "name": "",
          "type": "string"
        }
      ],
      "stateMutability": "view",
      "type": "function"
    }
  ],
  "bytecode": "0x608060405234801561001057600080fd5b506123d9806100206000396000f3fe608060405234801561001057600080fd5b50600436106101375760003560e01c8063739f213f116100b857806391c35b791161007c57806391c35b7914610d935780639ade79a214610e3a578063a441a3fd14610f09578063a99d21b414610fda578063ad27106b146110a9578063f2e21d821461118e57610137565b8063739f213f14610a6157806377865d7114610b085780637c1dc72b14610bd757806385f8830314610ca65780638c3e778e14610cc457610137565b80633572a926116100ff5780633572a926146106985780633cd4ef181461073f5780634d25871d146108a5578063613303f31461097457806365ae67c81461099257610137565b8063094c291b1461013c5780630b5ceb781461020d578063155ddb07146102f257806316339bf8146104265780631ed4cba314610564575b600080fd5b6101f56004803603602081101561015257600080fd5b810190808035906020019064010000000081111561016f57600080fd5b82018360208201111561018157600080fd5b803590602001918460018302840111640100000000831117156101a357600080fd5b91908080601f016020809104026020016040519081016040528093929190818152602001838380828437600081840152601f19601f820116905080830192505050505050509192919290505050611235565b60405180821515815260200191505060405180910390f35b6102c66004803603602081101561022357600080fd5b810190808035906020019064010000000081111561024057600080fd5b82018360208201111561025257600080fd5b8035906020019184600183028401116401000000008311171561027457600080fd5b91908080601f016020809104026020016040519081016040528093929190818152602001838380828437600081840152601f19601f8201169050808301925050505050505091929192905050506112f4565b604051808273ffffffffffffffffffffffffffffffffffffffff16815260200191505060405180910390f35b6103ab6004803603602081101561030857600080fd5b810190808035906020019064010000000081111561032557600080fd5b82018360208201111561033757600080fd5b8035906020019184600183028401116401000000008311171561035957600080fd5b91908080601f016020809104026020016040519081016040528093929190818152602001838380828437600081840152601f19601f8201169050808301925050505050505091929192905050506113c5565b6040518080602001828103825283818151815260200191508051906020019080838360005b838110156103eb5780820151818401526020810190506103d0565b50505050905090810190601f1680156104185780820380516001836020036101000a031916815260200191505b509250505060405180910390f35b6104e96004803603604081101561043c57600080fd5b810190808035906020019064010000000081111561045957600080fd5b82018360208201111561046b57600080fd5b8035906020019184600183028401116401000000008311171561048d57600080fd5b91908080601f016020809104026020016040519081016040528093929190818152602001838380828437600081840152601f19601f8201169050808301925050505050505091929192908035906020019092919050505061150f565b6040518080602001828103825283818151815260200191508051906020019080838360005b8381101561052957808201518184015260208101905061050e565b50505050905090810190601f1680156105565780820380516001836020036101000a031916815260200191505b509250505060405180910390f35b61061d6004803603602081101561057a57600080fd5b810190808035906020019064010000000081111561059757600080fd5b8201836020820111156105a957600080fd5b803590602001918460018302840111640100000000831117156105cb57600080fd5b91908080601f016020809104026020016040519081016040528093929190818152602001838380828437600081840152601f19601f82011690508083019250505050505050919291929050505061166f565b6040518080602001828103825283818151815260200191508051906020019080838360005b8381101561065d578082015181840152602081019050610642565b50505050905090810190601f16801561068a5780820380516001836020036101000a031916815260200191505b509250505060405180910390f35b6106c4600480360360208110156106ae57600080fd5b81019080803590602001909291905050506117b9565b6040518080602001828103825283818151815260200191508051906020019080838360005b838110156107045780820151818401526020810190506106e9565b50505050905090810190601f1680156107315780820380516001836020036101000a031916815260200191505b509250505060405180910390f35b61088f6004803603604081101561075557600080fd5b810190808035906020019064010000000081111561077257600080fd5b82018360208201111561078457600080fd5b803590602001918460018302840111640100000000831117156107a657600080fd5b91908080601f016020809104026020016040519081016040528093929190818152602001838380828437600081840152601f19601f8201169050808301925050505050505091929192908035906020019064010000000081111561080957600080fd5b82018360208201111561081b57600080fd5b8035906020019184600183028401116401000000008311171561083d57600080fd5b91908080601f016020809104026020016040519081016040528093929190818152602001838380828437600081840152601f19601f8201169050808301925050505050505091929192905050506118ae565b6040518082815260200191505060405180910390f35b61095e600480360360208110156108bb57600080fd5b81019080803590602001906401000000008111156108d857600080fd5b8201836020820111156108ea57600080fd5b8035906020019184600183028401116401000000008311171561090c57600080fd5b91908080601f016020809104026020016040519081016040528093929190818152602001838380828437600081840152601f19601f82011690508083019250505050505050919291929050505061198c565b6040518082815260200191505060405180910390f35b61097c611a3d565b6040518082815260200191505060405180910390f35b610a4b600480360360208110156109a857600080fd5b81019080803590602001906401000000008111156109c557600080fd5b8201836020820111156109d757600080fd5b803590602001918460018302840111640100000000831117156109f957600080fd5b91908080601f016020809104026020016040519081016040528093929190818152602001838380828437600081840152601f19601f820116905080830192505050505050509192919290505050611ac3565b6040518082815260200191505060405180910390f35b610a8d60048036036020811015610a7757600080fd5b8101908080359060200190929190505050611b36565b6040518080602001828103825283818151815260200191508051906020019080838360005b83811015610acd578082015181840152602081019050610ab2565b50505050905090810190601f168015610afa5780820380516001836020036101000a031916815260200191505b509250505060405180910390f35b610bc160048036036020811015610b1e57600080fd5b8101908080359060200190640100000000811115610b3b57600080fd5b820183602082011115610b4d57600080fd5b80359060200191846001830284011164010000000083111715610b6f57600080fd5b91908080601f016020809104026020016040519081016040528093929190818152602001838380828437600081840152601f19601f820116905080830192505050505050509192919290505050611c2b565b6040518082815260200191505060405180910390f35b610c9060048036036020811015610bed57600080fd5b8101908080359060200190640100000000811115610c0a57600080fd5b820183602082011115610c1c57600080fd5b80359060200191846001830284011164010000000083111715610c3e57600080fd5b91908080601f016020809104026020016040519081016040528093929190818152602001838380828437600081840152601f19601f820116905080830192505050505050509192919290505050611cdd565b6040518082815260200191505060405180910390f35b610cae611d8f565b6040518082815260200191505060405180910390f35b610d7d60048036036020811015610cda57600080fd5b8101908080359060200190640100000000811115610cf757600080fd5b820183602082011115610d0957600080fd5b80359060200191846001830284011164010000000083111715610d2b57600080fd5b91908080601f016020809104026020016040519081016040528093929190818152602001838380828437600081840152601f19601f820116905080830192505050505050509192919290505050611e15565b6040518082815260200191505060405180910390f35b610dbf60048036036020811015610da957600080fd5b8101908080359060200190929190505050611ec6565b6040518080602001828103825283818151815260200191508051906020019080838360005b83811015610dff578082015181840152602081019050610de4565b50505050905090810190601f168015610e2c5780820380516001836020036101000a031916815260200191505b509250505060405180910390f35b610ef360048036036020811015610e5057600080fd5b8101908080359060200190640100000000811115610e6d57600080fd5b820183602082011115610e7f57600080fd5b80359060200191846001830284011164010000000083111715610ea157600080fd5b91908080601f016020809104026020016040519081016040528093929190818152602001838380828437600081840152601f19601f820116905080830192505050505050509192919290505050611fbb565b6040518082815260200191505060405180910390f35b610fc260048036036020811015610f1f57600080fd5b8101908080359060200190640100000000811115610f3c57600080fd5b820183602082011115610f4e57600080fd5b80359060200191846001830284011164010000000083111715610f7057600080fd5b91908080601f016020809104026020016040519081016040528093929190818152602001838380828437600081840152601f19601f82011690508083019250505050505050919291929050505061206d565b60405180821515815260200191505060405180910390f35b61109360048036036020811015610ff057600080fd5b810190808035906020019064010000000081111561100d57600080fd5b82018360208201111561101f57600080fd5b8035906020019184600183028401116401000000008311171561104157600080fd5b91908080601f016020809104026020016040519081016040528093929190818152602001838380828437600081840152601f19601f82011690508083019250505050505050919291929050505061212b565b6040518082815260200191505060405180910390f35b611162600480360360208110156110bf57600080fd5b81019080803590602001906401000000008111156110dc57600080fd5b8201836020820111156110ee57600080fd5b8035906020019184600183028401116401000000008311171561111057600080fd5b91908080601f016020809104026020016040519081016040528093929190818152602001838380828437600081840152601f19601f8201169050808301925050505050505091929192905050506121dc565b604051808273ffffffffffffffffffffffffffffffffffffffff16815260200191505060405180910390f35b6111ba600480360360208110156111a457600080fd5b81019080803590602001909291905050506122ae565b6040518080602001828103825283818151815260200191508051906020019080838360005b838110156111fa5780820151818401526020810190506111df565b50505050905090810190601f1680156112275780820380516001836020036101000a031916815260200191505b509250505060405180910390f35b60006001826040518082805190602001908083835b6020831061126d578051825260208201915060208101905060208303925061124a565b6001836020036101000a038019825116818451168082178552505050505050905001915050908152602001604051809103902060030160405180807f73746f7070656453746174757300000000000000000000000000000000000000815250600d019050908152602001604051809103902060009054906101000a900460ff169050919050565b600080826040518082805190602001908083835b6020831061132b5780518252602082019150602081019050602083039250611308565b6001836020036101000a038019825116818451168082178552505050505050905001915050908152602001604051809103902060040160405180807f7375727665794f776e6572000000000000000000000000000000000000000000815250600b019050908152602001604051809103902060009054906101000a900473ffffffffffffffffffffffffffffffffffffffff169050919050565b60606000826040518082805190602001908083835b602083106113fd57805182526020820191506020810190506020830392506113da565b6001836020036101000a038019825116818451168082178552505050505050905001915050908152602001604051809103902060010160405180807f7175657374696f6e730000000000000000000000000000000000000000000000815250600901905090815260200160405180910390208054600181600116156101000203166002900480601f0160208091040260200160405190810160405280929190818152602001828054600181600116156101000203166002900480156115035780601f106114d857610100808354040283529160200191611503565b820191906000526020600020905b8154815290600101906020018083116114e657829003601f168201915b50505050509050919050565b60606000836040518082805190602001908083835b602083106115475780518252602082019150602081019050602083039250611524565b6001836020036101000a038019825116818451168082178552505050505050905001915050908152602001604051809103902060020160405180807f616e7377657273000000000000000000000000000000000000000000000000008152506007019050908152602001604051809103902082815481106115c457fe5b906000526020600020018054600181600116156101000203166002900480601f0160208091040260200160405190810160405280929190818152602001828054600181600116156101000203166002900480156116625780601f1061163757610100808354040283529160200191611662565b820191906000526020600020905b81548152906001019060200180831161164557829003601f168201915b5050505050905092915050565b60606001826040518082805190602001908083835b602083106116a75780518252602082019150602081019050602083039250611684565b6001836020036101000a038019825116818451168082178552505050505050905001915050908152602001604051809103902060010160405180807f63686f6963657300000000000000000000000000000000000000000000000000815250600701905090815260200160405180910390208054600181600116156101000203166002900480601f0160208091040260200160405190810160405280929190818152602001828054600181600116156101000203166002900480156117ad5780601f10611782576101008083540402835291602001916117ad565b820191906000526020600020905b81548152906001019060200180831161179057829003601f168201915b50505050509050919050565b6060600860405180807f706f6c6c7300000000000000000000000000000000000000000000000000000081525060050190509081526020016040518091039020828154811061180457fe5b906000526020600020018054600181600116156101000203166002900480601f0160208091040260200160405190810160405280929190818152602001828054600181600116156101000203166002900480156118a25780601f10611877576101008083540402835291602001916118a2565b820191906000526020600020905b81548152906001019060200180831161188557829003601f168201915b50505050509050919050565b60006001836040518082805190602001908083835b602083106118e657805182526020820191506020810190506020830392506118c3565b6001836020036101000a0380198251168184511680821785525050505050509050019150509081526020016040518091039020600001826040518082805190602001908083835b60208310611950578051825260208201915060208101905060208303925061192d565b6001836020036101000a038019825116818451168082178552505050505050905001915050908152602001604051809103902054905092915050565b600080826040518082805190602001908083835b602083106119c357805182526020820191506020810190506020830392506119a0565b6001836020036101000a038019825116818451168082178552505050505050905001915050908152602001604051809103902060000160405180807f76616c756500000000000000000000000000000000000000000000000000000081525060050190509081526020016040518091039020549050919050565b6000600260003373ffffffffffffffffffffffffffffffffffffffff1673ffffffffffffffffffffffffffffffffffffffff16815260200190815260200160002060000160405180807f7375727665797343726561746564000000000000000000000000000000000000815250600e019050908152602001604051809103902054905090565b60006006826040518082805190602001908083835b60208310611afb5780518252602082019150602081019050602083039250611ad8565b6001836020036101000a0380198251168184511680821785525050505050509050019150509081526020016040518091039020549050919050565b6060600860405180807f7375727665797300000000000000000000000000000000000000000000000000815250600701905090815260200160405180910390208281548110611b8157fe5b906000526020600020018054600181600116156101000203166002900480601f016020809104026020016040519081016040528092919081815260200182805460018160011615610100020316600290048015611c1f5780601f10611bf457610100808354040283529160200191611c1f565b820191906000526020600020905b815481529060010190602001808311611c0257829003601f168201915b50505050509050919050565b60006001826040518082805190602001908083835b60208310611c635780518252602082019150602081019050602083039250611c40565b6001836020036101000a038019825116818451168082178552505050505050905001915050908152602001604051809103902060000160405180807f76616c756500000000000000000000000000000000000000000000000000000081525060050190509081526020016040518091039020549050919050565b60006001826040518082805190602001908083835b60208310611d155780518252602082019150602081019050602083039250611cf2565b6001836020036101000a038019825116818451168082178552505050505050905001915050908152602001604051809103902060000160405180807f746f74616c50617274696369706174656400000000000000000000000000000081525060110190509081526020016040518091039020549050919050565b6000600260003373ffffffffffffffffffffffffffffffffffffffff1673ffffffffffffffffffffffffffffffffffffffff16815260200190815260200160002060000160405180807f706f6c6c73437265617465640000000000000000000000000000000000000000815250600c019050908152602001604051809103902054905090565b600080826040518082805190602001908083835b60208310611e4c5780518252602082019150602081019050602083039250611e29565b6001836020036101000a038019825116818451168082178552505050505050905001915050908152602001604051809103902060000160405180807f746f74616c50617274696369706174656400000000000000000000000000000081525060110190509081526020016040518091039020549050919050565b6060600260003373ffffffffffffffffffffffffffffffffffffffff1673ffffffffffffffffffffffffffffffffffffffff16815260200190815260200160002060060160008381526020019081526020016000208054600181600116156101000203166002900480601f016020809104026020016040519081016040528092919081815260200182805460018160011615610100020316600290048015611faf5780601f10611f8457610100808354040283529160200191611faf565b820191906000526020600020905b815481529060010190602001808311611f9257829003601f168201915b50505050509050919050565b60006001826040518082805190602001908083835b60208310611ff35780518252602082019150602081019050602083039250611fd0565b6001836020036101000a038019825116818451168082178552505050505050905001915050908152602001604051809103902060000160405180807f7061727469636970616e7473416c6c6f7765640000000000000000000000000081525060130190509081526020016040518091039020549050919050565b600080826040518082805190602001908083835b602083106120a45780518252602082019150602081019050602083039250612081565b6001836020036101000a038019825116818451168082178552505050505050905001915050908152602001604051809103902060030160405180807f73746f7070656453746174757300000000000000000000000000000000000000815250600d019050908152602001604051809103902060009054906101000a900460ff169050919050565b600080826040518082805190602001908083835b60208310612162578051825260208201915060208101905060208303925061213f565b6001836020036101000a038019825116818451168082178552505050505050905001915050908152602001604051809103902060000160405180807f7061727469636970616e7473416c6c6f7765640000000000000000000000000081525060130190509081526020016040518091039020549050919050565b60006001826040518082805190602001908083835b6020831061221457805182526020820191506020810190506020830392506121f1565b6001836020036101000a038019825116818451168082178552505050505050905001915050908152602001604051809103902060040160405180807f706f6c6c4f776e657200000000000000000000000000000000000000000000008152506009019050908152602001604051809103902060009054906101000a900473ffffffffffffffffffffffffffffffffffffffff169050919050565b6060600260003373ffffffffffffffffffffffffffffffffffffffff1673ffffffffffffffffffffffffffffffffffffffff16815260200190815260200160002060070160008381526020019081526020016000208054600181600116156101000203166002900480601f0160208091040260200160405190810160405280929190818152602001828054600181600116156101000203166002900480156123975780601f1061236c57610100808354040283529160200191612397565b820191906000526020600020905b81548152906001019060200180831161237a57829003601f168201915b5050505050905091905056fea264697066735822122023ab0475548805b4e67f1199a54f765f6e1dff04ef4f1140ba2260e0ea9dba7664736f6c634300060c0033",
  "immutableReferences": {},
  "source": "// SPDX-License-Identifier: MIT\r\n\r\npragma solidity 0.6.12;\r\n\r\ncontract Storage\r\n{\r\n  //creating a sruct with all properties of a survey and saving all the properties of a survey in a mapping\r\n  struct Survey\r\n  {\r\n    mapping (string => uint256) _uintStorage;\r\n    mapping (string => string) _stringStorage;\r\n    mapping (string => string[]) _stringArrayStorage;\r\n    mapping (string => bool) _boolStorage;\r\n    mapping (string => address) _addressStorage;\r\n    mapping (string => bytes4) _bytesStorage;\r\n  }\r\n  mapping (string => Survey) internal _surveyStorage;\r\n\r\n  //creating a sruct with all properties of a poll and saving all the properties of a poll in a mapping\r\n  struct Poll\r\n  {\r\n    mapping (string => uint256) _uintStorage;\r\n    mapping (string => string) _stringStorage;\r\n    mapping (string => string[]) _stringArrayStorage;\r\n    mapping (string => bool) _boolStorage;\r\n    mapping (string => address) _addressStorage;\r\n    mapping (string => bytes4) _bytesStorage;\r\n  }\r\n  mapping (string => Poll) internal _pollStorage;\r\n\r\n  //struct with user properties with a mapping saving info about all users\r\n  struct User\r\n  {\r\n    mapping (string => uint256) _uintStorage;\r\n    mapping (string => string) _stringStorage;\r\n    mapping (string => string[]) _stringArrayStorage;\r\n    mapping (string => bool) _boolStorage;\r\n    mapping (string => address) _addressStorage;\r\n    mapping (string => bytes4) _bytesStorage;\r\n\r\n    mapping (uint256 => string) surevysTitles;\r\n    mapping (uint256 => string) pollTitles;\r\n  }\r\n  mapping (address => User) internal _userStorage;\r\n\r\n  //an array of strings, titles of surveys and titles of polls\r\n  string[] internal polls;\r\n\r\n  //saving the surveys at which a certain user did participate\r\n  mapping (address => mapping (string => bool)) internal userParticipatedSurveys;\r\n\r\n  //saving the polls at which a certain user did participate\r\n  mapping (address => mapping (string => bool)) internal userParticipatedPolls;\r\n\r\n  //setting all possible variables needed in future\r\n  mapping (string => uint256) internal _uintStorage;\r\n  mapping (string => string) internal _stringStorage;\r\n  mapping (string => string[]) internal _stringArrayStorage;\r\n  mapping (string => bool) internal _boolStorage;\r\n  mapping (string => address) internal _addressStorage;\r\n  mapping (string => bytes4) internal _bytesStorage;\r\n\r\n  //survey properties getters\r\n  function getSurveyName(uint256 _ofNumber) public view returns(string memory)\r\n  {\r\n    return(_stringArrayStorage['surveys'][_ofNumber]);\r\n  }\r\n  function getSurveyQuestions(string memory _name) public view returns(string memory)\r\n  {\r\n    return(_surveyStorage[_name]._stringStorage['questions']);\r\n  }\r\n  function getSurveyParticipantsAllowed(string memory _name) public view returns(uint256)\r\n  {\r\n    return(_surveyStorage[_name]._uintStorage['participantsAllowed']);\r\n  }\r\n  function getSurveyTotalParticipants(string memory _name) public view returns(uint256)\r\n  {\r\n    return(_surveyStorage[_name]._uintStorage['totalParticipated']);\r\n  }\r\n  function getSurveyAnswers(string memory _name, uint256 _ofNumber) public view returns(string memory)\r\n  {\r\n    return(_surveyStorage[_name]._stringArrayStorage['answers'][_ofNumber]);\r\n  }\r\n  function getSurveyValue(string memory _name) public view returns(uint256)\r\n  {\r\n    return(_surveyStorage[_name]._uintStorage['value']);\r\n  }\r\n  function getSurveyStoppedStatus(string memory _name) public view returns(bool)\r\n  {\r\n    return(_surveyStorage[_name]._boolStorage['stoppedStatus']);\r\n  }\r\n  function getSurveyOwner(string memory _name) public view returns(address)\r\n  {\r\n    return(_surveyStorage[_name]._addressStorage['surveyOwner']);\r\n  }\r\n\r\n  //poll properties getters\r\n  function getPollName(uint256 _ofNumber) public view returns(string memory)\r\n  {\r\n    return(_stringArrayStorage['polls'][_ofNumber]);\r\n  }\r\n  function getPollChoices(string memory _name) public view returns(string memory)\r\n  {\r\n    return(_pollStorage[_name]._stringStorage['choices']);\r\n  }\r\n  function getPollParticipantsAllowed(string memory _name) public view returns(uint256)\r\n  {\r\n    return(_pollStorage[_name]._uintStorage['participantsAllowed']);\r\n  }\r\n  function getPollTotalParticipants(string memory _name) public view returns(uint256)\r\n  {\r\n    return(_pollStorage[_name]._uintStorage['totalParticipated']);\r\n  }\r\n  function getPollChoiceVotes(string memory _name, string memory _choice) public view returns(uint256)\r\n  {\r\n    return(_pollStorage[_name]._uintStorage[_choice]);\r\n  }\r\n  function getPollValue(string memory _name) public view returns(uint256)\r\n  {\r\n    return(_pollStorage[_name]._uintStorage['value']);\r\n  }\r\n  function getPollStoppedStatus(string memory _name) public view returns(bool)\r\n  {\r\n    return(_pollStorage[_name]._boolStorage['stoppedStatus']);\r\n  }\r\n  function getPollOwner(string memory _name) public view returns(address)\r\n  {\r\n    return(_pollStorage[_name]._addressStorage['pollOwner']);\r\n  }\r\n\r\n  //storage getters\r\n  function getUintStorage(string memory _valueName) public view returns(uint256)\r\n  {\r\n    return(_uintStorage[_valueName]);\r\n  }\r\n\r\n  //user properties getteres\r\n  function getUserCreatedSurveys() public view returns(uint256)\r\n  {\r\n    return(_userStorage[msg.sender]._uintStorage['surveysCreated']);\r\n  }\r\n  function getUserNumberOfSurveys(uint256 _index) public view returns(string memory)\r\n  {\r\n    return(_userStorage[msg.sender].surevysTitles[_index]);\r\n  }\r\n  function getUserCreatedPolls() public view returns(uint256)\r\n  {\r\n    return(_userStorage[msg.sender]._uintStorage['pollsCreated']);\r\n  }\r\n  function getUserNumberOfPolls(uint256 _index) public view returns(string memory)\r\n  {\r\n    return(_userStorage[msg.sender].pollTitles[_index]);\r\n  }\r\n}\r\n",
  "sourcePath": "C:\\Users\\Daniel\\Projects\\Surveys_V2\\contracts\\Storage.sol",
  "compiler": {
    "name": "solc",
    "version": "0.6.12+commit.27d51765.Emscripten.clang"
  },
  "schemaVersion": "3.2.5",
  "updatedAt": "2020-10-05T12:54:19.012Z",
  "devdoc": {
    "kind": "dev",
    "methods": {},
    "version": 1
  },
  "userdoc": {
    "kind": "user",
    "methods": {},
    "version": 1
  }
}