{
  "contractName": "Storage",
  "abi": [
    {
      "inputs": [
        {
          "internalType": "string",
          "name": "_arrayName",
          "type": "string"
        }
      ],
      "name": "getStringToBytes32ArrayStorrage",
      "outputs": [
        {
          "internalType": "bytes32[]",
          "name": "",
          "type": "bytes32[]"
        }
      ],
      "stateMutability": "view",
      "type": "function"
    },
    {
      "inputs": [
        {
          "internalType": "bytes32",
          "name": "_surveyName",
          "type": "bytes32"
        },
        {
          "internalType": "string",
          "name": "_variableName",
          "type": "string"
        }
      ],
      "name": "getSurveyUintStorage",
      "outputs": [
        {
          "internalType": "uint256",
          "name": "",
          "type": "uint256"
        }
      ],
      "stateMutability": "view",
      "type": "function"
    },
    {
      "inputs": [
        {
          "internalType": "bytes32",
          "name": "_surveyName",
          "type": "bytes32"
        },
        {
          "internalType": "string",
          "name": "_variableName",
          "type": "string"
        }
      ],
      "name": "getSurveyStringStorage",
      "outputs": [
        {
          "internalType": "string",
          "name": "",
          "type": "string"
        }
      ],
      "stateMutability": "view",
      "type": "function"
    },
    {
      "inputs": [
        {
          "internalType": "bytes32",
          "name": "_surveyName",
          "type": "bytes32"
        },
        {
          "internalType": "string",
          "name": "_variableName",
          "type": "string"
        }
      ],
      "name": "getSurveyBoolStorage",
      "outputs": [
        {
          "internalType": "bool",
          "name": "",
          "type": "bool"
        }
      ],
      "stateMutability": "view",
      "type": "function"
    },
    {
      "inputs": [
        {
          "internalType": "bytes32",
          "name": "_surveyName",
          "type": "bytes32"
        },
        {
          "internalType": "string",
          "name": "_variableName",
          "type": "string"
        }
      ],
      "name": "getSurveyAddressStorage",
      "outputs": [
        {
          "internalType": "address",
          "name": "",
          "type": "address"
        }
      ],
      "stateMutability": "view",
      "type": "function"
    },
    {
      "inputs": [
        {
          "internalType": "bytes32",
          "name": "_surveyName",
          "type": "bytes32"
        },
        {
          "internalType": "string",
          "name": "_variableName",
          "type": "string"
        }
      ],
      "name": "getSurveyStringToBytes32ArrayStorage",
      "outputs": [
        {
          "internalType": "bytes32[]",
          "name": "",
          "type": "bytes32[]"
        }
      ],
      "stateMutability": "view",
      "type": "function"
    },
    {
      "inputs": [
        {
          "internalType": "bytes32",
          "name": "_surveyName",
          "type": "bytes32"
        },
        {
          "internalType": "uint256",
          "name": "_variableNumber",
          "type": "uint256"
        }
      ],
      "name": "getSurveyUintToBytes32ArrayStorage",
      "outputs": [
        {
          "internalType": "bytes32[]",
          "name": "",
          "type": "bytes32[]"
        }
      ],
      "stateMutability": "view",
      "type": "function"
    },
    {
      "inputs": [
        {
          "internalType": "bytes32",
          "name": "_surveyName",
          "type": "bytes32"
        },
        {
          "internalType": "bytes32",
          "name": "_variableName",
          "type": "bytes32"
        }
      ],
      "name": "getSurveyBytes32UintStorage",
      "outputs": [
        {
          "internalType": "uint256",
          "name": "",
          "type": "uint256"
        }
      ],
      "stateMutability": "view",
      "type": "function"
    },
    {
      "inputs": [
        {
          "internalType": "bytes32",
          "name": "_pollName",
          "type": "bytes32"
        },
        {
          "internalType": "string",
          "name": "_variableName",
          "type": "string"
        }
      ],
      "name": "getPollUintStorage",
      "outputs": [
        {
          "internalType": "uint256",
          "name": "",
          "type": "uint256"
        }
      ],
      "stateMutability": "view",
      "type": "function"
    },
    {
      "inputs": [
        {
          "internalType": "bytes32",
          "name": "_pollName",
          "type": "bytes32"
        },
        {
          "internalType": "string",
          "name": "_variableName",
          "type": "string"
        }
      ],
      "name": "getPollStringStorage",
      "outputs": [
        {
          "internalType": "string",
          "name": "",
          "type": "string"
        }
      ],
      "stateMutability": "view",
      "type": "function"
    },
    {
      "inputs": [
        {
          "internalType": "bytes32",
          "name": "_pollName",
          "type": "bytes32"
        },
        {
          "internalType": "string",
          "name": "_variableName",
          "type": "string"
        }
      ],
      "name": "getPollBoolStorage",
      "outputs": [
        {
          "internalType": "bool",
          "name": "",
          "type": "bool"
        }
      ],
      "stateMutability": "view",
      "type": "function"
    },
    {
      "inputs": [
        {
          "internalType": "bytes32",
          "name": "_pollName",
          "type": "bytes32"
        },
        {
          "internalType": "string",
          "name": "_variableName",
          "type": "string"
        }
      ],
      "name": "getPollAddressStorage",
      "outputs": [
        {
          "internalType": "address",
          "name": "",
          "type": "address"
        }
      ],
      "stateMutability": "view",
      "type": "function"
    },
    {
      "inputs": [
        {
          "internalType": "bytes32",
          "name": "_pollName",
          "type": "bytes32"
        },
        {
          "internalType": "string",
          "name": "_variableName",
          "type": "string"
        }
      ],
      "name": "getPollStringToBytes32ArrayStorage",
      "outputs": [
        {
          "internalType": "bytes32[]",
          "name": "",
          "type": "bytes32[]"
        }
      ],
      "stateMutability": "view",
      "type": "function"
    },
    {
      "inputs": [
        {
          "internalType": "bytes32",
          "name": "_pollName",
          "type": "bytes32"
        },
        {
          "internalType": "uint256",
          "name": "_variableNumber",
          "type": "uint256"
        }
      ],
      "name": "getPollUintToBytes32ArrayStorage",
      "outputs": [
        {
          "internalType": "bytes32[]",
          "name": "",
          "type": "bytes32[]"
        }
      ],
      "stateMutability": "view",
      "type": "function"
    },
    {
      "inputs": [
        {
          "internalType": "bytes32",
          "name": "_pollName",
          "type": "bytes32"
        },
        {
          "internalType": "bytes32",
          "name": "_variableName",
          "type": "bytes32"
        }
      ],
      "name": "getPollBytes32UintStorage",
      "outputs": [
        {
          "internalType": "uint256",
          "name": "",
          "type": "uint256"
        }
      ],
      "stateMutability": "view",
      "type": "function"
    },
    {
      "inputs": [
        {
          "internalType": "string",
          "name": "_variableName",
          "type": "string"
        }
      ],
      "name": "getUserStringToBytes32ArrayStorage",
      "outputs": [
        {
          "internalType": "bytes32[]",
          "name": "",
          "type": "bytes32[]"
        }
      ],
      "stateMutability": "view",
      "type": "function"
    },
    {
      "inputs": [
        {
          "internalType": "bytes32",
          "name": "_surveyName",
          "type": "bytes32"
        }
      ],
      "name": "getUserParticipatedSurveyStatus",
      "outputs": [
        {
          "internalType": "bool",
          "name": "",
          "type": "bool"
        }
      ],
      "stateMutability": "view",
      "type": "function"
    },
    {
      "inputs": [
        {
          "internalType": "bytes32",
          "name": "_pollName",
          "type": "bytes32"
        }
      ],
      "name": "getUserParticipatedPollStatus",
      "outputs": [
        {
          "internalType": "bool",
          "name": "",
          "type": "bool"
        }
      ],
      "stateMutability": "view",
      "type": "function"
    }
  ],
  "bytecode": "0x608060405234801561001057600080fd5b50611b0a806100206000396000f3fe608060405234801561001057600080fd5b50600436106101165760003560e01c806397a0c3fa116100a2578063b2fa5c5511610071578063b2fa5c5514610bce578063cf35778014610c1a578063dfb70e1614610cf5578063e8a4233514610dce578063f054dda414610e5b57610116565b806397a0c3fa1461083b5780639cdbc76c1461092a5780639f82f84c14610a68578063a77b47ee14610b8257610116565b80635959954e116100e95780635959954e146104d957806364431b9c146105e957806370bd0fc71461062d57806374c00140146107085780637dc70478146107f757610116565b80630a3225a51461011b5780631d6d7cf4146101a85780632cf80fcb146102815780632de1a2ca1461039b575b600080fd5b6101516004803603604081101561013157600080fd5b810190808035906020019092919080359060200190929190505050610f6b565b6040518080602001828103825283818151815260200191508051906020019060200280838360005b83811015610194578082015181840152602081019050610179565b505050509050019250505060405180910390f35b61026b600480360360408110156101be57600080fd5b8101908080359060200190929190803590602001906401000000008111156101e557600080fd5b8201836020820111156101f757600080fd5b8035906020019184600183028401116401000000008311171561021957600080fd5b91908080601f016020809104026020016040519081016040528093929190818152602001838380828437600081840152601f19601f820116905080830192505050505050509192919290505050610feb565b6040518082815260200191505060405180910390f35b6103446004803603604081101561029757600080fd5b8101908080359060200190929190803590602001906401000000008111156102be57600080fd5b8201836020820111156102d057600080fd5b803590602001918460018302840111640100000000831117156102f257600080fd5b91908080601f016020809104026020016040519081016040528093929190818152602001838380828437600081840152601f19601f820116905080830192505050505050509192919290505050611073565b6040518080602001828103825283818151815260200191508051906020019060200280838360005b8381101561038757808201518184015260208101905061036c565b505050509050019250505060405180910390f35b61045e600480360360408110156103b157600080fd5b8101908080359060200190929190803590602001906401000000008111156103d857600080fd5b8201836020820111156103ea57600080fd5b8035906020019184600183028401116401000000008311171561040c57600080fd5b91908080601f016020809104026020016040519081016040528093929190818152602001838380828437600081840152601f19601f820116905080830192505050505050509192919290505050611149565b6040518080602001828103825283818151815260200191508051906020019080838360005b8381101561049e578082015181840152602081019050610483565b50505050905090810190601f1680156104cb5780820380516001836020036101000a031916815260200191505b509250505060405180910390f35b610592600480360360208110156104ef57600080fd5b810190808035906020019064010000000081111561050c57600080fd5b82018360208201111561051e57600080fd5b8035906020019184600183028401116401000000008311171561054057600080fd5b91908080601f016020809104026020016040519081016040528093929190818152602001838380828437600081840152601f19601f820116905080830192505050505050509192919290505050611268565b6040518080602001828103825283818151815260200191508051906020019060200280838360005b838110156105d55780820151818401526020810190506105ba565b505050509050019250505060405180910390f35b610615600480360360208110156105ff57600080fd5b8101908080359060200190929190505050611369565b60405180821515815260200191505060405180910390f35b6106f06004803603604081101561064357600080fd5b81019080803590602001909291908035906020019064010000000081111561066a57600080fd5b82018360208201111561067c57600080fd5b8035906020019184600183028401116401000000008311171561069e57600080fd5b91908080601f016020809104026020016040519081016040528093929190818152602001838380828437600081840152601f19601f8201169050808301925050505050505091929192905050506113d3565b60405180821515815260200191505060405180910390f35b6107cb6004803603604081101561071e57600080fd5b81019080803590602001909291908035906020019064010000000081111561074557600080fd5b82018360208201111561075757600080fd5b8035906020019184600183028401116401000000008311171561077957600080fd5b91908080601f016020809104026020016040519081016040528093929190818152602001838380828437600081840152601f19601f820116905080830192505050505050509192919290505050611468565b604051808273ffffffffffffffffffffffffffffffffffffffff16815260200191505060405180910390f35b6108236004803603602081101561080d57600080fd5b810190808035906020019092919050505061150f565b60405180821515815260200191505060405180910390f35b6108fe6004803603604081101561085157600080fd5b81019080803590602001909291908035906020019064010000000081111561087857600080fd5b82018360208201111561088a57600080fd5b803590602001918460018302840111640100000000831117156108ac57600080fd5b91908080601f016020809104026020016040519081016040528093929190818152602001838380828437600081840152601f19601f820116905080830192505050505050509192919290505050611579565b604051808273ffffffffffffffffffffffffffffffffffffffff16815260200191505060405180910390f35b6109ed6004803603604081101561094057600080fd5b81019080803590602001909291908035906020019064010000000081111561096757600080fd5b82018360208201111561097957600080fd5b8035906020019184600183028401116401000000008311171561099b57600080fd5b91908080601f016020809104026020016040519081016040528093929190818152602001838380828437600081840152601f19601f820116905080830192505050505050509192919290505050611621565b6040518080602001828103825283818151815260200191508051906020019080838360005b83811015610a2d578082015181840152602081019050610a12565b50505050905090810190601f168015610a5a5780820380516001836020036101000a031916815260200191505b509250505060405180910390f35b610b2b60048036036040811015610a7e57600080fd5b810190808035906020019092919080359060200190640100000000811115610aa557600080fd5b820183602082011115610ab757600080fd5b80359060200191846001830284011164010000000083111715610ad957600080fd5b91908080601f016020809104026020016040519081016040528093929190818152602001838380828437600081840152601f19601f820116905080830192505050505050509192919290505050611741565b6040518080602001828103825283818151815260200191508051906020019060200280838360005b83811015610b6e578082015181840152602081019050610b53565b505050509050019250505060405180910390f35b610bb860048036036040811015610b9857600080fd5b810190808035906020019092919080359060200190929190505050611816565b6040518082815260200191505060405180910390f35b610c0460048036036040811015610be457600080fd5b810190808035906020019092919080359060200190929190505050611847565b6040518082815260200191505060405180910390f35b610cdd60048036036040811015610c3057600080fd5b810190808035906020019092919080359060200190640100000000811115610c5757600080fd5b820183602082011115610c6957600080fd5b80359060200191846001830284011164010000000083111715610c8b57600080fd5b91908080601f016020809104026020016040519081016040528093929190818152602001838380828437600081840152601f19601f820116905080830192505050505050509192919290505050611879565b60405180821515815260200191505060405180910390f35b610db860048036036040811015610d0b57600080fd5b810190808035906020019092919080359060200190640100000000811115610d3257600080fd5b820183602082011115610d4457600080fd5b80359060200191846001830284011164010000000083111715610d6657600080fd5b91908080601f016020809104026020016040519081016040528093929190818152602001838380828437600081840152601f19601f82011690508083019250505050505050919291929050505061190d565b6040518082815260200191505060405180910390f35b610e0460048036036040811015610de457600080fd5b810190808035906020019092919080359060200190929190505050611994565b6040518080602001828103825283818151815260200191508051906020019060200280838360005b83811015610e47578082015181840152602081019050610e2c565b505050509050019250505060405180910390f35b610f1460048036036020811015610e7157600080fd5b8101908080359060200190640100000000811115610e8e57600080fd5b820183602082011115610ea057600080fd5b80359060200191846001830284011164010000000083111715610ec257600080fd5b91908080601f016020809104026020016040519081016040528093929190818152602001838380828437600081840152601f19601f820116905080830192505050505050509192919290505050611a13565b6040518080602001828103825283818151815260200191508051906020019060200280838360005b83811015610f57578082015181840152602081019050610f3c565b505050509050019250505060405180910390f35b6060600160008481526020019081526020016000206000016000838152602001908152602001600020805480602002602001604051908101604052809291908181526020018280548015610fde57602002820191906000526020600020905b815481526020019060010190808311610fca575b5050505050905092915050565b600060016000848152602001908152602001600020600301826040518082805190602001908083835b602083106110375780518252602082019150602081019050602083039250611014565b6001836020036101000a038019825116818451168082178552505050505050905001915050908152602001604051809103902054905092915050565b606060016000848152602001908152602001600020600101826040518082805190602001908083835b602083106110bf578051825260208201915060208101905060208303925061109c565b6001836020036101000a038019825116818451168082178552505050505050905001915050908152602001604051809103902080548060200260200160405190810160405280929190818152602001828054801561113c57602002820191906000526020600020905b815481526020019060010190808311611128575b5050505050905092915050565b6060600080848152602001908152602001600020600401826040518082805190602001908083835b602083106111945780518252602082019150602081019050602083039250611171565b6001836020036101000a03801982511681845116808217855250505050505090500191505090815260200160405180910390208054600181600116156101000203166002900480601f01602080910402602001604051908101604052809291908181526020018280546001816001161561010002031660029004801561125b5780601f106112305761010080835404028352916020019161125b565b820191906000526020600020905b81548152906001019060200180831161123e57829003601f168201915b5050505050905092915050565b6060600260003373ffffffffffffffffffffffffffffffffffffffff1673ffffffffffffffffffffffffffffffffffffffff168152602001908152602001600020600201826040518082805190602001908083835b602083106112e057805182526020820191506020810190506020830392506112bd565b6001836020036101000a038019825116818451168082178552505050505050905001915050908152602001604051809103902080548060200260200160405190810160405280929190818152602001828054801561135d57602002820191906000526020600020905b815481526020019060010190808311611349575b50505050509050919050565b6000600260003373ffffffffffffffffffffffffffffffffffffffff1673ffffffffffffffffffffffffffffffffffffffff168152602001908152602001600020600001600083815260200190815260200160002060009054906101000a900460ff169050919050565b600060016000848152602001908152602001600020600501826040518082805190602001908083835b6020831061141f57805182526020820191506020810190506020830392506113fc565b6001836020036101000a038019825116818451168082178552505050505050905001915050908152602001604051809103902060009054906101000a900460ff16905092915050565b6000806000848152602001908152602001600020600601826040518082805190602001908083835b602083106114b35780518252602082019150602081019050602083039250611490565b6001836020036101000a038019825116818451168082178552505050505050905001915050908152602001604051809103902060009054906101000a900473ffffffffffffffffffffffffffffffffffffffff16905092915050565b6000600260003373ffffffffffffffffffffffffffffffffffffffff1673ffffffffffffffffffffffffffffffffffffffff168152602001908152602001600020600101600083815260200190815260200160002060009054906101000a900460ff169050919050565b600060016000848152602001908152602001600020600601826040518082805190602001908083835b602083106115c557805182526020820191506020810190506020830392506115a2565b6001836020036101000a038019825116818451168082178552505050505050905001915050908152602001604051809103902060009054906101000a900473ffffffffffffffffffffffffffffffffffffffff16905092915050565b606060016000848152602001908152602001600020600401826040518082805190602001908083835b6020831061166d578051825260208201915060208101905060208303925061164a565b6001836020036101000a03801982511681845116808217855250505050505090500191505090815260200160405180910390208054600181600116156101000203166002900480601f0160208091040260200160405190810160405280929190818152602001828054600181600116156101000203166002900480156117345780601f1061170957610100808354040283529160200191611734565b820191906000526020600020905b81548152906001019060200180831161171757829003601f168201915b5050505050905092915050565b6060600080848152602001908152602001600020600101826040518082805190602001908083835b6020831061178c5780518252602082019150602081019050602083039250611769565b6001836020036101000a038019825116818451168082178552505050505050905001915050908152602001604051809103902080548060200260200160405190810160405280929190818152602001828054801561180957602002820191906000526020600020905b8154815260200190600101908083116117f5575b5050505050905092915050565b6000806000848152602001908152602001600020600201600083815260200190815260200160002054905092915050565b600060016000848152602001908152602001600020600201600083815260200190815260200160002054905092915050565b6000806000848152602001908152602001600020600501826040518082805190602001908083835b602083106118c457805182526020820191506020810190506020830392506118a1565b6001836020036101000a038019825116818451168082178552505050505050905001915050908152602001604051809103902060009054906101000a900460ff16905092915050565b6000806000848152602001908152602001600020600301826040518082805190602001908083835b602083106119585780518252602082019150602081019050602083039250611935565b6001836020036101000a038019825116818451168082178552505050505050905001915050908152602001604051809103902054905092915050565b60606000808481526020019081526020016000206000016000838152602001908152602001600020805480602002602001604051908101604052809291908181526020018280548015611a0657602002820191906000526020600020905b8154815260200190600101908083116119f2575b5050505050905092915050565b60606003826040518082805190602001908083835b60208310611a4b5780518252602082019150602081019050602083039250611a28565b6001836020036101000a0380198251168184511680821785525050505050509050019150509081526020016040518091039020805480602002602001604051908101604052809291908181526020018280548015611ac857602002820191906000526020600020905b815481526020019060010190808311611ab4575b5050505050905091905056fea264697066735822122003d7c3f4986756de721b2d165a970d6a5a78b47e6989ee717c0953df7cee034264736f6c634300060c0033",
  "immutableReferences": {},
  "source": "// SPDX-License-Identifier: MIT\r\n\r\npragma solidity 0.6.12;\r\n\r\ncontract Storage {\r\n  //creating a sruct with all properties of a survey and saving all the properties of a survey in a mapping\r\n  struct Survey\r\n  {\r\n    mapping (uint256 => bytes32[]) _uintToBytes32ArrayStorage;\r\n    mapping (string => bytes32[]) _stringToBytes32ArrayStorage;\r\n    mapping (bytes32 => uint256) _bytes32ToUintStorage;\r\n    mapping (string => uint256) _uintStorage;\r\n    mapping (string => string) _stringStorage;\r\n    mapping (string => bool) _boolStorage;\r\n    mapping (string => address) _addressStorage;\r\n    mapping (string => bytes4) _bytesStorage;\r\n  }\r\n  mapping (bytes32 => Survey) internal _surveyStorage;\r\n\r\n  //creating a sruct with all properties of a poll and saving all the properties of a poll in a mapping\r\n  struct Poll\r\n  {\r\n    mapping (uint256 => bytes32[]) _uintToBytes32ArrayStorage;\r\n    mapping (string => bytes32[]) _stringToBytes32ArrayStorage;\r\n    mapping (bytes32 => uint256) _bytes32ToUintStorage;\r\n    mapping (string => uint256) _uintStorage;\r\n    mapping (string => string) _stringStorage;\r\n    mapping (string => bool) _boolStorage;\r\n    mapping (string => address) _addressStorage;\r\n    mapping (string => bytes4) _bytesStorage;\r\n  }\r\n  mapping (bytes32 => Poll) internal _pollStorage;\r\n\r\n  //struct with user properties with a mapping saving info about all users\r\n  struct User\r\n  {\r\n    mapping (bytes32 => bool) participatedSurveys;\r\n    mapping (bytes32 => bool) participatedPolls;\r\n\r\n    mapping (string => bytes32[]) _stringToBytes32ArrayStorage;\r\n    mapping (string => uint256) _uintStorage;\r\n    mapping (string => string) _stringStorage;\r\n    mapping (string => bool) _boolStorage;\r\n    mapping (string => address) _addressStorage;\r\n    mapping (string => bytes4) _bytesStorage;\r\n  }\r\n  mapping (address => User) internal _userStorage;\r\n\r\n  //setting all possible variables needed in future\r\n  mapping (string => bytes32[]) internal _stringToBytes32ArrayStorage;\r\n  mapping (string => uint256) internal _uintStorage;\r\n  mapping (string => string) internal _stringStorage;\r\n  mapping (string => bool) internal _boolStorage;\r\n  mapping (string => address) internal _addressStorage;\r\n  mapping (string => bytes4) internal _bytesStorage;\r\n\r\n  //getters for variables\r\n  function getStringToBytes32ArrayStorrage(string memory _arrayName) public view returns(bytes32[] memory) {\r\n    return (_stringToBytes32ArrayStorage[_arrayName]);\r\n  }\r\n\r\n  //getters for surveys\r\n  function getSurveyUintStorage(bytes32 _surveyName, string memory _variableName) public view returns(uint) {\r\n    return (_surveyStorage[_surveyName]._uintStorage[_variableName]);\r\n  }\r\n  function getSurveyStringStorage(bytes32 _surveyName, string memory _variableName) public view returns(string memory) {\r\n    return (_surveyStorage[_surveyName]._stringStorage[_variableName]);\r\n  }\r\n  function getSurveyBoolStorage(bytes32 _surveyName, string memory _variableName) public view returns(bool) {\r\n    return (_surveyStorage[_surveyName]._boolStorage[_variableName]);\r\n  }\r\n  function getSurveyAddressStorage(bytes32 _surveyName, string memory _variableName) public view returns(address) {\r\n    return (_surveyStorage[_surveyName]._addressStorage[_variableName]);\r\n  }\r\n  function getSurveyStringToBytes32ArrayStorage(bytes32 _surveyName, string memory _variableName) public view returns(bytes32[] memory) {\r\n    return (_surveyStorage[_surveyName]._stringToBytes32ArrayStorage[_variableName]);\r\n  }\r\n  function getSurveyUintToBytes32ArrayStorage(bytes32 _surveyName, uint256 _variableNumber) public view returns(bytes32[] memory) {\r\n    return (_surveyStorage[_surveyName]._uintToBytes32ArrayStorage[_variableNumber]);\r\n  }\r\n  function getSurveyBytes32UintStorage(bytes32 _surveyName, bytes32 _variableName) public view returns(uint) {\r\n    return (_surveyStorage[_surveyName]._bytes32ToUintStorage[_variableName]);\r\n  }\r\n\r\n  //getters for polls\r\n  function getPollUintStorage(bytes32 _pollName, string memory _variableName) public view returns(uint) {\r\n    return (_pollStorage[_pollName]._uintStorage[_variableName]);\r\n  }\r\n  function getPollStringStorage(bytes32 _pollName, string memory _variableName) public view returns(string memory) {\r\n    return (_pollStorage[_pollName]._stringStorage[_variableName]);\r\n  }\r\n  function getPollBoolStorage(bytes32 _pollName, string memory _variableName) public view returns(bool) {\r\n    return (_pollStorage[_pollName]._boolStorage[_variableName]);\r\n  }\r\n  function getPollAddressStorage(bytes32 _pollName, string memory _variableName) public view returns(address) {\r\n    return (_pollStorage[_pollName]._addressStorage[_variableName]);\r\n  }\r\n  function getPollStringToBytes32ArrayStorage(bytes32 _pollName, string memory _variableName) public view returns(bytes32[] memory) {\r\n    return (_pollStorage[_pollName]._stringToBytes32ArrayStorage[_variableName]);\r\n  }\r\n  function getPollUintToBytes32ArrayStorage(bytes32 _pollName, uint256 _variableNumber) public view returns(bytes32[] memory) {\r\n    return (_pollStorage[_pollName]._uintToBytes32ArrayStorage[_variableNumber]);\r\n  }\r\n  function getPollBytes32UintStorage(bytes32 _pollName, bytes32 _variableName) public view returns(uint) {\r\n    return (_pollStorage[_pollName]._bytes32ToUintStorage[_variableName]);\r\n  }\r\n\r\n  //getters for user\r\n  function getUserStringToBytes32ArrayStorage(string memory _variableName) public view returns(bytes32[] memory) {\r\n    return (_userStorage[msg.sender]._stringToBytes32ArrayStorage[_variableName]);\r\n  }\r\n  function getUserParticipatedSurveyStatus(bytes32 _surveyName) public view returns(bool) {\r\n    return (_userStorage[msg.sender].participatedSurveys[_surveyName]);\r\n  }\r\n  function getUserParticipatedPollStatus(bytes32 _pollName) public view returns(bool) {\r\n    return (_userStorage[msg.sender].participatedPolls[_pollName]);\r\n  }\r\n\r\n}\r\n",
  "sourcePath": "C:\\Users\\Daniel\\Projects\\Surveys_V2\\contracts\\Storage.sol",
  "compiler": {
    "name": "solc",
    "version": "0.6.12+commit.27d51765.Emscripten.clang"
  },
  "schemaVersion": "3.2.5",
  "updatedAt": "2020-10-15T22:33:39.213Z",
  "devdoc": {
    "kind": "dev",
    "methods": {},
    "version": 1
  },
  "userdoc": {
    "kind": "user",
    "methods": {},
    "version": 1
  }
}