{
  "contractName": "SurveyProxy",
  "abi": [
    {
      "inputs": [
        {
          "internalType": "address",
          "name": "token",
          "type": "address"
        },
        {
          "internalType": "address",
          "name": "_funcAddress",
          "type": "address"
        }
      ],
      "stateMutability": "nonpayable",
      "type": "constructor"
    },
    {
      "anonymous": false,
      "inputs": [
        {
          "indexed": false,
          "internalType": "address",
          "name": "operator",
          "type": "address"
        },
        {
          "indexed": false,
          "internalType": "address",
          "name": "from",
          "type": "address"
        },
        {
          "indexed": false,
          "internalType": "address",
          "name": "to",
          "type": "address"
        },
        {
          "indexed": false,
          "internalType": "uint256",
          "name": "amount",
          "type": "uint256"
        },
        {
          "indexed": false,
          "internalType": "bytes",
          "name": "userData",
          "type": "bytes"
        },
        {
          "indexed": false,
          "internalType": "bytes",
          "name": "operatorData",
          "type": "bytes"
        }
      ],
      "name": "DoneStuff",
      "type": "event"
    },
    {
      "anonymous": false,
      "inputs": [
        {
          "indexed": true,
          "internalType": "address",
          "name": "previousOwner",
          "type": "address"
        },
        {
          "indexed": true,
          "internalType": "address",
          "name": "newOwner",
          "type": "address"
        }
      ],
      "name": "OwnershipTransferred",
      "type": "event"
    },
    {
      "stateMutability": "payable",
      "type": "fallback",
      "payable": true
    },
    {
      "inputs": [
        {
          "internalType": "string",
          "name": "_name",
          "type": "string"
        },
        {
          "internalType": "string",
          "name": "_choice",
          "type": "string"
        }
      ],
      "name": "getPollChoiceVotes",
      "outputs": [
        {
          "internalType": "uint256",
          "name": "",
          "type": "uint256"
        }
      ],
      "stateMutability": "view",
      "type": "function",
      "constant": true
    },
    {
      "inputs": [
        {
          "internalType": "string",
          "name": "_name",
          "type": "string"
        }
      ],
      "name": "getPollChoices",
      "outputs": [
        {
          "internalType": "string",
          "name": "",
          "type": "string"
        }
      ],
      "stateMutability": "view",
      "type": "function",
      "constant": true
    },
    {
      "inputs": [
        {
          "internalType": "uint256",
          "name": "_ofNumber",
          "type": "uint256"
        }
      ],
      "name": "getPollName",
      "outputs": [
        {
          "internalType": "string",
          "name": "",
          "type": "string"
        }
      ],
      "stateMutability": "view",
      "type": "function",
      "constant": true
    },
    {
      "inputs": [
        {
          "internalType": "string",
          "name": "_name",
          "type": "string"
        }
      ],
      "name": "getPollOwner",
      "outputs": [
        {
          "internalType": "address",
          "name": "",
          "type": "address"
        }
      ],
      "stateMutability": "view",
      "type": "function",
      "constant": true
    },
    {
      "inputs": [
        {
          "internalType": "string",
          "name": "_name",
          "type": "string"
        }
      ],
      "name": "getPollParticipantsAllowed",
      "outputs": [
        {
          "internalType": "uint256",
          "name": "",
          "type": "uint256"
        }
      ],
      "stateMutability": "view",
      "type": "function",
      "constant": true
    },
    {
      "inputs": [
        {
          "internalType": "string",
          "name": "_name",
          "type": "string"
        }
      ],
      "name": "getPollStoppedStatus",
      "outputs": [
        {
          "internalType": "bool",
          "name": "",
          "type": "bool"
        }
      ],
      "stateMutability": "view",
      "type": "function",
      "constant": true
    },
    {
      "inputs": [
        {
          "internalType": "string",
          "name": "_name",
          "type": "string"
        }
      ],
      "name": "getPollTotalParticipants",
      "outputs": [
        {
          "internalType": "uint256",
          "name": "",
          "type": "uint256"
        }
      ],
      "stateMutability": "view",
      "type": "function",
      "constant": true
    },
    {
      "inputs": [
        {
          "internalType": "string",
          "name": "_name",
          "type": "string"
        }
      ],
      "name": "getPollValue",
      "outputs": [
        {
          "internalType": "uint256",
          "name": "",
          "type": "uint256"
        }
      ],
      "stateMutability": "view",
      "type": "function",
      "constant": true
    },
    {
      "inputs": [
        {
          "internalType": "string",
          "name": "_name",
          "type": "string"
        },
        {
          "internalType": "uint256",
          "name": "_ofNumber",
          "type": "uint256"
        }
      ],
      "name": "getSurveyAnswers",
      "outputs": [
        {
          "internalType": "string",
          "name": "",
          "type": "string"
        }
      ],
      "stateMutability": "view",
      "type": "function",
      "constant": true
    },
    {
      "inputs": [
        {
          "internalType": "uint256",
          "name": "_ofNumber",
          "type": "uint256"
        }
      ],
      "name": "getSurveyName",
      "outputs": [
        {
          "internalType": "string",
          "name": "",
          "type": "string"
        }
      ],
      "stateMutability": "view",
      "type": "function",
      "constant": true
    },
    {
      "inputs": [
        {
          "internalType": "string",
          "name": "_name",
          "type": "string"
        }
      ],
      "name": "getSurveyOwner",
      "outputs": [
        {
          "internalType": "address",
          "name": "",
          "type": "address"
        }
      ],
      "stateMutability": "view",
      "type": "function",
      "constant": true
    },
    {
      "inputs": [
        {
          "internalType": "string",
          "name": "_name",
          "type": "string"
        }
      ],
      "name": "getSurveyParticipantsAllowed",
      "outputs": [
        {
          "internalType": "uint256",
          "name": "",
          "type": "uint256"
        }
      ],
      "stateMutability": "view",
      "type": "function",
      "constant": true
    },
    {
      "inputs": [
        {
          "internalType": "string",
          "name": "_name",
          "type": "string"
        }
      ],
      "name": "getSurveyQuestions",
      "outputs": [
        {
          "internalType": "string",
          "name": "",
          "type": "string"
        }
      ],
      "stateMutability": "view",
      "type": "function",
      "constant": true
    },
    {
      "inputs": [
        {
          "internalType": "string",
          "name": "_name",
          "type": "string"
        }
      ],
      "name": "getSurveyStoppedStatus",
      "outputs": [
        {
          "internalType": "bool",
          "name": "",
          "type": "bool"
        }
      ],
      "stateMutability": "view",
      "type": "function",
      "constant": true
    },
    {
      "inputs": [
        {
          "internalType": "string",
          "name": "_name",
          "type": "string"
        }
      ],
      "name": "getSurveyTotalParticipants",
      "outputs": [
        {
          "internalType": "uint256",
          "name": "",
          "type": "uint256"
        }
      ],
      "stateMutability": "view",
      "type": "function",
      "constant": true
    },
    {
      "inputs": [
        {
          "internalType": "string",
          "name": "_name",
          "type": "string"
        }
      ],
      "name": "getSurveyValue",
      "outputs": [
        {
          "internalType": "uint256",
          "name": "",
          "type": "uint256"
        }
      ],
      "stateMutability": "view",
      "type": "function",
      "constant": true
    },
    {
      "inputs": [
        {
          "internalType": "string",
          "name": "_valueName",
          "type": "string"
        }
      ],
      "name": "getUintStorage",
      "outputs": [
        {
          "internalType": "uint256",
          "name": "",
          "type": "uint256"
        }
      ],
      "stateMutability": "view",
      "type": "function",
      "constant": true
    },
    {
      "inputs": [],
      "name": "getUserCreatedPolls",
      "outputs": [
        {
          "internalType": "uint256",
          "name": "",
          "type": "uint256"
        }
      ],
      "stateMutability": "view",
      "type": "function",
      "constant": true
    },
    {
      "inputs": [],
      "name": "getUserCreatedSurveys",
      "outputs": [
        {
          "internalType": "uint256",
          "name": "",
          "type": "uint256"
        }
      ],
      "stateMutability": "view",
      "type": "function",
      "constant": true
    },
    {
      "inputs": [
        {
          "internalType": "uint256",
          "name": "_index",
          "type": "uint256"
        }
      ],
      "name": "getUserNumberOfPolls",
      "outputs": [
        {
          "internalType": "string",
          "name": "",
          "type": "string"
        }
      ],
      "stateMutability": "view",
      "type": "function",
      "constant": true
    },
    {
      "inputs": [
        {
          "internalType": "uint256",
          "name": "_index",
          "type": "uint256"
        }
      ],
      "name": "getUserNumberOfSurveys",
      "outputs": [
        {
          "internalType": "string",
          "name": "",
          "type": "string"
        }
      ],
      "stateMutability": "view",
      "type": "function",
      "constant": true
    },
    {
      "inputs": [],
      "name": "owner",
      "outputs": [
        {
          "internalType": "address",
          "name": "",
          "type": "address"
        }
      ],
      "stateMutability": "view",
      "type": "function",
      "constant": true
    },
    {
      "inputs": [],
      "name": "renounceOwnership",
      "outputs": [],
      "stateMutability": "nonpayable",
      "type": "function"
    },
    {
      "inputs": [
        {
          "internalType": "address",
          "name": "newOwner",
          "type": "address"
        }
      ],
      "name": "transferOwnership",
      "outputs": [],
      "stateMutability": "nonpayable",
      "type": "function"
    },
    {
      "inputs": [
        {
          "internalType": "address",
          "name": "operator",
          "type": "address"
        },
        {
          "internalType": "address",
          "name": "from",
          "type": "address"
        },
        {
          "internalType": "address",
          "name": "to",
          "type": "address"
        },
        {
          "internalType": "uint256",
          "name": "amount",
          "type": "uint256"
        },
        {
          "internalType": "bytes",
          "name": "userData",
          "type": "bytes"
        },
        {
          "internalType": "bytes",
          "name": "operatorData",
          "type": "bytes"
        }
      ],
      "name": "tokensReceived",
      "outputs": [],
      "stateMutability": "nonpayable",
      "type": "function"
    },
    {
      "inputs": [
        {
          "internalType": "address",
          "name": "_newAddress",
          "type": "address"
        }
      ],
      "name": "updateFunc",
      "outputs": [],
      "stateMutability": "nonpayable",
      "type": "function"
    }
  ],
  "bytecode": "0x6080604052731820a4b7618bde71dce8cdc73aab6c95905fad24600e60006101000a81548173ffffffffffffffffffffffffffffffffffffffff021916908373ffffffffffffffffffffffffffffffffffffffff1602179055503480156200006657600080fd5b506040516200321538038062003215833981810160405260408110156200008c57600080fd5b8101908080519060200190929190805190602001909291905050506000620000b9620002cd60201b60201c565b905080600c60006101000a81548173ffffffffffffffffffffffffffffffffffffffff021916908373ffffffffffffffffffffffffffffffffffffffff1602179055508073ffffffffffffffffffffffffffffffffffffffff16600073ffffffffffffffffffffffffffffffffffffffff167f8be0079c531659141344cd1fd0a4f28419497f9722a3daafe3b4186f6b6457e060405160405180910390a35081600f60006101000a81548173ffffffffffffffffffffffffffffffffffffffff021916908373ffffffffffffffffffffffffffffffffffffffff16021790555080600d60006101000a81548173ffffffffffffffffffffffffffffffffffffffff021916908373ffffffffffffffffffffffffffffffffffffffff160217905550600e60009054906101000a900473ffffffffffffffffffffffffffffffffffffffff1673ffffffffffffffffffffffffffffffffffffffff166329965a1d307fb281fc8c12954d22544db45de3159a39272895b169a852b314f9cc762e44c53b306040518463ffffffff1660e01b8152600401808473ffffffffffffffffffffffffffffffffffffffff1681526020018381526020018273ffffffffffffffffffffffffffffffffffffffff1681526020019350505050600060405180830381600087803b158015620002ac57600080fd5b505af1158015620002c1573d6000803e3d6000fd5b505050505050620002d5565b600033905090565b612f3080620002e56000396000f3fe6080604052600436106101845760003560e01c806377865d71116100d15780639ade79a21161008a578063ad27106b11610064578063ad27106b14611479578063dca61ca31461156b578063f2e21d82146115bc578063f2fde38b1461167057610185565b80639ade79a2146111e3578063a441a3fd146112bf578063a99d21b41461139d57610185565b806377865d7114610e2f5780637c1dc72b14610f0b57806385f8830314610fe75780638c3e778e146110125780638da5cb5b146110ee57806391c35b791461112f57610185565b80633572a9261161013e578063613303f311610118578063613303f314610c5d57806365ae67c814610c88578063715018a614610d64578063739f213f14610d7b57610185565b80633572a9261461095a5780633cd4ef1814610a0e5780634d25871d14610b8157610185565b806223de2914610278578063094c291b146103bd5780630b5ceb781461049b578063155ddb071461058d57806316339bf8146106ce5780631ed4cba31461081957610185565b5b6000600d60009054906101000a900473ffffffffffffffffffffffffffffffffffffffff169050600073ffffffffffffffffffffffffffffffffffffffff16600d60009054906101000a900473ffffffffffffffffffffffffffffffffffffffff1673ffffffffffffffffffffffffffffffffffffffff16141561020857600080fd5b60606000368080601f016020809104026020016040519081016040528093929190818152602001838380828437600081840152601f19601f820116905080830192505050505050509050600080825160208401855af43d604051816000823e8260008114610274578282f35b8282fd5b34801561028457600080fd5b506103bb600480360360c081101561029b57600080fd5b81019080803573ffffffffffffffffffffffffffffffffffffffff169060200190929190803573ffffffffffffffffffffffffffffffffffffffff169060200190929190803573ffffffffffffffffffffffffffffffffffffffff169060200190929190803590602001909291908035906020019064010000000081111561032257600080fd5b82018360208201111561033457600080fd5b8035906020019184600183028401116401000000008311171561035657600080fd5b90919293919293908035906020019064010000000081111561037757600080fd5b82018360208201111561038957600080fd5b803590602001918460018302840111640100000000831117156103ab57600080fd5b90919293919293905050506116c1565b005b3480156103c957600080fd5b50610483600480360360208110156103e057600080fd5b81019080803590602001906401000000008111156103fd57600080fd5b82018360208201111561040f57600080fd5b8035906020019184600183028401116401000000008311171561043157600080fd5b91908080601f016020809104026020016040519081016040528093929190818152602001838380828437600081840152601f19601f82011690508083019250505050505050919291929050505061186a565b60405180821515815260200191505060405180910390f35b3480156104a757600080fd5b50610561600480360360208110156104be57600080fd5b81019080803590602001906401000000008111156104db57600080fd5b8201836020820111156104ed57600080fd5b8035906020019184600183028401116401000000008311171561050f57600080fd5b91908080601f016020809104026020016040519081016040528093929190818152602001838380828437600081840152601f19601f820116905080830192505050505050509192919290505050611929565b604051808273ffffffffffffffffffffffffffffffffffffffff16815260200191505060405180910390f35b34801561059957600080fd5b50610653600480360360208110156105b057600080fd5b81019080803590602001906401000000008111156105cd57600080fd5b8201836020820111156105df57600080fd5b8035906020019184600183028401116401000000008311171561060157600080fd5b91908080601f016020809104026020016040519081016040528093929190818152602001838380828437600081840152601f19601f8201169050808301925050505050505091929192905050506119fa565b6040518080602001828103825283818151815260200191508051906020019080838360005b83811015610693578082015181840152602081019050610678565b50505050905090810190601f1680156106c05780820380516001836020036101000a031916815260200191505b509250505060405180910390f35b3480156106da57600080fd5b5061079e600480360360408110156106f157600080fd5b810190808035906020019064010000000081111561070e57600080fd5b82018360208201111561072057600080fd5b8035906020019184600183028401116401000000008311171561074257600080fd5b91908080601f016020809104026020016040519081016040528093929190818152602001838380828437600081840152601f19601f82011690508083019250505050505050919291929080359060200190929190505050611b44565b6040518080602001828103825283818151815260200191508051906020019080838360005b838110156107de5780820151818401526020810190506107c3565b50505050905090810190601f16801561080b5780820380516001836020036101000a031916815260200191505b509250505060405180910390f35b34801561082557600080fd5b506108df6004803603602081101561083c57600080fd5b810190808035906020019064010000000081111561085957600080fd5b82018360208201111561086b57600080fd5b8035906020019184600183028401116401000000008311171561088d57600080fd5b91908080601f016020809104026020016040519081016040528093929190818152602001838380828437600081840152601f19601f820116905080830192505050505050509192919290505050611ca4565b6040518080602001828103825283818151815260200191508051906020019080838360005b8381101561091f578082015181840152602081019050610904565b50505050905090810190601f16801561094c5780820380516001836020036101000a031916815260200191505b509250505060405180910390f35b34801561096657600080fd5b506109936004803603602081101561097d57600080fd5b8101908080359060200190929190505050611dee565b6040518080602001828103825283818151815260200191508051906020019080838360005b838110156109d35780820151818401526020810190506109b8565b50505050905090810190601f168015610a005780820380516001836020036101000a031916815260200191505b509250505060405180910390f35b348015610a1a57600080fd5b50610b6b60048036036040811015610a3157600080fd5b8101908080359060200190640100000000811115610a4e57600080fd5b820183602082011115610a6057600080fd5b80359060200191846001830284011164010000000083111715610a8257600080fd5b91908080601f016020809104026020016040519081016040528093929190818152602001838380828437600081840152601f19601f82011690508083019250505050505050919291929080359060200190640100000000811115610ae557600080fd5b820183602082011115610af757600080fd5b80359060200191846001830284011164010000000083111715610b1957600080fd5b91908080601f016020809104026020016040519081016040528093929190818152602001838380828437600081840152601f19601f820116905080830192505050505050509192919290505050611ee3565b6040518082815260200191505060405180910390f35b348015610b8d57600080fd5b50610c4760048036036020811015610ba457600080fd5b8101908080359060200190640100000000811115610bc157600080fd5b820183602082011115610bd357600080fd5b80359060200191846001830284011164010000000083111715610bf557600080fd5b91908080601f016020809104026020016040519081016040528093929190818152602001838380828437600081840152601f19601f820116905080830192505050505050509192919290505050611fc1565b6040518082815260200191505060405180910390f35b348015610c6957600080fd5b50610c72612072565b6040518082815260200191505060405180910390f35b348015610c9457600080fd5b50610d4e60048036036020811015610cab57600080fd5b8101908080359060200190640100000000811115610cc857600080fd5b820183602082011115610cda57600080fd5b80359060200191846001830284011164010000000083111715610cfc57600080fd5b91908080601f016020809104026020016040519081016040528093929190818152602001838380828437600081840152601f19601f8201169050808301925050505050505091929192905050506120f8565b6040518082815260200191505060405180910390f35b348015610d7057600080fd5b50610d7961216b565b005b348015610d8757600080fd5b50610db460048036036020811015610d9e57600080fd5b81019080803590602001909291905050506122f6565b6040518080602001828103825283818151815260200191508051906020019080838360005b83811015610df4578082015181840152602081019050610dd9565b50505050905090810190601f168015610e215780820380516001836020036101000a031916815260200191505b509250505060405180910390f35b348015610e3b57600080fd5b50610ef560048036036020811015610e5257600080fd5b8101908080359060200190640100000000811115610e6f57600080fd5b820183602082011115610e8157600080fd5b80359060200191846001830284011164010000000083111715610ea357600080fd5b91908080601f016020809104026020016040519081016040528093929190818152602001838380828437600081840152601f19601f8201169050808301925050505050505091929192905050506123eb565b6040518082815260200191505060405180910390f35b348015610f1757600080fd5b50610fd160048036036020811015610f2e57600080fd5b8101908080359060200190640100000000811115610f4b57600080fd5b820183602082011115610f5d57600080fd5b80359060200191846001830284011164010000000083111715610f7f57600080fd5b91908080601f016020809104026020016040519081016040528093929190818152602001838380828437600081840152601f19601f82011690508083019250505050505050919291929050505061249d565b6040518082815260200191505060405180910390f35b348015610ff357600080fd5b50610ffc61254f565b6040518082815260200191505060405180910390f35b34801561101e57600080fd5b506110d86004803603602081101561103557600080fd5b810190808035906020019064010000000081111561105257600080fd5b82018360208201111561106457600080fd5b8035906020019184600183028401116401000000008311171561108657600080fd5b91908080601f016020809104026020016040519081016040528093929190818152602001838380828437600081840152601f19601f8201169050808301925050505050505091929192905050506125d5565b6040518082815260200191505060405180910390f35b3480156110fa57600080fd5b50611103612686565b604051808273ffffffffffffffffffffffffffffffffffffffff16815260200191505060405180910390f35b34801561113b57600080fd5b506111686004803603602081101561115257600080fd5b81019080803590602001909291905050506126b0565b6040518080602001828103825283818151815260200191508051906020019080838360005b838110156111a857808201518184015260208101905061118d565b50505050905090810190601f1680156111d55780820380516001836020036101000a031916815260200191505b509250505060405180910390f35b3480156111ef57600080fd5b506112a96004803603602081101561120657600080fd5b810190808035906020019064010000000081111561122357600080fd5b82018360208201111561123557600080fd5b8035906020019184600183028401116401000000008311171561125757600080fd5b91908080601f016020809104026020016040519081016040528093929190818152602001838380828437600081840152601f19601f8201169050808301925050505050505091929192905050506127a5565b6040518082815260200191505060405180910390f35b3480156112cb57600080fd5b50611385600480360360208110156112e257600080fd5b81019080803590602001906401000000008111156112ff57600080fd5b82018360208201111561131157600080fd5b8035906020019184600183028401116401000000008311171561133357600080fd5b91908080601f016020809104026020016040519081016040528093929190818152602001838380828437600081840152601f19601f820116905080830192505050505050509192919290505050612857565b60405180821515815260200191505060405180910390f35b3480156113a957600080fd5b50611463600480360360208110156113c057600080fd5b81019080803590602001906401000000008111156113dd57600080fd5b8201836020820111156113ef57600080fd5b8035906020019184600183028401116401000000008311171561141157600080fd5b91908080601f016020809104026020016040519081016040528093929190818152602001838380828437600081840152601f19601f820116905080830192505050505050509192919290505050612915565b6040518082815260200191505060405180910390f35b34801561148557600080fd5b5061153f6004803603602081101561149c57600080fd5b81019080803590602001906401000000008111156114b957600080fd5b8201836020820111156114cb57600080fd5b803590602001918460018302840111640100000000831117156114ed57600080fd5b91908080601f016020809104026020016040519081016040528093929190818152602001838380828437600081840152601f19601f8201169050808301925050505050505091929192905050506129c6565b604051808273ffffffffffffffffffffffffffffffffffffffff16815260200191505060405180910390f35b34801561157757600080fd5b506115ba6004803603602081101561158e57600080fd5b81019080803573ffffffffffffffffffffffffffffffffffffffff169060200190929190505050612a98565b005b3480156115c857600080fd5b506115f5600480360360208110156115df57600080fd5b8101908080359060200190929190505050612ba6565b6040518080602001828103825283818151815260200191508051906020019080838360005b8381101561163557808201518184015260208101905061161a565b50505050905090810190601f1680156116625780820380516001836020036101000a031916815260200191505b509250505060405180910390f35b34801561167c57600080fd5b506116bf6004803603602081101561169357600080fd5b81019080803573ffffffffffffffffffffffffffffffffffffffff169060200190929190505050612c9b565b005b600f60009054906101000a900473ffffffffffffffffffffffffffffffffffffffff1673ffffffffffffffffffffffffffffffffffffffff163373ffffffffffffffffffffffffffffffffffffffff1614611767576040517f08c379a0000000000000000000000000000000000000000000000000000000008152600401808060200182810382526021815260200180612eb46021913960400191505060405180910390fd5b7fa0a5a35754b3519ae614f00422ac62a6bc4608ccb722963aab00cb48c588ad728888888888888888604051808973ffffffffffffffffffffffffffffffffffffffff1681526020018873ffffffffffffffffffffffffffffffffffffffff1681526020018773ffffffffffffffffffffffffffffffffffffffff16815260200186815260200180602001806020018381038352878782818152602001925080828437600081840152601f19601f8201169050808301925050508381038252858582818152602001925080828437600081840152601f19601f8201169050808301925050509a505050505050505050505060405180910390a15050505050505050565b60006001826040518082805190602001908083835b602083106118a2578051825260208201915060208101905060208303925061187f565b6001836020036101000a038019825116818451168082178552505050505050905001915050908152602001604051809103902060030160405180807f73746f7070656453746174757300000000000000000000000000000000000000815250600d019050908152602001604051809103902060009054906101000a900460ff169050919050565b600080826040518082805190602001908083835b60208310611960578051825260208201915060208101905060208303925061193d565b6001836020036101000a038019825116818451168082178552505050505050905001915050908152602001604051809103902060040160405180807f7375727665794f776e6572000000000000000000000000000000000000000000815250600b019050908152602001604051809103902060009054906101000a900473ffffffffffffffffffffffffffffffffffffffff169050919050565b60606000826040518082805190602001908083835b60208310611a325780518252602082019150602081019050602083039250611a0f565b6001836020036101000a038019825116818451168082178552505050505050905001915050908152602001604051809103902060010160405180807f7175657374696f6e730000000000000000000000000000000000000000000000815250600901905090815260200160405180910390208054600181600116156101000203166002900480601f016020809104026020016040519081016040528092919081815260200182805460018160011615610100020316600290048015611b385780601f10611b0d57610100808354040283529160200191611b38565b820191906000526020600020905b815481529060010190602001808311611b1b57829003601f168201915b50505050509050919050565b60606000836040518082805190602001908083835b60208310611b7c5780518252602082019150602081019050602083039250611b59565b6001836020036101000a038019825116818451168082178552505050505050905001915050908152602001604051809103902060020160405180807f616e737765727300000000000000000000000000000000000000000000000000815250600701905090815260200160405180910390208281548110611bf957fe5b906000526020600020018054600181600116156101000203166002900480601f016020809104026020016040519081016040528092919081815260200182805460018160011615610100020316600290048015611c975780601f10611c6c57610100808354040283529160200191611c97565b820191906000526020600020905b815481529060010190602001808311611c7a57829003601f168201915b5050505050905092915050565b60606001826040518082805190602001908083835b60208310611cdc5780518252602082019150602081019050602083039250611cb9565b6001836020036101000a038019825116818451168082178552505050505050905001915050908152602001604051809103902060010160405180807f63686f6963657300000000000000000000000000000000000000000000000000815250600701905090815260200160405180910390208054600181600116156101000203166002900480601f016020809104026020016040519081016040528092919081815260200182805460018160011615610100020316600290048015611de25780601f10611db757610100808354040283529160200191611de2565b820191906000526020600020905b815481529060010190602001808311611dc557829003601f168201915b50505050509050919050565b6060600860405180807f706f6c6c73000000000000000000000000000000000000000000000000000000815250600501905090815260200160405180910390208281548110611e3957fe5b906000526020600020018054600181600116156101000203166002900480601f016020809104026020016040519081016040528092919081815260200182805460018160011615610100020316600290048015611ed75780601f10611eac57610100808354040283529160200191611ed7565b820191906000526020600020905b815481529060010190602001808311611eba57829003601f168201915b50505050509050919050565b60006001836040518082805190602001908083835b60208310611f1b5780518252602082019150602081019050602083039250611ef8565b6001836020036101000a0380198251168184511680821785525050505050509050019150509081526020016040518091039020600001826040518082805190602001908083835b60208310611f855780518252602082019150602081019050602083039250611f62565b6001836020036101000a038019825116818451168082178552505050505050905001915050908152602001604051809103902054905092915050565b600080826040518082805190602001908083835b60208310611ff85780518252602082019150602081019050602083039250611fd5565b6001836020036101000a038019825116818451168082178552505050505050905001915050908152602001604051809103902060000160405180807f76616c756500000000000000000000000000000000000000000000000000000081525060050190509081526020016040518091039020549050919050565b6000600260003373ffffffffffffffffffffffffffffffffffffffff1673ffffffffffffffffffffffffffffffffffffffff16815260200190815260200160002060000160405180807f7375727665797343726561746564000000000000000000000000000000000000815250600e019050908152602001604051809103902054905090565b60006006826040518082805190602001908083835b60208310612130578051825260208201915060208101905060208303925061210d565b6001836020036101000a0380198251168184511680821785525050505050509050019150509081526020016040518091039020549050919050565b612173612eab565b73ffffffffffffffffffffffffffffffffffffffff16600c60009054906101000a900473ffffffffffffffffffffffffffffffffffffffff1673ffffffffffffffffffffffffffffffffffffffff1614612235576040517f08c379a00000000000000000000000000000000000000000000000000000000081526004018080602001828103825260208152602001807f4f776e61626c653a2063616c6c6572206973206e6f7420746865206f776e657281525060200191505060405180910390fd5b600073ffffffffffffffffffffffffffffffffffffffff16600c60009054906101000a900473ffffffffffffffffffffffffffffffffffffffff1673ffffffffffffffffffffffffffffffffffffffff167f8be0079c531659141344cd1fd0a4f28419497f9722a3daafe3b4186f6b6457e060405160405180910390a36000600c60006101000a81548173ffffffffffffffffffffffffffffffffffffffff021916908373ffffffffffffffffffffffffffffffffffffffff160217905550565b6060600860405180807f737572766579730000000000000000000000000000000000000000000000000081525060070190509081526020016040518091039020828154811061234157fe5b906000526020600020018054600181600116156101000203166002900480601f0160208091040260200160405190810160405280929190818152602001828054600181600116156101000203166002900480156123df5780601f106123b4576101008083540402835291602001916123df565b820191906000526020600020905b8154815290600101906020018083116123c257829003601f168201915b50505050509050919050565b60006001826040518082805190602001908083835b602083106124235780518252602082019150602081019050602083039250612400565b6001836020036101000a038019825116818451168082178552505050505050905001915050908152602001604051809103902060000160405180807f76616c756500000000000000000000000000000000000000000000000000000081525060050190509081526020016040518091039020549050919050565b60006001826040518082805190602001908083835b602083106124d557805182526020820191506020810190506020830392506124b2565b6001836020036101000a038019825116818451168082178552505050505050905001915050908152602001604051809103902060000160405180807f746f74616c50617274696369706174656400000000000000000000000000000081525060110190509081526020016040518091039020549050919050565b6000600260003373ffffffffffffffffffffffffffffffffffffffff1673ffffffffffffffffffffffffffffffffffffffff16815260200190815260200160002060000160405180807f706f6c6c73437265617465640000000000000000000000000000000000000000815250600c019050908152602001604051809103902054905090565b600080826040518082805190602001908083835b6020831061260c57805182526020820191506020810190506020830392506125e9565b6001836020036101000a038019825116818451168082178552505050505050905001915050908152602001604051809103902060000160405180807f746f74616c50617274696369706174656400000000000000000000000000000081525060110190509081526020016040518091039020549050919050565b6000600c60009054906101000a900473ffffffffffffffffffffffffffffffffffffffff16905090565b6060600260003373ffffffffffffffffffffffffffffffffffffffff1673ffffffffffffffffffffffffffffffffffffffff16815260200190815260200160002060060160008381526020019081526020016000208054600181600116156101000203166002900480601f0160208091040260200160405190810160405280929190818152602001828054600181600116156101000203166002900480156127995780601f1061276e57610100808354040283529160200191612799565b820191906000526020600020905b81548152906001019060200180831161277c57829003601f168201915b50505050509050919050565b60006001826040518082805190602001908083835b602083106127dd57805182526020820191506020810190506020830392506127ba565b6001836020036101000a038019825116818451168082178552505050505050905001915050908152602001604051809103902060000160405180807f7061727469636970616e7473416c6c6f7765640000000000000000000000000081525060130190509081526020016040518091039020549050919050565b600080826040518082805190602001908083835b6020831061288e578051825260208201915060208101905060208303925061286b565b6001836020036101000a038019825116818451168082178552505050505050905001915050908152602001604051809103902060030160405180807f73746f7070656453746174757300000000000000000000000000000000000000815250600d019050908152602001604051809103902060009054906101000a900460ff169050919050565b600080826040518082805190602001908083835b6020831061294c5780518252602082019150602081019050602083039250612929565b6001836020036101000a038019825116818451168082178552505050505050905001915050908152602001604051809103902060000160405180807f7061727469636970616e7473416c6c6f7765640000000000000000000000000081525060130190509081526020016040518091039020549050919050565b60006001826040518082805190602001908083835b602083106129fe57805182526020820191506020810190506020830392506129db565b6001836020036101000a038019825116818451168082178552505050505050905001915050908152602001604051809103902060040160405180807f706f6c6c4f776e657200000000000000000000000000000000000000000000008152506009019050908152602001604051809103902060009054906101000a900473ffffffffffffffffffffffffffffffffffffffff169050919050565b612aa0612eab565b73ffffffffffffffffffffffffffffffffffffffff16600c60009054906101000a900473ffffffffffffffffffffffffffffffffffffffff1673ffffffffffffffffffffffffffffffffffffffff1614612b62576040517f08c379a00000000000000000000000000000000000000000000000000000000081526004018080602001828103825260208152602001807f4f776e61626c653a2063616c6c6572206973206e6f7420746865206f776e657281525060200191505060405180910390fd5b80600d60006101000a81548173ffffffffffffffffffffffffffffffffffffffff021916908373ffffffffffffffffffffffffffffffffffffffff16021790555050565b6060600260003373ffffffffffffffffffffffffffffffffffffffff1673ffffffffffffffffffffffffffffffffffffffff16815260200190815260200160002060070160008381526020019081526020016000208054600181600116156101000203166002900480601f016020809104026020016040519081016040528092919081815260200182805460018160011615610100020316600290048015612c8f5780601f10612c6457610100808354040283529160200191612c8f565b820191906000526020600020905b815481529060010190602001808311612c7257829003601f168201915b50505050509050919050565b612ca3612eab565b73ffffffffffffffffffffffffffffffffffffffff16600c60009054906101000a900473ffffffffffffffffffffffffffffffffffffffff1673ffffffffffffffffffffffffffffffffffffffff1614612d65576040517f08c379a00000000000000000000000000000000000000000000000000000000081526004018080602001828103825260208152602001807f4f776e61626c653a2063616c6c6572206973206e6f7420746865206f776e657281525060200191505060405180910390fd5b600073ffffffffffffffffffffffffffffffffffffffff168173ffffffffffffffffffffffffffffffffffffffff161415612deb576040517f08c379a0000000000000000000000000000000000000000000000000000000008152600401808060200182810382526026815260200180612ed56026913960400191505060405180910390fd5b8073ffffffffffffffffffffffffffffffffffffffff16600c60009054906101000a900473ffffffffffffffffffffffffffffffffffffffff1673ffffffffffffffffffffffffffffffffffffffff167f8be0079c531659141344cd1fd0a4f28419497f9722a3daafe3b4186f6b6457e060405160405180910390a380600c60006101000a81548173ffffffffffffffffffffffffffffffffffffffff021916908373ffffffffffffffffffffffffffffffffffffffff16021790555050565b60003390509056fe53696d706c65373737526563697069656e743a20496e76616c696420746f6b656e4f776e61626c653a206e6577206f776e657220697320746865207a65726f2061646472657373a2646970667358221220ec0f3a2cdb79b529224f5464b08f66a2ce0261f495cd3c0d41e03ff319c1ab8f64736f6c634300060c0033",
  "immutableReferences": {},
  "source": "// SPDX-License-Identifier: MIT\r\n\r\npragma solidity 0.6.12;\r\n\r\nimport \"./Storage.sol\";\r\nimport \"@openzeppelin/contracts/access/Ownable.sol\";\r\nimport \"@openzeppelin/contracts/token/ERC777/IERC777.sol\";\r\nimport \"@openzeppelin/contracts/introspection/IERC1820Registry.sol\";\r\nimport \"@openzeppelin/contracts/token/ERC777/IERC777Recipient.sol\";\r\n\r\ncontract SurveyProxy is Storage, Ownable\r\n{\r\n//ERC777 emplementation + recipients\r\n\r\n  address private funcAddress;\r\n\r\n  IERC1820Registry private _erc1820 = IERC1820Registry(\r\n\t\t0x1820a4B7618BdE71Dce8cdc73aAB6C95905faD24\r\n\t);\r\n\tbytes32 private constant TOKENS_RECIPIENT_INTERFACE_HASH = keccak256(\r\n\t\t\"ERC777TokensRecipient\"\r\n\t);\r\n\r\n\tIERC777 private _token;\r\n\r\n\tevent DoneStuff(\r\n\t\taddress operator,\r\n\t\taddress from,\r\n\t\taddress to,\r\n\t\tuint256 amount,\r\n\t\tbytes userData,\r\n\t\tbytes operatorData\r\n\t);\r\n\r\n\tconstructor(address token, address _funcAddress) public {\r\n\t\t_token = IERC777(token);\r\n    funcAddress =_funcAddress;\r\n\r\n\t\t_erc1820.setInterfaceImplementer(\r\n\t\t\t\taddress(this),\r\n\t\t\t\tTOKENS_RECIPIENT_INTERFACE_HASH,\r\n\t\t\t\taddress(this)\r\n\t\t);\r\n\t}\r\n\r\n\tfunction tokensReceived(\r\n\t\taddress operator,\r\n\t\taddress from,\r\n\t\taddress to,\r\n\t\tuint256 amount,\r\n\t\tbytes calldata userData,\r\n\t\tbytes calldata operatorData\r\n\t) external {\r\n\t\trequire(\r\n\t\t\t\tmsg.sender == address(_token),\r\n\t\t\t\t\"Simple777Recipient: Invalid token\"\r\n\t\t);\r\n\r\n\t\t// do stuff\r\n\t\temit DoneStuff(operator, from, to, amount, userData, operatorData);\r\n\t}\r\n\r\n  function updateFunc(address _newAddress) onlyOwner public\r\n  {\r\n    funcAddress = _newAddress;\r\n  }\r\n\r\n  //FALLBACK function\r\n  fallback() payable external\r\n  {\r\n    //Redirect to funcAddress\r\n    address implementation = funcAddress;\r\n    require(funcAddress != address(0));\r\n    bytes memory data = msg.data;\r\n\r\n    assembly\r\n    {\r\n      let result := delegatecall(gas(), implementation, add(data, 0x20), mload(data), 0, 0)\r\n      let size := returndatasize()\r\n      let ptr := mload(0x40)\r\n      returndatacopy(ptr, 0, size)\r\n      switch result\r\n      case 0 {revert(ptr, size)}\r\n      default {return(ptr, size)}\r\n    }\r\n  }\r\n}\r\n",
  "sourcePath": "C:/Users/Daniel/Projects/Surveys_V2/contracts/SurveyProxy.sol",
  "compiler": {
    "name": "solc",
    "version": "0.6.12+commit.27d51765.Emscripten.clang"
  },
  "schemaVersion": "3.2.5",
  "updatedAt": "2020-10-05T13:03:20.121Z",
  "networkType": "ethereum",
  "devdoc": {
    "kind": "dev",
    "methods": {
      "owner()": {
        "details": "Returns the address of the current owner."
      },
      "renounceOwnership()": {
        "details": "Leaves the contract without owner. It will not be possible to call `onlyOwner` functions anymore. Can only be called by the current owner. NOTE: Renouncing ownership will leave the contract without an owner, thereby removing any functionality that is only available to the owner."
      },
      "transferOwnership(address)": {
        "details": "Transfers ownership of the contract to a new account (`newOwner`). Can only be called by the current owner."
      }
    },
    "version": 1
  },
  "userdoc": {
    "kind": "user",
    "methods": {},
    "version": 1
  }
}