{
  "contractName": "SurveyProxy",
  "abi": [
    {
      "inputs": [
        {
          "internalType": "address",
          "name": "token",
          "type": "address"
        },
        {
          "internalType": "address",
          "name": "_funcAddress",
          "type": "address"
        }
      ],
      "stateMutability": "nonpayable",
      "type": "constructor"
    },
    {
      "anonymous": false,
      "inputs": [
        {
          "indexed": false,
          "internalType": "address",
          "name": "operator",
          "type": "address"
        },
        {
          "indexed": false,
          "internalType": "address",
          "name": "from",
          "type": "address"
        },
        {
          "indexed": false,
          "internalType": "address",
          "name": "to",
          "type": "address"
        },
        {
          "indexed": false,
          "internalType": "uint256",
          "name": "amount",
          "type": "uint256"
        },
        {
          "indexed": false,
          "internalType": "bytes",
          "name": "userData",
          "type": "bytes"
        },
        {
          "indexed": false,
          "internalType": "bytes",
          "name": "operatorData",
          "type": "bytes"
        }
      ],
      "name": "DoneStuff",
      "type": "event"
    },
    {
      "anonymous": false,
      "inputs": [
        {
          "indexed": true,
          "internalType": "address",
          "name": "previousOwner",
          "type": "address"
        },
        {
          "indexed": true,
          "internalType": "address",
          "name": "newOwner",
          "type": "address"
        }
      ],
      "name": "OwnershipTransferred",
      "type": "event"
    },
    {
      "stateMutability": "payable",
      "type": "fallback",
      "payable": true
    },
    {
      "inputs": [
        {
          "internalType": "bytes32",
          "name": "_pollName",
          "type": "bytes32"
        },
        {
          "internalType": "string",
          "name": "_variableName",
          "type": "string"
        }
      ],
      "name": "getPollAddressStorage",
      "outputs": [
        {
          "internalType": "address",
          "name": "",
          "type": "address"
        }
      ],
      "stateMutability": "view",
      "type": "function",
      "constant": true
    },
    {
      "inputs": [
        {
          "internalType": "bytes32",
          "name": "_pollName",
          "type": "bytes32"
        },
        {
          "internalType": "string",
          "name": "_variableName",
          "type": "string"
        }
      ],
      "name": "getPollBoolStorage",
      "outputs": [
        {
          "internalType": "bool",
          "name": "",
          "type": "bool"
        }
      ],
      "stateMutability": "view",
      "type": "function",
      "constant": true
    },
    {
      "inputs": [
        {
          "internalType": "bytes32",
          "name": "_pollName",
          "type": "bytes32"
        },
        {
          "internalType": "bytes32",
          "name": "_variableName",
          "type": "bytes32"
        }
      ],
      "name": "getPollBytes32UintStorage",
      "outputs": [
        {
          "internalType": "uint256",
          "name": "",
          "type": "uint256"
        }
      ],
      "stateMutability": "view",
      "type": "function",
      "constant": true
    },
    {
      "inputs": [
        {
          "internalType": "bytes32",
          "name": "_pollName",
          "type": "bytes32"
        },
        {
          "internalType": "string",
          "name": "_variableName",
          "type": "string"
        }
      ],
      "name": "getPollStringStorage",
      "outputs": [
        {
          "internalType": "string",
          "name": "",
          "type": "string"
        }
      ],
      "stateMutability": "view",
      "type": "function",
      "constant": true
    },
    {
      "inputs": [
        {
          "internalType": "bytes32",
          "name": "_pollName",
          "type": "bytes32"
        },
        {
          "internalType": "string",
          "name": "_variableName",
          "type": "string"
        }
      ],
      "name": "getPollStringToBytes32ArrayStorage",
      "outputs": [
        {
          "internalType": "bytes32[]",
          "name": "",
          "type": "bytes32[]"
        }
      ],
      "stateMutability": "view",
      "type": "function",
      "constant": true
    },
    {
      "inputs": [
        {
          "internalType": "bytes32",
          "name": "_pollName",
          "type": "bytes32"
        },
        {
          "internalType": "string",
          "name": "_variableName",
          "type": "string"
        }
      ],
      "name": "getPollUintStorage",
      "outputs": [
        {
          "internalType": "uint256",
          "name": "",
          "type": "uint256"
        }
      ],
      "stateMutability": "view",
      "type": "function",
      "constant": true
    },
    {
      "inputs": [
        {
          "internalType": "bytes32",
          "name": "_pollName",
          "type": "bytes32"
        },
        {
          "internalType": "uint256",
          "name": "_variableNumber",
          "type": "uint256"
        }
      ],
      "name": "getPollUintToBytes32ArrayStorage",
      "outputs": [
        {
          "internalType": "bytes32[]",
          "name": "",
          "type": "bytes32[]"
        }
      ],
      "stateMutability": "view",
      "type": "function",
      "constant": true
    },
    {
      "inputs": [
        {
          "internalType": "string",
          "name": "_arrayName",
          "type": "string"
        }
      ],
      "name": "getStringToBytes32ArrayStorrage",
      "outputs": [
        {
          "internalType": "bytes32[]",
          "name": "",
          "type": "bytes32[]"
        }
      ],
      "stateMutability": "view",
      "type": "function",
      "constant": true
    },
    {
      "inputs": [
        {
          "internalType": "bytes32",
          "name": "_surveyName",
          "type": "bytes32"
        },
        {
          "internalType": "string",
          "name": "_variableName",
          "type": "string"
        }
      ],
      "name": "getSurveyAddressStorage",
      "outputs": [
        {
          "internalType": "address",
          "name": "",
          "type": "address"
        }
      ],
      "stateMutability": "view",
      "type": "function",
      "constant": true
    },
    {
      "inputs": [
        {
          "internalType": "bytes32",
          "name": "_surveyName",
          "type": "bytes32"
        },
        {
          "internalType": "string",
          "name": "_variableName",
          "type": "string"
        }
      ],
      "name": "getSurveyBoolStorage",
      "outputs": [
        {
          "internalType": "bool",
          "name": "",
          "type": "bool"
        }
      ],
      "stateMutability": "view",
      "type": "function",
      "constant": true
    },
    {
      "inputs": [
        {
          "internalType": "bytes32",
          "name": "_surveyName",
          "type": "bytes32"
        },
        {
          "internalType": "bytes32",
          "name": "_variableName",
          "type": "bytes32"
        }
      ],
      "name": "getSurveyBytes32UintStorage",
      "outputs": [
        {
          "internalType": "uint256",
          "name": "",
          "type": "uint256"
        }
      ],
      "stateMutability": "view",
      "type": "function",
      "constant": true
    },
    {
      "inputs": [
        {
          "internalType": "bytes32",
          "name": "_surveyName",
          "type": "bytes32"
        },
        {
          "internalType": "string",
          "name": "_variableName",
          "type": "string"
        }
      ],
      "name": "getSurveyStringStorage",
      "outputs": [
        {
          "internalType": "string",
          "name": "",
          "type": "string"
        }
      ],
      "stateMutability": "view",
      "type": "function",
      "constant": true
    },
    {
      "inputs": [
        {
          "internalType": "bytes32",
          "name": "_surveyName",
          "type": "bytes32"
        },
        {
          "internalType": "string",
          "name": "_variableName",
          "type": "string"
        }
      ],
      "name": "getSurveyStringToBytes32ArrayStorage",
      "outputs": [
        {
          "internalType": "bytes32[]",
          "name": "",
          "type": "bytes32[]"
        }
      ],
      "stateMutability": "view",
      "type": "function",
      "constant": true
    },
    {
      "inputs": [
        {
          "internalType": "bytes32",
          "name": "_surveyName",
          "type": "bytes32"
        },
        {
          "internalType": "string",
          "name": "_variableName",
          "type": "string"
        }
      ],
      "name": "getSurveyUintStorage",
      "outputs": [
        {
          "internalType": "uint256",
          "name": "",
          "type": "uint256"
        }
      ],
      "stateMutability": "view",
      "type": "function",
      "constant": true
    },
    {
      "inputs": [
        {
          "internalType": "bytes32",
          "name": "_surveyName",
          "type": "bytes32"
        },
        {
          "internalType": "uint256",
          "name": "_variableNumber",
          "type": "uint256"
        }
      ],
      "name": "getSurveyUintToBytes32ArrayStorage",
      "outputs": [
        {
          "internalType": "bytes32[]",
          "name": "",
          "type": "bytes32[]"
        }
      ],
      "stateMutability": "view",
      "type": "function",
      "constant": true
    },
    {
      "inputs": [
        {
          "internalType": "bytes32",
          "name": "_pollName",
          "type": "bytes32"
        }
      ],
      "name": "getUserParticipatedPollStatus",
      "outputs": [
        {
          "internalType": "bool",
          "name": "",
          "type": "bool"
        }
      ],
      "stateMutability": "view",
      "type": "function",
      "constant": true
    },
    {
      "inputs": [
        {
          "internalType": "bytes32",
          "name": "_surveyName",
          "type": "bytes32"
        }
      ],
      "name": "getUserParticipatedSurveyStatus",
      "outputs": [
        {
          "internalType": "bool",
          "name": "",
          "type": "bool"
        }
      ],
      "stateMutability": "view",
      "type": "function",
      "constant": true
    },
    {
      "inputs": [
        {
          "internalType": "string",
          "name": "_variableName",
          "type": "string"
        }
      ],
      "name": "getUserStringToBytes32ArrayStorage",
      "outputs": [
        {
          "internalType": "bytes32[]",
          "name": "",
          "type": "bytes32[]"
        }
      ],
      "stateMutability": "view",
      "type": "function",
      "constant": true
    },
    {
      "inputs": [],
      "name": "owner",
      "outputs": [
        {
          "internalType": "address",
          "name": "",
          "type": "address"
        }
      ],
      "stateMutability": "view",
      "type": "function",
      "constant": true
    },
    {
      "inputs": [],
      "name": "renounceOwnership",
      "outputs": [],
      "stateMutability": "nonpayable",
      "type": "function"
    },
    {
      "inputs": [
        {
          "internalType": "address",
          "name": "newOwner",
          "type": "address"
        }
      ],
      "name": "transferOwnership",
      "outputs": [],
      "stateMutability": "nonpayable",
      "type": "function"
    },
    {
      "inputs": [
        {
          "internalType": "address",
          "name": "operator",
          "type": "address"
        },
        {
          "internalType": "address",
          "name": "from",
          "type": "address"
        },
        {
          "internalType": "address",
          "name": "to",
          "type": "address"
        },
        {
          "internalType": "uint256",
          "name": "amount",
          "type": "uint256"
        },
        {
          "internalType": "bytes",
          "name": "userData",
          "type": "bytes"
        },
        {
          "internalType": "bytes",
          "name": "operatorData",
          "type": "bytes"
        }
      ],
      "name": "tokensReceived",
      "outputs": [],
      "stateMutability": "nonpayable",
      "type": "function"
    },
    {
      "inputs": [
        {
          "internalType": "address",
          "name": "_newAddress",
          "type": "address"
        }
      ],
      "name": "updateFunc",
      "outputs": [],
      "stateMutability": "nonpayable",
      "type": "function"
    }
  ],
  "bytecode": "0x6080604052731820a4b7618bde71dce8cdc73aab6c95905fad24600b60006101000a81548173ffffffffffffffffffffffffffffffffffffffff021916908373ffffffffffffffffffffffffffffffffffffffff1602179055503480156200006657600080fd5b50604051620028ff380380620028ff833981810160405260408110156200008c57600080fd5b8101908080519060200190929190805190602001909291905050506000620000b9620002cd60201b60201c565b905080600960006101000a81548173ffffffffffffffffffffffffffffffffffffffff021916908373ffffffffffffffffffffffffffffffffffffffff1602179055508073ffffffffffffffffffffffffffffffffffffffff16600073ffffffffffffffffffffffffffffffffffffffff167f8be0079c531659141344cd1fd0a4f28419497f9722a3daafe3b4186f6b6457e060405160405180910390a35081600c60006101000a81548173ffffffffffffffffffffffffffffffffffffffff021916908373ffffffffffffffffffffffffffffffffffffffff16021790555080600a60006101000a81548173ffffffffffffffffffffffffffffffffffffffff021916908373ffffffffffffffffffffffffffffffffffffffff160217905550600b60009054906101000a900473ffffffffffffffffffffffffffffffffffffffff1673ffffffffffffffffffffffffffffffffffffffff166329965a1d307fb281fc8c12954d22544db45de3159a39272895b169a852b314f9cc762e44c53b306040518463ffffffff1660e01b8152600401808473ffffffffffffffffffffffffffffffffffffffff1681526020018381526020018273ffffffffffffffffffffffffffffffffffffffff1681526020019350505050600060405180830381600087803b158015620002ac57600080fd5b505af1158015620002c1573d6000803e3d6000fd5b505050505050620002d5565b600033905090565b61261a80620002e56000396000f3fe6080604052600436106101435760003560e01c80638da5cb5b116100b6578063cf3577801161006f578063cf35778014610f89578063dca61ca314611071578063dfb70e16146110c2578063e8a42335146111a8578063f054dda414611242578063f2fde38b1461135f57610144565b80638da5cb5b14610b2857806397a0c3fa14610b695780639cdbc76c14610c655780639f82f84c14610db0578063a77b47ee14610ed7578063b2fa5c5514610f3057610144565b80635959954e116101085780635959954e1461076e57806364431b9c1461088b57806370bd0fc7146108dc578063715018a6146109c457806374c00140146109db5780637dc7047814610ad757610144565b806223de29146102375780630a3225a51461037c5780631d6d7cf4146104165780632cf80fcb146104fc5780632de1a2ca1461062357610144565b5b6000600a60009054906101000a900473ffffffffffffffffffffffffffffffffffffffff169050600073ffffffffffffffffffffffffffffffffffffffff16600a60009054906101000a900473ffffffffffffffffffffffffffffffffffffffff1673ffffffffffffffffffffffffffffffffffffffff1614156101c757600080fd5b60606000368080601f016020809104026020016040519081016040528093929190818152602001838380828437600081840152601f19601f820116905080830192505050505050509050600080825160208401855af43d604051816000823e8260008114610233578282f35b8282fd5b34801561024357600080fd5b5061037a600480360360c081101561025a57600080fd5b81019080803573ffffffffffffffffffffffffffffffffffffffff169060200190929190803573ffffffffffffffffffffffffffffffffffffffff169060200190929190803573ffffffffffffffffffffffffffffffffffffffff16906020019092919080359060200190929190803590602001906401000000008111156102e157600080fd5b8201836020820111156102f357600080fd5b8035906020019184600183028401116401000000008311171561031557600080fd5b90919293919293908035906020019064010000000081111561033657600080fd5b82018360208201111561034857600080fd5b8035906020019184600183028401116401000000008311171561036a57600080fd5b90919293919293905050506113b0565b005b34801561038857600080fd5b506103bf6004803603604081101561039f57600080fd5b810190808035906020019092919080359060200190929190505050611559565b6040518080602001828103825283818151815260200191508051906020019060200280838360005b838110156104025780820151818401526020810190506103e7565b505050509050019250505060405180910390f35b34801561042257600080fd5b506104e66004803603604081101561043957600080fd5b81019080803590602001909291908035906020019064010000000081111561046057600080fd5b82018360208201111561047257600080fd5b8035906020019184600183028401116401000000008311171561049457600080fd5b91908080601f016020809104026020016040519081016040528093929190818152602001838380828437600081840152601f19601f8201169050808301925050505050505091929192905050506115d9565b6040518082815260200191505060405180910390f35b34801561050857600080fd5b506105cc6004803603604081101561051f57600080fd5b81019080803590602001909291908035906020019064010000000081111561054657600080fd5b82018360208201111561055857600080fd5b8035906020019184600183028401116401000000008311171561057a57600080fd5b91908080601f016020809104026020016040519081016040528093929190818152602001838380828437600081840152601f19601f820116905080830192505050505050509192919290505050611661565b6040518080602001828103825283818151815260200191508051906020019060200280838360005b8381101561060f5780820151818401526020810190506105f4565b505050509050019250505060405180910390f35b34801561062f57600080fd5b506106f36004803603604081101561064657600080fd5b81019080803590602001909291908035906020019064010000000081111561066d57600080fd5b82018360208201111561067f57600080fd5b803590602001918460018302840111640100000000831117156106a157600080fd5b91908080601f016020809104026020016040519081016040528093929190818152602001838380828437600081840152601f19601f820116905080830192505050505050509192919290505050611737565b6040518080602001828103825283818151815260200191508051906020019080838360005b83811015610733578082015181840152602081019050610718565b50505050905090810190601f1680156107605780820380516001836020036101000a031916815260200191505b509250505060405180910390f35b34801561077a57600080fd5b506108346004803603602081101561079157600080fd5b81019080803590602001906401000000008111156107ae57600080fd5b8201836020820111156107c057600080fd5b803590602001918460018302840111640100000000831117156107e257600080fd5b91908080601f016020809104026020016040519081016040528093929190818152602001838380828437600081840152601f19601f820116905080830192505050505050509192919290505050611856565b6040518080602001828103825283818151815260200191508051906020019060200280838360005b8381101561087757808201518184015260208101905061085c565b505050509050019250505060405180910390f35b34801561089757600080fd5b506108c4600480360360208110156108ae57600080fd5b8101908080359060200190929190505050611957565b60405180821515815260200191505060405180910390f35b3480156108e857600080fd5b506109ac600480360360408110156108ff57600080fd5b81019080803590602001909291908035906020019064010000000081111561092657600080fd5b82018360208201111561093857600080fd5b8035906020019184600183028401116401000000008311171561095a57600080fd5b91908080601f016020809104026020016040519081016040528093929190818152602001838380828437600081840152601f19601f8201169050808301925050505050505091929192905050506119c1565b60405180821515815260200191505060405180910390f35b3480156109d057600080fd5b506109d9611a56565b005b3480156109e757600080fd5b50610aab600480360360408110156109fe57600080fd5b810190808035906020019092919080359060200190640100000000811115610a2557600080fd5b820183602082011115610a3757600080fd5b80359060200191846001830284011164010000000083111715610a5957600080fd5b91908080601f016020809104026020016040519081016040528093929190818152602001838380828437600081840152601f19601f820116905080830192505050505050509192919290505050611be1565b604051808273ffffffffffffffffffffffffffffffffffffffff16815260200191505060405180910390f35b348015610ae357600080fd5b50610b1060048036036020811015610afa57600080fd5b8101908080359060200190929190505050611c88565b60405180821515815260200191505060405180910390f35b348015610b3457600080fd5b50610b3d611cf2565b604051808273ffffffffffffffffffffffffffffffffffffffff16815260200191505060405180910390f35b348015610b7557600080fd5b50610c3960048036036040811015610b8c57600080fd5b810190808035906020019092919080359060200190640100000000811115610bb357600080fd5b820183602082011115610bc557600080fd5b80359060200191846001830284011164010000000083111715610be757600080fd5b91908080601f016020809104026020016040519081016040528093929190818152602001838380828437600081840152601f19601f820116905080830192505050505050509192919290505050611d1c565b604051808273ffffffffffffffffffffffffffffffffffffffff16815260200191505060405180910390f35b348015610c7157600080fd5b50610d3560048036036040811015610c8857600080fd5b810190808035906020019092919080359060200190640100000000811115610caf57600080fd5b820183602082011115610cc157600080fd5b80359060200191846001830284011164010000000083111715610ce357600080fd5b91908080601f016020809104026020016040519081016040528093929190818152602001838380828437600081840152601f19601f820116905080830192505050505050509192919290505050611dc4565b6040518080602001828103825283818151815260200191508051906020019080838360005b83811015610d75578082015181840152602081019050610d5a565b50505050905090810190601f168015610da25780820380516001836020036101000a031916815260200191505b509250505060405180910390f35b348015610dbc57600080fd5b50610e8060048036036040811015610dd357600080fd5b810190808035906020019092919080359060200190640100000000811115610dfa57600080fd5b820183602082011115610e0c57600080fd5b80359060200191846001830284011164010000000083111715610e2e57600080fd5b91908080601f016020809104026020016040519081016040528093929190818152602001838380828437600081840152601f19601f820116905080830192505050505050509192919290505050611ee4565b6040518080602001828103825283818151815260200191508051906020019060200280838360005b83811015610ec3578082015181840152602081019050610ea8565b505050509050019250505060405180910390f35b348015610ee357600080fd5b50610f1a60048036036040811015610efa57600080fd5b810190808035906020019092919080359060200190929190505050611fb9565b6040518082815260200191505060405180910390f35b348015610f3c57600080fd5b50610f7360048036036040811015610f5357600080fd5b810190808035906020019092919080359060200190929190505050611fea565b6040518082815260200191505060405180910390f35b348015610f9557600080fd5b5061105960048036036040811015610fac57600080fd5b810190808035906020019092919080359060200190640100000000811115610fd357600080fd5b820183602082011115610fe557600080fd5b8035906020019184600183028401116401000000008311171561100757600080fd5b91908080601f016020809104026020016040519081016040528093929190818152602001838380828437600081840152601f19601f82011690508083019250505050505050919291929050505061201c565b60405180821515815260200191505060405180910390f35b34801561107d57600080fd5b506110c06004803603602081101561109457600080fd5b81019080803573ffffffffffffffffffffffffffffffffffffffff1690602001909291905050506120b0565b005b3480156110ce57600080fd5b50611192600480360360408110156110e557600080fd5b81019080803590602001909291908035906020019064010000000081111561110c57600080fd5b82018360208201111561111e57600080fd5b8035906020019184600183028401116401000000008311171561114057600080fd5b91908080601f016020809104026020016040519081016040528093929190818152602001838380828437600081840152601f19601f8201169050808301925050505050505091929192905050506121be565b6040518082815260200191505060405180910390f35b3480156111b457600080fd5b506111eb600480360360408110156111cb57600080fd5b810190808035906020019092919080359060200190929190505050612245565b6040518080602001828103825283818151815260200191508051906020019060200280838360005b8381101561122e578082015181840152602081019050611213565b505050509050019250505060405180910390f35b34801561124e57600080fd5b506113086004803603602081101561126557600080fd5b810190808035906020019064010000000081111561128257600080fd5b82018360208201111561129457600080fd5b803590602001918460018302840111640100000000831117156112b657600080fd5b91908080601f016020809104026020016040519081016040528093929190818152602001838380828437600081840152601f19601f8201169050808301925050505050505091929192905050506122c4565b6040518080602001828103825283818151815260200191508051906020019060200280838360005b8381101561134b578082015181840152602081019050611330565b505050509050019250505060405180910390f35b34801561136b57600080fd5b506113ae6004803603602081101561138257600080fd5b81019080803573ffffffffffffffffffffffffffffffffffffffff169060200190929190505050612385565b005b600c60009054906101000a900473ffffffffffffffffffffffffffffffffffffffff1673ffffffffffffffffffffffffffffffffffffffff163373ffffffffffffffffffffffffffffffffffffffff1614611456576040517f08c379a000000000000000000000000000000000000000000000000000000000815260040180806020018281038252602181526020018061259e6021913960400191505060405180910390fd5b7fa0a5a35754b3519ae614f00422ac62a6bc4608ccb722963aab00cb48c588ad728888888888888888604051808973ffffffffffffffffffffffffffffffffffffffff1681526020018873ffffffffffffffffffffffffffffffffffffffff1681526020018773ffffffffffffffffffffffffffffffffffffffff16815260200186815260200180602001806020018381038352878782818152602001925080828437600081840152601f19601f8201169050808301925050508381038252858582818152602001925080828437600081840152601f19601f8201169050808301925050509a505050505050505050505060405180910390a15050505050505050565b60606001600084815260200190815260200160002060000160008381526020019081526020016000208054806020026020016040519081016040528092919081815260200182805480156115cc57602002820191906000526020600020905b8154815260200190600101908083116115b8575b5050505050905092915050565b600060016000848152602001908152602001600020600301826040518082805190602001908083835b602083106116255780518252602082019150602081019050602083039250611602565b6001836020036101000a038019825116818451168082178552505050505050905001915050908152602001604051809103902054905092915050565b606060016000848152602001908152602001600020600101826040518082805190602001908083835b602083106116ad578051825260208201915060208101905060208303925061168a565b6001836020036101000a038019825116818451168082178552505050505050905001915050908152602001604051809103902080548060200260200160405190810160405280929190818152602001828054801561172a57602002820191906000526020600020905b815481526020019060010190808311611716575b5050505050905092915050565b6060600080848152602001908152602001600020600401826040518082805190602001908083835b60208310611782578051825260208201915060208101905060208303925061175f565b6001836020036101000a03801982511681845116808217855250505050505090500191505090815260200160405180910390208054600181600116156101000203166002900480601f0160208091040260200160405190810160405280929190818152602001828054600181600116156101000203166002900480156118495780601f1061181e57610100808354040283529160200191611849565b820191906000526020600020905b81548152906001019060200180831161182c57829003601f168201915b5050505050905092915050565b6060600260003373ffffffffffffffffffffffffffffffffffffffff1673ffffffffffffffffffffffffffffffffffffffff168152602001908152602001600020600201826040518082805190602001908083835b602083106118ce57805182526020820191506020810190506020830392506118ab565b6001836020036101000a038019825116818451168082178552505050505050905001915050908152602001604051809103902080548060200260200160405190810160405280929190818152602001828054801561194b57602002820191906000526020600020905b815481526020019060010190808311611937575b50505050509050919050565b6000600260003373ffffffffffffffffffffffffffffffffffffffff1673ffffffffffffffffffffffffffffffffffffffff168152602001908152602001600020600001600083815260200190815260200160002060009054906101000a900460ff169050919050565b600060016000848152602001908152602001600020600501826040518082805190602001908083835b60208310611a0d57805182526020820191506020810190506020830392506119ea565b6001836020036101000a038019825116818451168082178552505050505050905001915050908152602001604051809103902060009054906101000a900460ff16905092915050565b611a5e612595565b73ffffffffffffffffffffffffffffffffffffffff16600960009054906101000a900473ffffffffffffffffffffffffffffffffffffffff1673ffffffffffffffffffffffffffffffffffffffff1614611b20576040517f08c379a00000000000000000000000000000000000000000000000000000000081526004018080602001828103825260208152602001807f4f776e61626c653a2063616c6c6572206973206e6f7420746865206f776e657281525060200191505060405180910390fd5b600073ffffffffffffffffffffffffffffffffffffffff16600960009054906101000a900473ffffffffffffffffffffffffffffffffffffffff1673ffffffffffffffffffffffffffffffffffffffff167f8be0079c531659141344cd1fd0a4f28419497f9722a3daafe3b4186f6b6457e060405160405180910390a36000600960006101000a81548173ffffffffffffffffffffffffffffffffffffffff021916908373ffffffffffffffffffffffffffffffffffffffff160217905550565b6000806000848152602001908152602001600020600601826040518082805190602001908083835b60208310611c2c5780518252602082019150602081019050602083039250611c09565b6001836020036101000a038019825116818451168082178552505050505050905001915050908152602001604051809103902060009054906101000a900473ffffffffffffffffffffffffffffffffffffffff16905092915050565b6000600260003373ffffffffffffffffffffffffffffffffffffffff1673ffffffffffffffffffffffffffffffffffffffff168152602001908152602001600020600101600083815260200190815260200160002060009054906101000a900460ff169050919050565b6000600960009054906101000a900473ffffffffffffffffffffffffffffffffffffffff16905090565b600060016000848152602001908152602001600020600601826040518082805190602001908083835b60208310611d685780518252602082019150602081019050602083039250611d45565b6001836020036101000a038019825116818451168082178552505050505050905001915050908152602001604051809103902060009054906101000a900473ffffffffffffffffffffffffffffffffffffffff16905092915050565b606060016000848152602001908152602001600020600401826040518082805190602001908083835b60208310611e105780518252602082019150602081019050602083039250611ded565b6001836020036101000a03801982511681845116808217855250505050505090500191505090815260200160405180910390208054600181600116156101000203166002900480601f016020809104026020016040519081016040528092919081815260200182805460018160011615610100020316600290048015611ed75780601f10611eac57610100808354040283529160200191611ed7565b820191906000526020600020905b815481529060010190602001808311611eba57829003601f168201915b5050505050905092915050565b6060600080848152602001908152602001600020600101826040518082805190602001908083835b60208310611f2f5780518252602082019150602081019050602083039250611f0c565b6001836020036101000a0380198251168184511680821785525050505050509050019150509081526020016040518091039020805480602002602001604051908101604052809291908181526020018280548015611fac57602002820191906000526020600020905b815481526020019060010190808311611f98575b5050505050905092915050565b6000806000848152602001908152602001600020600201600083815260200190815260200160002054905092915050565b600060016000848152602001908152602001600020600201600083815260200190815260200160002054905092915050565b6000806000848152602001908152602001600020600501826040518082805190602001908083835b602083106120675780518252602082019150602081019050602083039250612044565b6001836020036101000a038019825116818451168082178552505050505050905001915050908152602001604051809103902060009054906101000a900460ff16905092915050565b6120b8612595565b73ffffffffffffffffffffffffffffffffffffffff16600960009054906101000a900473ffffffffffffffffffffffffffffffffffffffff1673ffffffffffffffffffffffffffffffffffffffff161461217a576040517f08c379a00000000000000000000000000000000000000000000000000000000081526004018080602001828103825260208152602001807f4f776e61626c653a2063616c6c6572206973206e6f7420746865206f776e657281525060200191505060405180910390fd5b80600a60006101000a81548173ffffffffffffffffffffffffffffffffffffffff021916908373ffffffffffffffffffffffffffffffffffffffff16021790555050565b6000806000848152602001908152602001600020600301826040518082805190602001908083835b6020831061220957805182526020820191506020810190506020830392506121e6565b6001836020036101000a038019825116818451168082178552505050505050905001915050908152602001604051809103902054905092915050565b606060008084815260200190815260200160002060000160008381526020019081526020016000208054806020026020016040519081016040528092919081815260200182805480156122b757602002820191906000526020600020905b8154815260200190600101908083116122a3575b5050505050905092915050565b60606003826040518082805190602001908083835b602083106122fc57805182526020820191506020810190506020830392506122d9565b6001836020036101000a038019825116818451168082178552505050505050905001915050908152602001604051809103902080548060200260200160405190810160405280929190818152602001828054801561237957602002820191906000526020600020905b815481526020019060010190808311612365575b50505050509050919050565b61238d612595565b73ffffffffffffffffffffffffffffffffffffffff16600960009054906101000a900473ffffffffffffffffffffffffffffffffffffffff1673ffffffffffffffffffffffffffffffffffffffff161461244f576040517f08c379a00000000000000000000000000000000000000000000000000000000081526004018080602001828103825260208152602001807f4f776e61626c653a2063616c6c6572206973206e6f7420746865206f776e657281525060200191505060405180910390fd5b600073ffffffffffffffffffffffffffffffffffffffff168173ffffffffffffffffffffffffffffffffffffffff1614156124d5576040517f08c379a00000000000000000000000000000000000000000000000000000000081526004018080602001828103825260268152602001806125bf6026913960400191505060405180910390fd5b8073ffffffffffffffffffffffffffffffffffffffff16600960009054906101000a900473ffffffffffffffffffffffffffffffffffffffff1673ffffffffffffffffffffffffffffffffffffffff167f8be0079c531659141344cd1fd0a4f28419497f9722a3daafe3b4186f6b6457e060405160405180910390a380600960006101000a81548173ffffffffffffffffffffffffffffffffffffffff021916908373ffffffffffffffffffffffffffffffffffffffff16021790555050565b60003390509056fe53696d706c65373737526563697069656e743a20496e76616c696420746f6b656e4f776e61626c653a206e6577206f776e657220697320746865207a65726f2061646472657373a2646970667358221220e25305ac00926478300885e373f395e56d28f8a03b27b66819c5b1b8eb7673e564736f6c634300060c0033",
  "immutableReferences": {},
  "source": "// SPDX-License-Identifier: MIT\r\n\r\npragma solidity 0.6.12;\r\n\r\nimport \"./Storage.sol\";\r\nimport \"@openzeppelin/contracts/access/Ownable.sol\";\r\nimport \"@openzeppelin/contracts/token/ERC777/IERC777.sol\";\r\nimport \"@openzeppelin/contracts/introspection/IERC1820Registry.sol\";\r\nimport \"@openzeppelin/contracts/token/ERC777/IERC777Recipient.sol\";\r\n\r\ncontract SurveyProxy is Storage, Ownable\r\n{\r\n//ERC777 emplementation + recipients\r\n\r\n  address private funcAddress;\r\n\r\n  IERC1820Registry private _erc1820 = IERC1820Registry(\r\n\t\t0x1820a4B7618BdE71Dce8cdc73aAB6C95905faD24\r\n\t);\r\n\tbytes32 private constant TOKENS_RECIPIENT_INTERFACE_HASH = keccak256(\r\n\t\t\"ERC777TokensRecipient\"\r\n\t);\r\n\r\n\tIERC777 private _token;\r\n\r\n\tevent DoneStuff(\r\n\t\taddress operator,\r\n\t\taddress from,\r\n\t\taddress to,\r\n\t\tuint256 amount,\r\n\t\tbytes userData,\r\n\t\tbytes operatorData\r\n\t);\r\n\r\n\tconstructor(address token, address _funcAddress) public {\r\n\t\t_token = IERC777(token);\r\n    funcAddress =_funcAddress;\r\n\r\n\t\t_erc1820.setInterfaceImplementer(\r\n\t\t\t\taddress(this),\r\n\t\t\t\tTOKENS_RECIPIENT_INTERFACE_HASH,\r\n\t\t\t\taddress(this)\r\n\t\t);\r\n\t}\r\n\r\n\tfunction tokensReceived(\r\n\t\taddress operator,\r\n\t\taddress from,\r\n\t\taddress to,\r\n\t\tuint256 amount,\r\n\t\tbytes calldata userData,\r\n\t\tbytes calldata operatorData\r\n\t) external {\r\n\t\trequire(\r\n\t\t\t\tmsg.sender == address(_token),\r\n\t\t\t\t\"Simple777Recipient: Invalid token\"\r\n\t\t);\r\n\r\n\t\t// do stuff\r\n\t\temit DoneStuff(operator, from, to, amount, userData, operatorData);\r\n\t}\r\n\r\n  function updateFunc(address _newAddress) onlyOwner public\r\n  {\r\n    funcAddress = _newAddress;\r\n  }\r\n\r\n//FALLBACK function\r\n  fallback() payable external\r\n  {\r\n    //Redirect to funcAddress\r\n    address implementation = funcAddress;\r\n    require(funcAddress != address(0));\r\n    bytes memory data = msg.data;\r\n\r\n    assembly\r\n    {\r\n      let result := delegatecall(gas(), implementation, add(data, 0x20), mload(data), 0, 0)\r\n      let size := returndatasize()\r\n      let ptr := mload(0x40)\r\n      returndatacopy(ptr, 0, size)\r\n      switch result\r\n      case 0 {revert(ptr, size)}\r\n      default {return(ptr, size)}\r\n    }\r\n  }\r\n}\r\n",
  "sourcePath": "C:/Users/Daniel/Projects/Surveys_V2/contracts/SurveyProxy.sol",
  "compiler": {
    "name": "solc",
    "version": "0.6.12+commit.27d51765.Emscripten.clang"
  },
  "schemaVersion": "3.2.5",
  "updatedAt": "2020-10-16T23:14:21.795Z",
  "networkType": "ethereum",
  "devdoc": {
    "kind": "dev",
    "methods": {
      "owner()": {
        "details": "Returns the address of the current owner."
      },
      "renounceOwnership()": {
        "details": "Leaves the contract without owner. It will not be possible to call `onlyOwner` functions anymore. Can only be called by the current owner. NOTE: Renouncing ownership will leave the contract without an owner, thereby removing any functionality that is only available to the owner."
      },
      "transferOwnership(address)": {
        "details": "Transfers ownership of the contract to a new account (`newOwner`). Can only be called by the current owner."
      }
    },
    "version": 1
  },
  "userdoc": {
    "kind": "user",
    "methods": {},
    "version": 1
  }
}