{
  "contractName": "SurveyFunc",
  "abi": [
    {
      "inputs": [
        {
          "internalType": "address",
          "name": "token",
          "type": "address"
        }
      ],
      "stateMutability": "nonpayable",
      "type": "constructor"
    },
    {
      "anonymous": false,
      "inputs": [
        {
          "indexed": false,
          "internalType": "address",
          "name": "operator",
          "type": "address"
        },
        {
          "indexed": false,
          "internalType": "address",
          "name": "from",
          "type": "address"
        },
        {
          "indexed": false,
          "internalType": "address",
          "name": "to",
          "type": "address"
        },
        {
          "indexed": false,
          "internalType": "uint256",
          "name": "amount",
          "type": "uint256"
        },
        {
          "indexed": false,
          "internalType": "bytes",
          "name": "userData",
          "type": "bytes"
        },
        {
          "indexed": false,
          "internalType": "bytes",
          "name": "operatorData",
          "type": "bytes"
        }
      ],
      "name": "DoneStuff",
      "type": "event"
    },
    {
      "anonymous": false,
      "inputs": [
        {
          "indexed": true,
          "internalType": "address",
          "name": "previousOwner",
          "type": "address"
        },
        {
          "indexed": true,
          "internalType": "address",
          "name": "newOwner",
          "type": "address"
        }
      ],
      "name": "OwnershipTransferred",
      "type": "event"
    },
    {
      "anonymous": false,
      "inputs": [
        {
          "indexed": false,
          "internalType": "uint256",
          "name": "nr",
          "type": "uint256"
        }
      ],
      "name": "surveyNumber",
      "type": "event"
    },
    {
      "inputs": [
        {
          "internalType": "string",
          "name": "_name",
          "type": "string"
        },
        {
          "internalType": "string",
          "name": "_choice",
          "type": "string"
        }
      ],
      "name": "getPollChoiceVotes",
      "outputs": [
        {
          "internalType": "uint256",
          "name": "",
          "type": "uint256"
        }
      ],
      "stateMutability": "view",
      "type": "function",
      "constant": true
    },
    {
      "inputs": [
        {
          "internalType": "string",
          "name": "_name",
          "type": "string"
        }
      ],
      "name": "getPollChoices",
      "outputs": [
        {
          "internalType": "string",
          "name": "",
          "type": "string"
        }
      ],
      "stateMutability": "view",
      "type": "function",
      "constant": true
    },
    {
      "inputs": [
        {
          "internalType": "uint256",
          "name": "_ofNumber",
          "type": "uint256"
        }
      ],
      "name": "getPollName",
      "outputs": [
        {
          "internalType": "string",
          "name": "",
          "type": "string"
        }
      ],
      "stateMutability": "view",
      "type": "function",
      "constant": true
    },
    {
      "inputs": [
        {
          "internalType": "string",
          "name": "_name",
          "type": "string"
        }
      ],
      "name": "getPollOwner",
      "outputs": [
        {
          "internalType": "address",
          "name": "",
          "type": "address"
        }
      ],
      "stateMutability": "view",
      "type": "function",
      "constant": true
    },
    {
      "inputs": [
        {
          "internalType": "string",
          "name": "_name",
          "type": "string"
        }
      ],
      "name": "getPollParticipantsAllowed",
      "outputs": [
        {
          "internalType": "uint256",
          "name": "",
          "type": "uint256"
        }
      ],
      "stateMutability": "view",
      "type": "function",
      "constant": true
    },
    {
      "inputs": [
        {
          "internalType": "string",
          "name": "_name",
          "type": "string"
        }
      ],
      "name": "getPollStoppedStatus",
      "outputs": [
        {
          "internalType": "bool",
          "name": "",
          "type": "bool"
        }
      ],
      "stateMutability": "view",
      "type": "function",
      "constant": true
    },
    {
      "inputs": [
        {
          "internalType": "string",
          "name": "_name",
          "type": "string"
        }
      ],
      "name": "getPollTotalParticipants",
      "outputs": [
        {
          "internalType": "uint256",
          "name": "",
          "type": "uint256"
        }
      ],
      "stateMutability": "view",
      "type": "function",
      "constant": true
    },
    {
      "inputs": [
        {
          "internalType": "string",
          "name": "_name",
          "type": "string"
        }
      ],
      "name": "getPollValue",
      "outputs": [
        {
          "internalType": "uint256",
          "name": "",
          "type": "uint256"
        }
      ],
      "stateMutability": "view",
      "type": "function",
      "constant": true
    },
    {
      "inputs": [
        {
          "internalType": "string",
          "name": "_name",
          "type": "string"
        },
        {
          "internalType": "uint256",
          "name": "_ofNumber",
          "type": "uint256"
        }
      ],
      "name": "getSurveyAnswers",
      "outputs": [
        {
          "internalType": "string",
          "name": "",
          "type": "string"
        }
      ],
      "stateMutability": "view",
      "type": "function",
      "constant": true
    },
    {
      "inputs": [
        {
          "internalType": "uint256",
          "name": "_ofNumber",
          "type": "uint256"
        }
      ],
      "name": "getSurveyName",
      "outputs": [
        {
          "internalType": "string",
          "name": "",
          "type": "string"
        }
      ],
      "stateMutability": "view",
      "type": "function",
      "constant": true
    },
    {
      "inputs": [
        {
          "internalType": "string",
          "name": "_name",
          "type": "string"
        }
      ],
      "name": "getSurveyOwner",
      "outputs": [
        {
          "internalType": "address",
          "name": "",
          "type": "address"
        }
      ],
      "stateMutability": "view",
      "type": "function",
      "constant": true
    },
    {
      "inputs": [
        {
          "internalType": "string",
          "name": "_name",
          "type": "string"
        }
      ],
      "name": "getSurveyParticipantsAllowed",
      "outputs": [
        {
          "internalType": "uint256",
          "name": "",
          "type": "uint256"
        }
      ],
      "stateMutability": "view",
      "type": "function",
      "constant": true
    },
    {
      "inputs": [
        {
          "internalType": "string",
          "name": "_name",
          "type": "string"
        }
      ],
      "name": "getSurveyQuestions",
      "outputs": [
        {
          "internalType": "string",
          "name": "",
          "type": "string"
        }
      ],
      "stateMutability": "view",
      "type": "function",
      "constant": true
    },
    {
      "inputs": [
        {
          "internalType": "string",
          "name": "_name",
          "type": "string"
        }
      ],
      "name": "getSurveyStoppedStatus",
      "outputs": [
        {
          "internalType": "bool",
          "name": "",
          "type": "bool"
        }
      ],
      "stateMutability": "view",
      "type": "function",
      "constant": true
    },
    {
      "inputs": [
        {
          "internalType": "string",
          "name": "_name",
          "type": "string"
        }
      ],
      "name": "getSurveyTotalParticipants",
      "outputs": [
        {
          "internalType": "uint256",
          "name": "",
          "type": "uint256"
        }
      ],
      "stateMutability": "view",
      "type": "function",
      "constant": true
    },
    {
      "inputs": [
        {
          "internalType": "string",
          "name": "_name",
          "type": "string"
        }
      ],
      "name": "getSurveyValue",
      "outputs": [
        {
          "internalType": "uint256",
          "name": "",
          "type": "uint256"
        }
      ],
      "stateMutability": "view",
      "type": "function",
      "constant": true
    },
    {
      "inputs": [
        {
          "internalType": "string",
          "name": "_valueName",
          "type": "string"
        }
      ],
      "name": "getUintStorage",
      "outputs": [
        {
          "internalType": "uint256",
          "name": "",
          "type": "uint256"
        }
      ],
      "stateMutability": "view",
      "type": "function",
      "constant": true
    },
    {
      "inputs": [],
      "name": "getUserCreatedPolls",
      "outputs": [
        {
          "internalType": "uint256",
          "name": "",
          "type": "uint256"
        }
      ],
      "stateMutability": "view",
      "type": "function",
      "constant": true
    },
    {
      "inputs": [],
      "name": "getUserCreatedSurveys",
      "outputs": [
        {
          "internalType": "uint256",
          "name": "",
          "type": "uint256"
        }
      ],
      "stateMutability": "view",
      "type": "function",
      "constant": true
    },
    {
      "inputs": [
        {
          "internalType": "uint256",
          "name": "_index",
          "type": "uint256"
        }
      ],
      "name": "getUserNumberOfPolls",
      "outputs": [
        {
          "internalType": "string",
          "name": "",
          "type": "string"
        }
      ],
      "stateMutability": "view",
      "type": "function",
      "constant": true
    },
    {
      "inputs": [
        {
          "internalType": "uint256",
          "name": "_index",
          "type": "uint256"
        }
      ],
      "name": "getUserNumberOfSurveys",
      "outputs": [
        {
          "internalType": "string",
          "name": "",
          "type": "string"
        }
      ],
      "stateMutability": "view",
      "type": "function",
      "constant": true
    },
    {
      "inputs": [],
      "name": "owner",
      "outputs": [
        {
          "internalType": "address",
          "name": "",
          "type": "address"
        }
      ],
      "stateMutability": "view",
      "type": "function",
      "constant": true
    },
    {
      "inputs": [],
      "name": "renounceOwnership",
      "outputs": [],
      "stateMutability": "nonpayable",
      "type": "function"
    },
    {
      "inputs": [
        {
          "internalType": "address",
          "name": "newOwner",
          "type": "address"
        }
      ],
      "name": "transferOwnership",
      "outputs": [],
      "stateMutability": "nonpayable",
      "type": "function"
    },
    {
      "inputs": [
        {
          "internalType": "address",
          "name": "operator",
          "type": "address"
        },
        {
          "internalType": "address",
          "name": "from",
          "type": "address"
        },
        {
          "internalType": "address",
          "name": "to",
          "type": "address"
        },
        {
          "internalType": "uint256",
          "name": "amount",
          "type": "uint256"
        },
        {
          "internalType": "bytes",
          "name": "userData",
          "type": "bytes"
        },
        {
          "internalType": "bytes",
          "name": "operatorData",
          "type": "bytes"
        }
      ],
      "name": "tokensReceived",
      "outputs": [],
      "stateMutability": "nonpayable",
      "type": "function"
    },
    {
      "inputs": [
        {
          "internalType": "string",
          "name": "_name",
          "type": "string"
        },
        {
          "internalType": "string",
          "name": "_questions",
          "type": "string"
        },
        {
          "internalType": "uint256",
          "name": "_participantsAllowed",
          "type": "uint256"
        },
        {
          "internalType": "uint256",
          "name": "_valueOfSurvey",
          "type": "uint256"
        }
      ],
      "name": "setSurvey",
      "outputs": [],
      "stateMutability": "payable",
      "type": "function",
      "payable": true
    },
    {
      "inputs": [
        {
          "internalType": "string",
          "name": "_name",
          "type": "string"
        },
        {
          "internalType": "string",
          "name": "_answers",
          "type": "string"
        }
      ],
      "name": "surveyParticipation",
      "outputs": [],
      "stateMutability": "nonpayable",
      "type": "function"
    }
  ],
  "bytecode": "0x6080604052731820a4b7618bde71dce8cdc73aab6c95905fad24600e60006101000a81548173ffffffffffffffffffffffffffffffffffffffff021916908373ffffffffffffffffffffffffffffffffffffffff1602179055503480156200006657600080fd5b506040516200448a3803806200448a833981810160405260208110156200008c57600080fd5b81019080805190602001909291905050506000620000af6200028160201b60201c565b905080600c60006101000a81548173ffffffffffffffffffffffffffffffffffffffff021916908373ffffffffffffffffffffffffffffffffffffffff1602179055508073ffffffffffffffffffffffffffffffffffffffff16600073ffffffffffffffffffffffffffffffffffffffff167f8be0079c531659141344cd1fd0a4f28419497f9722a3daafe3b4186f6b6457e060405160405180910390a35080600f60006101000a81548173ffffffffffffffffffffffffffffffffffffffff021916908373ffffffffffffffffffffffffffffffffffffffff160217905550600e60009054906101000a900473ffffffffffffffffffffffffffffffffffffffff1673ffffffffffffffffffffffffffffffffffffffff166329965a1d307fb281fc8c12954d22544db45de3159a39272895b169a852b314f9cc762e44c53b306040518463ffffffff1660e01b8152600401808473ffffffffffffffffffffffffffffffffffffffff1681526020018381526020018273ffffffffffffffffffffffffffffffffffffffff1681526020019350505050600060405180830381600087803b1580156200026157600080fd5b505af115801562000276573d6000803e3d6000fd5b505050505062000289565b600033905090565b6141f180620002996000396000f3fe60806040526004361061019b5760003560e01c8063739f213f116100ec57806391c35b791161008a578063a99d21b411610064578063a99d21b41461158a578063ad27106b14611666578063f2e21d8214611758578063f2fde38b1461180c5761019b565b806391c35b791461131c5780639ade79a2146113d0578063a441a3fd146114ac5761019b565b80637c1dc72b116100c65780637c1dc72b146110f857806385f88303146111d45780638c3e778e146111ff5780638da5cb5b146112db5761019b565b8063739f213f14610e0257806377865d7114610eb65780637886e7aa14610f925761019b565b80633572a926116101595780634d25871d116101335780634d25871d14610c08578063613303f314610ce457806365ae67c814610d0f578063715018a614610deb5761019b565b80633572a926146108825780633cd4ef18146109365780633de7208314610aa95761019b565b806223de29146101a0578063094c291b146102e55780630b5ceb78146103c3578063155ddb07146104b557806316339bf8146105f65780631ed4cba314610741575b600080fd5b3480156101ac57600080fd5b506102e3600480360360c08110156101c357600080fd5b81019080803573ffffffffffffffffffffffffffffffffffffffff169060200190929190803573ffffffffffffffffffffffffffffffffffffffff169060200190929190803573ffffffffffffffffffffffffffffffffffffffff169060200190929190803590602001909291908035906020019064010000000081111561024a57600080fd5b82018360208201111561025c57600080fd5b8035906020019184600183028401116401000000008311171561027e57600080fd5b90919293919293908035906020019064010000000081111561029f57600080fd5b8201836020820111156102b157600080fd5b803590602001918460018302840111640100000000831117156102d357600080fd5b909192939192939050505061185d565b005b3480156102f157600080fd5b506103ab6004803603602081101561030857600080fd5b810190808035906020019064010000000081111561032557600080fd5b82018360208201111561033757600080fd5b8035906020019184600183028401116401000000008311171561035957600080fd5b91908080601f016020809104026020016040519081016040528093929190818152602001838380828437600081840152601f19601f820116905080830192505050505050509192919290505050611a06565b60405180821515815260200191505060405180910390f35b3480156103cf57600080fd5b50610489600480360360208110156103e657600080fd5b810190808035906020019064010000000081111561040357600080fd5b82018360208201111561041557600080fd5b8035906020019184600183028401116401000000008311171561043757600080fd5b91908080601f016020809104026020016040519081016040528093929190818152602001838380828437600081840152601f19601f820116905080830192505050505050509192919290505050611ac5565b604051808273ffffffffffffffffffffffffffffffffffffffff16815260200191505060405180910390f35b3480156104c157600080fd5b5061057b600480360360208110156104d857600080fd5b81019080803590602001906401000000008111156104f557600080fd5b82018360208201111561050757600080fd5b8035906020019184600183028401116401000000008311171561052957600080fd5b91908080601f016020809104026020016040519081016040528093929190818152602001838380828437600081840152601f19601f820116905080830192505050505050509192919290505050611b96565b6040518080602001828103825283818151815260200191508051906020019080838360005b838110156105bb5780820151818401526020810190506105a0565b50505050905090810190601f1680156105e85780820380516001836020036101000a031916815260200191505b509250505060405180910390f35b34801561060257600080fd5b506106c66004803603604081101561061957600080fd5b810190808035906020019064010000000081111561063657600080fd5b82018360208201111561064857600080fd5b8035906020019184600183028401116401000000008311171561066a57600080fd5b91908080601f016020809104026020016040519081016040528093929190818152602001838380828437600081840152601f19601f82011690508083019250505050505050919291929080359060200190929190505050611ce0565b6040518080602001828103825283818151815260200191508051906020019080838360005b838110156107065780820151818401526020810190506106eb565b50505050905090810190601f1680156107335780820380516001836020036101000a031916815260200191505b509250505060405180910390f35b34801561074d57600080fd5b506108076004803603602081101561076457600080fd5b810190808035906020019064010000000081111561078157600080fd5b82018360208201111561079357600080fd5b803590602001918460018302840111640100000000831117156107b557600080fd5b91908080601f016020809104026020016040519081016040528093929190818152602001838380828437600081840152601f19601f820116905080830192505050505050509192919290505050611e40565b6040518080602001828103825283818151815260200191508051906020019080838360005b8381101561084757808201518184015260208101905061082c565b50505050905090810190601f1680156108745780820380516001836020036101000a031916815260200191505b509250505060405180910390f35b34801561088e57600080fd5b506108bb600480360360208110156108a557600080fd5b8101908080359060200190929190505050611f8a565b6040518080602001828103825283818151815260200191508051906020019080838360005b838110156108fb5780820151818401526020810190506108e0565b50505050905090810190601f1680156109285780820380516001836020036101000a031916815260200191505b509250505060405180910390f35b34801561094257600080fd5b50610a936004803603604081101561095957600080fd5b810190808035906020019064010000000081111561097657600080fd5b82018360208201111561098857600080fd5b803590602001918460018302840111640100000000831117156109aa57600080fd5b91908080601f016020809104026020016040519081016040528093929190818152602001838380828437600081840152601f19601f82011690508083019250505050505050919291929080359060200190640100000000811115610a0d57600080fd5b820183602082011115610a1f57600080fd5b80359060200191846001830284011164010000000083111715610a4157600080fd5b91908080601f016020809104026020016040519081016040528093929190818152602001838380828437600081840152601f19601f82011690508083019250505050505050919291929050505061207f565b6040518082815260200191505060405180910390f35b348015610ab557600080fd5b50610c0660048036036040811015610acc57600080fd5b8101908080359060200190640100000000811115610ae957600080fd5b820183602082011115610afb57600080fd5b80359060200191846001830284011164010000000083111715610b1d57600080fd5b91908080601f016020809104026020016040519081016040528093929190818152602001838380828437600081840152601f19601f82011690508083019250505050505050919291929080359060200190640100000000811115610b8057600080fd5b820183602082011115610b9257600080fd5b80359060200191846001830284011164010000000083111715610bb457600080fd5b91908080601f016020809104026020016040519081016040528093929190818152602001838380828437600081840152601f19601f82011690508083019250505050505050919291929050505061215d565b005b348015610c1457600080fd5b50610cce60048036036020811015610c2b57600080fd5b8101908080359060200190640100000000811115610c4857600080fd5b820183602082011115610c5a57600080fd5b80359060200191846001830284011164010000000083111715610c7c57600080fd5b91908080601f016020809104026020016040519081016040528093929190818152602001838380828437600081840152601f19601f82011690508083019250505050505050919291929050505061299c565b6040518082815260200191505060405180910390f35b348015610cf057600080fd5b50610cf9612a4d565b6040518082815260200191505060405180910390f35b348015610d1b57600080fd5b50610dd560048036036020811015610d3257600080fd5b8101908080359060200190640100000000811115610d4f57600080fd5b820183602082011115610d6157600080fd5b80359060200191846001830284011164010000000083111715610d8357600080fd5b91908080601f016020809104026020016040519081016040528093929190818152602001838380828437600081840152601f19601f820116905080830192505050505050509192919290505050612ad3565b6040518082815260200191505060405180910390f35b348015610df757600080fd5b50610e00612b46565b005b348015610e0e57600080fd5b50610e3b60048036036020811015610e2557600080fd5b8101908080359060200190929190505050612cd1565b6040518080602001828103825283818151815260200191508051906020019080838360005b83811015610e7b578082015181840152602081019050610e60565b50505050905090810190601f168015610ea85780820380516001836020036101000a031916815260200191505b509250505060405180910390f35b348015610ec257600080fd5b50610f7c60048036036020811015610ed957600080fd5b8101908080359060200190640100000000811115610ef657600080fd5b820183602082011115610f0857600080fd5b80359060200191846001830284011164010000000083111715610f2a57600080fd5b91908080601f016020809104026020016040519081016040528093929190818152602001838380828437600081840152601f19601f820116905080830192505050505050509192919290505050612dc6565b6040518082815260200191505060405180910390f35b6110f660048036036080811015610fa857600080fd5b8101908080359060200190640100000000811115610fc557600080fd5b820183602082011115610fd757600080fd5b80359060200191846001830284011164010000000083111715610ff957600080fd5b91908080601f016020809104026020016040519081016040528093929190818152602001838380828437600081840152601f19601f8201169050808301925050505050505091929192908035906020019064010000000081111561105c57600080fd5b82018360208201111561106e57600080fd5b8035906020019184600183028401116401000000008311171561109057600080fd5b91908080601f016020809104026020016040519081016040528093929190818152602001838380828437600081840152601f19601f8201169050808301925050505050505091929192908035906020019092919080359060200190929190505050612e78565b005b34801561110457600080fd5b506111be6004803603602081101561111b57600080fd5b810190808035906020019064010000000081111561113857600080fd5b82018360208201111561114a57600080fd5b8035906020019184600183028401116401000000008311171561116c57600080fd5b91908080601f016020809104026020016040519081016040528093929190818152602001838380828437600081840152601f19601f8201169050808301925050505050505091929192905050506137cf565b6040518082815260200191505060405180910390f35b3480156111e057600080fd5b506111e9613881565b6040518082815260200191505060405180910390f35b34801561120b57600080fd5b506112c56004803603602081101561122257600080fd5b810190808035906020019064010000000081111561123f57600080fd5b82018360208201111561125157600080fd5b8035906020019184600183028401116401000000008311171561127357600080fd5b91908080601f016020809104026020016040519081016040528093929190818152602001838380828437600081840152601f19601f820116905080830192505050505050509192919290505050613907565b6040518082815260200191505060405180910390f35b3480156112e757600080fd5b506112f06139b8565b604051808273ffffffffffffffffffffffffffffffffffffffff16815260200191505060405180910390f35b34801561132857600080fd5b506113556004803603602081101561133f57600080fd5b81019080803590602001909291905050506139e2565b6040518080602001828103825283818151815260200191508051906020019080838360005b8381101561139557808201518184015260208101905061137a565b50505050905090810190601f1680156113c25780820380516001836020036101000a031916815260200191505b509250505060405180910390f35b3480156113dc57600080fd5b50611496600480360360208110156113f357600080fd5b810190808035906020019064010000000081111561141057600080fd5b82018360208201111561142257600080fd5b8035906020019184600183028401116401000000008311171561144457600080fd5b91908080601f016020809104026020016040519081016040528093929190818152602001838380828437600081840152601f19601f820116905080830192505050505050509192919290505050613ad7565b6040518082815260200191505060405180910390f35b3480156114b857600080fd5b50611572600480360360208110156114cf57600080fd5b81019080803590602001906401000000008111156114ec57600080fd5b8201836020820111156114fe57600080fd5b8035906020019184600183028401116401000000008311171561152057600080fd5b91908080601f016020809104026020016040519081016040528093929190818152602001838380828437600081840152601f19601f820116905080830192505050505050509192919290505050613b89565b60405180821515815260200191505060405180910390f35b34801561159657600080fd5b50611650600480360360208110156115ad57600080fd5b81019080803590602001906401000000008111156115ca57600080fd5b8201836020820111156115dc57600080fd5b803590602001918460018302840111640100000000831117156115fe57600080fd5b91908080601f016020809104026020016040519081016040528093929190818152602001838380828437600081840152601f19601f820116905080830192505050505050509192919290505050613c47565b6040518082815260200191505060405180910390f35b34801561167257600080fd5b5061172c6004803603602081101561168957600080fd5b81019080803590602001906401000000008111156116a657600080fd5b8201836020820111156116b857600080fd5b803590602001918460018302840111640100000000831117156116da57600080fd5b91908080601f016020809104026020016040519081016040528093929190818152602001838380828437600081840152601f19601f820116905080830192505050505050509192919290505050613cf8565b604051808273ffffffffffffffffffffffffffffffffffffffff16815260200191505060405180910390f35b34801561176457600080fd5b506117916004803603602081101561177b57600080fd5b8101908080359060200190929190505050613dca565b6040518080602001828103825283818151815260200191508051906020019080838360005b838110156117d15780820151818401526020810190506117b6565b50505050905090810190601f1680156117fe5780820380516001836020036101000a031916815260200191505b509250505060405180910390f35b34801561181857600080fd5b5061185b6004803603602081101561182f57600080fd5b81019080803573ffffffffffffffffffffffffffffffffffffffff169060200190929190505050613ebf565b005b600f60009054906101000a900473ffffffffffffffffffffffffffffffffffffffff1673ffffffffffffffffffffffffffffffffffffffff163373ffffffffffffffffffffffffffffffffffffffff1614611903576040517f08c379a00000000000000000000000000000000000000000000000000000000081526004018080602001828103825260218152602001806141756021913960400191505060405180910390fd5b7fa0a5a35754b3519ae614f00422ac62a6bc4608ccb722963aab00cb48c588ad728888888888888888604051808973ffffffffffffffffffffffffffffffffffffffff1681526020018873ffffffffffffffffffffffffffffffffffffffff1681526020018773ffffffffffffffffffffffffffffffffffffffff16815260200186815260200180602001806020018381038352878782818152602001925080828437600081840152601f19601f8201169050808301925050508381038252858582818152602001925080828437600081840152601f19601f8201169050808301925050509a505050505050505050505060405180910390a15050505050505050565b60006001826040518082805190602001908083835b60208310611a3e5780518252602082019150602081019050602083039250611a1b565b6001836020036101000a038019825116818451168082178552505050505050905001915050908152602001604051809103902060030160405180807f73746f7070656453746174757300000000000000000000000000000000000000815250600d019050908152602001604051809103902060009054906101000a900460ff169050919050565b600080826040518082805190602001908083835b60208310611afc5780518252602082019150602081019050602083039250611ad9565b6001836020036101000a038019825116818451168082178552505050505050905001915050908152602001604051809103902060040160405180807f7375727665794f776e6572000000000000000000000000000000000000000000815250600b019050908152602001604051809103902060009054906101000a900473ffffffffffffffffffffffffffffffffffffffff169050919050565b60606000826040518082805190602001908083835b60208310611bce5780518252602082019150602081019050602083039250611bab565b6001836020036101000a038019825116818451168082178552505050505050905001915050908152602001604051809103902060010160405180807f7175657374696f6e730000000000000000000000000000000000000000000000815250600901905090815260200160405180910390208054600181600116156101000203166002900480601f016020809104026020016040519081016040528092919081815260200182805460018160011615610100020316600290048015611cd45780601f10611ca957610100808354040283529160200191611cd4565b820191906000526020600020905b815481529060010190602001808311611cb757829003601f168201915b50505050509050919050565b60606000836040518082805190602001908083835b60208310611d185780518252602082019150602081019050602083039250611cf5565b6001836020036101000a038019825116818451168082178552505050505050905001915050908152602001604051809103902060020160405180807f616e737765727300000000000000000000000000000000000000000000000000815250600701905090815260200160405180910390208281548110611d9557fe5b906000526020600020018054600181600116156101000203166002900480601f016020809104026020016040519081016040528092919081815260200182805460018160011615610100020316600290048015611e335780601f10611e0857610100808354040283529160200191611e33565b820191906000526020600020905b815481529060010190602001808311611e1657829003601f168201915b5050505050905092915050565b60606001826040518082805190602001908083835b60208310611e785780518252602082019150602081019050602083039250611e55565b6001836020036101000a038019825116818451168082178552505050505050905001915050908152602001604051809103902060010160405180807f63686f6963657300000000000000000000000000000000000000000000000000815250600701905090815260200160405180910390208054600181600116156101000203166002900480601f016020809104026020016040519081016040528092919081815260200182805460018160011615610100020316600290048015611f7e5780601f10611f5357610100808354040283529160200191611f7e565b820191906000526020600020905b815481529060010190602001808311611f6157829003601f168201915b50505050509050919050565b6060600860405180807f706f6c6c73000000000000000000000000000000000000000000000000000000815250600501905090815260200160405180910390208281548110611fd557fe5b906000526020600020018054600181600116156101000203166002900480601f0160208091040260200160405190810160405280929190818152602001828054600181600116156101000203166002900480156120735780601f1061204857610100808354040283529160200191612073565b820191906000526020600020905b81548152906001019060200180831161205657829003601f168201915b50505050509050919050565b60006001836040518082805190602001908083835b602083106120b75780518252602082019150602081019050602083039250612094565b6001836020036101000a0380198251168184511680821785525050505050509050019150509081526020016040518091039020600001826040518082805190602001908083835b6020831061212157805182526020820191506020810190506020830392506120fe565b6001836020036101000a038019825116818451168082178552505050505050905001915050908152602001604051809103902054905092915050565b6000826040518082805190602001908083835b602083106121935780518252602082019150602081019050602083039250612170565b6001836020036101000a038019825116818451168082178552505050505050905001915050908152602001604051809103902060030160405180807f73746f7070656453746174757300000000000000000000000000000000000000815250600d019050908152602001604051809103902060009054906101000a900460ff161561221d57600080fd5b600460003373ffffffffffffffffffffffffffffffffffffffff1673ffffffffffffffffffffffffffffffffffffffff168152602001908152602001600020826040518082805190602001908083835b60208310612290578051825260208201915060208101905060208303925061226d565b6001836020036101000a038019825116818451168082178552505050505050905001915050908152602001604051809103902060009054906101000a900460ff16156122db57600080fd5b6001600460003373ffffffffffffffffffffffffffffffffffffffff1673ffffffffffffffffffffffffffffffffffffffff168152602001908152602001600020836040518082805190602001908083835b60208310612350578051825260208201915060208101905060208303925061232d565b6001836020036101000a038019825116818451168082178552505050505050905001915050908152602001604051809103902060006101000a81548160ff0219169083151502179055506000826040518082805190602001908083835b602083106123d057805182526020820191506020810190506020830392506123ad565b6001836020036101000a038019825116818451168082178552505050505050905001915050908152602001604051809103902060000160405180807f746f74616c50617274696369706174656400000000000000000000000000000081525060110190509081526020016040518091039020600081548092919060010191905055506000826040518082805190602001908083835b602083106124885780518252602082019150602081019050602083039250612465565b6001836020036101000a038019825116818451168082178552505050505050905001915050908152602001604051809103902060000160405180807f7061727469636970616e7473416c6c6f7765640000000000000000000000000081525060130190509081526020016040518091039020546000836040518082805190602001908083835b60208310612531578051825260208201915060208101905060208303925061250e565b6001836020036101000a038019825116818451168082178552505050505050905001915050908152602001604051809103902060000160405180807f746f74616c5061727469636970617465640000000000000000000000000000008152506011019050908152602001604051809103902054141561266c5760016000836040518082805190602001908083835b602083106125e257805182526020820191506020810190506020830392506125bf565b6001836020036101000a038019825116818451168082178552505050505050905001915050908152602001604051809103902060030160405180807f73746f7070656453746174757300000000000000000000000000000000000000815250600d019050908152602001604051809103902060006101000a81548160ff0219169083151502179055505b6000826040518082805190602001908083835b602083106126a2578051825260208201915060208101905060208303925061267f565b6001836020036101000a038019825116818451168082178552505050505050905001915050908152602001604051809103902060020160405180807f616e737765727300000000000000000000000000000000000000000000000000815250600701905090815260200160405180910390208190806001815401808255809150506001900390600052602060002001600090919091909150908051906020019061274d9291906140d7565b50600f60009054906101000a900473ffffffffffffffffffffffffffffffffffffffff1673ffffffffffffffffffffffffffffffffffffffff166362ad1b8330336000866040518082805190602001908083835b602083106127c457805182526020820191506020810190506020830392506127a1565b6001836020036101000a038019825116818451168082178552505050505050905001915050908152602001604051809103902060000160405180807f7061727469636970616e7473416c6c6f7765640000000000000000000000000081525060130190509081526020016040518091039020546000876040518082805190602001908083835b6020831061286d578051825260208201915060208101905060208303925061284a565b6001836020036101000a038019825116818451168082178552505050505050905001915050908152602001604051809103902060000160405180807f76616c75650000000000000000000000000000000000000000000000000000008152506005019050908152602001604051809103902054816128e757fe5b046040518463ffffffff1660e01b8152600401808473ffffffffffffffffffffffffffffffffffffffff1681526020018373ffffffffffffffffffffffffffffffffffffffff168152602001828152602001806020018060200183810383526000815260200160200183810382526000815260200160200195505050505050600060405180830381600087803b15801561298057600080fd5b505af1158015612994573d6000803e3d6000fd5b505050505050565b600080826040518082805190602001908083835b602083106129d357805182526020820191506020810190506020830392506129b0565b6001836020036101000a038019825116818451168082178552505050505050905001915050908152602001604051809103902060000160405180807f76616c756500000000000000000000000000000000000000000000000000000081525060050190509081526020016040518091039020549050919050565b6000600260003373ffffffffffffffffffffffffffffffffffffffff1673ffffffffffffffffffffffffffffffffffffffff16815260200190815260200160002060000160405180807f7375727665797343726561746564000000000000000000000000000000000000815250600e019050908152602001604051809103902054905090565b60006006826040518082805190602001908083835b60208310612b0b5780518252602082019150602081019050602083039250612ae8565b6001836020036101000a0380198251168184511680821785525050505050509050019150509081526020016040518091039020549050919050565b612b4e6140cf565b73ffffffffffffffffffffffffffffffffffffffff16600c60009054906101000a900473ffffffffffffffffffffffffffffffffffffffff1673ffffffffffffffffffffffffffffffffffffffff1614612c10576040517f08c379a00000000000000000000000000000000000000000000000000000000081526004018080602001828103825260208152602001807f4f776e61626c653a2063616c6c6572206973206e6f7420746865206f776e657281525060200191505060405180910390fd5b600073ffffffffffffffffffffffffffffffffffffffff16600c60009054906101000a900473ffffffffffffffffffffffffffffffffffffffff1673ffffffffffffffffffffffffffffffffffffffff167f8be0079c531659141344cd1fd0a4f28419497f9722a3daafe3b4186f6b6457e060405160405180910390a36000600c60006101000a81548173ffffffffffffffffffffffffffffffffffffffff021916908373ffffffffffffffffffffffffffffffffffffffff160217905550565b6060600860405180807f7375727665797300000000000000000000000000000000000000000000000000815250600701905090815260200160405180910390208281548110612d1c57fe5b906000526020600020018054600181600116156101000203166002900480601f016020809104026020016040519081016040528092919081815260200182805460018160011615610100020316600290048015612dba5780601f10612d8f57610100808354040283529160200191612dba565b820191906000526020600020905b815481529060010190602001808311612d9d57829003601f168201915b50505050509050919050565b60006001826040518082805190602001908083835b60208310612dfe5780518252602082019150602081019050602083039250612ddb565b6001836020036101000a038019825116818451168082178552505050505050905001915050908152602001604051809103902060000160405180807f76616c756500000000000000000000000000000000000000000000000000000081525060050190509081526020016040518091039020549050919050565b6000670de0b6b3a764000082029050655af3107a4000838281612e9757fe5b041015612ea357600080fd5b6000339050600860405180807f73757276657973000000000000000000000000000000000000000000000000008152506007019050908152602001604051809103902086908060018154018082558091505060019003906000526020600020016000909190919091509080519060200190612f1f9291906140d7565b50600660405180807f746f74616c537572766579730000000000000000000000000000000000000000815250600c019050908152602001604051809103902060008154809291906001019190505550806000876040518082805190602001908083835b60208310612fa55780518252602082019150602081019050602083039250612f82565b6001836020036101000a038019825116818451168082178552505050505050905001915050908152602001604051809103902060040160405180807f7375727665794f776e6572000000000000000000000000000000000000000000815250600b019050908152602001604051809103902060006101000a81548173ffffffffffffffffffffffffffffffffffffffff021916908373ffffffffffffffffffffffffffffffffffffffff160217905550846000876040518082805190602001908083835b6020831061308c5780518252602082019150602081019050602083039250613069565b6001836020036101000a038019825116818451168082178552505050505050905001915050908152602001604051809103902060010160405180807f7175657374696f6e7300000000000000000000000000000000000000000000008152506009019050908152602001604051809103902090805190602001906131119291906140d7565b50600080876040518082805190602001908083835b602083106131495780518252602082019150602081019050602083039250613126565b6001836020036101000a038019825116818451168082178552505050505050905001915050908152602001604051809103902060030160405180807f73746f7070656453746174757300000000000000000000000000000000000000815250600d019050908152602001604051809103902060006101000a81548160ff021916908315150217905550600a82816131dc57fe5b0482036000876040518082805190602001908083835b6020831061321557805182526020820191506020810190506020830392506131f2565b6001836020036101000a038019825116818451168082178552505050505050905001915050908152602001604051809103902060000160405180807f76616c75650000000000000000000000000000000000000000000000000000008152506005019050908152602001604051809103902081905550836000876040518082805190602001908083835b602083106132c2578051825260208201915060208101905060208303925061329f565b6001836020036101000a038019825116818451168082178552505050505050905001915050908152602001604051809103902060000160405180807f7061727469636970616e7473416c6c6f776564000000000000000000000000008152506013019050908152602001604051809103902081905550600080876040518082805190602001908083835b6020831061336f578051825260208201915060208101905060208303925061334c565b6001836020036101000a038019825116818451168082178552505050505050905001915050908152602001604051809103902060000160405180807f746f74616c506172746963697061746564000000000000000000000000000000815250601101905090815260200160405180910390208190555085600260008373ffffffffffffffffffffffffffffffffffffffff1673ffffffffffffffffffffffffffffffffffffffff1681526020019081526020016000206006016000600260008573ffffffffffffffffffffffffffffffffffffffff1673ffffffffffffffffffffffffffffffffffffffff16815260200190815260200160002060000160405180807f7375727665797343726561746564000000000000000000000000000000000000815250600e019050908152602001604051809103902054815260200190815260200160002090805190602001906134ca9291906140d7565b50600260008273ffffffffffffffffffffffffffffffffffffffff1673ffffffffffffffffffffffffffffffffffffffff16815260200190815260200160002060000160405180807f7375727665797343726561746564000000000000000000000000000000000000815250600e019050908152602001604051809103902060008154809291906001019190505550600f60009054906101000a900473ffffffffffffffffffffffffffffffffffffffff1673ffffffffffffffffffffffffffffffffffffffff166362ad1b838230856040518463ffffffff1660e01b8152600401808473ffffffffffffffffffffffffffffffffffffffff1681526020018373ffffffffffffffffffffffffffffffffffffffff168152602001828152602001806020018060200183810383526000815260200160200183810382526000815260200160200195505050505050600060405180830381600087803b15801561363257600080fd5b505af1158015613646573d6000803e3d6000fd5b50505050600f60009054906101000a900473ffffffffffffffffffffffffffffffffffffffff1673ffffffffffffffffffffffffffffffffffffffff166362ad1b83826136916139b8565b600a868161369b57fe5b046040518463ffffffff1660e01b8152600401808473ffffffffffffffffffffffffffffffffffffffff1681526020018373ffffffffffffffffffffffffffffffffffffffff168152602001828152602001806020018060200183810383526000815260200160200183810382526000815260200160200195505050505050600060405180830381600087803b15801561373457600080fd5b505af1158015613748573d6000803e3d6000fd5b505050507f448785165b227b28d3bdfd0e352a52b17641dc504a6eed914cf40d5619cacb5a6001600860405180807f73757276657973000000000000000000000000000000000000000000000000008152506007019050908152602001604051809103902080549050036040518082815260200191505060405180910390a1505050505050565b60006001826040518082805190602001908083835b6020831061380757805182526020820191506020810190506020830392506137e4565b6001836020036101000a038019825116818451168082178552505050505050905001915050908152602001604051809103902060000160405180807f746f74616c50617274696369706174656400000000000000000000000000000081525060110190509081526020016040518091039020549050919050565b6000600260003373ffffffffffffffffffffffffffffffffffffffff1673ffffffffffffffffffffffffffffffffffffffff16815260200190815260200160002060000160405180807f706f6c6c73437265617465640000000000000000000000000000000000000000815250600c019050908152602001604051809103902054905090565b600080826040518082805190602001908083835b6020831061393e578051825260208201915060208101905060208303925061391b565b6001836020036101000a038019825116818451168082178552505050505050905001915050908152602001604051809103902060000160405180807f746f74616c50617274696369706174656400000000000000000000000000000081525060110190509081526020016040518091039020549050919050565b6000600c60009054906101000a900473ffffffffffffffffffffffffffffffffffffffff16905090565b6060600260003373ffffffffffffffffffffffffffffffffffffffff1673ffffffffffffffffffffffffffffffffffffffff16815260200190815260200160002060060160008381526020019081526020016000208054600181600116156101000203166002900480601f016020809104026020016040519081016040528092919081815260200182805460018160011615610100020316600290048015613acb5780601f10613aa057610100808354040283529160200191613acb565b820191906000526020600020905b815481529060010190602001808311613aae57829003601f168201915b50505050509050919050565b60006001826040518082805190602001908083835b60208310613b0f5780518252602082019150602081019050602083039250613aec565b6001836020036101000a038019825116818451168082178552505050505050905001915050908152602001604051809103902060000160405180807f7061727469636970616e7473416c6c6f7765640000000000000000000000000081525060130190509081526020016040518091039020549050919050565b600080826040518082805190602001908083835b60208310613bc05780518252602082019150602081019050602083039250613b9d565b6001836020036101000a038019825116818451168082178552505050505050905001915050908152602001604051809103902060030160405180807f73746f7070656453746174757300000000000000000000000000000000000000815250600d019050908152602001604051809103902060009054906101000a900460ff169050919050565b600080826040518082805190602001908083835b60208310613c7e5780518252602082019150602081019050602083039250613c5b565b6001836020036101000a038019825116818451168082178552505050505050905001915050908152602001604051809103902060000160405180807f7061727469636970616e7473416c6c6f7765640000000000000000000000000081525060130190509081526020016040518091039020549050919050565b60006001826040518082805190602001908083835b60208310613d305780518252602082019150602081019050602083039250613d0d565b6001836020036101000a038019825116818451168082178552505050505050905001915050908152602001604051809103902060040160405180807f706f6c6c4f776e657200000000000000000000000000000000000000000000008152506009019050908152602001604051809103902060009054906101000a900473ffffffffffffffffffffffffffffffffffffffff169050919050565b6060600260003373ffffffffffffffffffffffffffffffffffffffff1673ffffffffffffffffffffffffffffffffffffffff16815260200190815260200160002060070160008381526020019081526020016000208054600181600116156101000203166002900480601f016020809104026020016040519081016040528092919081815260200182805460018160011615610100020316600290048015613eb35780601f10613e8857610100808354040283529160200191613eb3565b820191906000526020600020905b815481529060010190602001808311613e9657829003601f168201915b50505050509050919050565b613ec76140cf565b73ffffffffffffffffffffffffffffffffffffffff16600c60009054906101000a900473ffffffffffffffffffffffffffffffffffffffff1673ffffffffffffffffffffffffffffffffffffffff1614613f89576040517f08c379a00000000000000000000000000000000000000000000000000000000081526004018080602001828103825260208152602001807f4f776e61626c653a2063616c6c6572206973206e6f7420746865206f776e657281525060200191505060405180910390fd5b600073ffffffffffffffffffffffffffffffffffffffff168173ffffffffffffffffffffffffffffffffffffffff16141561400f576040517f08c379a00000000000000000000000000000000000000000000000000000000081526004018080602001828103825260268152602001806141966026913960400191505060405180910390fd5b8073ffffffffffffffffffffffffffffffffffffffff16600c60009054906101000a900473ffffffffffffffffffffffffffffffffffffffff1673ffffffffffffffffffffffffffffffffffffffff167f8be0079c531659141344cd1fd0a4f28419497f9722a3daafe3b4186f6b6457e060405160405180910390a380600c60006101000a81548173ffffffffffffffffffffffffffffffffffffffff021916908373ffffffffffffffffffffffffffffffffffffffff16021790555050565b600033905090565b828054600181600116156101000203166002900490600052602060002090601f016020900481019282601f1061411857805160ff1916838001178555614146565b82800160010185558215614146579182015b8281111561414557825182559160200191906001019061412a565b5b5090506141539190614157565b5090565b5b80821115614170576000816000905550600101614158565b509056fe53696d706c65373737526563697069656e743a20496e76616c696420746f6b656e4f776e61626c653a206e6577206f776e657220697320746865207a65726f2061646472657373a264697066735822122042d7d865118ac6324fedd10004298a638fa2c226ebd0edb18c3632b773d3d7bf64736f6c634300060c0033",
  "immutableReferences": {},
  "source": "// SPDX-License-Identifier: MIT\r\n\r\npragma solidity 0.6.12;\r\n\r\nimport \"./Storage.sol\";\r\nimport \"@openzeppelin/contracts/access/Ownable.sol\";\r\nimport \"@openzeppelin/contracts/token/ERC777/IERC777.sol\";\r\nimport \"@openzeppelin/contracts/introspection/IERC1820Registry.sol\";\r\nimport \"@openzeppelin/contracts/token/ERC777/IERC777Recipient.sol\";\r\n\r\n\r\ncontract SurveyFunc is Storage, Ownable\r\n{\r\n//ERC777 emplementation + recipients\r\n\r\n  address private funcAddress;\r\n\r\n  IERC1820Registry private _erc1820 = IERC1820Registry(\r\n\t\t0x1820a4B7618BdE71Dce8cdc73aAB6C95905faD24\r\n\t);\r\n\tbytes32 private constant TOKENS_RECIPIENT_INTERFACE_HASH = keccak256(\r\n\t\t\"ERC777TokensRecipient\"\r\n\t);\r\n\r\n\tIERC777 private _token;\r\n\r\n\tevent DoneStuff(\r\n\t\taddress operator,\r\n\t\taddress from,\r\n\t\taddress to,\r\n\t\tuint256 amount,\r\n\t\tbytes userData,\r\n\t\tbytes operatorData\r\n\t);\r\n\r\n\tconstructor(address token) public {\r\n\t\t_token = IERC777(token);\r\n\r\n\t\t_erc1820.setInterfaceImplementer(\r\n\t\t\t\taddress(this),\r\n\t\t\t\tTOKENS_RECIPIENT_INTERFACE_HASH,\r\n\t\t\t\taddress(this)\r\n\t\t);\r\n\t}\r\n\r\n\tfunction tokensReceived(\r\n\t\taddress operator,\r\n\t\taddress from,\r\n\t\taddress to,\r\n\t\tuint256 amount,\r\n\t\tbytes calldata userData,\r\n\t\tbytes calldata operatorData\r\n\t) external {\r\n\t\trequire(\r\n\t\t\t\tmsg.sender == address(_token),\r\n\t\t\t\t\"Simple777Recipient: Invalid token\"\r\n\t\t);\r\n\r\n\t\t// do stuff\r\n\t\temit DoneStuff(operator, from, to, amount, userData, operatorData);\r\n\t}\r\n\r\n// Events\r\n\r\n  event surveyNumber(uint256 nr);\r\n\r\n// General app functions\r\n\r\n  function setSurvey(string memory _name, string memory _questions, uint256 _participantsAllowed, uint256 _valueOfSurvey) public payable\r\n  {\r\n    //saving the value of survey with 18 decimals\r\n    uint256 _actualValueOfSurvey = _valueOfSurvey * (10 ** 18);\r\n    //require that every user that participates at the survey gets at least 0.0001 coins\r\n    require(_actualValueOfSurvey/_participantsAllowed >= 10 ** 14);\r\n    address msgSender = msg.sender;\r\n    //saving the new survey name to the array and saving the total number of surveys\r\n    _stringArrayStorage['surveys'].push(_name);\r\n    _uintStorage['totalSurveys']++;\r\n    //creating a survey with it's properties\r\n    _surveyStorage[_name]._addressStorage['surveyOwner'] = msgSender;\r\n    _surveyStorage[_name]._stringStorage['questions'] = _questions;\r\n    _surveyStorage[_name]._boolStorage['stoppedStatus'] = false;\r\n    _surveyStorage[_name]._uintStorage['value'] = _actualValueOfSurvey - _actualValueOfSurvey/10;\r\n    _surveyStorage[_name]._uintStorage['participantsAllowed'] = _participantsAllowed;\r\n    _surveyStorage[_name]._uintStorage['totalParticipated'] = 0;\r\n    //creating user account\r\n    _userStorage[msgSender].surevysTitles[_userStorage[msgSender]._uintStorage['surveysCreated']] = _name;\r\n    _userStorage[msgSender]._uintStorage['surveysCreated']++;\r\n    //sending the rewards to the creator of the contract and setting the value of the survey\r\n    _token.operatorSend(msgSender, address(this), _actualValueOfSurvey, \"\", \"\");\r\n    _token.operatorSend(msgSender, Ownable.owner(), _actualValueOfSurvey/10, \"\", \"\");\r\n    //emiting the number of the survey in the array of surveys\r\n    emit surveyNumber(_stringArrayStorage['surveys'].length - 1);\r\n  }\r\n\r\n  function surveyParticipation(string memory _name, string memory _answers) public\r\n  {\r\n    //require that the survey has participation slots free and didn't stop\r\n    require(!_surveyStorage[_name]._boolStorage['stoppedStatus']);\r\n    //require that the user didn't participate at this survey and setting it's participation\r\n    require(!userParticipatedSurveys[msg.sender][_name]);\r\n    userParticipatedSurveys[msg.sender][_name] = true;\r\n    //updating the number of participants\r\n    _surveyStorage[_name]._uintStorage['totalParticipated']++;\r\n    //if the free slots for participation at this survey are filled stop the contract\r\n    if(_surveyStorage[_name]._uintStorage['totalParticipated'] == _surveyStorage[_name]._uintStorage['participantsAllowed']) _surveyStorage[_name]._boolStorage['stoppedStatus'] = true;\r\n    //setting new answers to the survey\r\n    _surveyStorage[_name]._stringArrayStorage['answers'].push(_answers);\r\n    //sending the rewards for participating at the survey\r\n    _token.operatorSend(address(this), msg.sender, _surveyStorage[_name]._uintStorage['value'] / _surveyStorage[_name]._uintStorage['participantsAllowed'], '', '');\r\n  }\r\n\r\n}\r\n",
  "sourcePath": "C:/Users/Daniel/Projects/Surveys_V2/contracts/SurveyFunc.sol",
  "compiler": {
    "name": "solc",
    "version": "0.6.12+commit.27d51765.Emscripten.clang"
  },
  "schemaVersion": "3.2.5",
  "updatedAt": "2020-10-13T12:04:12.241Z",
  "networkType": "ethereum",
  "devdoc": {
    "kind": "dev",
    "methods": {
      "owner()": {
        "details": "Returns the address of the current owner."
      },
      "renounceOwnership()": {
        "details": "Leaves the contract without owner. It will not be possible to call `onlyOwner` functions anymore. Can only be called by the current owner. NOTE: Renouncing ownership will leave the contract without an owner, thereby removing any functionality that is only available to the owner."
      },
      "transferOwnership(address)": {
        "details": "Transfers ownership of the contract to a new account (`newOwner`). Can only be called by the current owner."
      }
    },
    "version": 1
  },
  "userdoc": {
    "kind": "user",
    "methods": {},
    "version": 1
  }
}