{
  "contractName": "SurveyFunc",
  "abi": [
    {
      "inputs": [
        {
          "internalType": "address",
          "name": "token",
          "type": "address"
        }
      ],
      "stateMutability": "nonpayable",
      "type": "constructor"
    },
    {
      "anonymous": false,
      "inputs": [
        {
          "indexed": false,
          "internalType": "address",
          "name": "operator",
          "type": "address"
        },
        {
          "indexed": false,
          "internalType": "address",
          "name": "from",
          "type": "address"
        },
        {
          "indexed": false,
          "internalType": "address",
          "name": "to",
          "type": "address"
        },
        {
          "indexed": false,
          "internalType": "uint256",
          "name": "amount",
          "type": "uint256"
        },
        {
          "indexed": false,
          "internalType": "bytes",
          "name": "userData",
          "type": "bytes"
        },
        {
          "indexed": false,
          "internalType": "bytes",
          "name": "operatorData",
          "type": "bytes"
        }
      ],
      "name": "DoneStuff",
      "type": "event"
    },
    {
      "anonymous": false,
      "inputs": [
        {
          "indexed": true,
          "internalType": "address",
          "name": "previousOwner",
          "type": "address"
        },
        {
          "indexed": true,
          "internalType": "address",
          "name": "newOwner",
          "type": "address"
        }
      ],
      "name": "OwnershipTransferred",
      "type": "event"
    },
    {
      "anonymous": false,
      "inputs": [
        {
          "indexed": false,
          "internalType": "uint256",
          "name": "nr",
          "type": "uint256"
        }
      ],
      "name": "surveyNumber",
      "type": "event"
    },
    {
      "inputs": [
        {
          "internalType": "bytes32",
          "name": "_pollName",
          "type": "bytes32"
        },
        {
          "internalType": "string",
          "name": "_variableName",
          "type": "string"
        }
      ],
      "name": "getPollAddressStorage",
      "outputs": [
        {
          "internalType": "address",
          "name": "",
          "type": "address"
        }
      ],
      "stateMutability": "view",
      "type": "function",
      "constant": true
    },
    {
      "inputs": [
        {
          "internalType": "bytes32",
          "name": "_pollName",
          "type": "bytes32"
        },
        {
          "internalType": "string",
          "name": "_variableName",
          "type": "string"
        }
      ],
      "name": "getPollBoolStorage",
      "outputs": [
        {
          "internalType": "bool",
          "name": "",
          "type": "bool"
        }
      ],
      "stateMutability": "view",
      "type": "function",
      "constant": true
    },
    {
      "inputs": [
        {
          "internalType": "bytes32",
          "name": "_pollName",
          "type": "bytes32"
        },
        {
          "internalType": "bytes32",
          "name": "_variableName",
          "type": "bytes32"
        }
      ],
      "name": "getPollBytes32UintStorage",
      "outputs": [
        {
          "internalType": "uint256",
          "name": "",
          "type": "uint256"
        }
      ],
      "stateMutability": "view",
      "type": "function",
      "constant": true
    },
    {
      "inputs": [
        {
          "internalType": "bytes32",
          "name": "_pollName",
          "type": "bytes32"
        },
        {
          "internalType": "string",
          "name": "_variableName",
          "type": "string"
        }
      ],
      "name": "getPollStringStorage",
      "outputs": [
        {
          "internalType": "string",
          "name": "",
          "type": "string"
        }
      ],
      "stateMutability": "view",
      "type": "function",
      "constant": true
    },
    {
      "inputs": [
        {
          "internalType": "bytes32",
          "name": "_pollName",
          "type": "bytes32"
        },
        {
          "internalType": "string",
          "name": "_variableName",
          "type": "string"
        }
      ],
      "name": "getPollStringToBytes32ArrayStorage",
      "outputs": [
        {
          "internalType": "bytes32[]",
          "name": "",
          "type": "bytes32[]"
        }
      ],
      "stateMutability": "view",
      "type": "function",
      "constant": true
    },
    {
      "inputs": [
        {
          "internalType": "bytes32",
          "name": "_pollName",
          "type": "bytes32"
        },
        {
          "internalType": "string",
          "name": "_variableName",
          "type": "string"
        }
      ],
      "name": "getPollUintStorage",
      "outputs": [
        {
          "internalType": "uint256",
          "name": "",
          "type": "uint256"
        }
      ],
      "stateMutability": "view",
      "type": "function",
      "constant": true
    },
    {
      "inputs": [
        {
          "internalType": "bytes32",
          "name": "_pollName",
          "type": "bytes32"
        },
        {
          "internalType": "uint256",
          "name": "_variableNumber",
          "type": "uint256"
        }
      ],
      "name": "getPollUintToBytes32ArrayStorage",
      "outputs": [
        {
          "internalType": "bytes32[]",
          "name": "",
          "type": "bytes32[]"
        }
      ],
      "stateMutability": "view",
      "type": "function",
      "constant": true
    },
    {
      "inputs": [
        {
          "internalType": "string",
          "name": "_arrayName",
          "type": "string"
        }
      ],
      "name": "getStringToBytes32ArrayStorrage",
      "outputs": [
        {
          "internalType": "bytes32[]",
          "name": "",
          "type": "bytes32[]"
        }
      ],
      "stateMutability": "view",
      "type": "function",
      "constant": true
    },
    {
      "inputs": [
        {
          "internalType": "bytes32",
          "name": "_surveyName",
          "type": "bytes32"
        },
        {
          "internalType": "string",
          "name": "_variableName",
          "type": "string"
        }
      ],
      "name": "getSurveyAddressStorage",
      "outputs": [
        {
          "internalType": "address",
          "name": "",
          "type": "address"
        }
      ],
      "stateMutability": "view",
      "type": "function",
      "constant": true
    },
    {
      "inputs": [
        {
          "internalType": "bytes32",
          "name": "_surveyName",
          "type": "bytes32"
        },
        {
          "internalType": "string",
          "name": "_variableName",
          "type": "string"
        }
      ],
      "name": "getSurveyBoolStorage",
      "outputs": [
        {
          "internalType": "bool",
          "name": "",
          "type": "bool"
        }
      ],
      "stateMutability": "view",
      "type": "function",
      "constant": true
    },
    {
      "inputs": [
        {
          "internalType": "bytes32",
          "name": "_surveyName",
          "type": "bytes32"
        },
        {
          "internalType": "bytes32",
          "name": "_variableName",
          "type": "bytes32"
        }
      ],
      "name": "getSurveyBytes32UintStorage",
      "outputs": [
        {
          "internalType": "uint256",
          "name": "",
          "type": "uint256"
        }
      ],
      "stateMutability": "view",
      "type": "function",
      "constant": true
    },
    {
      "inputs": [
        {
          "internalType": "bytes32",
          "name": "_surveyName",
          "type": "bytes32"
        },
        {
          "internalType": "string",
          "name": "_variableName",
          "type": "string"
        }
      ],
      "name": "getSurveyStringStorage",
      "outputs": [
        {
          "internalType": "string",
          "name": "",
          "type": "string"
        }
      ],
      "stateMutability": "view",
      "type": "function",
      "constant": true
    },
    {
      "inputs": [
        {
          "internalType": "bytes32",
          "name": "_surveyName",
          "type": "bytes32"
        },
        {
          "internalType": "string",
          "name": "_variableName",
          "type": "string"
        }
      ],
      "name": "getSurveyStringToBytes32ArrayStorage",
      "outputs": [
        {
          "internalType": "bytes32[]",
          "name": "",
          "type": "bytes32[]"
        }
      ],
      "stateMutability": "view",
      "type": "function",
      "constant": true
    },
    {
      "inputs": [
        {
          "internalType": "bytes32",
          "name": "_surveyName",
          "type": "bytes32"
        },
        {
          "internalType": "string",
          "name": "_variableName",
          "type": "string"
        }
      ],
      "name": "getSurveyUintStorage",
      "outputs": [
        {
          "internalType": "uint256",
          "name": "",
          "type": "uint256"
        }
      ],
      "stateMutability": "view",
      "type": "function",
      "constant": true
    },
    {
      "inputs": [
        {
          "internalType": "bytes32",
          "name": "_surveyName",
          "type": "bytes32"
        },
        {
          "internalType": "uint256",
          "name": "_variableNumber",
          "type": "uint256"
        }
      ],
      "name": "getSurveyUintToBytes32ArrayStorage",
      "outputs": [
        {
          "internalType": "bytes32[]",
          "name": "",
          "type": "bytes32[]"
        }
      ],
      "stateMutability": "view",
      "type": "function",
      "constant": true
    },
    {
      "inputs": [
        {
          "internalType": "bytes32",
          "name": "_pollName",
          "type": "bytes32"
        }
      ],
      "name": "getUserParticipatedPollStatus",
      "outputs": [
        {
          "internalType": "bool",
          "name": "",
          "type": "bool"
        }
      ],
      "stateMutability": "view",
      "type": "function",
      "constant": true
    },
    {
      "inputs": [
        {
          "internalType": "bytes32",
          "name": "_surveyName",
          "type": "bytes32"
        }
      ],
      "name": "getUserParticipatedSurveyStatus",
      "outputs": [
        {
          "internalType": "bool",
          "name": "",
          "type": "bool"
        }
      ],
      "stateMutability": "view",
      "type": "function",
      "constant": true
    },
    {
      "inputs": [
        {
          "internalType": "string",
          "name": "_variableName",
          "type": "string"
        }
      ],
      "name": "getUserStringToBytes32ArrayStorage",
      "outputs": [
        {
          "internalType": "bytes32[]",
          "name": "",
          "type": "bytes32[]"
        }
      ],
      "stateMutability": "view",
      "type": "function",
      "constant": true
    },
    {
      "inputs": [],
      "name": "owner",
      "outputs": [
        {
          "internalType": "address",
          "name": "",
          "type": "address"
        }
      ],
      "stateMutability": "view",
      "type": "function",
      "constant": true
    },
    {
      "inputs": [],
      "name": "renounceOwnership",
      "outputs": [],
      "stateMutability": "nonpayable",
      "type": "function"
    },
    {
      "inputs": [
        {
          "internalType": "address",
          "name": "newOwner",
          "type": "address"
        }
      ],
      "name": "transferOwnership",
      "outputs": [],
      "stateMutability": "nonpayable",
      "type": "function"
    },
    {
      "inputs": [
        {
          "internalType": "address",
          "name": "operator",
          "type": "address"
        },
        {
          "internalType": "address",
          "name": "from",
          "type": "address"
        },
        {
          "internalType": "address",
          "name": "to",
          "type": "address"
        },
        {
          "internalType": "uint256",
          "name": "amount",
          "type": "uint256"
        },
        {
          "internalType": "bytes",
          "name": "userData",
          "type": "bytes"
        },
        {
          "internalType": "bytes",
          "name": "operatorData",
          "type": "bytes"
        }
      ],
      "name": "tokensReceived",
      "outputs": [],
      "stateMutability": "nonpayable",
      "type": "function"
    },
    {
      "inputs": [
        {
          "internalType": "bytes32",
          "name": "_name",
          "type": "bytes32"
        },
        {
          "internalType": "bytes32[]",
          "name": "_questions",
          "type": "bytes32[]"
        },
        {
          "internalType": "uint256",
          "name": "_maxParticipants",
          "type": "uint256"
        },
        {
          "internalType": "uint256",
          "name": "_valueOfSurvey",
          "type": "uint256"
        }
      ],
      "name": "setSurvey",
      "outputs": [],
      "stateMutability": "nonpayable",
      "type": "function"
    },
    {
      "inputs": [
        {
          "internalType": "bytes32",
          "name": "_name",
          "type": "bytes32"
        },
        {
          "internalType": "bytes32[]",
          "name": "_answers",
          "type": "bytes32[]"
        }
      ],
      "name": "surveyParticipation",
      "outputs": [],
      "stateMutability": "nonpayable",
      "type": "function"
    },
    {
      "inputs": [
        {
          "internalType": "bytes32",
          "name": "_name",
          "type": "bytes32"
        }
      ],
      "name": "deleteSurvey",
      "outputs": [],
      "stateMutability": "nonpayable",
      "type": "function"
    }
  ],
  "bytecode": "0x6080604052731820a4b7618bde71dce8cdc73aab6c95905fad24600b60006101000a81548173ffffffffffffffffffffffffffffffffffffffff021916908373ffffffffffffffffffffffffffffffffffffffff1602179055503480156200006657600080fd5b5060405162003f7138038062003f71833981810160405260208110156200008c57600080fd5b81019080805190602001909291905050506000620000af6200028160201b60201c565b905080600960006101000a81548173ffffffffffffffffffffffffffffffffffffffff021916908373ffffffffffffffffffffffffffffffffffffffff1602179055508073ffffffffffffffffffffffffffffffffffffffff16600073ffffffffffffffffffffffffffffffffffffffff167f8be0079c531659141344cd1fd0a4f28419497f9722a3daafe3b4186f6b6457e060405160405180910390a35080600c60006101000a81548173ffffffffffffffffffffffffffffffffffffffff021916908373ffffffffffffffffffffffffffffffffffffffff160217905550600b60009054906101000a900473ffffffffffffffffffffffffffffffffffffffff1673ffffffffffffffffffffffffffffffffffffffff166329965a1d307fb281fc8c12954d22544db45de3159a39272895b169a852b314f9cc762e44c53b306040518463ffffffff1660e01b8152600401808473ffffffffffffffffffffffffffffffffffffffff1681526020018381526020018273ffffffffffffffffffffffffffffffffffffffff1681526020019350505050600060405180830381600087803b1580156200026157600080fd5b505af115801562000276573d6000803e3d6000fd5b505050505062000289565b600033905090565b613cd880620002996000396000f3fe608060405234801561001057600080fd5b50600436106101725760003560e01c80638da5cb5b116100de578063b2fa5c5511610097578063e8a4233511610071578063e8a42335146110a4578063f054dda414611131578063f2fde38b14611241578063fe0f3c8d1461128557610172565b8063b2fa5c5514610ea4578063cf35778014610ef0578063dfb70e1614610fcb57610172565b80638da5cb5b14610a0757806397a0c3fa14610a3b5780639cdbc76c14610b2a5780639f82f84c14610c68578063a073fd6414610d82578063a77b47ee14610e5857610172565b80635959954e116101305780635959954e1461069b57806364431b9c146107ab57806370bd0fc7146107ef578063715018a6146108ca57806374c00140146108d45780637dc70478146109c357610172565b806223de29146101775780630a3225a5146102af5780631d6d7cf41461033c5780632cf80fcb146104155780632d130ee41461052f5780632de1a2ca1461055d575b600080fd5b6102ad600480360360c081101561018d57600080fd5b81019080803573ffffffffffffffffffffffffffffffffffffffff169060200190929190803573ffffffffffffffffffffffffffffffffffffffff169060200190929190803573ffffffffffffffffffffffffffffffffffffffff169060200190929190803590602001909291908035906020019064010000000081111561021457600080fd5b82018360208201111561022657600080fd5b8035906020019184600183028401116401000000008311171561024857600080fd5b90919293919293908035906020019064010000000081111561026957600080fd5b82018360208201111561027b57600080fd5b8035906020019184600183028401116401000000008311171561029d57600080fd5b9091929391929390505050611347565b005b6102e5600480360360408110156102c557600080fd5b8101908080359060200190929190803590602001909291905050506114f0565b6040518080602001828103825283818151815260200191508051906020019060200280838360005b8381101561032857808201518184015260208101905061030d565b505050509050019250505060405180910390f35b6103ff6004803603604081101561035257600080fd5b81019080803590602001909291908035906020019064010000000081111561037957600080fd5b82018360208201111561038b57600080fd5b803590602001918460018302840111640100000000831117156103ad57600080fd5b91908080601f016020809104026020016040519081016040528093929190818152602001838380828437600081840152601f19601f820116905080830192505050505050509192919290505050611570565b6040518082815260200191505060405180910390f35b6104d86004803603604081101561042b57600080fd5b81019080803590602001909291908035906020019064010000000081111561045257600080fd5b82018360208201111561046457600080fd5b8035906020019184600183028401116401000000008311171561048657600080fd5b91908080601f016020809104026020016040519081016040528093929190818152602001838380828437600081840152601f19601f8201169050808301925050505050505091929192905050506115f8565b6040518080602001828103825283818151815260200191508051906020019060200280838360005b8381101561051b578082015181840152602081019050610500565b505050509050019250505060405180910390f35b61055b6004803603602081101561054557600080fd5b81019080803590602001909291905050506116ce565b005b6106206004803603604081101561057357600080fd5b81019080803590602001909291908035906020019064010000000081111561059a57600080fd5b8201836020820111156105ac57600080fd5b803590602001918460018302840111640100000000831117156105ce57600080fd5b91908080601f016020809104026020016040519081016040528093929190818152602001838380828437600081840152601f19601f820116905080830192505050505050509192919290505050611fb2565b6040518080602001828103825283818151815260200191508051906020019080838360005b83811015610660578082015181840152602081019050610645565b50505050905090810190601f16801561068d5780820380516001836020036101000a031916815260200191505b509250505060405180910390f35b610754600480360360208110156106b157600080fd5b81019080803590602001906401000000008111156106ce57600080fd5b8201836020820111156106e057600080fd5b8035906020019184600183028401116401000000008311171561070257600080fd5b91908080601f016020809104026020016040519081016040528093929190818152602001838380828437600081840152601f19601f8201169050808301925050505050505091929192905050506120d1565b6040518080602001828103825283818151815260200191508051906020019060200280838360005b8381101561079757808201518184015260208101905061077c565b505050509050019250505060405180910390f35b6107d7600480360360208110156107c157600080fd5b81019080803590602001909291905050506121d2565b60405180821515815260200191505060405180910390f35b6108b26004803603604081101561080557600080fd5b81019080803590602001909291908035906020019064010000000081111561082c57600080fd5b82018360208201111561083e57600080fd5b8035906020019184600183028401116401000000008311171561086057600080fd5b91908080601f016020809104026020016040519081016040528093929190818152602001838380828437600081840152601f19601f82011690508083019250505050505050919291929050505061223c565b60405180821515815260200191505060405180910390f35b6108d26122d1565b005b610997600480360360408110156108ea57600080fd5b81019080803590602001909291908035906020019064010000000081111561091157600080fd5b82018360208201111561092357600080fd5b8035906020019184600183028401116401000000008311171561094557600080fd5b91908080601f016020809104026020016040519081016040528093929190818152602001838380828437600081840152601f19601f82011690508083019250505050505050919291929050505061245c565b604051808273ffffffffffffffffffffffffffffffffffffffff16815260200191505060405180910390f35b6109ef600480360360208110156109d957600080fd5b8101908080359060200190929190505050612503565b60405180821515815260200191505060405180910390f35b610a0f61256d565b604051808273ffffffffffffffffffffffffffffffffffffffff16815260200191505060405180910390f35b610afe60048036036040811015610a5157600080fd5b810190808035906020019092919080359060200190640100000000811115610a7857600080fd5b820183602082011115610a8a57600080fd5b80359060200191846001830284011164010000000083111715610aac57600080fd5b91908080601f016020809104026020016040519081016040528093929190818152602001838380828437600081840152601f19601f820116905080830192505050505050509192919290505050612597565b604051808273ffffffffffffffffffffffffffffffffffffffff16815260200191505060405180910390f35b610bed60048036036040811015610b4057600080fd5b810190808035906020019092919080359060200190640100000000811115610b6757600080fd5b820183602082011115610b7957600080fd5b80359060200191846001830284011164010000000083111715610b9b57600080fd5b91908080601f016020809104026020016040519081016040528093929190818152602001838380828437600081840152601f19601f82011690508083019250505050505050919291929050505061263f565b6040518080602001828103825283818151815260200191508051906020019080838360005b83811015610c2d578082015181840152602081019050610c12565b50505050905090810190601f168015610c5a5780820380516001836020036101000a031916815260200191505b509250505060405180910390f35b610d2b60048036036040811015610c7e57600080fd5b810190808035906020019092919080359060200190640100000000811115610ca557600080fd5b820183602082011115610cb757600080fd5b80359060200191846001830284011164010000000083111715610cd957600080fd5b91908080601f016020809104026020016040519081016040528093929190818152602001838380828437600081840152601f19601f82011690508083019250505050505050919291929050505061275f565b6040518080602001828103825283818151815260200191508051906020019060200280838360005b83811015610d6e578082015181840152602081019050610d53565b505050509050019250505060405180910390f35b610e5660048036036080811015610d9857600080fd5b810190808035906020019092919080359060200190640100000000811115610dbf57600080fd5b820183602082011115610dd157600080fd5b80359060200191846020830284011164010000000083111715610df357600080fd5b919080806020026020016040519081016040528093929190818152602001838360200280828437600081840152601f19601f8201169050808301925050505050505091929192908035906020019092919080359060200190929190505050612834565b005b610e8e60048036036040811015610e6e57600080fd5b810190808035906020019092919080359060200190929190505050612fee565b6040518082815260200191505060405180910390f35b610eda60048036036040811015610eba57600080fd5b81019080803590602001909291908035906020019092919050505061301f565b6040518082815260200191505060405180910390f35b610fb360048036036040811015610f0657600080fd5b810190808035906020019092919080359060200190640100000000811115610f2d57600080fd5b820183602082011115610f3f57600080fd5b80359060200191846001830284011164010000000083111715610f6157600080fd5b91908080601f016020809104026020016040519081016040528093929190818152602001838380828437600081840152601f19601f820116905080830192505050505050509192919290505050613051565b60405180821515815260200191505060405180910390f35b61108e60048036036040811015610fe157600080fd5b81019080803590602001909291908035906020019064010000000081111561100857600080fd5b82018360208201111561101a57600080fd5b8035906020019184600183028401116401000000008311171561103c57600080fd5b91908080601f016020809104026020016040519081016040528093929190818152602001838380828437600081840152601f19601f8201169050808301925050505050505091929192905050506130e5565b6040518082815260200191505060405180910390f35b6110da600480360360408110156110ba57600080fd5b81019080803590602001909291908035906020019092919050505061316c565b6040518080602001828103825283818151815260200191508051906020019060200280838360005b8381101561111d578082015181840152602081019050611102565b505050509050019250505060405180910390f35b6111ea6004803603602081101561114757600080fd5b810190808035906020019064010000000081111561116457600080fd5b82018360208201111561117657600080fd5b8035906020019184600183028401116401000000008311171561119857600080fd5b91908080601f016020809104026020016040519081016040528093929190818152602001838380828437600081840152601f19601f8201169050808301925050505050505091929192905050506131eb565b6040518080602001828103825283818151815260200191508051906020019060200280838360005b8381101561122d578082015181840152602081019050611212565b505050509050019250505060405180910390f35b6112836004803603602081101561125757600080fd5b81019080803573ffffffffffffffffffffffffffffffffffffffff1690602001909291905050506132ac565b005b6113456004803603604081101561129b57600080fd5b8101908080359060200190929190803590602001906401000000008111156112c257600080fd5b8201836020820111156112d457600080fd5b803590602001918460208302840111640100000000831117156112f657600080fd5b919080806020026020016040519081016040528093929190818152602001838360200280828437600081840152601f19601f8201169050808301925050505050505091929192905050506134bc565b005b600c60009054906101000a900473ffffffffffffffffffffffffffffffffffffffff1673ffffffffffffffffffffffffffffffffffffffff163373ffffffffffffffffffffffffffffffffffffffff16146113ed576040517f08c379a0000000000000000000000000000000000000000000000000000000008152600401808060200182810382526021815260200180613bea6021913960400191505060405180910390fd5b7fa0a5a35754b3519ae614f00422ac62a6bc4608ccb722963aab00cb48c588ad728888888888888888604051808973ffffffffffffffffffffffffffffffffffffffff1681526020018873ffffffffffffffffffffffffffffffffffffffff1681526020018773ffffffffffffffffffffffffffffffffffffffff16815260200186815260200180602001806020018381038352878782818152602001925080828437600081840152601f19601f8201169050808301925050508381038252858582818152602001925080828437600081840152601f19601f8201169050808301925050509a505050505050505050505060405180910390a15050505050505050565b606060016000848152602001908152602001600020600001600083815260200190815260200160002080548060200260200160405190810160405280929190818152602001828054801561156357602002820191906000526020600020905b81548152602001906001019080831161154f575b5050505050905092915050565b600060016000848152602001908152602001600020600301826040518082805190602001908083835b602083106115bc5780518252602082019150602081019050602083039250611599565b6001836020036101000a038019825116818451168082178552505050505050905001915050908152602001604051809103902054905092915050565b606060016000848152602001908152602001600020600101826040518082805190602001908083835b602083106116445780518252602082019150602081019050602083039250611621565b6001836020036101000a03801982511681845116808217855250505050505090500191505090815260200160405180910390208054806020026020016040519081016040528092919081815260200182805480156116c157602002820191906000526020600020905b8154815260200190600101908083116116ad575b5050505050905092915050565b3373ffffffffffffffffffffffffffffffffffffffff1660008083815260200190815260200160002060060160405180807f6f776e65720000000000000000000000000000000000000000000000000000008152506005019050908152602001604051809103902060009054906101000a900473ffffffffffffffffffffffffffffffffffffffff1673ffffffffffffffffffffffffffffffffffffffff161461177757600080fd5b60008082815260200190815260200160002060050160405180807f696e697469616c697a6564000000000000000000000000000000000000000000815250600b019050908152602001604051809103902060006101000a81549060ff021916905560005b60008083815260200190815260200160002060030160405180807f746f74616c506172746963697061746564000000000000000000000000000000815250601101905090815260200160405180910390205481101561191f5760005b60008084815260200190815260200160002060010160405180807f7175657374696f6e73000000000000000000000000000000000000000000000081525060090190509081526020016040518091039020805490508110156118df57600080848152602001908152602001600020600001600083815260200190815260200160002081815481106118c457fe5b90600052602060002001600090558080600101915050611837565b50600080838152602001908152602001600020600001600082815260200190815260200160002060006119129190613b5e565b80806001019150506117db565b5060008082815260200190815260200160002060010160405180807f7175657374696f6e73000000000000000000000000000000000000000000000081525060090190509081526020016040518091039020600061197d9190613b5e565b60008082815260200190815260200160002060060160405180807f6f776e65720000000000000000000000000000000000000000000000000000008152506005019050908152602001604051809103902060006101000a81549073ffffffffffffffffffffffffffffffffffffffff021916905560008082815260200190815260200160002060050160405180807f73746f7070656453746174757300000000000000000000000000000000000000815250600d019050908152602001604051809103902060006101000a81549060ff021916905560008082815260200190815260200160002060030160405180807f76616c7565000000000000000000000000000000000000000000000000000000815250600501905090815260200160405180910390206000905560008082815260200190815260200160002060030160405180807f6d61785061727469636970616e74730000000000000000000000000000000000815250600f01905090815260200160405180910390206000905560008082815260200190815260200160002060030160405180807f746f74616c5061727469636970617465640000000000000000000000000000008152506011019050908152602001604051809103902060009055600080600083815260200190815260200160002060030160405180807f737572766579496e646578496e416c6c53757276657973417272617900000000815250601c01905090815260200160405180910390205490505b6001600360405180807f7375727665797300000000000000000000000000000000000000000000000000815250600701905090815260200160405180910390208054905003811015611caf57600360405180807f7375727665797300000000000000000000000000000000000000000000000000815250600701905090815260200160405180910390206001820181548110611c4057fe5b9060005260206000200154600360405180807f7375727665797300000000000000000000000000000000000000000000000000815250600701905090815260200160405180910390208281548110611c9457fe5b90600052602060002001819055508080600101915050611ba8565b50600360405180807f737572766579730000000000000000000000000000000000000000000000000081525060070190509081526020016040518091039020805480611cf757fe5b6001900381819060005260206000200160009055905560008082815260200190815260200160002060030160405180807f737572766579496e646578496e416c6c53757276657973417272617900000000815250601c01905090815260200160405180910390206000905560008060008381526020019081526020016000206003016040518080613c7f60249139602401905090815260200160405180910390205490505b6001600260003373ffffffffffffffffffffffffffffffffffffffff1673ffffffffffffffffffffffffffffffffffffffff16815260200190815260200160002060020160405180807f7375727665797300000000000000000000000000000000000000000000000000815250600701905090815260200160405180910390208054905003811015611f6357600260003373ffffffffffffffffffffffffffffffffffffffff1673ffffffffffffffffffffffffffffffffffffffff16815260200190815260200160002060020160405180807f7375727665797300000000000000000000000000000000000000000000000000815250600701905090815260200160405180910390206001820181548110611eb457fe5b9060005260206000200154600260003373ffffffffffffffffffffffffffffffffffffffff1673ffffffffffffffffffffffffffffffffffffffff16815260200190815260200160002060020160405180807f7375727665797300000000000000000000000000000000000000000000000000815250600701905090815260200160405180910390208281548110611f4857fe5b90600052602060002001819055508080600101915050611d9c565b506000808281526020019081526020016000206003016040518080613c7f6024913960240190509081526020016040518091039020600090556000808281526020019081526020016000205050565b6060600080848152602001908152602001600020600401826040518082805190602001908083835b60208310611ffd5780518252602082019150602081019050602083039250611fda565b6001836020036101000a03801982511681845116808217855250505050505090500191505090815260200160405180910390208054600181600116156101000203166002900480601f0160208091040260200160405190810160405280929190818152602001828054600181600116156101000203166002900480156120c45780601f10612099576101008083540402835291602001916120c4565b820191906000526020600020905b8154815290600101906020018083116120a757829003601f168201915b5050505050905092915050565b6060600260003373ffffffffffffffffffffffffffffffffffffffff1673ffffffffffffffffffffffffffffffffffffffff168152602001908152602001600020600201826040518082805190602001908083835b602083106121495780518252602082019150602081019050602083039250612126565b6001836020036101000a03801982511681845116808217855250505050505090500191505090815260200160405180910390208054806020026020016040519081016040528092919081815260200182805480156121c657602002820191906000526020600020905b8154815260200190600101908083116121b2575b50505050509050919050565b6000600260003373ffffffffffffffffffffffffffffffffffffffff1673ffffffffffffffffffffffffffffffffffffffff168152602001908152602001600020600001600083815260200190815260200160002060009054906101000a900460ff169050919050565b600060016000848152602001908152602001600020600501826040518082805190602001908083835b602083106122885780518252602082019150602081019050602083039250612265565b6001836020036101000a038019825116818451168082178552505050505050905001915050908152602001604051809103902060009054906101000a900460ff16905092915050565b6122d9613b56565b73ffffffffffffffffffffffffffffffffffffffff16600960009054906101000a900473ffffffffffffffffffffffffffffffffffffffff1673ffffffffffffffffffffffffffffffffffffffff161461239b576040517f08c379a00000000000000000000000000000000000000000000000000000000081526004018080602001828103825260208152602001807f4f776e61626c653a2063616c6c6572206973206e6f7420746865206f776e657281525060200191505060405180910390fd5b600073ffffffffffffffffffffffffffffffffffffffff16600960009054906101000a900473ffffffffffffffffffffffffffffffffffffffff1673ffffffffffffffffffffffffffffffffffffffff167f8be0079c531659141344cd1fd0a4f28419497f9722a3daafe3b4186f6b6457e060405160405180910390a36000600960006101000a81548173ffffffffffffffffffffffffffffffffffffffff021916908373ffffffffffffffffffffffffffffffffffffffff160217905550565b6000806000848152602001908152602001600020600601826040518082805190602001908083835b602083106124a75780518252602082019150602081019050602083039250612484565b6001836020036101000a038019825116818451168082178552505050505050905001915050908152602001604051809103902060009054906101000a900473ffffffffffffffffffffffffffffffffffffffff16905092915050565b6000600260003373ffffffffffffffffffffffffffffffffffffffff1673ffffffffffffffffffffffffffffffffffffffff168152602001908152602001600020600101600083815260200190815260200160002060009054906101000a900460ff169050919050565b6000600960009054906101000a900473ffffffffffffffffffffffffffffffffffffffff16905090565b600060016000848152602001908152602001600020600601826040518082805190602001908083835b602083106125e357805182526020820191506020810190506020830392506125c0565b6001836020036101000a038019825116818451168082178552505050505050905001915050908152602001604051809103902060009054906101000a900473ffffffffffffffffffffffffffffffffffffffff16905092915050565b606060016000848152602001908152602001600020600401826040518082805190602001908083835b6020831061268b5780518252602082019150602081019050602083039250612668565b6001836020036101000a03801982511681845116808217855250505050505090500191505090815260200160405180910390208054600181600116156101000203166002900480601f0160208091040260200160405190810160405280929190818152602001828054600181600116156101000203166002900480156127525780601f1061272757610100808354040283529160200191612752565b820191906000526020600020905b81548152906001019060200180831161273557829003601f168201915b5050505050905092915050565b6060600080848152602001908152602001600020600101826040518082805190602001908083835b602083106127aa5780518252602082019150602081019050602083039250612787565b6001836020036101000a038019825116818451168082178552505050505050905001915050908152602001604051809103902080548060200260200160405190810160405280929190818152602001828054801561282757602002820191906000526020600020905b815481526020019060010190808311612813575b5050505050905092915050565b655af3107a400082828161284457fe5b04101561289c576040517f08c379a0000000000000000000000000000000000000000000000000000000008152600401808060200182810382526025815260200180613c5a6025913960400191505060405180910390fd5b600360405180807f73757276657973000000000000000000000000000000000000000000000000008152506007019050908152602001604051809103902084908060018154018082558091505060019003906000526020600020016000909190919091505560008085815260200190815260200160002060050160405180807f696e697469616c697a6564000000000000000000000000000000000000000000815250600b019050908152602001604051809103902060009054906101000a900460ff16156129b6576040517f08c379a0000000000000000000000000000000000000000000000000000000008152600401808060200182810382526029815260200180613c316029913960400191505060405180910390fd5b600160008086815260200190815260200160002060050160405180807f696e697469616c697a6564000000000000000000000000000000000000000000815250600b019050908152602001604051809103902060006101000a81548160ff0219169083151502179055508260008086815260200190815260200160002060010160405180807f7175657374696f6e730000000000000000000000000000000000000000000000815250600901905090815260200160405180910390209080519060200190612a85929190613b7f565b503360008086815260200190815260200160002060060160405180807f6f776e65720000000000000000000000000000000000000000000000000000008152506005019050908152602001604051809103902060006101000a81548173ffffffffffffffffffffffffffffffffffffffff021916908373ffffffffffffffffffffffffffffffffffffffff160217905550600080600086815260200190815260200160002060050160405180807f73746f7070656453746174757300000000000000000000000000000000000000815250600d019050908152602001604051809103902060006101000a81548160ff0219169083151502179055508060008086815260200190815260200160002060030160405180807f76616c756500000000000000000000000000000000000000000000000000000081525060050190509081526020016040518091039020819055508160008086815260200190815260200160002060030160405180807f6d61785061727469636970616e74730000000000000000000000000000000000815250600f019050908152602001604051809103902081905550600080600086815260200190815260200160002060030160405180807f746f74616c50617274696369706174656400000000000000000000000000000081525060110190509081526020016040518091039020819055506001600360405180807f737572766579730000000000000000000000000000000000000000000000000081525060070190509081526020016040518091039020805490500360008086815260200190815260200160002060030160405180807f737572766579496e646578496e416c6c53757276657973417272617900000000815250601c019050908152602001604051809103902081905550600260003373ffffffffffffffffffffffffffffffffffffffff1673ffffffffffffffffffffffffffffffffffffffff16815260200190815260200160002060020160405180807f7375727665797300000000000000000000000000000000000000000000000000815250600701905090815260200160405180910390208490806001815401808255809150506001900390600052602060002001600090919091909150556001600260003373ffffffffffffffffffffffffffffffffffffffff1673ffffffffffffffffffffffffffffffffffffffff16815260200190815260200160002060020160405180807f73757276657973000000000000000000000000000000000000000000000000008152506007019050908152602001604051809103902080549050036000808681526020019081526020016000206003016040518080613c7f602491396024019050908152602001604051809103902081905550600c60009054906101000a900473ffffffffffffffffffffffffffffffffffffffff1673ffffffffffffffffffffffffffffffffffffffff166362ad1b833330846040518463ffffffff1660e01b8152600401808473ffffffffffffffffffffffffffffffffffffffff1681526020018373ffffffffffffffffffffffffffffffffffffffff168152602001828152602001806020018060200183810383526000815260200160200183810382526000815260200160200195505050505050600060405180830381600087803b158015612f5857600080fd5b505af1158015612f6c573d6000803e3d6000fd5b505050507f448785165b227b28d3bdfd0e352a52b17641dc504a6eed914cf40d5619cacb5a600360405180807f737572766579730000000000000000000000000000000000000000000000000081525060070190509081526020016040518091039020805490506040518082815260200191505060405180910390a150505050565b6000806000848152602001908152602001600020600201600083815260200190815260200160002054905092915050565b600060016000848152602001908152602001600020600201600083815260200190815260200160002054905092915050565b6000806000848152602001908152602001600020600501826040518082805190602001908083835b6020831061309c5780518252602082019150602081019050602083039250613079565b6001836020036101000a038019825116818451168082178552505050505050905001915050908152602001604051809103902060009054906101000a900460ff16905092915050565b6000806000848152602001908152602001600020600301826040518082805190602001908083835b60208310613130578051825260208201915060208101905060208303925061310d565b6001836020036101000a038019825116818451168082178552505050505050905001915050908152602001604051809103902054905092915050565b606060008084815260200190815260200160002060000160008381526020019081526020016000208054806020026020016040519081016040528092919081815260200182805480156131de57602002820191906000526020600020905b8154815260200190600101908083116131ca575b5050505050905092915050565b60606003826040518082805190602001908083835b602083106132235780518252602082019150602081019050602083039250613200565b6001836020036101000a03801982511681845116808217855250505050505090500191505090815260200160405180910390208054806020026020016040519081016040528092919081815260200182805480156132a057602002820191906000526020600020905b81548152602001906001019080831161328c575b50505050509050919050565b6132b4613b56565b73ffffffffffffffffffffffffffffffffffffffff16600960009054906101000a900473ffffffffffffffffffffffffffffffffffffffff1673ffffffffffffffffffffffffffffffffffffffff1614613376576040517f08c379a00000000000000000000000000000000000000000000000000000000081526004018080602001828103825260208152602001807f4f776e61626c653a2063616c6c6572206973206e6f7420746865206f776e657281525060200191505060405180910390fd5b600073ffffffffffffffffffffffffffffffffffffffff168173ffffffffffffffffffffffffffffffffffffffff1614156133fc576040517f08c379a0000000000000000000000000000000000000000000000000000000008152600401808060200182810382526026815260200180613c0b6026913960400191505060405180910390fd5b8073ffffffffffffffffffffffffffffffffffffffff16600960009054906101000a900473ffffffffffffffffffffffffffffffffffffffff1673ffffffffffffffffffffffffffffffffffffffff167f8be0079c531659141344cd1fd0a4f28419497f9722a3daafe3b4186f6b6457e060405160405180910390a380600960006101000a81548173ffffffffffffffffffffffffffffffffffffffff021916908373ffffffffffffffffffffffffffffffffffffffff16021790555050565b60008083815260200190815260200160002060050160405180807f73746f7070656453746174757300000000000000000000000000000000000000815250600d019050908152602001604051809103902060009054906101000a900460ff161561352557600080fd5b600260003373ffffffffffffffffffffffffffffffffffffffff1673ffffffffffffffffffffffffffffffffffffffff168152602001908152602001600020600001600083815260200190815260200160002060009054906101000a900460ff161561359057600080fd5b3373ffffffffffffffffffffffffffffffffffffffff1660008084815260200190815260200160002060060160405180807f6f776e65720000000000000000000000000000000000000000000000000000008152506005019050908152602001604051809103902060009054906101000a900473ffffffffffffffffffffffffffffffffffffffff1673ffffffffffffffffffffffffffffffffffffffff16141561363a57600080fd5b6001600260003373ffffffffffffffffffffffffffffffffffffffff1673ffffffffffffffffffffffffffffffffffffffff168152602001908152602001600020600001600084815260200190815260200160002060006101000a81548160ff02191690831515021790555060008083815260200190815260200160002060030160405180807f746f74616c506172746963697061746564000000000000000000000000000000815250601101905090815260200160405180910390206000815480929190600101919050555060008083815260200190815260200160002060030160405180807f746f74616c506172746963697061746564000000000000000000000000000000815250601101905090815260200160405180910390205460008084815260200190815260200160002060030160405180807f6d61785061727469636970616e74730000000000000000000000000000000000815250600f019050908152602001604051809103902054141561381c57600160008084815260200190815260200160002060050160405180807f73746f7070656453746174757300000000000000000000000000000000000000815250600d019050908152602001604051809103902060006101000a81548160ff0219169083151502179055505b806000808481526020019081526020016000206000016000600160008087815260200190815260200160002060030160405180807f746f74616c506172746963697061746564000000000000000000000000000000815250601101905090815260200160405180910390205403815260200190815260200160002090805190602001906138aa929190613b7f565b506000600a60008085815260200190815260200160002060030160405180807f7061727469636970616e7473416c6c6f77656400000000000000000000000000815250601301905090815260200160405180910390205460008086815260200190815260200160002060030160405180807f76616c756500000000000000000000000000000000000000000000000000000081525060050190509081526020016040518091039020548161395a57fe5b048161396257fe5b049050600c60009054906101000a900473ffffffffffffffffffffffffffffffffffffffff1673ffffffffffffffffffffffffffffffffffffffff166362ad1b83306139ac61256d565b846040518463ffffffff1660e01b8152600401808473ffffffffffffffffffffffffffffffffffffffff1681526020018373ffffffffffffffffffffffffffffffffffffffff168152602001828152602001806020018060200183810383526000815260200160200183810382526000815260200160200195505050505050600060405180830381600087803b158015613a4557600080fd5b505af1158015613a59573d6000803e3d6000fd5b50505050600c60009054906101000a900473ffffffffffffffffffffffffffffffffffffffff1673ffffffffffffffffffffffffffffffffffffffff166362ad1b833033600985026040518463ffffffff1660e01b8152600401808473ffffffffffffffffffffffffffffffffffffffff1681526020018373ffffffffffffffffffffffffffffffffffffffff168152602001828152602001806020018060200183810383526000815260200160200183810382526000815260200160200195505050505050600060405180830381600087803b158015613b3957600080fd5b505af1158015613b4d573d6000803e3d6000fd5b50505050505050565b600033905090565b5080546000825590600052602060002090810190613b7c9190613bcc565b50565b828054828255906000526020600020908101928215613bbb579160200282015b82811115613bba578251825591602001919060010190613b9f565b5b509050613bc89190613bcc565b5090565b5b80821115613be5576000816000905550600101613bcd565b509056fe53696d706c65373737526563697069656e743a20496e76616c696420746f6b656e4f776e61626c653a206e6577206f776e657220697320746865207a65726f2061646472657373546865726520697320616e6f746865722073757276657920776974682074652073616d65206e616d655061727469636970616e74277320626f756e74792073686f756c6420626520626967676572737572766579496e646578496e5573657243726561746564537572766579734172726179a2646970667358221220541a36e63cbcdf839764d0d30823af36ccdf4483d75dcbcec4bbf767e04ec79764736f6c634300060c0033",
  "immutableReferences": {},
  "source": "// SPDX-License-Identifier: MIT\r\n\r\npragma solidity 0.6.12;\r\n\r\nimport \"./Storage.sol\";\r\nimport \"@openzeppelin/contracts/access/Ownable.sol\";\r\nimport \"@openzeppelin/contracts/token/ERC777/IERC777.sol\";\r\nimport \"@openzeppelin/contracts/introspection/IERC1820Registry.sol\";\r\nimport \"@openzeppelin/contracts/token/ERC777/IERC777Recipient.sol\";\r\n\r\n\r\ncontract SurveyFunc is Storage, Ownable\r\n{\r\n//ERC777 emplementation + recipients\r\n\r\n  address private funcAddress;\r\n\r\n  IERC1820Registry private _erc1820 = IERC1820Registry(\r\n\t\t0x1820a4B7618BdE71Dce8cdc73aAB6C95905faD24\r\n\t);\r\n\tbytes32 private constant TOKENS_RECIPIENT_INTERFACE_HASH = keccak256(\r\n\t\t\"ERC777TokensRecipient\"\r\n\t);\r\n\r\n\tIERC777 private _token;\r\n\r\n\tevent DoneStuff(\r\n\t\taddress operator,\r\n\t\taddress from,\r\n\t\taddress to,\r\n\t\tuint256 amount,\r\n\t\tbytes userData,\r\n\t\tbytes operatorData\r\n\t);\r\n\r\n\tconstructor(address token) public {\r\n\t\t_token = IERC777(token);\r\n\r\n\t\t_erc1820.setInterfaceImplementer(\r\n\t\t\t\taddress(this),\r\n\t\t\t\tTOKENS_RECIPIENT_INTERFACE_HASH,\r\n\t\t\t\taddress(this)\r\n\t\t);\r\n\t}\r\n\r\n\tfunction tokensReceived(\r\n\t\taddress operator,\r\n\t\taddress from,\r\n\t\taddress to,\r\n\t\tuint256 amount,\r\n\t\tbytes calldata userData,\r\n\t\tbytes calldata operatorData\r\n\t) external {\r\n\t\trequire(\r\n\t\t\t\tmsg.sender == address(_token),\r\n\t\t\t\t\"Simple777Recipient: Invalid token\"\r\n\t\t);\r\n\r\n\t\t// do stuff\r\n\t\temit DoneStuff(operator, from, to, amount, userData, operatorData);\r\n\t}\r\n\r\n// Events\r\n\r\n  event surveyNumber(uint256 nr);\r\n\r\n// General app functions\r\n\r\n  function setSurvey(bytes32 _name, bytes32[] memory _questions, uint256 _maxParticipants, uint256 _valueOfSurvey) public\r\n  {\r\n    require(_valueOfSurvey/_maxParticipants >= 10 ** 14, \"Participant's bounty should be bigger\"); //participants bounty >= 0.0001\r\n    _stringToBytes32ArrayStorage['surveys'].push(_name); //save new survey name\r\n    require(!_surveyStorage[_name]._boolStorage['initialized'], \"There is another survey with te same name\"); //create unique surveys\r\n    _surveyStorage[_name]._boolStorage['initialized'] = true; //initialize the survey\r\n    _surveyStorage[_name]._stringToBytes32ArrayStorage['questions'] = _questions; //save questions\r\n    _surveyStorage[_name]._addressStorage['owner'] = msg.sender; //save owner\r\n    _surveyStorage[_name]._boolStorage['stoppedStatus'] = false; //set stop status for new survey\r\n    _surveyStorage[_name]._uintStorage['value'] = _valueOfSurvey; //set the value of survey in UFO tokens\r\n    _surveyStorage[_name]._uintStorage['maxParticipants'] = _maxParticipants; //set max participants allowed\r\n    _surveyStorage[_name]._uintStorage['totalParticipated'] = 0; //set total participants for new survey\r\n    _surveyStorage[_name]._uintStorage['surveyIndexInAllSurveysArray'] = _stringToBytes32ArrayStorage['surveys'].length - 1; //set index in all surveys array\r\n    _userStorage[msg.sender]._stringToBytes32ArrayStorage['surveys'].push(_name); //add new survey to user account\r\n    _surveyStorage[_name]._uintStorage['surveyIndexInUserCreatedSurveysArray'] = _userStorage[msg.sender]._stringToBytes32ArrayStorage['surveys'].length - 1; //set index in user created surveys array\r\n    _token.operatorSend(msg.sender, address(this), _valueOfSurvey, \"\", \"\"); //send tokens to Smart Contract\r\n    emit surveyNumber(_stringToBytes32ArrayStorage['surveys'].length); //emit total number of surveys\r\n  }\r\n\r\n  function surveyParticipation(bytes32 _name, bytes32[] memory _answers) public\r\n  {\r\n    require(!_surveyStorage[_name]._boolStorage['stoppedStatus']); //require that the survey is still active\r\n    require(!_userStorage[msg.sender].participatedSurveys[_name]); //require that the user did not participate at this survey\r\n    require(_surveyStorage[_name]._addressStorage['owner'] != msg.sender); //the owner cannot participate at his survey\r\n    _userStorage[msg.sender].participatedSurveys[_name] = true; //set participation\r\n    _surveyStorage[_name]._uintStorage['totalParticipated']++; //increase participants\r\n    if(_surveyStorage[_name]._uintStorage['maxParticipants'] == _surveyStorage[_name]._uintStorage['totalParticipated']) {\r\n      _surveyStorage[_name]._boolStorage['stoppedStatus'] = true; //if max participants number is reached, stop the survey\r\n    }\r\n    _surveyStorage[_name]._uintToBytes32ArrayStorage[(_surveyStorage[_name]._uintStorage['totalParticipated'] - 1)] = _answers; //add new answers\r\n    uint256 _dappCreatorsReward = (_surveyStorage[_name]._uintStorage['value'] / _surveyStorage[_name]._uintStorage['participantsAllowed'])/10;\r\n    _token.operatorSend(address(this), Ownable.owner(), _dappCreatorsReward, '', ''); //send rewards to owner\r\n    _token.operatorSend(address(this), msg.sender, _dappCreatorsReward * 9, '', ''); //send bounty to participants\r\n  }\r\n\r\n  function deleteSurvey(bytes32 _name) public\r\n  {\r\n    require(_surveyStorage[_name]._addressStorage['owner'] == msg.sender); //only the owner of the survey can delete the survey\r\n    //delete the survey\r\n    delete _surveyStorage[_name]._boolStorage['initialized'];\r\n    for (uint256 i = 0; i < _surveyStorage[_name]._uintStorage['totalParticipated']; i++) {\r\n      for (uint256 j = 0; j < _surveyStorage[_name]._stringToBytes32ArrayStorage['questions'].length; j++) {\r\n        delete _surveyStorage[_name]._uintToBytes32ArrayStorage[i][j];\r\n      }\r\n      delete _surveyStorage[_name]._uintToBytes32ArrayStorage[i];\r\n    }\r\n    delete _surveyStorage[_name]._stringToBytes32ArrayStorage['questions'];\r\n    delete _surveyStorage[_name]._addressStorage['owner'];\r\n    delete _surveyStorage[_name]._boolStorage['stoppedStatus'];\r\n    delete _surveyStorage[_name]._uintStorage['value'];\r\n    delete _surveyStorage[_name]._uintStorage['maxParticipants'];\r\n    delete _surveyStorage[_name]._uintStorage['totalParticipated'];\r\n    for (uint256 i = _surveyStorage[_name]._uintStorage['surveyIndexInAllSurveysArray']; i < _stringToBytes32ArrayStorage['surveys'].length - 1; i++) {\r\n      _stringToBytes32ArrayStorage['surveys'][i] = _stringToBytes32ArrayStorage['surveys'][i + 1];\r\n    }\r\n    _stringToBytes32ArrayStorage['surveys'].pop();\r\n    delete _surveyStorage[_name]._uintStorage['surveyIndexInAllSurveysArray'];\r\n    for (uint256 i = _surveyStorage[_name]._uintStorage['surveyIndexInUserCreatedSurveysArray']; i < _userStorage[msg.sender]._stringToBytes32ArrayStorage['surveys'].length - 1; i++) {\r\n      _userStorage[msg.sender]._stringToBytes32ArrayStorage['surveys'][i] = _userStorage[msg.sender]._stringToBytes32ArrayStorage['surveys'][i + 1];\r\n    }\r\n    delete _surveyStorage[_name]._uintStorage['surveyIndexInUserCreatedSurveysArray'];\r\n    delete _surveyStorage[_name];\r\n  }\r\n\r\n}\r\n",
  "sourcePath": "C:/Users/Daniel/Projects/Surveys_V2/contracts/SurveyFunc.sol",
  "compiler": {
    "name": "solc",
    "version": "0.6.12+commit.27d51765.Emscripten.clang"
  },
  "schemaVersion": "3.2.5",
  "updatedAt": "2020-10-15T22:37:13.330Z",
  "networkType": "ethereum",
  "devdoc": {
    "kind": "dev",
    "methods": {
      "owner()": {
        "details": "Returns the address of the current owner."
      },
      "renounceOwnership()": {
        "details": "Leaves the contract without owner. It will not be possible to call `onlyOwner` functions anymore. Can only be called by the current owner. NOTE: Renouncing ownership will leave the contract without an owner, thereby removing any functionality that is only available to the owner."
      },
      "transferOwnership(address)": {
        "details": "Transfers ownership of the contract to a new account (`newOwner`). Can only be called by the current owner."
      }
    },
    "version": 1
  },
  "userdoc": {
    "kind": "user",
    "methods": {},
    "version": 1
  }
}