{
  "contractName": "Token",
  "abi": [
    {
      "inputs": [
        {
          "internalType": "uint256",
          "name": "initialSupply",
          "type": "uint256"
        },
        {
          "internalType": "address[]",
          "name": "defaultOperators",
          "type": "address[]"
        }
      ],
      "stateMutability": "nonpayable",
      "type": "constructor"
    },
    {
      "anonymous": false,
      "inputs": [
        {
          "indexed": true,
          "internalType": "address",
          "name": "owner",
          "type": "address"
        },
        {
          "indexed": true,
          "internalType": "address",
          "name": "spender",
          "type": "address"
        },
        {
          "indexed": false,
          "internalType": "uint256",
          "name": "value",
          "type": "uint256"
        }
      ],
      "name": "Approval",
      "type": "event"
    },
    {
      "anonymous": false,
      "inputs": [
        {
          "indexed": true,
          "internalType": "address",
          "name": "operator",
          "type": "address"
        },
        {
          "indexed": true,
          "internalType": "address",
          "name": "tokenHolder",
          "type": "address"
        }
      ],
      "name": "AuthorizedOperator",
      "type": "event"
    },
    {
      "anonymous": false,
      "inputs": [
        {
          "indexed": true,
          "internalType": "address",
          "name": "operator",
          "type": "address"
        },
        {
          "indexed": true,
          "internalType": "address",
          "name": "from",
          "type": "address"
        },
        {
          "indexed": false,
          "internalType": "uint256",
          "name": "amount",
          "type": "uint256"
        },
        {
          "indexed": false,
          "internalType": "bytes",
          "name": "data",
          "type": "bytes"
        },
        {
          "indexed": false,
          "internalType": "bytes",
          "name": "operatorData",
          "type": "bytes"
        }
      ],
      "name": "Burned",
      "type": "event"
    },
    {
      "anonymous": false,
      "inputs": [
        {
          "indexed": true,
          "internalType": "address",
          "name": "operator",
          "type": "address"
        },
        {
          "indexed": true,
          "internalType": "address",
          "name": "to",
          "type": "address"
        },
        {
          "indexed": false,
          "internalType": "uint256",
          "name": "amount",
          "type": "uint256"
        },
        {
          "indexed": false,
          "internalType": "bytes",
          "name": "data",
          "type": "bytes"
        },
        {
          "indexed": false,
          "internalType": "bytes",
          "name": "operatorData",
          "type": "bytes"
        }
      ],
      "name": "Minted",
      "type": "event"
    },
    {
      "anonymous": false,
      "inputs": [
        {
          "indexed": true,
          "internalType": "address",
          "name": "previousOwner",
          "type": "address"
        },
        {
          "indexed": true,
          "internalType": "address",
          "name": "newOwner",
          "type": "address"
        }
      ],
      "name": "OwnershipTransferred",
      "type": "event"
    },
    {
      "anonymous": false,
      "inputs": [
        {
          "indexed": true,
          "internalType": "address",
          "name": "operator",
          "type": "address"
        },
        {
          "indexed": true,
          "internalType": "address",
          "name": "tokenHolder",
          "type": "address"
        }
      ],
      "name": "RevokedOperator",
      "type": "event"
    },
    {
      "anonymous": false,
      "inputs": [
        {
          "indexed": true,
          "internalType": "address",
          "name": "operator",
          "type": "address"
        },
        {
          "indexed": true,
          "internalType": "address",
          "name": "from",
          "type": "address"
        },
        {
          "indexed": true,
          "internalType": "address",
          "name": "to",
          "type": "address"
        },
        {
          "indexed": false,
          "internalType": "uint256",
          "name": "amount",
          "type": "uint256"
        },
        {
          "indexed": false,
          "internalType": "bytes",
          "name": "data",
          "type": "bytes"
        },
        {
          "indexed": false,
          "internalType": "bytes",
          "name": "operatorData",
          "type": "bytes"
        }
      ],
      "name": "Sent",
      "type": "event"
    },
    {
      "anonymous": false,
      "inputs": [
        {
          "indexed": true,
          "internalType": "address",
          "name": "from",
          "type": "address"
        },
        {
          "indexed": true,
          "internalType": "address",
          "name": "to",
          "type": "address"
        },
        {
          "indexed": false,
          "internalType": "uint256",
          "name": "value",
          "type": "uint256"
        }
      ],
      "name": "Transfer",
      "type": "event"
    },
    {
      "inputs": [
        {
          "internalType": "address",
          "name": "holder",
          "type": "address"
        },
        {
          "internalType": "address",
          "name": "spender",
          "type": "address"
        }
      ],
      "name": "allowance",
      "outputs": [
        {
          "internalType": "uint256",
          "name": "",
          "type": "uint256"
        }
      ],
      "stateMutability": "view",
      "type": "function",
      "constant": true
    },
    {
      "inputs": [
        {
          "internalType": "address",
          "name": "spender",
          "type": "address"
        },
        {
          "internalType": "uint256",
          "name": "value",
          "type": "uint256"
        }
      ],
      "name": "approve",
      "outputs": [
        {
          "internalType": "bool",
          "name": "",
          "type": "bool"
        }
      ],
      "stateMutability": "nonpayable",
      "type": "function"
    },
    {
      "inputs": [
        {
          "internalType": "address",
          "name": "operator",
          "type": "address"
        }
      ],
      "name": "authorizeOperator",
      "outputs": [],
      "stateMutability": "nonpayable",
      "type": "function"
    },
    {
      "inputs": [
        {
          "internalType": "address",
          "name": "tokenHolder",
          "type": "address"
        }
      ],
      "name": "balanceOf",
      "outputs": [
        {
          "internalType": "uint256",
          "name": "",
          "type": "uint256"
        }
      ],
      "stateMutability": "view",
      "type": "function",
      "constant": true
    },
    {
      "inputs": [
        {
          "internalType": "uint256",
          "name": "amount",
          "type": "uint256"
        },
        {
          "internalType": "bytes",
          "name": "data",
          "type": "bytes"
        }
      ],
      "name": "burn",
      "outputs": [],
      "stateMutability": "nonpayable",
      "type": "function"
    },
    {
      "inputs": [],
      "name": "decimals",
      "outputs": [
        {
          "internalType": "uint8",
          "name": "",
          "type": "uint8"
        }
      ],
      "stateMutability": "pure",
      "type": "function",
      "constant": true
    },
    {
      "inputs": [],
      "name": "defaultOperators",
      "outputs": [
        {
          "internalType": "address[]",
          "name": "",
          "type": "address[]"
        }
      ],
      "stateMutability": "view",
      "type": "function",
      "constant": true
    },
    {
      "inputs": [],
      "name": "granularity",
      "outputs": [
        {
          "internalType": "uint256",
          "name": "",
          "type": "uint256"
        }
      ],
      "stateMutability": "view",
      "type": "function",
      "constant": true
    },
    {
      "inputs": [
        {
          "internalType": "address",
          "name": "operator",
          "type": "address"
        },
        {
          "internalType": "address",
          "name": "tokenHolder",
          "type": "address"
        }
      ],
      "name": "isOperatorFor",
      "outputs": [
        {
          "internalType": "bool",
          "name": "",
          "type": "bool"
        }
      ],
      "stateMutability": "view",
      "type": "function",
      "constant": true
    },
    {
      "inputs": [],
      "name": "name",
      "outputs": [
        {
          "internalType": "string",
          "name": "",
          "type": "string"
        }
      ],
      "stateMutability": "view",
      "type": "function",
      "constant": true
    },
    {
      "inputs": [
        {
          "internalType": "address",
          "name": "account",
          "type": "address"
        },
        {
          "internalType": "uint256",
          "name": "amount",
          "type": "uint256"
        },
        {
          "internalType": "bytes",
          "name": "data",
          "type": "bytes"
        },
        {
          "internalType": "bytes",
          "name": "operatorData",
          "type": "bytes"
        }
      ],
      "name": "operatorBurn",
      "outputs": [],
      "stateMutability": "nonpayable",
      "type": "function"
    },
    {
      "inputs": [
        {
          "internalType": "address",
          "name": "sender",
          "type": "address"
        },
        {
          "internalType": "address",
          "name": "recipient",
          "type": "address"
        },
        {
          "internalType": "uint256",
          "name": "amount",
          "type": "uint256"
        },
        {
          "internalType": "bytes",
          "name": "data",
          "type": "bytes"
        },
        {
          "internalType": "bytes",
          "name": "operatorData",
          "type": "bytes"
        }
      ],
      "name": "operatorSend",
      "outputs": [],
      "stateMutability": "nonpayable",
      "type": "function"
    },
    {
      "inputs": [],
      "name": "owner",
      "outputs": [
        {
          "internalType": "address",
          "name": "",
          "type": "address"
        }
      ],
      "stateMutability": "view",
      "type": "function",
      "constant": true
    },
    {
      "inputs": [],
      "name": "renounceOwnership",
      "outputs": [],
      "stateMutability": "nonpayable",
      "type": "function"
    },
    {
      "inputs": [
        {
          "internalType": "address",
          "name": "operator",
          "type": "address"
        }
      ],
      "name": "revokeOperator",
      "outputs": [],
      "stateMutability": "nonpayable",
      "type": "function"
    },
    {
      "inputs": [
        {
          "internalType": "address",
          "name": "recipient",
          "type": "address"
        },
        {
          "internalType": "uint256",
          "name": "amount",
          "type": "uint256"
        },
        {
          "internalType": "bytes",
          "name": "data",
          "type": "bytes"
        }
      ],
      "name": "send",
      "outputs": [],
      "stateMutability": "nonpayable",
      "type": "function"
    },
    {
      "inputs": [],
      "name": "symbol",
      "outputs": [
        {
          "internalType": "string",
          "name": "",
          "type": "string"
        }
      ],
      "stateMutability": "view",
      "type": "function",
      "constant": true
    },
    {
      "inputs": [],
      "name": "totalSupply",
      "outputs": [
        {
          "internalType": "uint256",
          "name": "",
          "type": "uint256"
        }
      ],
      "stateMutability": "view",
      "type": "function",
      "constant": true
    },
    {
      "inputs": [
        {
          "internalType": "address",
          "name": "recipient",
          "type": "address"
        },
        {
          "internalType": "uint256",
          "name": "amount",
          "type": "uint256"
        }
      ],
      "name": "transfer",
      "outputs": [
        {
          "internalType": "bool",
          "name": "",
          "type": "bool"
        }
      ],
      "stateMutability": "nonpayable",
      "type": "function"
    },
    {
      "inputs": [
        {
          "internalType": "address",
          "name": "holder",
          "type": "address"
        },
        {
          "internalType": "address",
          "name": "recipient",
          "type": "address"
        },
        {
          "internalType": "uint256",
          "name": "amount",
          "type": "uint256"
        }
      ],
      "name": "transferFrom",
      "outputs": [
        {
          "internalType": "bool",
          "name": "",
          "type": "bool"
        }
      ],
      "stateMutability": "nonpayable",
      "type": "function"
    },
    {
      "inputs": [
        {
          "internalType": "address",
          "name": "newOwner",
          "type": "address"
        }
      ],
      "name": "transferOwnership",
      "outputs": [],
      "stateMutability": "nonpayable",
      "type": "function"
    }
  ],
  "bytecode": "0x60806040523480156200001157600080fd5b5060405162003f3a38038062003f3a833981810160405260408110156200003757600080fd5b8101908080519060200190929190805160405193929190846401000000008211156200006257600080fd5b838201915060208201858111156200007957600080fd5b82518660208202830111640100000000821117156200009757600080fd5b8083526020830192505050908051906020019060200280838360005b83811015620000d0578082015181840152602081019050620000b3565b505050509050016040525050506040518060400160405280601681526020017f556e73746f7061626c6520496e666f726d6174696f6e000000000000000000008152506040518060400160405280600381526020017f55464f00000000000000000000000000000000000000000000000000000000008152508282600290805190602001906200016292919062000c55565b5081600390805190602001906200017b92919062000c55565b5080600490805190602001906200019492919062000cdc565b5060005b600480549050811015620002445760016005600060048481548110620001ba57fe5b9060005260206000200160009054906101000a900473ffffffffffffffffffffffffffffffffffffffff1673ffffffffffffffffffffffffffffffffffffffff1673ffffffffffffffffffffffffffffffffffffffff16815260200190815260200160002060006101000a81548160ff021916908315150217905550808060010191505062000198565b50731820a4b7618bde71dce8cdc73aab6c95905fad2473ffffffffffffffffffffffffffffffffffffffff166329965a1d307fac7fbab5f54a3ca8194167523c6753bfeb96a445279294b6125b68cce2177054306040518463ffffffff1660e01b8152600401808473ffffffffffffffffffffffffffffffffffffffff1681526020018381526020018273ffffffffffffffffffffffffffffffffffffffff1681526020019350505050600060405180830381600087803b1580156200030957600080fd5b505af11580156200031e573d6000803e3d6000fd5b50505050731820a4b7618bde71dce8cdc73aab6c95905fad2473ffffffffffffffffffffffffffffffffffffffff166329965a1d307faea199e31a596269b42cdafd93407f14436db6e4cad65417994c2eb37381e05a306040518463ffffffff1660e01b8152600401808473ffffffffffffffffffffffffffffffffffffffff1681526020018381526020018273ffffffffffffffffffffffffffffffffffffffff1681526020019350505050600060405180830381600087803b158015620003e657600080fd5b505af1158015620003fb573d6000803e3d6000fd5b50505050505050600062000414620004f760201b60201c565b905080600960006101000a81548173ffffffffffffffffffffffffffffffffffffffff021916908373ffffffffffffffffffffffffffffffffffffffff1602179055508073ffffffffffffffffffffffffffffffffffffffff16600073ffffffffffffffffffffffffffffffffffffffff167f8be0079c531659141344cd1fd0a4f28419497f9722a3daafe3b4186f6b6457e060405160405180910390a350620004ef33670de0b6b3a764000084026040518060200160405280600081525060405180602001604052806000815250620004ff60201b60201c565b505062000dc7565b600033905090565b600073ffffffffffffffffffffffffffffffffffffffff168473ffffffffffffffffffffffffffffffffffffffff161415620005a3576040517f08c379a00000000000000000000000000000000000000000000000000000000081526004018080602001828103825260208152602001807f4552433737373a206d696e7420746f20746865207a65726f206164647265737381525060200191505060405180910390fd5b6000620005b5620004f760201b60201c565b9050620005cc81600087876200085360201b60201c565b620005e8846001546200085960201b62001d6a1790919060201c565b60018190555062000646846000808873ffffffffffffffffffffffffffffffffffffffff1673ffffffffffffffffffffffffffffffffffffffff168152602001908152602001600020546200085960201b62001d6a1790919060201c565b6000808773ffffffffffffffffffffffffffffffffffffffff1673ffffffffffffffffffffffffffffffffffffffff16815260200190815260200160002081905550620006a1816000878787876001620008e260201b60201c565b8473ffffffffffffffffffffffffffffffffffffffff168173ffffffffffffffffffffffffffffffffffffffff167f2fe5be0146f74c5bce36c0b80911af6c7d86ff27e89d5cfa61fc681327954e5d868686604051808481526020018060200180602001838103835285818151815260200191508051906020019080838360005b838110156200073f57808201518184015260208101905062000722565b50505050905090810190601f1680156200076d5780820380516001836020036101000a031916815260200191505b50838103825284818151815260200191508051906020019080838360005b83811015620007a85780820151818401526020810190506200078b565b50505050905090810190601f168015620007d65780820380516001836020036101000a031916815260200191505b509550505050505060405180910390a38473ffffffffffffffffffffffffffffffffffffffff16600073ffffffffffffffffffffffffffffffffffffffff167fddf252ad1be2c89b69c2b068fc378daa952ba7f163c4a11628f55a4df523b3ef866040518082815260200191505060405180910390a35050505050565b50505050565b600080828401905083811015620008d8576040517f08c379a000000000000000000000000000000000000000000000000000000000815260040180806020018281038252601b8152602001807f536166654d6174683a206164646974696f6e206f766572666c6f77000000000081525060200191505060405180910390fd5b8091505092915050565b6000731820a4b7618bde71dce8cdc73aab6c95905fad2473ffffffffffffffffffffffffffffffffffffffff1663aabbb8ca877fb281fc8c12954d22544db45de3159a39272895b169a852b314f9cc762e44c53b60001b6040518363ffffffff1660e01b8152600401808373ffffffffffffffffffffffffffffffffffffffff1681526020018281526020019250505060206040518083038186803b1580156200098b57600080fd5b505afa158015620009a0573d6000803e3d6000fd5b505050506040513d6020811015620009b757600080fd5b81019080805190602001909291905050509050600073ffffffffffffffffffffffffffffffffffffffff168173ffffffffffffffffffffffffffffffffffffffff161462000bab578073ffffffffffffffffffffffffffffffffffffffff166223de298989898989896040518763ffffffff1660e01b8152600401808773ffffffffffffffffffffffffffffffffffffffff1681526020018673ffffffffffffffffffffffffffffffffffffffff1681526020018573ffffffffffffffffffffffffffffffffffffffff1681526020018481526020018060200180602001838103835285818151815260200191508051906020019080838360005b8381101562000acf57808201518184015260208101905062000ab2565b50505050905090810190601f16801562000afd5780820380516001836020036101000a031916815260200191505b50838103825284818151815260200191508051906020019080838360005b8381101562000b3857808201518184015260208101905062000b1b565b50505050905090810190601f16801562000b665780820380516001836020036101000a031916815260200191505b5098505050505050505050600060405180830381600087803b15801562000b8c57600080fd5b505af115801562000ba1573d6000803e3d6000fd5b5050505062000c38565b811562000c375762000bde8673ffffffffffffffffffffffffffffffffffffffff1662000c4260201b62001df21760201c565b1562000c36576040517f08c379a000000000000000000000000000000000000000000000000000000000815260040180806020018281038252604d81526020018062003eed604d913960600191505060405180910390fd5b5b5b5050505050505050565b600080823b905060008111915050919050565b828054600181600116156101000203166002900490600052602060002090601f016020900481019282601f1062000c9857805160ff191683800117855562000cc9565b8280016001018555821562000cc9579182015b8281111562000cc857825182559160200191906001019062000cab565b5b50905062000cd8919062000d6b565b5090565b82805482825590600052602060002090810192821562000d58579160200282015b8281111562000d575782518260006101000a81548173ffffffffffffffffffffffffffffffffffffffff021916908373ffffffffffffffffffffffffffffffffffffffff1602179055509160200191906001019062000cfd565b5b50905062000d67919062000d8a565b5090565b5b8082111562000d8657600081600090555060010162000d6c565b5090565b5b8082111562000dc357600081816101000a81549073ffffffffffffffffffffffffffffffffffffffff02191690555060010162000d8b565b5090565b6131168062000dd76000396000f3fe608060405234801561001057600080fd5b50600436106101375760003560e01c80638da5cb5b116100b8578063d95b63711161007c578063d95b6371146107a5578063dd62ed3e1461081f578063f2fde38b14610897578063fad8b32a146108db578063fc673c4f1461091f578063fe9d930314610a9b57610137565b80638da5cb5b14610561578063959b8c3f1461059557806395d89b41146105d95780639bd9bbc61461065c578063a9059cbb1461074157610137565b8063313ce567116100ff578063313ce56714610324578063556f0dc71461034557806362ad1b831461036357806370a08231146104ff578063715018a61461055757610137565b806306e485381461013c57806306fdde031461019b578063095ea7b31461021e57806318160ddd1461028257806323b872dd146102a0575b600080fd5b610144610b60565b6040518080602001828103825283818151815260200191508051906020019060200280838360005b8381101561018757808201518184015260208101905061016c565b505050509050019250505060405180910390f35b6101a3610bee565b6040518080602001828103825283818151815260200191508051906020019080838360005b838110156101e35780820151818401526020810190506101c8565b50505050905090810190601f1680156102105780820380516001836020036101000a031916815260200191505b509250505060405180910390f35b61026a6004803603604081101561023457600080fd5b81019080803573ffffffffffffffffffffffffffffffffffffffff16906020019092919080359060200190929190505050610c90565b60405180821515815260200191505060405180910390f35b61028a610cb3565b6040518082815260200191505060405180910390f35b61030c600480360360608110156102b657600080fd5b81019080803573ffffffffffffffffffffffffffffffffffffffff169060200190929190803573ffffffffffffffffffffffffffffffffffffffff16906020019092919080359060200190929190505050610cbd565b60405180821515815260200191505060405180910390f35b61032c610f1b565b604051808260ff16815260200191505060405180910390f35b61034d610f24565b6040518082815260200191505060405180910390f35b6104fd600480360360a081101561037957600080fd5b81019080803573ffffffffffffffffffffffffffffffffffffffff169060200190929190803573ffffffffffffffffffffffffffffffffffffffff16906020019092919080359060200190929190803590602001906401000000008111156103e057600080fd5b8201836020820111156103f257600080fd5b8035906020019184600183028401116401000000008311171561041457600080fd5b91908080601f016020809104026020016040519081016040528093929190818152602001838380828437600081840152601f19601f8201169050808301925050505050505091929192908035906020019064010000000081111561047757600080fd5b82018360208201111561048957600080fd5b803590602001918460018302840111640100000000831117156104ab57600080fd5b91908080601f016020809104026020016040519081016040528093929190818152602001838380828437600081840152601f19601f820116905080830192505050505050509192919290505050610f2d565b005b6105416004803603602081101561051557600080fd5b81019080803573ffffffffffffffffffffffffffffffffffffffff169060200190929190505050610fa9565b6040518082815260200191505060405180910390f35b61055f610ff1565b005b61056961117c565b604051808273ffffffffffffffffffffffffffffffffffffffff16815260200191505060405180910390f35b6105d7600480360360208110156105ab57600080fd5b81019080803573ffffffffffffffffffffffffffffffffffffffff1690602001909291905050506111a6565b005b6105e161141d565b6040518080602001828103825283818151815260200191508051906020019080838360005b83811015610621578082015181840152602081019050610606565b50505050905090810190601f16801561064e5780820380516001836020036101000a031916815260200191505b509250505060405180910390f35b61073f6004803603606081101561067257600080fd5b81019080803573ffffffffffffffffffffffffffffffffffffffff16906020019092919080359060200190929190803590602001906401000000008111156106b957600080fd5b8201836020820111156106cb57600080fd5b803590602001918460018302840111640100000000831117156106ed57600080fd5b91908080601f016020809104026020016040519081016040528093929190818152602001838380828437600081840152601f19601f8201169050808301925050505050505091929192905050506114bf565b005b61078d6004803603604081101561075757600080fd5b81019080803573ffffffffffffffffffffffffffffffffffffffff169060200190929190803590602001909291905050506114e9565b60405180821515815260200191505060405180910390f35b610807600480360360408110156107bb57600080fd5b81019080803573ffffffffffffffffffffffffffffffffffffffff169060200190929190803573ffffffffffffffffffffffffffffffffffffffff16906020019092919050505061160d565b60405180821515815260200191505060405180910390f35b6108816004803603604081101561083557600080fd5b81019080803573ffffffffffffffffffffffffffffffffffffffff169060200190929190803573ffffffffffffffffffffffffffffffffffffffff1690602001909291905050506117be565b6040518082815260200191505060405180910390f35b6108d9600480360360208110156108ad57600080fd5b81019080803573ffffffffffffffffffffffffffffffffffffffff169060200190929190505050611845565b005b61091d600480360360208110156108f157600080fd5b81019080803573ffffffffffffffffffffffffffffffffffffffff169060200190929190505050611a55565b005b610a996004803603608081101561093557600080fd5b81019080803573ffffffffffffffffffffffffffffffffffffffff169060200190929190803590602001909291908035906020019064010000000081111561097c57600080fd5b82018360208201111561098e57600080fd5b803590602001918460018302840111640100000000831117156109b057600080fd5b91908080601f016020809104026020016040519081016040528093929190818152602001838380828437600081840152601f19601f82011690508083019250505050505050919291929080359060200190640100000000811115610a1357600080fd5b820183602082011115610a2557600080fd5b80359060200191846001830284011164010000000083111715610a4757600080fd5b91908080601f016020809104026020016040519081016040528093929190818152602001838380828437600081840152601f19601f820116905080830192505050505050509192919290505050611ccc565b005b610b5e60048036036040811015610ab157600080fd5b810190808035906020019092919080359060200190640100000000811115610ad857600080fd5b820183602082011115610aea57600080fd5b80359060200191846001830284011164010000000083111715610b0c57600080fd5b91908080601f016020809104026020016040519081016040528093929190818152602001838380828437600081840152601f19601f820116905080830192505050505050509192919290505050611d44565b005b60606004805480602002602001604051908101604052809291908181526020018280548015610be457602002820191906000526020600020905b8160009054906101000a900473ffffffffffffffffffffffffffffffffffffffff1673ffffffffffffffffffffffffffffffffffffffff1681526020019060010190808311610b9a575b5050505050905090565b606060028054600181600116156101000203166002900480601f016020809104026020016040519081016040528092919081815260200182805460018160011615610100020316600290048015610c865780601f10610c5b57610100808354040283529160200191610c86565b820191906000526020600020905b815481529060010190602001808311610c6957829003601f168201915b5050505050905090565b600080610c9b611e05565b9050610ca8818585611e0d565b600191505092915050565b6000600154905090565b60008073ffffffffffffffffffffffffffffffffffffffff168373ffffffffffffffffffffffffffffffffffffffff161415610d44576040517f08c379a0000000000000000000000000000000000000000000000000000000008152600401808060200182810382526024815260200180612ffc6024913960400191505060405180910390fd5b600073ffffffffffffffffffffffffffffffffffffffff168473ffffffffffffffffffffffffffffffffffffffff161415610dca576040517f08c379a00000000000000000000000000000000000000000000000000000000081526004018080602001828103825260268152602001806130756026913960400191505060405180910390fd5b6000610dd4611e05565b9050610e02818686866040518060200160405280600081525060405180602001604052806000815250612004565b610e2e8186868660405180602001604052806000815250604051806020016040528060008152506122c6565b610ee18582610edc8660405180606001604052806029815260200161304c60299139600860008c73ffffffffffffffffffffffffffffffffffffffff1673ffffffffffffffffffffffffffffffffffffffff16815260200190815260200160002060008873ffffffffffffffffffffffffffffffffffffffff1673ffffffffffffffffffffffffffffffffffffffff168152602001908152602001600020546125d59092919063ffffffff16565b611e0d565b610f0f8186868660405180602001604052806000815250604051806020016040528060008152506000612695565b60019150509392505050565b60006012905090565b60006001905090565b610f3e610f38611e05565b8661160d565b610f93576040517f08c379a000000000000000000000000000000000000000000000000000000000815260040180806020018281038252602c815260200180613020602c913960400191505060405180910390fd5b610fa2858585858560016129d8565b5050505050565b60008060008373ffffffffffffffffffffffffffffffffffffffff1673ffffffffffffffffffffffffffffffffffffffff168152602001908152602001600020549050919050565b610ff9611e05565b73ffffffffffffffffffffffffffffffffffffffff16600960009054906101000a900473ffffffffffffffffffffffffffffffffffffffff1673ffffffffffffffffffffffffffffffffffffffff16146110bb576040517f08c379a00000000000000000000000000000000000000000000000000000000081526004018080602001828103825260208152602001807f4f776e61626c653a2063616c6c6572206973206e6f7420746865206f776e657281525060200191505060405180910390fd5b600073ffffffffffffffffffffffffffffffffffffffff16600960009054906101000a900473ffffffffffffffffffffffffffffffffffffffff1673ffffffffffffffffffffffffffffffffffffffff167f8be0079c531659141344cd1fd0a4f28419497f9722a3daafe3b4186f6b6457e060405160405180910390a36000600960006101000a81548173ffffffffffffffffffffffffffffffffffffffff021916908373ffffffffffffffffffffffffffffffffffffffff160217905550565b6000600960009054906101000a900473ffffffffffffffffffffffffffffffffffffffff16905090565b8073ffffffffffffffffffffffffffffffffffffffff166111c5611e05565b73ffffffffffffffffffffffffffffffffffffffff161415611232576040517f08c379a0000000000000000000000000000000000000000000000000000000008152600401808060200182810382526024815260200180612f6a6024913960400191505060405180910390fd5b600560008273ffffffffffffffffffffffffffffffffffffffff1673ffffffffffffffffffffffffffffffffffffffff16815260200190815260200160002060009054906101000a900460ff161561131c5760076000611290611e05565b73ffffffffffffffffffffffffffffffffffffffff1673ffffffffffffffffffffffffffffffffffffffff16815260200190815260200160002060008273ffffffffffffffffffffffffffffffffffffffff1673ffffffffffffffffffffffffffffffffffffffff16815260200190815260200160002060006101000a81549060ff02191690556113b9565b60016006600061132a611e05565b73ffffffffffffffffffffffffffffffffffffffff1673ffffffffffffffffffffffffffffffffffffffff16815260200190815260200160002060008373ffffffffffffffffffffffffffffffffffffffff1673ffffffffffffffffffffffffffffffffffffffff16815260200190815260200160002060006101000a81548160ff0219169083151502179055505b6113c1611e05565b73ffffffffffffffffffffffffffffffffffffffff168173ffffffffffffffffffffffffffffffffffffffff167ff4caeb2d6ca8932a215a353d0703c326ec2d81fc68170f320eb2ab49e9df61f960405160405180910390a350565b606060038054600181600116156101000203166002900480601f0160208091040260200160405190810160405280929190818152602001828054600181600116156101000203166002900480156114b55780601f1061148a576101008083540402835291602001916114b5565b820191906000526020600020905b81548152906001019060200180831161149857829003601f168201915b5050505050905090565b6114e46114ca611e05565b8484846040518060200160405280600081525060016129d8565b505050565b60008073ffffffffffffffffffffffffffffffffffffffff168373ffffffffffffffffffffffffffffffffffffffff161415611570576040517f08c379a0000000000000000000000000000000000000000000000000000000008152600401808060200182810382526024815260200180612ffc6024913960400191505060405180910390fd5b600061157a611e05565b90506115a8818286866040518060200160405280600081525060405180602001604052806000815250612004565b6115d48182868660405180602001604052806000815250604051806020016040528060008152506122c6565b6116028182868660405180602001604052806000815250604051806020016040528060008152506000612695565b600191505092915050565b60008173ffffffffffffffffffffffffffffffffffffffff168373ffffffffffffffffffffffffffffffffffffffff1614806117255750600560008473ffffffffffffffffffffffffffffffffffffffff1673ffffffffffffffffffffffffffffffffffffffff16815260200190815260200160002060009054906101000a900460ff1680156117245750600760008373ffffffffffffffffffffffffffffffffffffffff1673ffffffffffffffffffffffffffffffffffffffff16815260200190815260200160002060008473ffffffffffffffffffffffffffffffffffffffff1673ffffffffffffffffffffffffffffffffffffffff16815260200190815260200160002060009054906101000a900460ff16155b5b806117b65750600660008373ffffffffffffffffffffffffffffffffffffffff1673ffffffffffffffffffffffffffffffffffffffff16815260200190815260200160002060008473ffffffffffffffffffffffffffffffffffffffff1673ffffffffffffffffffffffffffffffffffffffff16815260200190815260200160002060009054906101000a900460ff165b905092915050565b6000600860008473ffffffffffffffffffffffffffffffffffffffff1673ffffffffffffffffffffffffffffffffffffffff16815260200190815260200160002060008373ffffffffffffffffffffffffffffffffffffffff1673ffffffffffffffffffffffffffffffffffffffff16815260200190815260200160002054905092915050565b61184d611e05565b73ffffffffffffffffffffffffffffffffffffffff16600960009054906101000a900473ffffffffffffffffffffffffffffffffffffffff1673ffffffffffffffffffffffffffffffffffffffff161461190f576040517f08c379a00000000000000000000000000000000000000000000000000000000081526004018080602001828103825260208152602001807f4f776e61626c653a2063616c6c6572206973206e6f7420746865206f776e657281525060200191505060405180910390fd5b600073ffffffffffffffffffffffffffffffffffffffff168173ffffffffffffffffffffffffffffffffffffffff161415611995576040517f08c379a0000000000000000000000000000000000000000000000000000000008152600401808060200182810382526026815260200180612f226026913960400191505060405180910390fd5b8073ffffffffffffffffffffffffffffffffffffffff16600960009054906101000a900473ffffffffffffffffffffffffffffffffffffffff1673ffffffffffffffffffffffffffffffffffffffff167f8be0079c531659141344cd1fd0a4f28419497f9722a3daafe3b4186f6b6457e060405160405180910390a380600960006101000a81548173ffffffffffffffffffffffffffffffffffffffff021916908373ffffffffffffffffffffffffffffffffffffffff16021790555050565b611a5d611e05565b73ffffffffffffffffffffffffffffffffffffffff168173ffffffffffffffffffffffffffffffffffffffff161415611ae1576040517f08c379a0000000000000000000000000000000000000000000000000000000008152600401808060200182810382526021815260200180612f8e6021913960400191505060405180910390fd5b600560008273ffffffffffffffffffffffffffffffffffffffff1673ffffffffffffffffffffffffffffffffffffffff16815260200190815260200160002060009054906101000a900460ff1615611bd457600160076000611b41611e05565b73ffffffffffffffffffffffffffffffffffffffff1673ffffffffffffffffffffffffffffffffffffffff16815260200190815260200160002060008373ffffffffffffffffffffffffffffffffffffffff1673ffffffffffffffffffffffffffffffffffffffff16815260200190815260200160002060006101000a81548160ff021916908315150217905550611c68565b60066000611be0611e05565b73ffffffffffffffffffffffffffffffffffffffff1673ffffffffffffffffffffffffffffffffffffffff16815260200190815260200160002060008273ffffffffffffffffffffffffffffffffffffffff1673ffffffffffffffffffffffffffffffffffffffff16815260200190815260200160002060006101000a81549060ff02191690555b611c70611e05565b73ffffffffffffffffffffffffffffffffffffffff168173ffffffffffffffffffffffffffffffffffffffff167f50546e66e5f44d728365dc3908c63bc5cfeeab470722c1677e3073a6ac294aa160405160405180910390a350565b611cdd611cd7611e05565b8561160d565b611d32576040517f08c379a000000000000000000000000000000000000000000000000000000000815260040180806020018281038252602c815260200180613020602c913960400191505060405180910390fd5b611d3e84848484612b41565b50505050565b611d66611d4f611e05565b838360405180602001604052806000815250612b41565b5050565b600080828401905083811015611de8576040517f08c379a000000000000000000000000000000000000000000000000000000000815260040180806020018281038252601b8152602001807f536166654d6174683a206164646974696f6e206f766572666c6f77000000000081525060200191505060405180910390fd5b8091505092915050565b600080823b905060008111915050919050565b600033905090565b600073ffffffffffffffffffffffffffffffffffffffff168373ffffffffffffffffffffffffffffffffffffffff161415611e93576040517f08c379a0000000000000000000000000000000000000000000000000000000008152600401808060200182810382526025815260200180612eb46025913960400191505060405180910390fd5b600073ffffffffffffffffffffffffffffffffffffffff168273ffffffffffffffffffffffffffffffffffffffff161415611f19576040517f08c379a00000000000000000000000000000000000000000000000000000000081526004018080602001828103825260238152602001806130be6023913960400191505060405180910390fd5b80600860008573ffffffffffffffffffffffffffffffffffffffff1673ffffffffffffffffffffffffffffffffffffffff16815260200190815260200160002060008473ffffffffffffffffffffffffffffffffffffffff1673ffffffffffffffffffffffffffffffffffffffff168152602001908152602001600020819055508173ffffffffffffffffffffffffffffffffffffffff168373ffffffffffffffffffffffffffffffffffffffff167f8c5be1e5ebec7d5bd14f71427d1e84f3dd0314c0f7b2291e5b200ac8c7c3b925836040518082815260200191505060405180910390a3505050565b6000731820a4b7618bde71dce8cdc73aab6c95905fad2473ffffffffffffffffffffffffffffffffffffffff1663aabbb8ca877f29ddb589b1fb5fc7cf394961c1adf5f8c6454761adf795e67fe149f658abe89560001b6040518363ffffffff1660e01b8152600401808373ffffffffffffffffffffffffffffffffffffffff1681526020018281526020019250505060206040518083038186803b1580156120ac57600080fd5b505afa1580156120c0573d6000803e3d6000fd5b505050506040513d60208110156120d657600080fd5b81019080805190602001909291905050509050600073ffffffffffffffffffffffffffffffffffffffff168173ffffffffffffffffffffffffffffffffffffffff16146122bd578073ffffffffffffffffffffffffffffffffffffffff166375ab97828888888888886040518763ffffffff1660e01b8152600401808773ffffffffffffffffffffffffffffffffffffffff1681526020018673ffffffffffffffffffffffffffffffffffffffff1681526020018573ffffffffffffffffffffffffffffffffffffffff1681526020018481526020018060200180602001838103835285818151815260200191508051906020019080838360005b838110156121ec5780820151818401526020810190506121d1565b50505050905090810190601f1680156122195780820380516001836020036101000a031916815260200191505b50838103825284818151815260200191508051906020019080838360005b83811015612252578082015181840152602081019050612237565b50505050905090810190601f16801561227f5780820380516001836020036101000a031916815260200191505b5098505050505050505050600060405180830381600087803b1580156122a457600080fd5b505af11580156122b8573d6000803e3d6000fd5b505050505b50505050505050565b6122d286868686612e63565b61233d83604051806060016040528060278152602001612efb602791396000808973ffffffffffffffffffffffffffffffffffffffff1673ffffffffffffffffffffffffffffffffffffffff168152602001908152602001600020546125d59092919063ffffffff16565b6000808773ffffffffffffffffffffffffffffffffffffffff1673ffffffffffffffffffffffffffffffffffffffff168152602001908152602001600020819055506123d0836000808773ffffffffffffffffffffffffffffffffffffffff1673ffffffffffffffffffffffffffffffffffffffff16815260200190815260200160002054611d6a90919063ffffffff16565b6000808673ffffffffffffffffffffffffffffffffffffffff1673ffffffffffffffffffffffffffffffffffffffff168152602001908152602001600020819055508373ffffffffffffffffffffffffffffffffffffffff168573ffffffffffffffffffffffffffffffffffffffff168773ffffffffffffffffffffffffffffffffffffffff167f06b541ddaa720db2b10a4d0cdac39b8d360425fc073085fac19bc82614677987868686604051808481526020018060200180602001838103835285818151815260200191508051906020019080838360005b838110156124c55780820151818401526020810190506124aa565b50505050905090810190601f1680156124f25780820380516001836020036101000a031916815260200191505b50838103825284818151815260200191508051906020019080838360005b8381101561252b578082015181840152602081019050612510565b50505050905090810190601f1680156125585780820380516001836020036101000a031916815260200191505b509550505050505060405180910390a48373ffffffffffffffffffffffffffffffffffffffff168573ffffffffffffffffffffffffffffffffffffffff167fddf252ad1be2c89b69c2b068fc378daa952ba7f163c4a11628f55a4df523b3ef856040518082815260200191505060405180910390a3505050505050565b6000838311158290612682576040517f08c379a00000000000000000000000000000000000000000000000000000000081526004018080602001828103825283818151815260200191508051906020019080838360005b8381101561264757808201518184015260208101905061262c565b50505050905090810190601f1680156126745780820380516001836020036101000a031916815260200191505b509250505060405180910390fd5b5060008385039050809150509392505050565b6000731820a4b7618bde71dce8cdc73aab6c95905fad2473ffffffffffffffffffffffffffffffffffffffff1663aabbb8ca877fb281fc8c12954d22544db45de3159a39272895b169a852b314f9cc762e44c53b60001b6040518363ffffffff1660e01b8152600401808373ffffffffffffffffffffffffffffffffffffffff1681526020018281526020019250505060206040518083038186803b15801561273d57600080fd5b505afa158015612751573d6000803e3d6000fd5b505050506040513d602081101561276757600080fd5b81019080805190602001909291905050509050600073ffffffffffffffffffffffffffffffffffffffff168173ffffffffffffffffffffffffffffffffffffffff1614612951578073ffffffffffffffffffffffffffffffffffffffff166223de298989898989896040518763ffffffff1660e01b8152600401808773ffffffffffffffffffffffffffffffffffffffff1681526020018673ffffffffffffffffffffffffffffffffffffffff1681526020018573ffffffffffffffffffffffffffffffffffffffff1681526020018481526020018060200180602001838103835285818151815260200191508051906020019080838360005b8381101561287c578082015181840152602081019050612861565b50505050905090810190601f1680156128a95780820380516001836020036101000a031916815260200191505b50838103825284818151815260200191508051906020019080838360005b838110156128e25780820151818401526020810190506128c7565b50505050905090810190601f16801561290f5780820380516001836020036101000a031916815260200191505b5098505050505050505050600060405180830381600087803b15801561293457600080fd5b505af1158015612948573d6000803e3d6000fd5b505050506129ce565b81156129cd576129768673ffffffffffffffffffffffffffffffffffffffff16611df2565b156129cc576040517f08c379a000000000000000000000000000000000000000000000000000000000815260040180806020018281038252604d815260200180612faf604d913960600191505060405180910390fd5b5b5b5050505050505050565b600073ffffffffffffffffffffffffffffffffffffffff168673ffffffffffffffffffffffffffffffffffffffff161415612a5e576040517f08c379a0000000000000000000000000000000000000000000000000000000008152600401808060200182810382526022815260200180612ed96022913960400191505060405180910390fd5b600073ffffffffffffffffffffffffffffffffffffffff168573ffffffffffffffffffffffffffffffffffffffff161415612b01576040517f08c379a00000000000000000000000000000000000000000000000000000000081526004018080602001828103825260208152602001807f4552433737373a2073656e6420746f20746865207a65726f206164647265737381525060200191505060405180910390fd5b6000612b0b611e05565b9050612b1b818888888888612004565b612b298188888888886122c6565b612b3881888888888888612695565b50505050505050565b600073ffffffffffffffffffffffffffffffffffffffff168473ffffffffffffffffffffffffffffffffffffffff161415612bc7576040517f08c379a0000000000000000000000000000000000000000000000000000000008152600401808060200182810382526022815260200180612f486022913960400191505060405180910390fd5b6000612bd1611e05565b9050612be08186600087612e63565b612bef81866000878787612004565b612c5a8460405180606001604052806023815260200161309b602391396000808973ffffffffffffffffffffffffffffffffffffffff1673ffffffffffffffffffffffffffffffffffffffff168152602001908152602001600020546125d59092919063ffffffff16565b6000808773ffffffffffffffffffffffffffffffffffffffff1673ffffffffffffffffffffffffffffffffffffffff16815260200190815260200160002081905550612cb184600154612e6990919063ffffffff16565b6001819055508473ffffffffffffffffffffffffffffffffffffffff168173ffffffffffffffffffffffffffffffffffffffff167fa78a9be3a7b862d26933ad85fb11d80ef66b8f972d7cbba06621d583943a4098868686604051808481526020018060200180602001838103835285818151815260200191508051906020019080838360005b83811015612d53578082015181840152602081019050612d38565b50505050905090810190601f168015612d805780820380516001836020036101000a031916815260200191505b50838103825284818151815260200191508051906020019080838360005b83811015612db9578082015181840152602081019050612d9e565b50505050905090810190601f168015612de65780820380516001836020036101000a031916815260200191505b509550505050505060405180910390a3600073ffffffffffffffffffffffffffffffffffffffff168573ffffffffffffffffffffffffffffffffffffffff167fddf252ad1be2c89b69c2b068fc378daa952ba7f163c4a11628f55a4df523b3ef866040518082815260200191505060405180910390a35050505050565b50505050565b6000612eab83836040518060400160405280601e81526020017f536166654d6174683a207375627472616374696f6e206f766572666c6f7700008152506125d5565b90509291505056fe4552433737373a20617070726f76652066726f6d20746865207a65726f20616464726573734552433737373a2073656e642066726f6d20746865207a65726f20616464726573734552433737373a207472616e7366657220616d6f756e7420657863656564732062616c616e63654f776e61626c653a206e6577206f776e657220697320746865207a65726f20616464726573734552433737373a206275726e2066726f6d20746865207a65726f20616464726573734552433737373a20617574686f72697a696e672073656c66206173206f70657261746f724552433737373a207265766f6b696e672073656c66206173206f70657261746f724552433737373a20746f6b656e20726563697069656e7420636f6e747261637420686173206e6f20696d706c656d656e74657220666f7220455243373737546f6b656e73526563697069656e744552433737373a207472616e7366657220746f20746865207a65726f20616464726573734552433737373a2063616c6c6572206973206e6f7420616e206f70657261746f7220666f7220686f6c6465724552433737373a207472616e7366657220616d6f756e74206578636565647320616c6c6f77616e63654552433737373a207472616e736665722066726f6d20746865207a65726f20616464726573734552433737373a206275726e20616d6f756e7420657863656564732062616c616e63654552433737373a20617070726f766520746f20746865207a65726f2061646472657373a2646970667358221220aaa65801522714327aafce1be25e9f40aadf0738745008f170d51831aee9e54664736f6c634300060c00334552433737373a20746f6b656e20726563697069656e7420636f6e747261637420686173206e6f20696d706c656d656e74657220666f7220455243373737546f6b656e73526563697069656e74",
  "immutableReferences": {},
  "source": "// SPDX-License-Identifier: MIT\r\n\r\npragma solidity 0.6.12;\r\n\r\nimport \"@openzeppelin/contracts/token/ERC777/ERC777.sol\";\r\nimport \"@openzeppelin/contracts/access/Ownable.sol\";\r\n\r\ncontract Token is ERC777, Ownable\r\n{\r\n  constructor(uint256 initialSupply, address[] memory defaultOperators)\r\n    public\r\n    ERC777(\"Unstopable Information\", \"UFO\", defaultOperators)\r\n  {\r\n    _mint(msg.sender, initialSupply * 10 ** 18, \"\", \"\");\r\n  }\r\n}",
  "sourcePath": "C:/Users/Daniel/Projects/Surveys_V2/contracts/Token.sol",
  "compiler": {
    "name": "solc",
    "version": "0.6.12+commit.27d51765.Emscripten.clang"
  },
  "schemaVersion": "3.2.5",
  "updatedAt": "2020-10-15T22:37:13.397Z",
  "networkType": "ethereum",
  "devdoc": {
    "kind": "dev",
    "methods": {
      "allowance(address,address)": {
        "details": "See {IERC20-allowance}. Note that operator and allowance concepts are orthogonal: operators may not have allowance, and accounts with allowance may not be operators themselves."
      },
      "approve(address,uint256)": {
        "details": "See {IERC20-approve}. Note that accounts cannot have allowance issued by their operators."
      },
      "authorizeOperator(address)": {
        "details": "See {IERC777-authorizeOperator}."
      },
      "balanceOf(address)": {
        "details": "Returns the amount of tokens owned by an account (`tokenHolder`)."
      },
      "burn(uint256,bytes)": {
        "details": "See {IERC777-burn}. Also emits a {IERC20-Transfer} event for ERC20 compatibility."
      },
      "decimals()": {
        "details": "See {ERC20-decimals}. Always returns 18, as per the [ERC777 EIP](https://eips.ethereum.org/EIPS/eip-777#backward-compatibility)."
      },
      "defaultOperators()": {
        "details": "See {IERC777-defaultOperators}."
      },
      "granularity()": {
        "details": "See {IERC777-granularity}. This implementation always returns `1`."
      },
      "isOperatorFor(address,address)": {
        "details": "See {IERC777-isOperatorFor}."
      },
      "name()": {
        "details": "See {IERC777-name}."
      },
      "operatorBurn(address,uint256,bytes,bytes)": {
        "details": "See {IERC777-operatorBurn}. Emits {Burned} and {IERC20-Transfer} events."
      },
      "operatorSend(address,address,uint256,bytes,bytes)": {
        "details": "See {IERC777-operatorSend}. Emits {Sent} and {IERC20-Transfer} events."
      },
      "owner()": {
        "details": "Returns the address of the current owner."
      },
      "renounceOwnership()": {
        "details": "Leaves the contract without owner. It will not be possible to call `onlyOwner` functions anymore. Can only be called by the current owner. NOTE: Renouncing ownership will leave the contract without an owner, thereby removing any functionality that is only available to the owner."
      },
      "revokeOperator(address)": {
        "details": "See {IERC777-revokeOperator}."
      },
      "send(address,uint256,bytes)": {
        "details": "See {IERC777-send}. Also emits a {IERC20-Transfer} event for ERC20 compatibility."
      },
      "symbol()": {
        "details": "See {IERC777-symbol}."
      },
      "totalSupply()": {
        "details": "See {IERC777-totalSupply}."
      },
      "transfer(address,uint256)": {
        "details": "See {IERC20-transfer}. Unlike `send`, `recipient` is _not_ required to implement the {IERC777Recipient} interface if it is a contract. Also emits a {Sent} event."
      },
      "transferFrom(address,address,uint256)": {
        "details": "See {IERC20-transferFrom}. Note that operator and allowance concepts are orthogonal: operators cannot call `transferFrom` (unless they have allowance), and accounts with allowance cannot call `operatorSend` (unless they are operators). Emits {Sent}, {IERC20-Transfer} and {IERC20-Approval} events."
      },
      "transferOwnership(address)": {
        "details": "Transfers ownership of the contract to a new account (`newOwner`). Can only be called by the current owner."
      }
    },
    "version": 1
  },
  "userdoc": {
    "kind": "user",
    "methods": {},
    "version": 1
  }
}